{
  "contractName": "Rahat",
  "abi": [
    {
      "inputs": [
        {
          "internalType": "contract RahatERC20",
          "name": "_erc20",
          "type": "address"
        },
        {
          "internalType": "contract RahatERC1155",
          "name": "_erc1155",
          "type": "address"
        },
        {
          "internalType": "address",
          "name": "_admin",
          "type": "address"
        }
      ],
      "stateMutability": "nonpayable",
      "type": "constructor"
    },
    {
      "anonymous": false,
      "inputs": [
        {
          "indexed": true,
          "internalType": "address",
          "name": "vendor",
          "type": "address"
        },
        {
          "indexed": true,
          "internalType": "uint256",
          "name": "beneficiary",
          "type": "uint256"
        },
        {
          "indexed": false,
          "internalType": "uint256",
          "name": "amount",
          "type": "uint256"
        }
      ],
      "name": "ClaimAcquired",
      "type": "event"
    },
    {
      "anonymous": false,
      "inputs": [
        {
          "indexed": true,
          "internalType": "uint256",
          "name": "tokenId",
          "type": "uint256"
        },
        {
          "indexed": true,
          "internalType": "address",
          "name": "vendor",
          "type": "address"
        },
        {
          "indexed": true,
          "internalType": "uint256",
          "name": "beneficiary",
          "type": "uint256"
        },
        {
          "indexed": false,
          "internalType": "uint256",
          "name": "amount",
          "type": "uint256"
        }
      ],
      "name": "ClaimAcquired",
      "type": "event"
    },
    {
      "anonymous": false,
      "inputs": [
        {
          "indexed": true,
          "internalType": "address",
          "name": "vendor",
          "type": "address"
        },
        {
          "indexed": true,
          "internalType": "uint256",
          "name": "phone",
          "type": "uint256"
        },
        {
          "indexed": false,
          "internalType": "uint256",
          "name": "amount",
          "type": "uint256"
        }
      ],
      "name": "ClaimApproved",
      "type": "event"
    },
    {
      "anonymous": false,
      "inputs": [
        {
          "indexed": true,
          "internalType": "address",
          "name": "vendor",
          "type": "address"
        },
        {
          "indexed": true,
          "internalType": "uint256",
          "name": "phone",
          "type": "uint256"
        },
        {
          "indexed": false,
          "internalType": "uint256",
          "name": "amount",
          "type": "uint256"
        }
      ],
      "name": "Claimed",
      "type": "event"
    },
    {
      "anonymous": false,
      "inputs": [
        {
          "indexed": false,
          "internalType": "bytes",
          "name": "signature",
          "type": "bytes"
        },
        {
          "indexed": false,
          "internalType": "bytes32",
          "name": "digest",
          "type": "bytes32"
        },
        {
          "indexed": false,
          "internalType": "address",
          "name": "expectedSigner",
          "type": "address"
        },
        {
          "indexed": false,
          "internalType": "address",
          "name": "recoveredSigner",
          "type": "address"
        }
      ],
      "name": "InvalidSignature",
      "type": "event"
    },
    {
      "anonymous": false,
      "inputs": [
        {
          "indexed": true,
          "internalType": "bytes32",
          "name": "projectId",
          "type": "bytes32"
        },
        {
          "indexed": true,
          "internalType": "uint256",
          "name": "phone",
          "type": "uint256"
        },
        {
          "indexed": false,
          "internalType": "uint256",
          "name": "amount",
          "type": "uint256"
        }
      ],
      "name": "Issued",
      "type": "event"
    },
    {
      "anonymous": false,
      "inputs": [
        {
          "indexed": true,
          "internalType": "bytes32",
          "name": "role",
          "type": "bytes32"
        },
        {
          "indexed": true,
          "internalType": "bytes32",
          "name": "previousAdminRole",
          "type": "bytes32"
        },
        {
          "indexed": true,
          "internalType": "bytes32",
          "name": "newAdminRole",
          "type": "bytes32"
        }
      ],
      "name": "RoleAdminChanged",
      "type": "event"
    },
    {
      "anonymous": false,
      "inputs": [
        {
          "indexed": true,
          "internalType": "bytes32",
          "name": "role",
          "type": "bytes32"
        },
        {
          "indexed": true,
          "internalType": "address",
          "name": "account",
          "type": "address"
        },
        {
          "indexed": true,
          "internalType": "address",
          "name": "sender",
          "type": "address"
        }
      ],
      "name": "RoleGranted",
      "type": "event"
    },
    {
      "anonymous": false,
      "inputs": [
        {
          "indexed": true,
          "internalType": "bytes32",
          "name": "role",
          "type": "bytes32"
        },
        {
          "indexed": true,
          "internalType": "address",
          "name": "account",
          "type": "address"
        },
        {
          "indexed": true,
          "internalType": "address",
          "name": "sender",
          "type": "address"
        }
      ],
      "name": "RoleRevoked",
      "type": "event"
    },
    {
      "inputs": [],
      "name": "CREATE_CLAIM",
      "outputs": [
        {
          "internalType": "bytes32",
          "name": "",
          "type": "bytes32"
        }
      ],
      "stateMutability": "view",
      "type": "function"
    },
    {
      "inputs": [],
      "name": "DEFAULT_ADMIN_ROLE",
      "outputs": [
        {
          "internalType": "bytes32",
          "name": "",
          "type": "bytes32"
        }
      ],
      "stateMutability": "view",
      "type": "function"
    },
    {
      "inputs": [],
      "name": "GET_TOKENS_FROM_CLAIM",
      "outputs": [
        {
          "internalType": "bytes32",
          "name": "",
          "type": "bytes32"
        }
      ],
      "stateMutability": "view",
      "type": "function"
    },
    {
      "inputs": [],
      "name": "ISSUE_TOKEN",
      "outputs": [
        {
          "internalType": "bytes32",
          "name": "",
          "type": "bytes32"
        }
      ],
      "stateMutability": "view",
      "type": "function"
    },
    {
      "inputs": [],
      "name": "MANAGER_ROLE",
      "outputs": [
        {
          "internalType": "bytes32",
          "name": "",
          "type": "bytes32"
        }
      ],
      "stateMutability": "view",
      "type": "function"
    },
    {
      "inputs": [],
      "name": "MOBILIZER_ROLE",
      "outputs": [
        {
          "internalType": "bytes32",
          "name": "",
          "type": "bytes32"
        }
      ],
      "stateMutability": "view",
      "type": "function"
    },
    {
      "inputs": [],
      "name": "SERVER_ROLE",
      "outputs": [
        {
          "internalType": "bytes32",
          "name": "",
          "type": "bytes32"
        }
      ],
      "stateMutability": "view",
      "type": "function"
    },
    {
      "inputs": [],
      "name": "VENDOR_ROLE",
      "outputs": [
        {
          "internalType": "bytes32",
          "name": "",
          "type": "bytes32"
        }
      ],
      "stateMutability": "view",
      "type": "function"
    },
    {
      "inputs": [],
      "name": "erc1155",
      "outputs": [
        {
          "internalType": "contract RahatERC1155",
          "name": "",
          "type": "address"
        }
      ],
      "stateMutability": "view",
      "type": "function"
    },
    {
      "inputs": [
        {
          "internalType": "uint256",
          "name": "",
          "type": "uint256"
        },
        {
          "internalType": "uint256",
          "name": "",
          "type": "uint256"
        }
      ],
      "name": "erc1155Balance",
      "outputs": [
        {
          "internalType": "uint256",
          "name": "",
          "type": "uint256"
        }
      ],
      "stateMutability": "view",
      "type": "function"
    },
    {
      "inputs": [],
      "name": "erc20",
      "outputs": [
        {
          "internalType": "contract RahatERC20",
          "name": "",
          "type": "address"
        }
      ],
      "stateMutability": "view",
      "type": "function"
    },
    {
      "inputs": [
        {
          "internalType": "uint256",
          "name": "",
          "type": "uint256"
        }
      ],
      "name": "erc20Balance",
      "outputs": [
        {
          "internalType": "uint256",
          "name": "",
          "type": "uint256"
        }
      ],
      "stateMutability": "view",
      "type": "function"
    },
    {
      "inputs": [
        {
          "internalType": "bytes32",
          "name": "role",
          "type": "bytes32"
        }
      ],
      "name": "getRoleAdmin",
      "outputs": [
        {
          "internalType": "bytes32",
          "name": "",
          "type": "bytes32"
        }
      ],
      "stateMutability": "view",
      "type": "function"
    },
    {
      "inputs": [
        {
          "internalType": "bytes32",
          "name": "role",
          "type": "bytes32"
        },
        {
          "internalType": "address",
          "name": "account",
          "type": "address"
        }
      ],
      "name": "grantRole",
      "outputs": [],
      "stateMutability": "nonpayable",
      "type": "function"
    },
    {
      "inputs": [
        {
          "internalType": "bytes32",
          "name": "role",
          "type": "bytes32"
        },
        {
          "internalType": "address",
          "name": "account",
          "type": "address"
        }
      ],
      "name": "hasRole",
      "outputs": [
        {
          "internalType": "bool",
          "name": "",
          "type": "bool"
        }
      ],
      "stateMutability": "view",
      "type": "function"
    },
    {
      "inputs": [
        {
          "internalType": "address",
          "name": "",
          "type": "address"
        }
      ],
      "name": "nonces",
      "outputs": [
        {
          "internalType": "uint256",
          "name": "",
          "type": "uint256"
        }
      ],
      "stateMutability": "view",
      "type": "function"
    },
    {
      "inputs": [
        {
          "internalType": "address",
          "name": "",
          "type": "address"
        },
        {
          "internalType": "address",
          "name": "",
          "type": "address"
        },
        {
          "internalType": "uint256[]",
          "name": "",
          "type": "uint256[]"
        },
        {
          "internalType": "uint256[]",
          "name": "",
          "type": "uint256[]"
        },
        {
          "internalType": "bytes",
          "name": "",
          "type": "bytes"
        }
      ],
      "name": "onERC1155BatchReceived",
      "outputs": [
        {
          "internalType": "bytes4",
          "name": "",
          "type": "bytes4"
        }
      ],
      "stateMutability": "nonpayable",
      "type": "function"
    },
    {
      "inputs": [
        {
          "internalType": "address",
          "name": "",
          "type": "address"
        },
        {
          "internalType": "address",
          "name": "",
          "type": "address"
        },
        {
          "internalType": "uint256",
          "name": "",
          "type": "uint256"
        },
        {
          "internalType": "uint256",
          "name": "",
          "type": "uint256"
        },
        {
          "internalType": "bytes",
          "name": "",
          "type": "bytes"
        }
      ],
      "name": "onERC1155Received",
      "outputs": [
        {
          "internalType": "bytes4",
          "name": "",
          "type": "bytes4"
        }
      ],
      "stateMutability": "nonpayable",
      "type": "function"
    },
    {
      "inputs": [
        {
          "internalType": "address",
          "name": "",
          "type": "address"
        },
        {
          "internalType": "bytes32",
          "name": "",
          "type": "bytes32"
        },
        {
          "internalType": "uint256",
          "name": "",
          "type": "uint256"
        }
      ],
      "name": "recentERC1155Claims",
      "outputs": [
        {
          "internalType": "uint256",
          "name": "amount",
          "type": "uint256"
        },
        {
          "internalType": "bytes32",
          "name": "otpHash",
          "type": "bytes32"
        },
        {
          "internalType": "bool",
          "name": "isReleased",
          "type": "bool"
        },
        {
          "internalType": "uint256",
          "name": "date",
          "type": "uint256"
        }
      ],
      "stateMutability": "view",
      "type": "function"
    },
    {
      "inputs": [
        {
          "internalType": "address",
          "name": "",
          "type": "address"
        },
        {
          "internalType": "bytes32",
          "name": "",
          "type": "bytes32"
        }
      ],
      "name": "recentERC20Claims",
      "outputs": [
        {
          "internalType": "uint256",
          "name": "amount",
          "type": "uint256"
        },
        {
          "internalType": "bytes32",
          "name": "otpHash",
          "type": "bytes32"
        },
        {
          "internalType": "bool",
          "name": "isReleased",
          "type": "bool"
        },
        {
          "internalType": "uint256",
          "name": "date",
          "type": "uint256"
        }
      ],
      "stateMutability": "view",
      "type": "function"
    },
    {
      "inputs": [
        {
          "internalType": "bytes32",
          "name": "role",
          "type": "bytes32"
        },
        {
          "internalType": "address",
          "name": "account",
          "type": "address"
        }
      ],
      "name": "renounceRole",
      "outputs": [],
      "stateMutability": "nonpayable",
      "type": "function"
    },
    {
      "inputs": [
        {
          "internalType": "bytes32",
          "name": "role",
          "type": "bytes32"
        },
        {
          "internalType": "address",
          "name": "account",
          "type": "address"
        }
      ],
      "name": "revokeRole",
      "outputs": [],
      "stateMutability": "nonpayable",
      "type": "function"
    },
    {
      "inputs": [
        {
          "internalType": "bytes4",
          "name": "interfaceId",
          "type": "bytes4"
        }
      ],
      "name": "supportsInterface",
      "outputs": [
        {
          "internalType": "bool",
          "name": "",
          "type": "bool"
        }
      ],
      "stateMutability": "view",
      "type": "function"
    },
    {
      "inputs": [
        {
          "internalType": "address",
          "name": "_account",
          "type": "address"
        }
      ],
      "name": "addAdmin",
      "outputs": [],
      "stateMutability": "nonpayable",
      "type": "function"
    },
    {
      "inputs": [
        {
          "internalType": "address",
          "name": "_account",
          "type": "address"
        }
      ],
      "name": "addServer",
      "outputs": [],
      "stateMutability": "nonpayable",
      "type": "function"
    },
    {
      "inputs": [
        {
          "internalType": "address",
          "name": "_account",
          "type": "address"
        }
      ],
      "name": "addVendor",
      "outputs": [],
      "stateMutability": "nonpayable",
      "type": "function"
    },
    {
      "inputs": [
        {
          "internalType": "address",
          "name": "_account",
          "type": "address"
        },
        {
          "internalType": "bytes32",
          "name": "_projectId",
          "type": "bytes32"
        }
      ],
      "name": "addMobilizer",
      "outputs": [],
      "stateMutability": "nonpayable",
      "type": "function"
    },
    {
      "inputs": [],
      "name": "suspendMobilizer",
      "outputs": [],
      "stateMutability": "nonpayable",
      "type": "function"
    },
    {
      "inputs": [],
      "name": "suspendVendor",
      "outputs": [],
      "stateMutability": "nonpayable",
      "type": "function"
    },
    {
      "inputs": [
        {
          "internalType": "uint256",
          "name": "_phone",
          "type": "uint256"
        },
        {
          "internalType": "bytes32",
          "name": "_projectId",
          "type": "bytes32"
        }
      ],
      "name": "suspendBeneficiary",
      "outputs": [],
      "stateMutability": "nonpayable",
      "type": "function"
    },
    {
      "inputs": [
        {
          "internalType": "uint256",
          "name": "_phone",
          "type": "uint256"
        },
        {
          "internalType": "uint256",
          "name": "_amount",
          "type": "uint256"
        },
        {
          "internalType": "uint256",
          "name": "_tokenId",
          "type": "uint256"
        }
      ],
      "name": "adjustTokenAdd",
      "outputs": [],
      "stateMutability": "nonpayable",
      "type": "function"
    },
    {
      "inputs": [
        {
          "internalType": "uint256",
          "name": "_phone",
          "type": "uint256"
        },
        {
          "internalType": "uint256",
          "name": "_amount",
          "type": "uint256"
        }
      ],
      "name": "adjustTokenAdd",
      "outputs": [],
      "stateMutability": "nonpayable",
      "type": "function"
    },
    {
      "inputs": [
        {
          "internalType": "uint256",
          "name": "_phone",
          "type": "uint256"
        },
        {
          "internalType": "uint256",
          "name": "_amount",
          "type": "uint256"
        },
        {
          "internalType": "uint256",
          "name": "_tokenId",
          "type": "uint256"
        }
      ],
      "name": "adjustTokenDeduct",
      "outputs": [],
      "stateMutability": "nonpayable",
      "type": "function"
    },
    {
      "inputs": [
        {
          "internalType": "uint256",
          "name": "_phone",
          "type": "uint256"
        },
        {
          "internalType": "uint256",
          "name": "_amount",
          "type": "uint256"
        }
      ],
      "name": "adjustTokenDeduct",
      "outputs": [],
      "stateMutability": "nonpayable",
      "type": "function"
    },
    {
      "inputs": [
        {
          "internalType": "bytes32",
          "name": "_projectId",
          "type": "bytes32"
        },
        {
          "internalType": "uint256",
          "name": "_projectCapital",
          "type": "uint256"
        }
      ],
      "name": "addProject",
      "outputs": [],
      "stateMutability": "nonpayable",
      "type": "function"
    },
    {
      "inputs": [
        {
          "internalType": "bytes32",
          "name": "_projectId",
          "type": "bytes32"
        },
        {
          "internalType": "uint256",
          "name": "_projectCapital",
          "type": "uint256"
        },
        {
          "internalType": "uint256",
          "name": "tokenId",
          "type": "uint256"
        }
      ],
      "name": "updateProjectBudget",
      "outputs": [],
      "stateMutability": "nonpayable",
      "type": "function"
    },
    {
      "inputs": [
        {
          "internalType": "bytes32",
          "name": "_projectId",
          "type": "bytes32"
        },
        {
          "internalType": "uint256",
          "name": "_projectCapital",
          "type": "uint256"
        }
      ],
      "name": "updateProjectBudget",
      "outputs": [],
      "stateMutability": "nonpayable",
      "type": "function"
    },
    {
      "inputs": [
        {
          "internalType": "bytes32",
          "name": "_projectId",
          "type": "bytes32"
        },
        {
          "internalType": "uint256",
          "name": "tokenId",
          "type": "uint256"
        }
      ],
      "name": "getProjectBalance",
      "outputs": [
        {
          "internalType": "uint256",
          "name": "_balance",
          "type": "uint256"
        }
      ],
      "stateMutability": "view",
      "type": "function"
    },
    {
      "inputs": [
        {
          "internalType": "bytes32",
          "name": "_projectId",
          "type": "bytes32"
        }
      ],
      "name": "getProjectBalance",
      "outputs": [
        {
          "internalType": "uint256",
          "name": "_balance",
          "type": "uint256"
        }
      ],
      "stateMutability": "view",
      "type": "function"
    },
    {
      "inputs": [
        {
          "internalType": "string",
          "name": "_projectId",
          "type": "string"
        },
        {
          "internalType": "uint256",
          "name": "_phone",
          "type": "uint256"
        },
        {
          "internalType": "uint256",
          "name": "_amount",
          "type": "uint256"
        }
      ],
      "name": "issueERC20ToBeneficiary",
      "outputs": [],
      "stateMutability": "nonpayable",
      "type": "function"
    },
    {
      "inputs": [
        {
          "internalType": "string",
          "name": "_projectId",
          "type": "string"
        },
        {
          "internalType": "uint256",
          "name": "_phone",
          "type": "uint256"
        },
        {
          "internalType": "uint256",
          "name": "_amount",
          "type": "uint256"
        },
        {
          "internalType": "uint256",
          "name": "_tokenId",
          "type": "uint256"
        }
      ],
      "name": "issueERC1155ToBeneficiary",
      "outputs": [],
      "stateMutability": "nonpayable",
      "type": "function"
    },
    {
      "inputs": [
        {
          "internalType": "address",
          "name": "_signer",
          "type": "address"
        },
        {
          "internalType": "bytes",
          "name": "_signature",
          "type": "bytes"
        },
        {
          "internalType": "string",
          "name": "_projectId",
          "type": "string"
        },
        {
          "internalType": "uint256",
          "name": "_phone",
          "type": "uint256"
        },
        {
          "internalType": "uint256",
          "name": "_amount",
          "type": "uint256"
        }
      ],
      "name": "delegate_issueERC20ToBeneficiary",
      "outputs": [],
      "stateMutability": "nonpayable",
      "type": "function"
    },
    {
      "inputs": [
        {
          "internalType": "address",
          "name": "_signer",
          "type": "address"
        },
        {
          "internalType": "bytes",
          "name": "_signature",
          "type": "bytes"
        },
        {
          "internalType": "string",
          "name": "_projectId",
          "type": "string"
        },
        {
          "internalType": "uint256",
          "name": "_phone",
          "type": "uint256"
        },
        {
          "internalType": "uint256",
          "name": "_amount",
          "type": "uint256"
        },
        {
          "internalType": "uint256",
          "name": "_tokenId",
          "type": "uint256"
        }
      ],
      "name": "delegate_issueERC1155ToBeneficiary",
      "outputs": [],
      "stateMutability": "nonpayable",
      "type": "function"
    },
    {
      "inputs": [
        {
          "internalType": "string",
          "name": "_projectId",
          "type": "string"
        },
        {
          "internalType": "uint256[]",
          "name": "_phone",
          "type": "uint256[]"
        },
        {
          "internalType": "uint256[]",
          "name": "_amount",
          "type": "uint256[]"
        }
      ],
      "name": "issueBulkToken",
      "outputs": [],
      "stateMutability": "nonpayable",
      "type": "function"
    },
    {
      "inputs": [
        {
          "internalType": "uint256",
          "name": "_phone",
          "type": "uint256"
        },
        {
          "internalType": "uint256",
          "name": "_tokens",
          "type": "uint256"
        }
      ],
      "name": "createERC20Claim",
      "outputs": [],
      "stateMutability": "nonpayable",
      "type": "function"
    },
    {
      "inputs": [
        {
          "internalType": "uint256",
          "name": "_phone",
          "type": "uint256"
        },
        {
          "internalType": "uint256",
          "name": "_amount",
          "type": "uint256"
        },
        {
          "internalType": "uint256",
          "name": "_tokenId",
          "type": "uint256"
        }
      ],
      "name": "createERC1155Claim",
      "outputs": [],
      "stateMutability": "nonpayable",
      "type": "function"
    },
    {
      "inputs": [
        {
          "internalType": "address",
          "name": "_signer",
          "type": "address"
        },
        {
          "internalType": "bytes",
          "name": "_signature",
          "type": "bytes"
        },
        {
          "internalType": "uint256",
          "name": "_phone",
          "type": "uint256"
        },
        {
          "internalType": "uint256",
          "name": "_amount",
          "type": "uint256"
        }
      ],
      "name": "delegate_createERC20Claim",
      "outputs": [],
      "stateMutability": "nonpayable",
      "type": "function"
    },
    {
      "inputs": [
        {
          "internalType": "address",
          "name": "_signer",
          "type": "address"
        },
        {
          "internalType": "bytes",
          "name": "_signature",
          "type": "bytes"
        },
        {
          "internalType": "uint256",
          "name": "_phone",
          "type": "uint256"
        },
        {
          "internalType": "uint256",
          "name": "_amount",
          "type": "uint256"
        },
        {
          "internalType": "uint256",
          "name": "_tokenId",
          "type": "uint256"
        }
      ],
      "name": "delegate_createERC1155Claim",
      "outputs": [],
      "stateMutability": "nonpayable",
      "type": "function"
    },
    {
      "inputs": [
        {
          "internalType": "address",
          "name": "_vendor",
          "type": "address"
        },
        {
          "internalType": "uint256",
          "name": "_phone",
          "type": "uint256"
        },
        {
          "internalType": "bytes32",
          "name": "_otpHash",
          "type": "bytes32"
        },
        {
          "internalType": "uint256",
          "name": "_timeToLive",
          "type": "uint256"
        }
      ],
      "name": "approveERC20Claim",
      "outputs": [],
      "stateMutability": "nonpayable",
      "type": "function"
    },
    {
      "inputs": [
        {
          "internalType": "address",
          "name": "_vendor",
          "type": "address"
        },
        {
          "internalType": "uint256",
          "name": "_phone",
          "type": "uint256"
        },
        {
          "internalType": "bytes32",
          "name": "_otpHash",
          "type": "bytes32"
        },
        {
          "internalType": "uint256",
          "name": "_timeToLive",
          "type": "uint256"
        },
        {
          "internalType": "uint256",
          "name": "_tokenId",
          "type": "uint256"
        }
      ],
      "name": "approveERC1155Claim",
      "outputs": [],
      "stateMutability": "nonpayable",
      "type": "function"
    },
    {
      "inputs": [
        {
          "internalType": "uint256",
          "name": "_phone",
          "type": "uint256"
        },
        {
          "internalType": "string",
          "name": "_otp",
          "type": "string"
        }
      ],
      "name": "getERC20FromClaim",
      "outputs": [],
      "stateMutability": "nonpayable",
      "type": "function"
    },
    {
      "inputs": [
        {
          "internalType": "uint256",
          "name": "_phone",
          "type": "uint256"
        },
        {
          "internalType": "string",
          "name": "_otp",
          "type": "string"
        },
        {
          "internalType": "uint256",
          "name": "_tokenId",
          "type": "uint256"
        }
      ],
      "name": "getERC1155FromClaim",
      "outputs": [],
      "stateMutability": "nonpayable",
      "type": "function"
    },
    {
      "inputs": [
        {
          "internalType": "address",
          "name": "_signer",
          "type": "address"
        },
        {
          "internalType": "bytes",
          "name": "_signature",
          "type": "bytes"
        },
        {
          "internalType": "uint256",
          "name": "_phone",
          "type": "uint256"
        },
        {
          "internalType": "string",
          "name": "_otp",
          "type": "string"
        }
      ],
      "name": "delegate_getERC20FromClaim",
      "outputs": [],
      "stateMutability": "nonpayable",
      "type": "function"
    },
    {
      "inputs": [
        {
          "internalType": "address",
          "name": "_signer",
          "type": "address"
        },
        {
          "internalType": "bytes",
          "name": "_signature",
          "type": "bytes"
        },
        {
          "internalType": "uint256",
          "name": "_phone",
          "type": "uint256"
        },
        {
          "internalType": "string",
          "name": "_otp",
          "type": "string"
        },
        {
          "internalType": "uint256",
          "name": "_tokenId",
          "type": "uint256"
        }
      ],
      "name": "delegate_getTokensFromClaim",
      "outputs": [],
      "stateMutability": "nonpayable",
      "type": "function"
    },
    {
      "inputs": [
        {
          "internalType": "uint256",
          "name": "_data",
          "type": "uint256"
        }
      ],
      "name": "findHash",
      "outputs": [
        {
          "internalType": "bytes32",
          "name": "",
          "type": "bytes32"
        }
      ],
      "stateMutability": "pure",
      "type": "function"
    },
    {
      "inputs": [
        {
          "internalType": "string",
          "name": "_data",
          "type": "string"
        }
      ],
      "name": "findHash",
      "outputs": [
        {
          "internalType": "bytes32",
          "name": "",
          "type": "bytes32"
        }
      ],
      "stateMutability": "pure",
      "type": "function"
    },
    {
      "inputs": [
        {
          "internalType": "uint256[]",
          "name": "_array",
          "type": "uint256[]"
        }
      ],
      "name": "getArraySum",
      "outputs": [
        {
          "internalType": "uint256",
          "name": "sum",
          "type": "uint256"
        }
      ],
      "stateMutability": "pure",
      "type": "function"
    }
  ],
  "bytecode": "0x60806040523480156200001157600080fd5b50604051620045db380380620045db833981016040819052620000349162000473565b62000041600032620000e5565b6200004e600082620000e5565b6200006a600080516020620045bb8339815191526000620000f5565b620000977f0aaf57387812c7f832412470a57567b5648a930069be49aa9c98d04f88520d346000620000f5565b620000b2600080516020620045bb8339815191523362000140565b50600280546001600160a01b039384166001600160a01b031991821617909155600380549290931691161790556200065a565b620000f182826200016f565b5050565b600082815260208190526040808220600101805490849055905190918391839186917fbd79b86ffe0ab8e8776151514217cd7cacd52c909f66475c3af44e129f0b00ff9190a4505050565b6000828152602081905260409020600101546200015e81336200020f565b6200016a83836200016f565b505050565b6000828152602081815260408083206001600160a01b038516845290915290205460ff16620000f1576000828152602081815260408083206001600160a01b03851684529091529020805460ff19166001179055620001cb3390565b6001600160a01b0316816001600160a01b0316837f2f8788117e7eff1d82e926ec794901d17c78024a50270940304540a733656f0d60405160405180910390a45050565b6000828152602081815260408083206001600160a01b038516845290915290205460ff16620000f15762000259816001600160a01b03166014620002b360201b620025791760201c565b6200026f83602062002579620002b3821b17811c565b60405160200162000282929190620004c7565b60408051601f198184030181529082905262461bcd60e51b8252620002aa9160040162000540565b60405180910390fd5b60606000620002c483600262000590565b620002d190600262000575565b6001600160401b03811115620002eb57620002eb6200062b565b6040519080825280601f01601f19166020018201604052801562000316576020820181803683370190505b509050600360fc1b8160008151811062000334576200033462000615565b60200101906001600160f81b031916908160001a905350600f60fb1b8160018151811062000366576200036662000615565b60200101906001600160f81b031916908160001a90535060006200038c84600262000590565b6200039990600162000575565b90505b60018111156200041b576f181899199a1a9b1b9c1cb0b131b232b360811b85600f1660108110620003d157620003d162000615565b1a60f81b828281518110620003ea57620003ea62000615565b60200101906001600160f81b031916908160001a90535060049490941c936200041381620005e5565b90506200039c565b5083156200046c5760405162461bcd60e51b815260206004820181905260248201527f537472696e67733a20686578206c656e67746820696e73756666696369656e746044820152606401620002aa565b9392505050565b6000806000606084860312156200048957600080fd5b8351620004968162000641565b6020850151909350620004a98162000641565b6040850151909250620004bc8162000641565b809150509250925092565b7f416363657373436f6e74726f6c3a206163636f756e742000000000000000000081526000835162000501816017850160208801620005b2565b7001034b99036b4b9b9b4b733903937b6329607d1b601791840191820152835162000534816028840160208801620005b2565b01602801949350505050565b602081526000825180602084015262000561816040850160208701620005b2565b601f01601f19169190910160400192915050565b600082198211156200058b576200058b620005ff565b500190565b6000816000190483118215151615620005ad57620005ad620005ff565b500290565b60005b83811015620005cf578181015183820152602001620005b5565b83811115620005df576000848401525b50505050565b600081620005f757620005f7620005ff565b506000190190565b634e487b7160e01b600052601160045260246000fd5b634e487b7160e01b600052603260045260246000fd5b634e487b7160e01b600052604160045260246000fd5b6001600160a01b03811681146200065757600080fd5b50565b613f51806200066a6000396000f3fe608060405234801561001057600080fd5b50600436106103835760003560e01c8063747bb537116101de578063bf6b867b1161010f578063d56022d7116100ad578063f23a6e611161007c578063f23a6e611461090a578063f708ccab146103b0578063f94afcea14610929578063f9b5bf901461093c57600080fd5b8063d56022d7146108aa578063dbe5470b146108bd578063e4ce3621146108d0578063ec87621c146108e357600080fd5b8063c8d9bb29116100e9578063c8d9bb291461081e578063cf784eda14610831578063d1e6716714610851578063d547741f1461089757600080fd5b8063bf6b867b146107e5578063bfa68363146107f8578063c0d955d61461080b57600080fd5b80638eda32471161017c57806394343cd21161015657806394343cd21461077d5780639ea6935014610792578063a217fddf146107a5578063bc197c81146107ad57600080fd5b80638eda32471461074257806391d1485414610755578063926a694d1461076857600080fd5b806383d385a4116101b857806383d385a4146106e257806388257567146106f55780638a80940d146107085780638bbab5c71461071b57600080fd5b8063747bb53714610684578063785e9e86146106975780637ecebe00146106c257600080fd5b80633036950e116102b8578063494101ff116102565780635cbd99d4116102305780635cbd99d4146106385780636d8943e51461064b578063704802751461065e57806370c751071461067157600080fd5b8063494101ff146105eb5780634c91b44e146105fe5780635bb675671461062557600080fd5b8063351c3d0b11610292578063351c3d0b1461057a57806336568abe1461059a57806339cbd15c146105ad57806345e0f753146105d857600080fd5b80633036950e146105295780633098b74b1461053c57806332a0749c1461054f57600080fd5b806326fabe91116103255780632aef0c30116102ff5780632aef0c301461047e5780632d41d559146104915780632f2ff15d146104a45780632fb3eabf146104b757600080fd5b806326fabe911461044557806327fa7a2014610458578063298ed0c91461046b57600080fd5b806318cf28341161036157806318cf2834146103c55780631c132f3c146103e85780632384e105146103fb578063248a9ca31461042257600080fd5b806301ffc9a7146103885780630241a5b3146103b05780630f6025eb146103b2575b600080fd5b61039b610396366004613522565b61094f565b60405190151581526020015b60405180910390f35b005b6103b06103c03660046134f6565b610960565b6103da600080516020613ebc83398151915281565b6040519081526020016103a7565b6103b06103f6366004613580565b610993565b6103da7fcfa8166f1bb1b8818c3767a9ffd776afbbe3409a468070bb860831e01b56549981565b6103da61043036600461348f565b60009081526020819052604090206001015490565b6103b0610453366004613168565b610adb565b6103b06104663660046136a7565b610c64565b6103b06104793660046134d4565b610e90565b6103b061048c3660046134d4565b610eae565b6103b061049f3660046133be565b610f60565b6103b06104b23660046134a8565b6110ff565b6105036104c53660046130b0565b600d60209081526000938452604080852082529284528284209052825290208054600182015460028301546003909301549192909160ff9091169084565b6040805194855260208501939093529015159183019190915260608201526080016103a7565b6103b06105373660046134f6565b61112a565b6103da61054a366004613439565b61117a565b6103da61055d3660046134d4565b600560209081526000928352604080842090915290825290205481565b6103da61058836600461348f565b60046020526000908152604090205481565b6103b06105a83660046134a8565b6111c6565b6103da6105bb3660046134d4565b600091825260096020908152604080842092845291905290205490565b6103b06105e6366004612f5e565b611244565b6103da6105f936600461348f565b61125f565b6103da7fbe9e90431f28bd12a87a51b26b014cab620a8a4819bf73d87369ccbe6800a76c81565b6103b06106333660046134f6565b611297565b6103b0610646366004612f5e565b61132d565b6103b0610659366004613356565b611345565b6103b061066c366004612f5e565b6114d5565b6103da61067f36600461354c565b6114e0565b6103b06106923660046134f6565b6114f3565b6002546106aa906001600160a01b031681565b6040516001600160a01b0390911681526020016103a7565b6103da6106d0366004612f5e565b60016020526000908152604090205481565b6103b06106f03660046133f7565b6115d0565b6103b06107033660046134d4565b611749565b6103b06107163660046130e3565b611770565b6103da7f043620c1e1c33ecf60d9dadc62571b96554338b68ef3636e715e52a286bea92e81565b6103b0610750366004613274565b6118cf565b61039b6107633660046134a8565b611b3f565b6103da600080516020613e7c83398151915281565b6103da600080516020613e9c83398151915281565b6103b06107a03660046134d4565b611b68565b6103da600081565b6107cc6107bb366004612f79565b63bc197c8160e01b95945050505050565b6040516001600160e01b031990911681526020016103a7565b6103b06107f33660046134d4565b611c6c565b6103b06108063660046136ed565b611cff565b6103b0610819366004613607565b611edd565b6103b061082c3660046132f9565b611f9d565b6103da61083f36600461348f565b60009081526008602052604090205490565b61050361085f366004613086565b600c60209081526000928352604080842090915290825290208054600182015460028301546003909301549192909160ff9091169084565b6103b06108a53660046134a8565b612113565b6003546106aa906001600160a01b031681565b6103b06108cb366004613654565b612139565b6103b06108de366004613086565b612202565b6103da7faf290d8680820aad922855f39b306097b20e28774d6c1ad35a20325630c3a02c81565b6107cc610918366004613022565b63f23a6e6160e01b95945050505050565b6103b06109373660046131f7565b612267565b6103b061094a3660046134d4565b612522565b600061095a8261271b565b92915050565b600083815260096020908152604080832084845290915281208054849290610989908490613d35565b9091555050505050565b61099e600033611b3f565b6109c35760405162461bcd60e51b81526004016109ba90613aa2565b60405180910390fd5b8051825114610a2c5760405162461bcd60e51b815260206004820152602f60248201527f52414841543a20496e76616c696420696e70757420617272617973206f66205060448201526e1a1bdb9948185b9908105b5bdd5b9d608a1b60648201526084016109ba565b600080610a388361117a565b90506000610a45866114e0565b600081815260086020526040902054909150821115610a765760405162461bcd60e51b81526004016109ba9061391c565b600092505b8451831015610ad357610ac186868581518110610a9a57610a9a613e4f565b6020026020010151868681518110610ab457610ab4613e4f565b6020026020010151611edd565b82610acb81613dde565b935050610a7b565b505050505050565b6001600160a01b0386166000908152600160209081526040808320549051610b2f9230927f043620c1e1c33ecf60d9dadc62571b96554338b68ef3636e715e52a286bea92e9290918a918a918a910161373c565b6040516020818303038152906040528051906020012090506000610b538288612740565b9050876001600160a01b0316816001600160a01b031614610b865760405162461bcd60e51b81526004016109ba90613c22565b6001600160a01b0388166000908152600160205260408120805491610baa83613dde565b91905055506000610bba876114e0565b6000818152600960209081526040808320888452909152902054909150851115610bf65760405162461bcd60e51b81526004016109ba9061391c565b600081815260096020908152604080832087845290915281208054879290610c1f908490613d80565b90915550610c30905086868661112a565b8581600080516020613efc83398151915287604051610c5191815260200190565b60405180910390a3505050505050505050565b816000610c708261125f565b600083815260046020526040902054909150610c9e5760405162461bcd60e51b81526004016109ba90613a55565b610cb6600080516020613e7c83398151915233611b3f565b610cd25760405162461bcd60e51b81526004016109ba90613a0b565b6000610cdd8561125f565b336000908152600c60209081526040808320848452909152902060028101549192509060ff16610d1f5760405162461bcd60e51b81526004016109ba90613ad9565b4281600301541015610d435760405162461bcd60e51b81526004016109ba90613c67565b6000610d4e866114e0565b336000908152600c602090815260408083208784529091529020600101549091508114610d8d5760405162461bcd60e51b81526004016109ba90613ba6565b815460008881526004602052604081208054909190610dad908490613d80565b909155505081546002808401805460ff19169055600080855560038501555460405163a9059cbb60e01b8152336004820152602481018390526001600160a01b039091169063a9059cbb90604401602060405180830381600087803b158015610e1557600080fd5b505af1158015610e29573d6000803e3d6000fd5b505050506040513d601f19601f82011682018060405250810190610e4d919061346d565b50604051818152889033907fbf193164f272ee45a28c1ffe48ee55c3da3a1fc02cedf1c8c8549118b2dc2ecf906020015b60405180910390a35050505050505050565b610e9b6006836127c5565b5060009182526008602052604090912055565b610ec6600080516020613ebc83398151915233611b3f565b610ee25760405162461bcd60e51b81526004016109ba90613972565b816000610eee8261125f565b600083815260046020526040902054909150610f1c5760405162461bcd60e51b81526004016109ba90613a55565b60008481526004602090815260408083205486845260089092528220805491928392610f49908490613d35565b90915550610f5990508582611c6c565b5050505050565b826000610f6c8261125f565b600083815260046020526040902054909150610f9a5760405162461bcd60e51b81526004016109ba90613a55565b610fb2600080516020613ebc83398151915233611b3f565b610fce5760405162461bcd60e51b81526004016109ba90613972565b6000610fd98661125f565b6001600160a01b0388166000908152600c6020908152604080832084845290915290206003810154919250906110215760405162461bcd60e51b81526004016109ba90613bdd565b620151808511156110445760405162461bcd60e51b81526004016109ba906139bc565b60038101546110569062015180613d35565b4211156110755760405162461bcd60e51b81526004016109ba90613b63565b600281015460ff161561109a5760405162461bcd60e51b81526004016109ba90613b1c565b600180820187905560028201805460ff191690911790556110bb8542613d35565b6003820155805460405190815287906001600160a01b038a16907f05ca75b0d90f1dd046ad3b8c1ec4a461042c3d33518b9b67d9feafc7d8d3c6cf90602001610e7e565b60008281526020819052604090206001015461111b81336127d1565b6111258383612835565b505050565b611135600033611b3f565b6111515760405162461bcd60e51b81526004016109ba90613aa2565b600083815260056020908152604080832084845290915281208054849290610989908490613d35565b6000805b82518110156111c05782818151811061119957611199613e4f565b6020026020010151826111ac9190613d35565b9150806111b881613dde565b91505061117e565b50919050565b6001600160a01b03811633146112365760405162461bcd60e51b815260206004820152602f60248201527f416363657373436f6e74726f6c3a2063616e206f6e6c792072656e6f756e636560448201526e103937b632b9903337b91039b2b63360891b60648201526084016109ba565b61124082826128b9565b5050565b61125c600080516020613e7c833981519152826110ff565b50565b600061126a8261291e565b60405160200161127a9190613820565b604051602081830303815290604052805190602001209050919050565b6112a2600033611b3f565b6112be5760405162461bcd60e51b81526004016109ba90613aa2565b8260006112ca8261125f565b6000838152600460205260409020549091506112f85760405162461bcd60e51b81526004016109ba90613a55565b600085815260056020908152604080832086845290915281208054869290611321908490613d80565b90915550505050505050565b61125c600080516020613ebc833981519152826110ff565b6001600160a01b03851660009081526001602090815260408083205490516bffffffffffffffffffffffff193060601b1692810192909252600080516020613e9c83398151915260348301526054820152607481018590526094810184905260b4810183905260d40160405160208183030381529060405280519060200120905060006113d28287612a23565b9050866001600160a01b0316816001600160a01b0316146114055760405162461bcd60e51b81526004016109ba90613c22565b6001600160a01b038716600090815260016020526040812080549161142983613dde565b919050555060006114398661125f565b60008781526005602090815260408083208884529091529020549091508511156114755760405162461bcd60e51b81526004016109ba90613ca8565b6001600160a01b0388166000908152600d60209081526040808320848452825280832087845282529182902060028101805460ff19169055878155426003820155915187815288913291600080516020613edc8339815191529101610c51565b61125c6000826110ff565b60008160405160200161127a9190613820565b61150b600080516020613e7c83398151915233611b3f565b6115275760405162461bcd60e51b81526004016109ba90613a0b565b60006115328461125f565b600085815260056020908152604080832086845290915290205490915083111561156e5760405162461bcd60e51b81526004016109ba90613ca8565b336000908152600d60209081526040808320848452825280832085845282529182902060028101805460ff19169055858155426003820155915185815286913291600080516020613edc83398151915291015b60405180910390a35050505050565b6115e8600080516020613ebc83398151915233611b3f565b6116045760405162461bcd60e51b81526004016109ba90613972565b600061160f8561125f565b6001600160a01b0387166000908152600d602090815260408083208484528252808320868452909152902060038101549192509061165f5760405162461bcd60e51b81526004016109ba90613bdd565b620151808411156116825760405162461bcd60e51b81526004016109ba906139bc565b60038101546116949062015180613d35565b4211156116b35760405162461bcd60e51b81526004016109ba90613b63565b600281015460ff16156116d85760405162461bcd60e51b81526004016109ba90613b1c565b600180820186905560028201805460ff191690911790556116f98442613d35565b6003820155805460405190815286906001600160a01b038916907f05ca75b0d90f1dd046ad3b8c1ec4a461042c3d33518b9b67d9feafc7d8d3c6cf9060200160405180910390a350505050505050565b60008281526008602052604081208054839290611767908490613d35565b90915550505050565b6001600160a01b03851660009081526001602090815260408083205490516117c49230927f043620c1e1c33ecf60d9dadc62571b96554338b68ef3636e715e52a286bea92e9290918991899189910161373c565b60405160208183030381529060405280519060200120905060006117e88287612740565b9050866001600160a01b0316816001600160a01b03161461181b5760405162461bcd60e51b81526004016109ba90613c22565b6001600160a01b038716600090815260016020526040812080549161183f83613dde565b9190505550600061184f866114e0565b6000818152600860205260409020549091508411156118805760405162461bcd60e51b81526004016109ba9061391c565b6000818152600860205260408120805486929061189e908490613d80565b909155506118ae90508585612522565b8481600080516020613efc83398151915286604051610e7e91815260200190565b6001600160a01b0385166000908152600160209081526040808320549051611911923092600080516020613e9c833981519152929091899189918991016137d1565b60405160208183030381529060405280519060200120905060006119358287612a23565b9050866001600160a01b0316816001600160a01b0316146119685760405162461bcd60e51b81526004016109ba90613c22565b6001600160a01b038716600090815260016020526040812080549161198c83613dde565b9190505550600061199c8661125f565b336000908152600d602090815260408083208484528252808320888452909152902060028101549192509060ff166119e65760405162461bcd60e51b81526004016109ba90613ad9565b4281600301541015611a0a5760405162461bcd60e51b81526004016109ba90613c67565b6000611a15876114e0565b336000908152600d6020908152604080832087845282528083208a84529091529020600101549091508114611a5c5760405162461bcd60e51b81526004016109ba90613ba6565b611a6b88836000015488611297565b815460028301805460ff19169055600080845560038085019190915554604051637921219560e11b81526001600160a01b039091169063f242432a90611abb90309033908c9087906004016138b1565b600060405180830381600087803b158015611ad557600080fd5b505af1158015611ae9573d6000803e3d6000fd5b5050505088336001600160a01b0316887fcb984d497ad4fbb1ddd6d3cf81c5c4463b046940a5bd559637156baee4ef648484604051611b2a91815260200190565b60405180910390a45050505050505050505050565b6000918252602082815260408084206001600160a01b0393909316845291905290205460ff1690565b816000611b748261125f565b600083815260046020526040902054909150611ba25760405162461bcd60e51b81526004016109ba90613a55565b611bba600080516020613e7c83398151915233611b3f565b611bd65760405162461bcd60e51b81526004016109ba90613a0b565b6000611be18561125f565b600086815260046020526040902054909150841115611c125760405162461bcd60e51b81526004016109ba90613ca8565b336000908152600c6020908152604080832084845282529182902060028101805460ff19169055868155426003820155915186815287913291600080516020613edc833981519152910160405180910390a3505050505050565b611c77600033611b3f565b611c935760405162461bcd60e51b81526004016109ba90613aa2565b816000611c9f8261125f565b600083815260046020526040902054909150611ccd5760405162461bcd60e51b81526004016109ba90613a55565b600084815260046020526040902054611ce7908490613d80565b60009485526004602052604090942093909355505050565b611d17600080516020613e7c83398151915233611b3f565b611d335760405162461bcd60e51b81526004016109ba90613a0b565b6000611d3e8461125f565b336000908152600d602090815260408083208484528252808320868452909152902060028101549192509060ff16611d885760405162461bcd60e51b81526004016109ba90613ad9565b4281600301541015611dac5760405162461bcd60e51b81526004016109ba90613c67565b6000611db7856114e0565b336000908152600d6020908152604080832087845282528083208884529091529020600101549091508114611dfe5760405162461bcd60e51b81526004016109ba90613ba6565b611e0d86836000015486611297565b815460028301805460ff19169055600080845560038085019190915554604051637921219560e11b81526001600160a01b039091169063f242432a90611e5d90309033908a9087906004016138b1565b600060405180830381600087803b158015611e7757600080fd5b505af1158015611e8b573d6000803e3d6000fd5b5050505086336001600160a01b0316867fcb984d497ad4fbb1ddd6d3cf81c5c4463b046940a5bd559637156baee4ef648484604051611ecc91815260200190565b60405180910390a450505050505050565b611ee8600033611b3f565b611f045760405162461bcd60e51b81526004016109ba90613aa2565b6000611f0f846114e0565b600081815260086020526040902054909150821115611f405760405162461bcd60e51b81526004016109ba9061391c565b60008181526008602052604081208054849290611f5e908490613d80565b90915550611f6e90508383612522565b8281600080516020613efc83398151915284604051611f8f91815260200190565b60405180910390a350505050565b6001600160a01b03841660009081526001602090815260408083205490516bffffffffffffffffffffffff193060601b1692810192909252600080516020613e9c83398151915260348301526054820152607481018490526094810183905260b40160405160208183030381529060405280519060200120905060006120238286612a23565b9050856001600160a01b0316816001600160a01b0316146120565760405162461bcd60e51b81526004016109ba90613c22565b6001600160a01b038616600090815260016020526040812080549161207a83613dde565b9190505550600061208a8561125f565b6000868152600460205260409020549091508411156120bb5760405162461bcd60e51b81526004016109ba90613ca8565b6001600160a01b0387166000908152600c6020908152604080832084845282529182902060028101805460ff19169055868155426003820155915186815287913291600080516020613edc8339815191529101610e7e565b60008281526020819052604090206001015461212f81336127d1565b61112583836128b9565b612144600033611b3f565b6121605760405162461bcd60e51b81526004016109ba90613aa2565b600061216b856114e0565b60008181526009602090815260408083208684529091529020549091508311156121a75760405162461bcd60e51b81526004016109ba9061391c565b6000818152600960209081526040808320858452909152812080548592906121d0908490613d80565b909155506121e1905084848461112a565b8381600080516020613efc833981519152856040516115c191815260200190565b61222c7fbe9e90431f28bd12a87a51b26b014cab620a8a4819bf73d87369ccbe6800a76c836110ff565b6000818152600a602052604090206122449083612a4a565b506001600160a01b0382166000908152600b6020526040902061112590826127c5565b8160006122738261125f565b6000838152600460205260409020549091506122a15760405162461bcd60e51b81526004016109ba90613a55565b6001600160a01b03861660009081526001602090815260408083205490516122e1923092600080516020613e9c8339815191529290918a918a9101613789565b60405160208183030381529060405280519060200120905060006123058288612a23565b9050876001600160a01b0316816001600160a01b0316146123385760405162461bcd60e51b81526004016109ba90613c22565b6001600160a01b038816600090815260016020526040812080549161235c83613dde565b9190505550600061236c8761125f565b336000908152600c60209081526040808320848452909152902060028101549192509060ff166123ae5760405162461bcd60e51b81526004016109ba90613ad9565b42816003015410156123d25760405162461bcd60e51b81526004016109ba90613c67565b60006123dd886114e0565b336000908152600c60209081526040808320878452909152902060010154909150811461241c5760405162461bcd60e51b81526004016109ba90613ba6565b815460008a8152600460205260408120805490919061243c908490613d80565b909155505081546002808401805460ff19169055600080855560038501555460405163a9059cbb60e01b8152336004820152602481018390526001600160a01b039091169063a9059cbb90604401602060405180830381600087803b1580156124a457600080fd5b505af11580156124b8573d6000803e3d6000fd5b505050506040513d601f19601f820116820180604052508101906124dc919061346d565b506040518181528a9033907fbf193164f272ee45a28c1ffe48ee55c3da3a1fc02cedf1c8c8549118b2dc2ecf9060200160405180910390a3505050505050505050505050565b61252d600033611b3f565b6125495760405162461bcd60e51b81526004016109ba90613aa2565b600082815260046020526040902054612563908290613d35565b6000928352600460205260409092209190915550565b60606000612588836002613d61565b612593906002613d35565b6001600160401b038111156125aa576125aa613e65565b6040519080825280601f01601f1916602001820160405280156125d4576020820181803683370190505b509050600360fc1b816000815181106125ef576125ef613e4f565b60200101906001600160f81b031916908160001a905350600f60fb1b8160018151811061261e5761261e613e4f565b60200101906001600160f81b031916908160001a9053506000612642846002613d61565b61264d906001613d35565b90505b60018111156126c5576f181899199a1a9b1b9c1cb0b131b232b360811b85600f166010811061268157612681613e4f565b1a60f81b82828151811061269757612697613e4f565b60200101906001600160f81b031916908160001a90535060049490941c936126be81613dc7565b9050612650565b5083156127145760405162461bcd60e51b815260206004820181905260248201527f537472696e67733a20686578206c656e67746820696e73756666696369656e7460448201526064016109ba565b9392505050565b60006001600160e01b03198216630271189760e51b148061095a575061095a82612a5f565b60008061274d8484612a94565b90506127797fbe9e90431f28bd12a87a51b26b014cab620a8a4819bf73d87369ccbe6800a76c82611b3f565b6127145760405162461bcd60e51b815260206004820152601a60248201527f5369676e65722073686f756c64206265204d6f62696c697a657200000000000060448201526064016109ba565b60006127148383612ab8565b6127db8282611b3f565b611240576127f3816001600160a01b03166014612579565b6127fe836020612579565b60405160200161280f92919061383c565b60408051601f198184030181529082905262461bcd60e51b82526109ba916004016138e9565b61283f8282611b3f565b611240576000828152602081815260408083206001600160a01b03851684529091529020805460ff191660011790556128753390565b6001600160a01b0316816001600160a01b0316837f2f8788117e7eff1d82e926ec794901d17c78024a50270940304540a733656f0d60405160405180910390a45050565b6128c38282611b3f565b15611240576000828152602081815260408083206001600160a01b0385168085529252808320805460ff1916905551339285917ff6391f5c32d9c69d2a47ea670b442974b53935d1edc7fd64eb21e047a839171b9190a45050565b6060816129425750506040805180820190915260018152600360fc1b602082015290565b8160005b811561296c578061295681613dde565b91506129659050600a83613d4d565b9150612946565b6000816001600160401b0381111561298657612986613e65565b6040519080825280601f01601f1916602001820160405280156129b0576020820181803683370190505b5090505b8415612a1b576129c5600183613d80565b91506129d2600a86613df9565b6129dd906030613d35565b60f81b8183815181106129f2576129f2613e4f565b60200101906001600160f81b031916908160001a905350612a14600a86613d4d565b94506129b4565b949350505050565b600080612a308484612a94565b9050612779600080516020613e7c83398151915282611b3f565b6000612714836001600160a01b038416612ab8565b60006001600160e01b03198216637965db0b60e01b148061095a57506301ffc9a760e01b6001600160e01b031983161461095a565b6000806000612aa38585612b07565b91509150612ab081612b77565b509392505050565b6000818152600183016020526040812054612aff5750815460018181018455600084815260208082209093018490558454848252828601909352604090209190915561095a565b50600061095a565b600080825160411415612b3e5760208301516040840151606085015160001a612b3287828585612d32565b94509450505050612b70565b825160401415612b685760208301516040840151612b5d868383612e1f565b935093505050612b70565b506000905060025b9250929050565b6000816004811115612b8b57612b8b613e39565b1415612b945750565b6001816004811115612ba857612ba8613e39565b1415612bf65760405162461bcd60e51b815260206004820152601860248201527f45434453413a20696e76616c6964207369676e6174757265000000000000000060448201526064016109ba565b6002816004811115612c0a57612c0a613e39565b1415612c585760405162461bcd60e51b815260206004820152601f60248201527f45434453413a20696e76616c6964207369676e6174757265206c656e6774680060448201526064016109ba565b6003816004811115612c6c57612c6c613e39565b1415612cc55760405162461bcd60e51b815260206004820152602260248201527f45434453413a20696e76616c6964207369676e6174757265202773272076616c604482015261756560f01b60648201526084016109ba565b6004816004811115612cd957612cd9613e39565b141561125c5760405162461bcd60e51b815260206004820152602260248201527f45434453413a20696e76616c6964207369676e6174757265202776272076616c604482015261756560f01b60648201526084016109ba565b6000807f7fffffffffffffffffffffffffffffff5d576e7357a4501ddfe92f46681b20a0831115612d695750600090506003612e16565b8460ff16601b14158015612d8157508460ff16601c14155b15612d925750600090506004612e16565b6040805160008082526020820180845289905260ff881692820192909252606081018690526080810185905260019060a0016020604051602081039080840390855afa158015612de6573d6000803e3d6000fd5b5050604051601f1901519150506001600160a01b038116612e0f57600060019250925050612e16565b9150600090505b94509492505050565b6000806001600160ff1b03831660ff84901c601b01612e4087828885612d32565b935093505050935093915050565b80356001600160a01b0381168114612e6557600080fd5b919050565b600082601f830112612e7b57600080fd5b813560206001600160401b03821115612e9657612e96613e65565b8160051b612ea5828201613d05565b838152828101908684018388018501891015612ec057600080fd5b600093505b85841015612ee3578035835260019390930192918401918401612ec5565b50979650505050505050565b600082601f830112612f0057600080fd5b81356001600160401b03811115612f1957612f19613e65565b612f2c601f8201601f1916602001613d05565b818152846020838601011115612f4157600080fd5b816020850160208301376000918101602001919091529392505050565b600060208284031215612f7057600080fd5b61271482612e4e565b600080600080600060a08688031215612f9157600080fd5b612f9a86612e4e565b9450612fa860208701612e4e565b935060408601356001600160401b0380821115612fc457600080fd5b612fd089838a01612e6a565b94506060880135915080821115612fe657600080fd5b612ff289838a01612e6a565b9350608088013591508082111561300857600080fd5b5061301588828901612eef565b9150509295509295909350565b600080600080600060a0868803121561303a57600080fd5b61304386612e4e565b945061305160208701612e4e565b9350604086013592506060860135915060808601356001600160401b0381111561307a57600080fd5b61301588828901612eef565b6000806040838503121561309957600080fd5b6130a283612e4e565b946020939093013593505050565b6000806000606084860312156130c557600080fd5b6130ce84612e4e565b95602085013595506040909401359392505050565b600080600080600060a086880312156130fb57600080fd5b61310486612e4e565b945060208601356001600160401b038082111561312057600080fd5b61312c89838a01612eef565b9550604088013591508082111561314257600080fd5b5061314f88828901612eef565b9598949750949560608101359550608001359392505050565b60008060008060008060c0878903121561318157600080fd5b61318a87612e4e565b955060208701356001600160401b03808211156131a657600080fd5b6131b28a838b01612eef565b965060408901359150808211156131c857600080fd5b506131d589828a01612eef565b945050606087013592506080870135915060a087013590509295509295509295565b6000806000806080858703121561320d57600080fd5b61321685612e4e565b935060208501356001600160401b038082111561323257600080fd5b61323e88838901612eef565b945060408701359350606087013591508082111561325b57600080fd5b5061326887828801612eef565b91505092959194509250565b600080600080600060a0868803121561328c57600080fd5b61329586612e4e565b945060208601356001600160401b03808211156132b157600080fd5b6132bd89838a01612eef565b95506040880135945060608801359150808211156132da57600080fd5b506132e788828901612eef565b95989497509295608001359392505050565b6000806000806080858703121561330f57600080fd5b61331885612e4e565b935060208501356001600160401b0381111561333357600080fd5b61333f87828801612eef565b949794965050505060408301359260600135919050565b600080600080600060a0868803121561336e57600080fd5b61337786612e4e565b945060208601356001600160401b0381111561339257600080fd5b61339e88828901612eef565b959895975050505060408401359360608101359360809091013592509050565b600080600080608085870312156133d457600080fd5b6133dd85612e4e565b966020860135965060408601359560600135945092505050565b600080600080600060a0868803121561340f57600080fd5b61341886612e4e565b97602087013597506040870135966060810135965060800135945092505050565b60006020828403121561344b57600080fd5b81356001600160401b0381111561346157600080fd5b612a1b84828501612e6a565b60006020828403121561347f57600080fd5b8151801515811461271457600080fd5b6000602082840312156134a157600080fd5b5035919050565b600080604083850312156134bb57600080fd5b823591506134cb60208401612e4e565b90509250929050565b600080604083850312156134e757600080fd5b50508035926020909101359150565b60008060006060848603121561350b57600080fd5b505081359360208301359350604090920135919050565b60006020828403121561353457600080fd5b81356001600160e01b03198116811461271457600080fd5b60006020828403121561355e57600080fd5b81356001600160401b0381111561357457600080fd5b612a1b84828501612eef565b60008060006060848603121561359557600080fd5b83356001600160401b03808211156135ac57600080fd5b6135b887838801612eef565b945060208601359150808211156135ce57600080fd5b6135da87838801612e6a565b935060408601359150808211156135f057600080fd5b506135fd86828701612e6a565b9150509250925092565b60008060006060848603121561361c57600080fd5b83356001600160401b0381111561363257600080fd5b61363e86828701612eef565b9660208601359650604090950135949350505050565b6000806000806080858703121561366a57600080fd5b84356001600160401b0381111561368057600080fd5b61368c87828801612eef565b97602087013597506040870135966060013595509350505050565b600080604083850312156136ba57600080fd5b8235915060208301356001600160401b038111156136d757600080fd5b6136e385828601612eef565b9150509250929050565b60008060006060848603121561370257600080fd5b8335925060208401356001600160401b0381111561371f57600080fd5b61372b86828701612eef565b925050604084013590509250925092565b6001600160601b03198760601b1681528560148201528460348201526000845161376d816054850160208901613d97565b9091016054810193909352506074820152609401949350505050565b6001600160601b03198660601b168152846014820152836034820152826054820152600082516137c0816074850160208701613d97565b919091016074019695505050505050565b6001600160601b03198760601b16815285601482015284603482015283605482015260008351613808816074850160208801613d97565b60749201918201929092526094019695505050505050565b60008251613832818460208701613d97565b9190910192915050565b7f416363657373436f6e74726f6c3a206163636f756e7420000000000000000000815260008351613874816017850160208801613d97565b7001034b99036b4b9b9b4b733903937b6329607d1b60179184019182015283516138a5816028840160208801613d97565b01602801949350505050565b6001600160a01b0394851681529290931660208301526040820152606081019190915260a06080820181905260009082015260c00190565b6020815260008251806020840152613908816040850160208701613d97565b601f01601f19169190910160400192915050565b60208082526036908201527f52414841543a20416d6f756e742069732067726561746572207468616e2072656040820152751b585a5b9a5b99c8141c9bda9958dd08109d5919d95d60521b606082015260800190565b6020808252602a908201527f52414841543a2053656e646572206d75737420626520616e20617574686f72696040820152693d32b21039b2b93b32b960b11b606082015260800190565b6020808252602f908201527f52414841543a54696d6520546f204c6976652073686f756c64206265206c657360408201526e73207468616e20323420686f75727360881b606082015260800190565b6020808252602a908201527f52414841543a2053656e646572204d757374206265206120726567697374657260408201526932b2103b32b73237b91760b11b606082015260800190565b6020808252602d908201527f52414841543a204e6f20616e7920746f6b656e2077617320697373756564207460408201526c37903a3434b990373ab6b132b960991b606082015260800190565b6020808252601f908201527f52414841543a2053656e646572206d75737420626520616e2061646d696e2e00604082015260600190565b60208082526023908201527f52414841543a20436c61696d20686173206e6f74206265656e2072656c65617360408201526232b21760e91b606082015260800190565b60208082526027908201527f52414841543a20436c61696d2068617320616c7265616479206265656e2072656040820152663632b0b9b2b21760c91b606082015260800190565b60208082526023908201527f52414841543a20436c61696d206973206f6c646572207468616e20323420686f60408201526275727360e81b606082015260800190565b60208082526019908201527f52414841543a204f545020646964206e6f74206d617463682e00000000000000604082015260600190565b60208082526025908201527f52414841543a20436c61696d20686173206e6f74206265656e2063726561746560408201526419081e595d60da1b606082015260800190565b60208082526025908201527f5369676e617475726520646964206e6f74206d6174636865642077697468207360408201526434b3b732b960d91b606082015260800190565b60208082526021908201527f52414841543a20436c61696d2068617320616c726561647920657870697265646040820152601760f91b606082015260800190565b6020808252603c908201527f52414841543a20416d6f756e742072657175657374656420697320677265617460408201527f6572207468616e2062656e65666963696172792062616c616e63652e00000000606082015260800190565b604051601f8201601f191681016001600160401b0381118282101715613d2d57613d2d613e65565b604052919050565b60008219821115613d4857613d48613e0d565b500190565b600082613d5c57613d5c613e23565b500490565b6000816000190483118215151615613d7b57613d7b613e0d565b500290565b600082821015613d9257613d92613e0d565b500390565b60005b83811015613db2578181015183820152602001613d9a565b83811115613dc1576000848401525b50505050565b600081613dd657613dd6613e0d565b506000190190565b6000600019821415613df257613df2613e0d565b5060010190565b600082613e0857613e08613e23565b500690565b634e487b7160e01b600052601160045260246000fd5b634e487b7160e01b600052601260045260246000fd5b634e487b7160e01b600052602160045260246000fd5b634e487b7160e01b600052603260045260246000fd5b634e487b7160e01b600052604160045260246000fdfe0aaf57387812c7f832412470a57567b5648a930069be49aa9c98d04f88520d348ff5d84bbad5f252f2ee1916646e221e55645205d2f803ebe6a7d6ba8fa4185dcaa7f6290f33308266ee2988386694ac9bc3612b5df272e3502129925a64f997987d620f307ff6b94d58743cb7a7509f24071586a77759b77c2d4e29f75a2f9a7b5f025f5ffb56fcfed9bc1f1b37e7e1a965198fd6c9eedb5f1220e58f027685a2646970667358221220542e5b7fb1805d91742749bc949d28a5554429e4f4a8c32d972e09f6bb42ac5864736f6c63430008070033caa7f6290f33308266ee2988386694ac9bc3612b5df272e3502129925a64f997",
  "immutableReferences": {},
  "source": "//SPDX-License-Identifier: UNLICENSED\r\n\r\npragma solidity 0.8.7;\r\nimport './RahatERC20.sol';\r\nimport './RahatERC1155.sol';\r\nimport '@openzeppelin/contracts/token/ERC1155/utils/ERC1155Holder.sol';\r\nimport '@openzeppelin/contracts/utils/structs/EnumerableSet.sol';\r\nimport '@openzeppelin/contracts/utils/cryptography/ECDSA.sol';\r\n\r\ncontract Rahat is AccessControl,ERC1155Holder {\r\n    using Strings for uint256;\r\n    using EnumerableSet for EnumerableSet.Bytes32Set;\r\n    using EnumerableSet for EnumerableSet.AddressSet;\r\n    using ECDSA for bytes32;\r\n\r\n\t//***** Events *********//\r\n\tevent Claimed(address indexed vendor, uint256 indexed phone, uint256 amount);\r\n\tevent ClaimApproved(address indexed vendor, uint256 indexed phone, uint256 amount);\r\n\tevent Issued(bytes32 indexed projectId, uint256 indexed phone, uint256 amount);\r\n\tevent ClaimAcquired(address indexed vendor, uint256 indexed beneficiary,uint256 amount);\r\n\tevent ClaimAcquired(uint256 indexed tokenId,address indexed vendor, uint256 indexed beneficiary,uint256 amount);\r\n\tevent InvalidSignature(bytes signature,bytes32 digest, address expectedSigner,address recoveredSigner);\r\n\r\n\t//event BalanceAdjusted(uint256 indexed phone, uint256 amount, string reason);\r\n\r\n\t//***** Constant Variables (Roles) *********//\r\n\tbytes32 public constant SERVER_ROLE = keccak256('SERVER');\r\n\tbytes32 public constant VENDOR_ROLE = keccak256('VENDOR');\r\n\tbytes32 public constant MANAGER_ROLE = keccak256('MANAGER');\r\n\tbytes32 public constant MOBILIZER_ROLE = keccak256('MOBILIZER');\r\n\tbytes32 public constant ISSUE_TOKEN = keccak256(\"issueToken\");\r\n\tbytes32 public constant CREATE_CLAIM = keccak256(\"createClaim\");\r\n\tbytes32 public constant GET_TOKENS_FROM_CLAIM = keccak256(\"getTokensFromClaim\");\r\n\r\n\r\n\r\n    mapping(address => uint) public nonces; //delegated users nonces\r\n\r\n\r\n\t//***** Variables (State) *********//\r\n\t//AidToke public tokenContract;\r\n    RahatERC20 public erc20;\r\n    RahatERC1155 public erc1155;\r\n\t/// @notice track balances of each beneficiary phone\r\n\tmapping(uint256 => uint256) public erc20Balance;\r\n\tmapping(uint256 =>mapping(uint256 => uint256)) public erc1155Balance;\r\n\r\n\r\n\t/// @notice track projectBalances\r\n\t//bytes32[] public projectId;\r\n\tEnumerableSet.Bytes32Set private projectId;\r\n\tmapping(bytes32 => uint256) remainingProjectErc20Balances;\r\n\tmapping(bytes32 =>mapping(uint256 => uint256)) remainingProjectErc1155Balances;\r\n\tmapping(bytes32 => EnumerableSet.AddressSet) projectMobilizers;\r\n  mapping(address => EnumerableSet.Bytes32Set) mobilizerProjects;\r\n\r\n\r\n\r\n\tstruct claim {\r\n\t\tuint256 amount;\r\n\t\tbytes32 otpHash;\r\n\t\tbool isReleased;\r\n\t\tuint256 date;\r\n\t}\r\n\t/// @dev vendorAddress => phone => claim\r\n\tmapping(address => mapping(bytes32 => claim)) public recentERC20Claims;\r\n\tmapping(address => mapping(bytes32 => mapping(uint256 => claim))) public recentERC1155Claims;\r\n\r\n\t//***** Constructor *********//\r\n\tconstructor(RahatERC20 _erc20, RahatERC1155 _erc1155, address _admin) {\r\n\t\t_setupRole(DEFAULT_ADMIN_ROLE, tx.origin);\r\n\t\t_setupRole(DEFAULT_ADMIN_ROLE, _admin);\r\n\t\t_setRoleAdmin(SERVER_ROLE, DEFAULT_ADMIN_ROLE);\r\n\t\t_setRoleAdmin(VENDOR_ROLE, DEFAULT_ADMIN_ROLE);\r\n\t\tgrantRole(SERVER_ROLE, msg.sender);\r\n\t\terc20 = _erc20;\r\n\t\terc1155 = _erc1155;\r\n\t}\r\n    \r\n    function supportsInterface(bytes4 interfaceId) public view virtual override(AccessControl,ERC1155Receiver) returns (bool) {\r\n    return super.supportsInterface(interfaceId);\r\n}\r\n\r\n\r\n\t//***** Modifiers *********//\r\n\tmodifier OnlyServer() {\r\n\t\trequire(hasRole(SERVER_ROLE, msg.sender), 'RAHAT: Sender must be an authorized server');\r\n\t\t_;\r\n\t}\r\n\tmodifier OnlyAdmin {\r\n\t\trequire(hasRole(DEFAULT_ADMIN_ROLE, msg.sender), 'RAHAT: Sender must be an admin.');\r\n\t\t_;\r\n\t}\r\n\tmodifier IsBeneficiary(uint256 _phone) {\r\n\t    bytes32 _benId = findHash(_phone);\r\n\t\trequire(erc20Balance[_phone] != 0, 'RAHAT: No any token was issued to this number');\r\n\t\t_;\r\n\t}\r\n\tmodifier OnlyVendor {\r\n\t\trequire(hasRole(VENDOR_ROLE, msg.sender), 'RAHAT: Sender Must be a registered vendor.');\r\n\t\t_;\r\n\t}\r\n\tmodifier OnlyAdminOrMobilizer {\r\n\t    require((hasRole(DEFAULT_ADMIN_ROLE, msg.sender) || hasRole(MOBILIZER_ROLE, msg.sender)), 'RAHAT: Sender Must be a registered Admin Or Mobilizer.');\r\n      _;\r\n\t}\r\n\r\n\t//***** Methods *********//\r\n\t//Access Control Management\r\n\t/// @notice add admin of the this contract\r\n\t/// @param _account address of the new admin\r\n\tfunction addAdmin(address _account) public {\r\n\t\tgrantRole(DEFAULT_ADMIN_ROLE, _account);\r\n\t}\r\n\r\n\t/// @notice add server account for this contract\r\n\t/// @param _account address of the new server account\r\n\tfunction addServer(address _account) public {\r\n\t\tgrantRole(SERVER_ROLE, _account);\r\n\t}\r\n\r\n\t/// @notice add vendors\r\n\t/// @param _account address of the new vendor\r\n\tfunction addVendor(address _account) public {\r\n\t\tgrantRole(VENDOR_ROLE, _account);\r\n\t}\r\n\r\n    \t/// @notice add vendors\r\n\t/// @param _account address of the new vendor\r\n\tfunction addMobilizer(address _account,bytes32 _projectId) public {\r\n\t\tgrantRole(MOBILIZER_ROLE, _account);\r\n\t\tprojectMobilizers[_projectId].add(_account);\r\n\t\tmobilizerProjects[_account].add(_projectId);\r\n\t}\r\n\r\n\tfunction suspendMobilizer() public {\r\n\r\n\t}\r\n\tfunction suspendVendor() public {\r\n\t\t\r\n\t}\r\n\t//Beneficiary Management\r\n\t/// @notice suspend the benficiary by deducting all the balance beneficiary owns\r\n\t/// @param _phone phone number of the Beneficiary\r\n\t/// @param _projectId projectId of the beneficiary\r\n\tfunction suspendBeneficiary(uint256 _phone , bytes32 _projectId) public OnlyServer IsBeneficiary(_phone) {\r\n\t  //  bytes32 _benId = findHash(_phone);\r\n\r\n\t\tuint256 _balance = erc20Balance[_phone];\r\n\t\tremainingProjectErc20Balances[_projectId] += _balance;\r\n\t\tadjustTokenDeduct(_phone, _balance);\r\n\t}\r\n\r\n\t/// @notice adds the token from beneficiary\r\n\tfunction adjustTokenAdd(uint256 _phone, uint256 _amount) public OnlyAdmin {\r\n\t   // bytes32 _benId = findHash(_phone);\r\n\t\terc20Balance[_phone] = erc20Balance[_phone] + _amount;\r\n\t\t//emit BalanceAdjusted(_phone, _amount, _reason);\r\n\t}\r\n\r\n\t/// @notice deducts the token from beneficiary\r\n\tfunction adjustTokenDeduct(uint256 _phone, uint256 _amount) public OnlyAdmin IsBeneficiary(_phone) {\r\n\t    //bytes32 _benId = findHash(_phone);\r\n\t\terc20Balance[_phone] = erc20Balance[_phone] - _amount;\r\n\t\t//emit BalanceAdjusted(_phone, _amount, _reason);\r\n\t}\r\n\t\r\n\t\r\n\t\r\n\t/// @notice adds the token from beneficiary\r\n\tfunction adjustTokenAdd(uint256 _phone, uint256 _amount,uint256 _tokenId) public OnlyAdmin {\r\n\t   // bytes32 _benId = findHash(_phone);\r\n\t\terc1155Balance[_phone][_tokenId] += _amount;\r\n\t\t//emit BalanceAdjusted(_phone, _amount, _reason);\r\n\t}\r\n\r\n\t/// @notice deducts the token from beneficiary\r\n\tfunction adjustTokenDeduct(uint256 _phone, uint256 _amount,uint256 _tokenId) public OnlyAdmin IsBeneficiary(_phone) {\r\n\t  //  bytes32 _benId = findHash(_phone);\r\n\t\terc1155Balance[_phone][_tokenId] -= _amount;\r\n\t\t//emit BalanceAdjusted(_phone, _amount, _reason);\r\n\t}\r\n\r\n\t/// @notice creates a project.\r\n\t/// @notice called by rahatdmin contract\r\n\t/// @param _projectId Id of the project to assign budget\r\n\t/// @param _projectCapital amount of budget to be assigned to project\r\n\tfunction addProject(bytes32 _projectId, uint256 _projectCapital) external {\r\n\t\tprojectId.add(_projectId);\r\n\t\tremainingProjectErc20Balances[_projectId] = _projectCapital;\r\n\t}\r\n\r\n\t/// @notice update a project balance.\r\n\t/// @notice called by rahatdmin contract\r\n\t/// @param _projectId Id of the project to assign budget\r\n\t/// @param _projectCapital amount of budget to be added to project\r\n\tfunction updateProjectBudget(bytes32 _projectId, uint256 _projectCapital) external {\r\n\t\tremainingProjectErc20Balances[_projectId] += _projectCapital;\r\n\t}\r\n\t\r\n\t/// @notice update a project balance.\r\n\t/// @notice called by rahatdmin contract\r\n\t/// @param _projectId Id of the project to assign budget\r\n\t/// @param _projectCapital amount of budget to be added to project\r\n\t/// @param tokenId ERC1155 token id\r\n\tfunction updateProjectBudget(bytes32 _projectId, uint256 _projectCapital,uint256 tokenId) external {\r\n\t\tremainingProjectErc1155Balances[_projectId][tokenId] += _projectCapital;\r\n\t}\r\n\r\n\t/// @notice get the current balance of project\r\n\tfunction getProjectBalance(bytes32 _projectId) external view returns (uint256 _balance) {\r\n\t\treturn remainingProjectErc20Balances[_projectId];\r\n\t}\r\n\t\r\n\t\t/// @notice get the current balance of project\r\n\tfunction getProjectBalance(bytes32 _projectId, uint256 tokenId) external view returns (uint256 _balance) {\r\n\t\treturn remainingProjectErc1155Balances[_projectId][tokenId];\r\n\t}\r\n\t\r\n\tfunction verifyVendor(bytes32 _hash, bytes memory _signature) internal view returns(address){\r\n\t    address _signer = _hash.recover(_signature);\r\n\t    require(hasRole(VENDOR_ROLE,_signer),\"Signer should be Mobilizer\");\r\n\t    return _signer;\r\n\t}\r\n\t\r\n\tfunction verifyMobilizer(bytes32 _hash, bytes memory _signature) internal view returns (address){\r\n\t     address _signer = _hash.recover(_signature);\r\n\t    require(hasRole(MOBILIZER_ROLE,_signer),\"Signer should be Mobilizer\");\r\n\t    return _signer;\r\n\r\n\t}\r\n\r\n\t/// @notice Issue tokens to beneficiary\r\n\t/// @param _projectId Id of the project beneficiary is involved in\r\n\t/// @param _phone phone number of the beneficiary\r\n\t/// @param _amount Amount of token to be assigned to beneficiary\r\n\tfunction issueERC20ToBeneficiary(\r\n\t\tstring memory _projectId,\r\n\t\tuint256 _phone,\r\n\t\tuint256 _amount\r\n\t) public OnlyAdmin {\r\n\t\tbytes32 _id = findHash(_projectId);\r\n\t\trequire(remainingProjectErc20Balances[_id] >= _amount, 'RAHAT: Amount is greater than remaining Project Budget');\r\n\t\tremainingProjectErc20Balances[_id] -= _amount;\r\n\t\tadjustTokenAdd(_phone, _amount);\r\n\r\n\t\temit Issued(_id, _phone, _amount);\r\n\t}\r\n\t\r\n\t/// @notice Issue ERC20 tokens to beneficiary\r\n\t/// @param _projectId Id of the project beneficiary is involved in\r\n\t/// @param _phone phone number of the beneficiary\r\n\t/// @param _amount Amount of token to be assigned to beneficiary\r\n\t/// @param _tokenId ERC1155 TokenId\r\n\tfunction issueERC1155ToBeneficiary(\r\n\t\tstring memory _projectId,\r\n\t\tuint256 _phone,\r\n\t\tuint256 _amount,\r\n\t\tuint256 _tokenId\r\n\t) public OnlyAdmin {\r\n\t\tbytes32 _id = findHash(_projectId);\r\n\t\trequire(remainingProjectErc1155Balances[_id][_tokenId] >= _amount, 'RAHAT: Amount is greater than remaining Project Budget');\r\n\t\tremainingProjectErc1155Balances[_id][_tokenId] -= _amount;\r\n\t\tadjustTokenAdd(_phone, _amount,_tokenId);\r\n\r\n\t\temit Issued(_id, _phone, _amount);\r\n\t}\r\n\t\r\n\t/// @notice Issue ERC20 to beneficiary\r\n\t/// @param _signer Address of the mobilizer/caller who is issuing tokens\r\n\t/// @param _signature Signature generated by signing {to,functionSig,nonce,projectId,phone,amount} through mobilizer/caller wallet\r\n\t/// @param _projectId Id of the project beneficiary is involved in\r\n\t/// @param _phone phone number of the beneficiary\r\n\t/// @param _amount Amount of token to be assigned to beneficiary\r\n\tfunction delegate_issueERC20ToBeneficiary(\r\n\t    address _signer,\r\n\t    bytes memory _signature,\r\n\t\tstring memory _projectId,\r\n\t\tuint256 _phone,\r\n\t\tuint256 _amount\r\n\t) public {\r\n\t    bytes32 _hash = keccak256(abi.encodePacked(address(this), ISSUE_TOKEN, nonces[_signer], _projectId, _phone,_amount)); //data-hash of toke issuance = {to,functionSig,nonce,projectId,phone,amount}\r\n        address recoveredSigner = verifyMobilizer(_hash,_signature);\r\n        require(recoveredSigner == _signer,'Signature did not matched with signer');\r\n        nonces[_signer]++;\r\n\r\n        \r\n\t\tbytes32 _id = findHash(_projectId);\r\n\t\trequire(remainingProjectErc20Balances[_id] >= _amount, 'RAHAT: Amount is greater than remaining Project Budget');\r\n\t\tremainingProjectErc20Balances[_id] -= _amount;\r\n\t\tadjustTokenAdd(_phone, _amount);\r\n\r\n\t\temit Issued(_id, _phone, _amount);\r\n\t}\r\n\t\r\n\t\t\r\n\t/// @notice Issue ERC1155 tokens to beneficiary\r\n\t/// @param _signer Address of the mobilizer/caller who is issuing tokens\r\n\t/// @param _signature Signature generated by signing {to,functionSig,nonce,projectId,phone,amount} through mobilizer/caller wallet\r\n\t/// @param _projectId Id of the project beneficiary is involved in\r\n\t/// @param _phone phone number of the beneficiary\r\n\t/// @param _amount Amount of token to be assigned to beneficiary\r\n\t/// @param _tokenId ERC1155 TokenId\r\n\tfunction delegate_issueERC1155ToBeneficiary(\r\n\t    address _signer,\r\n\t    bytes memory _signature,\r\n\t\tstring memory _projectId,\r\n\t\tuint256 _phone,\r\n\t\tuint256 _amount,\r\n\t\tuint256 _tokenId\r\n\t) public {\r\n\t    bytes32 _hash = keccak256(abi.encodePacked(address(this), ISSUE_TOKEN, nonces[_signer], _projectId, _phone,_amount)); //data-hash of toke issuance = {to,functionSig,nonce,projectId,phone,amount}\r\n        address recoveredSigner = verifyMobilizer(_hash,_signature);\r\n        require(recoveredSigner == _signer,'Signature did not matched with signer');\r\n        nonces[_signer]++;\r\n\r\n        \r\n\t\tbytes32 _id = findHash(_projectId);\r\n\t\trequire(remainingProjectErc1155Balances[_id][_tokenId] >= _amount, 'RAHAT: Amount is greater than remaining Project Budget');\r\n\t\tremainingProjectErc1155Balances[_id][_tokenId] -= _amount;\r\n\t\tadjustTokenAdd(_phone, _amount,_tokenId);\r\n\r\n\t\temit Issued(_id, _phone, _amount);\r\n\t}\r\n\r\n\t/// @notice Issue tokens to beneficiary in bulk\r\n\t/// @param _projectId Id of the project beneficiary is involved in\r\n\t/// @param _phone array of phone number of the beneficiary\r\n\t/// @param _amount array of Amount of token to be assigned to beneficiary\r\n\tfunction issueBulkToken(\r\n\t\tstring memory _projectId,\r\n\t\tuint256[] memory _phone,\r\n\t\tuint256[] memory _amount\r\n\t) public OnlyAdmin {\r\n\t\trequire(_phone.length == _amount.length, 'RAHAT: Invalid input arrays of Phone and Amount');\r\n\t\tuint256 i;\r\n\t\tuint256 sum = getArraySum(_amount);\r\n\t\tbytes32 _id = findHash(_projectId);\r\n\r\n\t\trequire(remainingProjectErc20Balances[_id] >= sum, 'RAHAT: Amount is greater than remaining Project Budget');\r\n\r\n\t\tfor (i = 0; i < _phone.length; i++) {\r\n\t\t\tissueERC20ToBeneficiary(_projectId, _phone[i], _amount[i]);\r\n\t\t}\r\n\t}\r\n\r\n\t/// @notice request a token to beneficiary by vendor\r\n\t/// @param _phone Phone number of beneficiary to whom token is requested\r\n\t/// @param _tokens Number of tokens to request\r\n\tfunction createERC20Claim(uint256 _phone, uint256 _tokens) public IsBeneficiary(_phone) OnlyVendor {\r\n\t    bytes32 _benId = findHash(_phone);\r\n\t\trequire(erc20Balance[_phone] >= _tokens, 'RAHAT: Amount requested is greater than beneficiary balance.');\r\n\t\tclaim storage ac = recentERC20Claims[msg.sender][_benId];\r\n\t\tac.isReleased = false;\r\n\t\tac.amount = _tokens;\r\n\t\tac.date = block.timestamp;\r\n\t\temit Claimed(tx.origin, _phone, _tokens);\r\n\t}\r\n\t\r\n\t///@dev claim tokens from the beneficiary by vendor\r\n\t///@param _phone identity of the beneficiary\r\n\t///@param _amount amaount of ERC1155 tokens to request\r\n\t///@param _tokenId ERC1155 token id\r\n\tfunction createERC1155Claim(uint256 _phone, uint256 _amount, uint256 _tokenId) public OnlyVendor {\r\n\t    bytes32 _benId = findHash(_phone);\r\n\t\trequire(erc1155Balance[_phone][_tokenId] >= _amount, 'RAHAT: Amount requested is greater than beneficiary balance.');\r\n\t\tclaim storage ac = recentERC1155Claims[msg.sender][_benId][_tokenId];\r\n\t\tac.isReleased = false;\r\n\t\tac.amount = _amount;\r\n\t\tac.date = block.timestamp;\r\n\t\temit Claimed(tx.origin, _phone, _amount);\r\n\t}\r\n\t\r\n\t///@dev delegate a createClaim transaction for ERC20\r\n\t///@param _signer address of vendor/caller of createClaim\r\n\t/// @param _signature Signature generated by signing {to,functionSig,nonce,projectId,phone,amount} through vendor/caller wallet\r\n\t/// @param _phone identity of benficiary\r\n\t/// @param _amount amount of token to be claimed\r\n\tfunction delegate_createERC20Claim(address _signer,bytes memory _signature,uint256 _phone, uint256 _amount) public {\r\n\t    bytes32 _hash = keccak256(abi.encodePacked(address(this), CREATE_CLAIM, nonces[_signer], _phone,_amount)); //data-hash of toke issuance = {to,functionSig,nonce,projectId,phone,amount}\r\n        address recoveredSigner = verifyVendor(_hash,_signature);\r\n        require(recoveredSigner == _signer,'Signature did not matched with signer');\r\n        nonces[_signer]++;\r\n\r\n    bytes32 _benId = findHash(_phone);\r\n\t\trequire(erc20Balance[_phone] >= _amount, 'RAHAT: Amount requested is greater than beneficiary balance.');\r\n\t\tclaim storage ac = recentERC20Claims[_signer][_benId];\r\n\t\tac.isReleased = false;\r\n\t\tac.amount = _amount;\r\n\t\tac.date = block.timestamp;\r\n\t\temit Claimed(tx.origin, _phone, _amount);\r\n\t    \r\n\t}\r\n\t\r\n\r\n\t///@dev delegate a createClaim transaction for ERC20\r\n\t///@param _signer address of vendor/caller of createClaim\r\n\t/// @param _signature Signature generated by signing {to,functionSig,nonce,projectId,phone,amount} through vendor/caller wallet\r\n\t/// @param _phone identity of benficiary\r\n\t/// @param _amount amount of token to be claimed\r\n\t/// @param _tokenId ERC1155 tokenId\r\n\tfunction delegate_createERC1155Claim(address _signer,bytes memory _signature,uint256 _phone, uint256 _amount, uint256 _tokenId) public {\r\n\t     bytes32 _hash = keccak256(abi.encodePacked(address(this), CREATE_CLAIM, nonces[_signer], _phone,_amount,_tokenId)); //data-hash of toke issuance = {to,functionSig,nonce,projectId,phone,amount}\r\n        address recoveredSigner = verifyVendor(_hash,_signature);\r\n        require(recoveredSigner == _signer,'Signature did not matched with signer');\r\n        nonces[_signer]++;\r\n\t    \r\n\t     bytes32 _benId = findHash(_phone);\r\n\t\trequire(erc1155Balance[_phone][_tokenId] >= _amount, 'RAHAT: Amount requested is greater than beneficiary balance.');\r\n\t\tclaim storage ac = recentERC1155Claims[_signer][_benId][_tokenId];\r\n\t\tac.isReleased = false;\r\n\t\tac.amount = _amount;\r\n\t\tac.date = block.timestamp;\r\n\t\temit Claimed(tx.origin, _phone, _amount);\r\n\t}\r\n\t\r\n\r\n\r\n\r\n\t/// @notice Approve the requested claim from serverside and set the otp hash\r\n\t/// @param _vendor Address of the vendor who requested the token from beneficiary\r\n\t/// @param _phone Phone number of the beneficiary, to whom token request was sent\r\n\t/// @param _otpHash Hash of OTP sent to beneficiary by server\r\n\t/// @param _timeToLive Validity of OTP in seconds\r\n\tfunction approveERC20Claim(\r\n\t\taddress _vendor,\r\n\t\tuint256 _phone,\r\n\t\tbytes32 _otpHash,\r\n\t\tuint256 _timeToLive\r\n\t) public IsBeneficiary(_phone) OnlyServer {\r\n\t    bytes32 _benId = findHash(_phone);\r\n\t\tclaim storage ac = recentERC20Claims[_vendor][_benId];\r\n\t\trequire(ac.date != 0, 'RAHAT: Claim has not been created yet');\r\n\t\trequire(_timeToLive <= 86400, 'RAHAT:Time To Live should be less than 24 hours');\r\n\t\trequire(block.timestamp <= ac.date + 86400, 'RAHAT: Claim is older than 24 hours');\r\n\t\trequire(!ac.isReleased, 'RAHAT: Claim has already been released.');\r\n\t\tac.otpHash = _otpHash;\r\n\t\tac.isReleased = true;\r\n\t\tac.date = block.timestamp + _timeToLive;\r\n\t\temit ClaimApproved(_vendor, _phone, ac.amount);\r\n\t}\r\n\t\r\n\t/// @notice Approve the requested claim from serverside and set the otp hash\r\n\t/// @param _vendor Address of the vendor who requested the token from beneficiary\r\n\t/// @param _phone Phone number of the beneficiary, to whom token request was sent\r\n\t/// @param _otpHash Hash of OTP sent to beneficiary by server\r\n\t/// @param _timeToLive Validity of OTP in seconds\r\n\t/// @param _tokenId ERC1155 tokenId\r\n\r\n\tfunction approveERC1155Claim(\r\n\t\taddress _vendor,\r\n\t\tuint256 _phone,\r\n\t\tbytes32 _otpHash,\r\n\t\tuint256 _timeToLive,\r\n\t\tuint256 _tokenId\r\n\t) public  OnlyServer {\r\n\t    bytes32 _benId = findHash(_phone);\r\n\t\tclaim storage ac = recentERC1155Claims[_vendor][_benId][_tokenId];\r\n\t\trequire(ac.date != 0, 'RAHAT: Claim has not been created yet');\r\n\t\trequire(_timeToLive <= 86400, 'RAHAT:Time To Live should be less than 24 hours');\r\n\t\trequire(block.timestamp <= ac.date + 86400, 'RAHAT: Claim is older than 24 hours');\r\n\t\trequire(!ac.isReleased, 'RAHAT: Claim has already been released.');\r\n\t\tac.otpHash = _otpHash;\r\n\t\tac.isReleased = true;\r\n\t\tac.date = block.timestamp + _timeToLive;\r\n\t\temit ClaimApproved(_vendor, _phone, ac.amount);\r\n\t}\r\n\r\n\t/// @notice Retrieve tokens that was requested to beneficiary by entering OTP\r\n\t/// @param _phone Phone Number of the beneficiary, to whom token request was sent\r\n\t/// @param _otp OTP sent by the server\r\n\tfunction getERC20FromClaim(uint256 _phone, string memory _otp) public IsBeneficiary(_phone) OnlyVendor {\r\n\t    bytes32 _benId = findHash(_phone);\r\n\t\tclaim storage ac = recentERC20Claims[msg.sender][_benId];\r\n\t\trequire(ac.isReleased, 'RAHAT: Claim has not been released.');\r\n\t\trequire(ac.date >= block.timestamp, 'RAHAT: Claim has already expired.');\r\n\t\tbytes32 otpHash = findHash(_otp);\r\n\t\trequire(recentERC20Claims[msg.sender][_benId].otpHash == otpHash, 'RAHAT: OTP did not match.');\r\n\t\terc20Balance[_phone] -= ac.amount;\r\n\t\tuint256 amt = ac.amount;\r\n\t\tac.isReleased = false;\r\n\t\tac.amount = 0;\r\n\t\tac.date = 0;\r\n\t    erc20.transfer(msg.sender, amt);\r\n\t    emit ClaimAcquired(msg.sender,_phone,amt);\r\n\r\n\t}\r\n\t\r\n\t/// @notice Retrieve tokens that was requested to beneficiary by entering OTP\r\n\t/// @param _phone Phone Number of the beneficiary, to whom token request was sent\r\n\t/// @param _otp OTP sent by the server\r\n\t/// @param _tokenId ERC1155 tokenId\r\n\tfunction getERC1155FromClaim(uint256 _phone, string memory _otp,uint256 _tokenId) public OnlyVendor {\r\n\t    bytes32 _benId = findHash(_phone);\r\n\t\tclaim storage ac = recentERC1155Claims[msg.sender][_benId][_tokenId];\r\n\t\trequire(ac.isReleased, 'RAHAT: Claim has not been released.');\r\n\t\trequire(ac.date >= block.timestamp, 'RAHAT: Claim has already expired.');\r\n\t\tbytes32 otpHash = findHash(_otp);\r\n\t\trequire(recentERC1155Claims[msg.sender][_benId][_tokenId].otpHash == otpHash, 'RAHAT: OTP did not match.');\r\n\t\tadjustTokenDeduct(_phone,ac.amount,_tokenId);\r\n\t\tuint256 amt = ac.amount;\r\n\t\tac.isReleased = false;\r\n\t\tac.amount = 0;\r\n\t\tac.date = 0;\r\n\t\terc1155.safeTransferFrom(address(this),msg.sender,_tokenId, amt,'');\r\n\t\temit ClaimAcquired(_tokenId,msg.sender,_phone,amt);\r\n\t}\r\n\t\r\n\t\r\n\t///@dev delegates getERC20FromClaim for vendors/callers\r\n    ///@param _signer address of vendor/caller of getERC20FromClaim\r\n\t/// @param _signature Signature generated by signing {to,functionSig,nonce,projectId,phone,amount} through vendor/caller wallet\r\n\t/// @param _phone Phone Number of the beneficiary, to whom token request was sent\r\n\t/// @param _otp OTP sent by the server\r\n\tfunction delegate_getERC20FromClaim(address _signer,bytes memory _signature,uint256 _phone, string memory _otp) public IsBeneficiary(_phone) {\r\n\t    \r\n\t    bytes32 _hash = keccak256(abi.encodePacked(address(this), CREATE_CLAIM, nonces[_signer], _phone,_otp)); //data-hash of toke issuance = {to,functionSig,nonce,projectId,phone,amount}\r\n        address recoveredSigner = verifyVendor(_hash,_signature);\r\n        require(recoveredSigner == _signer,'Signature did not matched with signer');\r\n        nonces[_signer]++;\r\n\t    \r\n\t    bytes32 _benId = findHash(_phone);\r\n\t\tclaim storage ac = recentERC20Claims[msg.sender][_benId];\r\n\t\trequire(ac.isReleased, 'RAHAT: Claim has not been released.');\r\n\t\trequire(ac.date >= block.timestamp, 'RAHAT: Claim has already expired.');\r\n\t\tbytes32 otpHash = findHash(_otp);\r\n\t\trequire(recentERC20Claims[msg.sender][_benId].otpHash == otpHash, 'RAHAT: OTP did not match.');\r\n\t\terc20Balance[_phone] -= ac.amount;\r\n\t\tuint256 amt = ac.amount;\r\n\t\tac.isReleased = false;\r\n\t\tac.amount = 0;\r\n\t\tac.date = 0;\r\n\t    erc20.transfer(msg.sender, amt);\r\n\t    emit ClaimAcquired(msg.sender,_phone,amt);\r\n\r\n\t}\r\n\t\r\n\t///@dev delegates getERC20FromClaim for vendors/callers\r\n    ///@param _signer address of vendor/caller of getERC1155FromClaim\r\n\t/// @param _signature Signature generated by signing {to,functionSig,nonce,projectId,phone,amount} through vendor/caller wallet\r\n\t/// @param _phone Phone Number of the beneficiary, to whom token request was sent\r\n\t/// @param _otp OTP sent by the server\r\n\t/// @param _tokenId ERC1155 tokenId\r\n\tfunction delegate_getTokensFromClaim(address _signer,bytes memory _signature,uint256 _phone, string memory _otp,uint256 _tokenId) public {\r\n\t    bytes32 _hash = keccak256(abi.encodePacked(address(this), CREATE_CLAIM, nonces[_signer], _phone,_otp,_tokenId)); //data-hash of toke issuance = {to,functionSig,nonce,projectId,phone,amount}\r\n        address recoveredSigner = verifyVendor(_hash,_signature);\r\n        require(recoveredSigner == _signer,'Signature did not matched with signer');\r\n        nonces[_signer]++;\r\n\t    \r\n\t    bytes32 _benId = findHash(_phone);\r\n\t\tclaim storage ac = recentERC1155Claims[msg.sender][_benId][_tokenId];\r\n\t\trequire(ac.isReleased, 'RAHAT: Claim has not been released.');\r\n\t\trequire(ac.date >= block.timestamp, 'RAHAT: Claim has already expired.');\r\n\t\tbytes32 otpHash = findHash(_otp);\r\n\t\trequire(recentERC1155Claims[msg.sender][_benId][_tokenId].otpHash == otpHash, 'RAHAT: OTP did not match.');\r\n\t\tadjustTokenDeduct(_phone,ac.amount,_tokenId);\r\n\t\tuint256 amt = ac.amount;\r\n\t\tac.isReleased = false;\r\n\t\tac.amount = 0;\r\n\t\tac.date = 0;\r\n\t\terc1155.safeTransferFrom(address(this),msg.sender,_tokenId, amt,'');\r\n\t\temit ClaimAcquired(_tokenId,msg.sender,_phone,amt);\r\n\t}\r\n\r\n\t/// @notice generates the hash of the given string\r\n\t/// @param _data String of which hash is to be generated\r\n\tfunction findHash(string memory _data) public pure returns (bytes32) {\r\n\t\treturn keccak256(abi.encodePacked(_data));\r\n\t}\r\n\t\r\n\t/// @notice generates the hash of the given string\r\n\t/// @param _data String of which hash is to be generated\r\n\tfunction findHash(uint256 _data) public pure returns (bytes32) {\r\n\t    \r\n\t\treturn keccak256(abi.encodePacked(_data.toString()));\r\n\t}\r\n\r\n\t/// @notice Generates the sum of all the integers in array\r\n\t/// @param _array Array of uint\r\n\tfunction getArraySum(uint256[] memory _array) public pure returns (uint256 sum) {\r\n\t\tsum = 0;\r\n\t\tfor (uint256 i = 0; i < _array.length; i++) {\r\n\t\t\tsum += _array[i];\r\n\t\t}\r\n\t\treturn sum;\r\n\t}\r\n}\r\n",
  "sourcePath": "D:\\projects\\Rahat\\rahat-contracts\\contracts\\Rahat.sol",
  "compiler": {
    "name": "solc",
    "version": "0.8.7+commit.e28d00a7.Emscripten.clang"
  },
  "schemaVersion": "3.4.3",
  "updatedAt": "2021-11-15T03:52:33.744Z",
  "networkType": "ethereum",
  "devdoc": {
    "kind": "dev",
    "methods": {
      "addAdmin(address)": {
        "params": {
          "_account": "address of the new admin"
        }
      },
      "addMobilizer(address,bytes32)": {
        "params": {
          "_account": "address of the new vendor"
        }
      },
      "addProject(bytes32,uint256)": {
        "params": {
          "_projectCapital": "amount of budget to be assigned to project",
          "_projectId": "Id of the project to assign budget"
        }
      },
      "addServer(address)": {
        "params": {
          "_account": "address of the new server account"
        }
      },
      "addVendor(address)": {
        "params": {
          "_account": "address of the new vendor"
        }
      },
      "approveERC1155Claim(address,uint256,bytes32,uint256,uint256)": {
        "params": {
          "_otpHash": "Hash of OTP sent to beneficiary by server",
          "_phone": "Phone number of the beneficiary, to whom token request was sent",
          "_timeToLive": "Validity of OTP in seconds",
          "_tokenId": "ERC1155 tokenId",
          "_vendor": "Address of the vendor who requested the token from beneficiary"
        }
      },
      "approveERC20Claim(address,uint256,bytes32,uint256)": {
        "params": {
          "_otpHash": "Hash of OTP sent to beneficiary by server",
          "_phone": "Phone number of the beneficiary, to whom token request was sent",
          "_timeToLive": "Validity of OTP in seconds",
          "_vendor": "Address of the vendor who requested the token from beneficiary"
        }
      },
      "createERC1155Claim(uint256,uint256,uint256)": {
        "details": "claim tokens from the beneficiary by vendor",
        "params": {
          "_amount": "amaount of ERC1155 tokens to request",
          "_phone": "identity of the beneficiary",
          "_tokenId": "ERC1155 token id"
        }
      },
      "createERC20Claim(uint256,uint256)": {
        "params": {
          "_phone": "Phone number of beneficiary to whom token is requested",
          "_tokens": "Number of tokens to request"
        }
      },
      "delegate_createERC1155Claim(address,bytes,uint256,uint256,uint256)": {
        "details": "delegate a createClaim transaction for ERC20",
        "params": {
          "_amount": "amount of token to be claimed",
          "_phone": "identity of benficiary",
          "_signature": "Signature generated by signing {to,functionSig,nonce,projectId,phone,amount} through vendor/caller wallet",
          "_signer": "address of vendor/caller of createClaim",
          "_tokenId": "ERC1155 tokenId"
        }
      },
      "delegate_createERC20Claim(address,bytes,uint256,uint256)": {
        "details": "delegate a createClaim transaction for ERC20",
        "params": {
          "_amount": "amount of token to be claimed",
          "_phone": "identity of benficiary",
          "_signature": "Signature generated by signing {to,functionSig,nonce,projectId,phone,amount} through vendor/caller wallet",
          "_signer": "address of vendor/caller of createClaim"
        }
      },
      "delegate_getERC20FromClaim(address,bytes,uint256,string)": {
        "details": "delegates getERC20FromClaim for vendors/callers",
        "params": {
          "_otp": "OTP sent by the server",
          "_phone": "Phone Number of the beneficiary, to whom token request was sent",
          "_signature": "Signature generated by signing {to,functionSig,nonce,projectId,phone,amount} through vendor/caller wallet",
          "_signer": "address of vendor/caller of getERC20FromClaim"
        }
      },
      "delegate_getTokensFromClaim(address,bytes,uint256,string,uint256)": {
        "details": "delegates getERC20FromClaim for vendors/callers",
        "params": {
          "_otp": "OTP sent by the server",
          "_phone": "Phone Number of the beneficiary, to whom token request was sent",
          "_signature": "Signature generated by signing {to,functionSig,nonce,projectId,phone,amount} through vendor/caller wallet",
          "_signer": "address of vendor/caller of getERC1155FromClaim",
          "_tokenId": "ERC1155 tokenId"
        }
      },
      "delegate_issueERC1155ToBeneficiary(address,bytes,string,uint256,uint256,uint256)": {
        "params": {
          "_amount": "Amount of token to be assigned to beneficiary",
          "_phone": "phone number of the beneficiary",
          "_projectId": "Id of the project beneficiary is involved in",
          "_signature": "Signature generated by signing {to,functionSig,nonce,projectId,phone,amount} through mobilizer/caller wallet",
          "_signer": "Address of the mobilizer/caller who is issuing tokens",
          "_tokenId": "ERC1155 TokenId"
        }
      },
      "delegate_issueERC20ToBeneficiary(address,bytes,string,uint256,uint256)": {
        "params": {
          "_amount": "Amount of token to be assigned to beneficiary",
          "_phone": "phone number of the beneficiary",
          "_projectId": "Id of the project beneficiary is involved in",
          "_signature": "Signature generated by signing {to,functionSig,nonce,projectId,phone,amount} through mobilizer/caller wallet",
          "_signer": "Address of the mobilizer/caller who is issuing tokens"
        }
      },
      "findHash(string)": {
        "params": {
          "_data": "String of which hash is to be generated"
        }
      },
      "findHash(uint256)": {
        "params": {
          "_data": "String of which hash is to be generated"
        }
      },
      "getArraySum(uint256[])": {
        "params": {
          "_array": "Array of uint"
        }
      },
      "getERC1155FromClaim(uint256,string,uint256)": {
        "params": {
          "_otp": "OTP sent by the server",
          "_phone": "Phone Number of the beneficiary, to whom token request was sent",
          "_tokenId": "ERC1155 tokenId"
        }
      },
      "getERC20FromClaim(uint256,string)": {
        "params": {
          "_otp": "OTP sent by the server",
          "_phone": "Phone Number of the beneficiary, to whom token request was sent"
        }
      },
      "getRoleAdmin(bytes32)": {
        "details": "Returns the admin role that controls `role`. See {grantRole} and {revokeRole}. To change a role's admin, use {_setRoleAdmin}."
      },
      "grantRole(bytes32,address)": {
        "details": "Grants `role` to `account`. If `account` had not been already granted `role`, emits a {RoleGranted} event. Requirements: - the caller must have ``role``'s admin role."
      },
      "hasRole(bytes32,address)": {
        "details": "Returns `true` if `account` has been granted `role`."
      },
      "issueBulkToken(string,uint256[],uint256[])": {
        "params": {
          "_amount": "array of Amount of token to be assigned to beneficiary",
          "_phone": "array of phone number of the beneficiary",
          "_projectId": "Id of the project beneficiary is involved in"
        }
      },
      "issueERC1155ToBeneficiary(string,uint256,uint256,uint256)": {
        "params": {
          "_amount": "Amount of token to be assigned to beneficiary",
          "_phone": "phone number of the beneficiary",
          "_projectId": "Id of the project beneficiary is involved in",
          "_tokenId": "ERC1155 TokenId"
        }
      },
      "issueERC20ToBeneficiary(string,uint256,uint256)": {
        "params": {
          "_amount": "Amount of token to be assigned to beneficiary",
          "_phone": "phone number of the beneficiary",
          "_projectId": "Id of the project beneficiary is involved in"
        }
      },
      "renounceRole(bytes32,address)": {
        "details": "Revokes `role` from the calling account. Roles are often managed via {grantRole} and {revokeRole}: this function's purpose is to provide a mechanism for accounts to lose their privileges if they are compromised (such as when a trusted device is misplaced). If the calling account had been granted `role`, emits a {RoleRevoked} event. Requirements: - the caller must be `account`."
      },
      "revokeRole(bytes32,address)": {
        "details": "Revokes `role` from `account`. If `account` had been granted `role`, emits a {RoleRevoked} event. Requirements: - the caller must have ``role``'s admin role."
      },
      "suspendBeneficiary(uint256,bytes32)": {
        "params": {
          "_phone": "phone number of the Beneficiary",
          "_projectId": "projectId of the beneficiary"
        }
      },
      "updateProjectBudget(bytes32,uint256)": {
        "params": {
          "_projectCapital": "amount of budget to be added to project",
          "_projectId": "Id of the project to assign budget"
        }
      },
      "updateProjectBudget(bytes32,uint256,uint256)": {
        "params": {
          "_projectCapital": "amount of budget to be added to project",
          "_projectId": "Id of the project to assign budget",
          "tokenId": "ERC1155 token id"
        }
      }
    },
    "stateVariables": {
      "recentERC20Claims": {
        "details": "vendorAddress => phone => claim"
      }
    },
    "version": 1
  },
  "userdoc": {
    "kind": "user",
    "methods": {
      "addAdmin(address)": {
        "notice": "add admin of the this contract"
      },
      "addMobilizer(address,bytes32)": {
        "notice": "add vendors"
      },
      "addProject(bytes32,uint256)": {
        "notice": "creates a project.called by rahatdmin contract"
      },
      "addServer(address)": {
        "notice": "add server account for this contract"
      },
      "addVendor(address)": {
        "notice": "add vendors"
      },
      "adjustTokenAdd(uint256,uint256)": {
        "notice": "adds the token from beneficiary"
      },
      "adjustTokenAdd(uint256,uint256,uint256)": {
        "notice": "adds the token from beneficiary"
      },
      "adjustTokenDeduct(uint256,uint256)": {
        "notice": "deducts the token from beneficiary"
      },
      "adjustTokenDeduct(uint256,uint256,uint256)": {
        "notice": "deducts the token from beneficiary"
      },
      "approveERC1155Claim(address,uint256,bytes32,uint256,uint256)": {
        "notice": "Approve the requested claim from serverside and set the otp hash"
      },
      "approveERC20Claim(address,uint256,bytes32,uint256)": {
        "notice": "Approve the requested claim from serverside and set the otp hash"
      },
      "createERC20Claim(uint256,uint256)": {
        "notice": "request a token to beneficiary by vendor"
      },
      "delegate_issueERC1155ToBeneficiary(address,bytes,string,uint256,uint256,uint256)": {
        "notice": "Issue ERC1155 tokens to beneficiary"
      },
      "delegate_issueERC20ToBeneficiary(address,bytes,string,uint256,uint256)": {
        "notice": "Issue ERC20 to beneficiary"
      },
      "erc20Balance(uint256)": {
        "notice": "track balances of each beneficiary phone"
      },
      "findHash(string)": {
        "notice": "generates the hash of the given string"
      },
      "findHash(uint256)": {
        "notice": "generates the hash of the given string"
      },
      "getArraySum(uint256[])": {
        "notice": "Generates the sum of all the integers in array"
      },
      "getERC1155FromClaim(uint256,string,uint256)": {
        "notice": "Retrieve tokens that was requested to beneficiary by entering OTP"
      },
      "getERC20FromClaim(uint256,string)": {
        "notice": "Retrieve tokens that was requested to beneficiary by entering OTP"
      },
      "getProjectBalance(bytes32)": {
        "notice": "get the current balance of project"
      },
      "getProjectBalance(bytes32,uint256)": {
        "notice": "get the current balance of project"
      },
      "issueBulkToken(string,uint256[],uint256[])": {
        "notice": "Issue tokens to beneficiary in bulk"
      },
      "issueERC1155ToBeneficiary(string,uint256,uint256,uint256)": {
        "notice": "Issue ERC20 tokens to beneficiary"
      },
      "issueERC20ToBeneficiary(string,uint256,uint256)": {
        "notice": "Issue tokens to beneficiary"
      },
      "suspendBeneficiary(uint256,bytes32)": {
        "notice": "suspend the benficiary by deducting all the balance beneficiary owns"
      },
      "updateProjectBudget(bytes32,uint256)": {
        "notice": "update a project balance.called by rahatdmin contract"
      },
      "updateProjectBudget(bytes32,uint256,uint256)": {
        "notice": "update a project balance.called by rahatdmin contract"
      }
    },
    "version": 1
  }
}