{
  "contractName": "RahatAdmin",
  "abi": [
    {
      "inputs": [
        {
          "internalType": "contract RahatERC20",
          "name": "_erc20",
          "type": "address"
        },
        {
          "internalType": "contract RahatERC1155",
          "name": "_erc1155",
          "type": "address"
        },
        {
          "internalType": "contract Rahat",
          "name": "_rahatContract",
          "type": "address"
        },
        {
          "internalType": "uint256",
          "name": "_intitialSupply",
          "type": "uint256"
        },
        {
          "internalType": "address",
          "name": "_admin",
          "type": "address"
        }
      ],
      "stateMutability": "nonpayable",
      "type": "constructor"
    },
    {
      "anonymous": false,
      "inputs": [
        {
          "indexed": false,
          "internalType": "bool",
          "name": "success",
          "type": "bool"
        }
      ],
      "name": "Minted",
      "type": "event"
    },
    {
      "anonymous": false,
      "inputs": [
        {
          "indexed": true,
          "internalType": "bytes32",
          "name": "projectId",
          "type": "bytes32"
        },
        {
          "indexed": true,
          "internalType": "uint256",
          "name": "tokenId",
          "type": "uint256"
        },
        {
          "indexed": false,
          "internalType": "uint256",
          "name": "projectCapital",
          "type": "uint256"
        },
        {
          "indexed": false,
          "internalType": "string",
          "name": "tag",
          "type": "string"
        }
      ],
      "name": "ProjectERC1155BudgetUpdated",
      "type": "event"
    },
    {
      "anonymous": false,
      "inputs": [
        {
          "indexed": true,
          "internalType": "bytes32",
          "name": "projectId",
          "type": "bytes32"
        },
        {
          "indexed": false,
          "internalType": "uint256",
          "name": "projectCapital",
          "type": "uint256"
        },
        {
          "indexed": false,
          "internalType": "string",
          "name": "tag",
          "type": "string"
        }
      ],
      "name": "ProjectERC20BudgetUpdated",
      "type": "event"
    },
    {
      "inputs": [],
      "name": "erc1155",
      "outputs": [
        {
          "internalType": "contract RahatERC1155",
          "name": "",
          "type": "address"
        }
      ],
      "stateMutability": "view",
      "type": "function",
      "constant": true
    },
    {
      "inputs": [],
      "name": "erc20",
      "outputs": [
        {
          "internalType": "contract RahatERC20",
          "name": "",
          "type": "address"
        }
      ],
      "stateMutability": "view",
      "type": "function",
      "constant": true
    },
    {
      "inputs": [
        {
          "internalType": "address",
          "name": "",
          "type": "address"
        },
        {
          "internalType": "address",
          "name": "",
          "type": "address"
        },
        {
          "internalType": "uint256[]",
          "name": "",
          "type": "uint256[]"
        },
        {
          "internalType": "uint256[]",
          "name": "",
          "type": "uint256[]"
        },
        {
          "internalType": "bytes",
          "name": "",
          "type": "bytes"
        }
      ],
      "name": "onERC1155BatchReceived",
      "outputs": [
        {
          "internalType": "bytes4",
          "name": "",
          "type": "bytes4"
        }
      ],
      "stateMutability": "nonpayable",
      "type": "function"
    },
    {
      "inputs": [
        {
          "internalType": "address",
          "name": "",
          "type": "address"
        },
        {
          "internalType": "address",
          "name": "",
          "type": "address"
        },
        {
          "internalType": "uint256",
          "name": "",
          "type": "uint256"
        },
        {
          "internalType": "uint256",
          "name": "",
          "type": "uint256"
        },
        {
          "internalType": "bytes",
          "name": "",
          "type": "bytes"
        }
      ],
      "name": "onERC1155Received",
      "outputs": [
        {
          "internalType": "bytes4",
          "name": "",
          "type": "bytes4"
        }
      ],
      "stateMutability": "nonpayable",
      "type": "function"
    },
    {
      "inputs": [
        {
          "internalType": "address",
          "name": "",
          "type": "address"
        }
      ],
      "name": "owner",
      "outputs": [
        {
          "internalType": "bool",
          "name": "",
          "type": "bool"
        }
      ],
      "stateMutability": "view",
      "type": "function",
      "constant": true
    },
    {
      "inputs": [
        {
          "internalType": "bytes32",
          "name": "",
          "type": "bytes32"
        }
      ],
      "name": "projectERC20Capital",
      "outputs": [
        {
          "internalType": "uint256",
          "name": "",
          "type": "uint256"
        }
      ],
      "stateMutability": "view",
      "type": "function",
      "constant": true
    },
    {
      "inputs": [
        {
          "internalType": "bytes32",
          "name": "",
          "type": "bytes32"
        }
      ],
      "name": "projectExists",
      "outputs": [
        {
          "internalType": "bool",
          "name": "",
          "type": "bool"
        }
      ],
      "stateMutability": "view",
      "type": "function",
      "constant": true
    },
    {
      "inputs": [
        {
          "internalType": "uint256",
          "name": "",
          "type": "uint256"
        }
      ],
      "name": "projectId",
      "outputs": [
        {
          "internalType": "bytes32",
          "name": "",
          "type": "bytes32"
        }
      ],
      "stateMutability": "view",
      "type": "function",
      "constant": true
    },
    {
      "inputs": [],
      "name": "rahatContract",
      "outputs": [
        {
          "internalType": "contract Rahat",
          "name": "",
          "type": "address"
        }
      ],
      "stateMutability": "view",
      "type": "function",
      "constant": true
    },
    {
      "inputs": [
        {
          "internalType": "bytes4",
          "name": "interfaceId",
          "type": "bytes4"
        }
      ],
      "name": "supportsInterface",
      "outputs": [
        {
          "internalType": "bool",
          "name": "",
          "type": "bool"
        }
      ],
      "stateMutability": "view",
      "type": "function",
      "constant": true
    },
    {
      "inputs": [
        {
          "internalType": "string",
          "name": "_projectId",
          "type": "string"
        },
        {
          "internalType": "uint256",
          "name": "_projectCapital",
          "type": "uint256"
        }
      ],
      "name": "setProjectBudget_ERC20",
      "outputs": [],
      "stateMutability": "nonpayable",
      "type": "function"
    },
    {
      "inputs": [
        {
          "internalType": "string",
          "name": "_projectId",
          "type": "string"
        },
        {
          "internalType": "uint256",
          "name": "_projectCapital",
          "type": "uint256"
        },
        {
          "internalType": "uint256",
          "name": "tokenId",
          "type": "uint256"
        }
      ],
      "name": "setProjectBudget_ERC1155",
      "outputs": [],
      "stateMutability": "nonpayable",
      "type": "function"
    },
    {
      "inputs": [
        {
          "internalType": "string",
          "name": "_name",
          "type": "string"
        },
        {
          "internalType": "string",
          "name": "_symbol",
          "type": "string"
        },
        {
          "internalType": "string",
          "name": "_projectId",
          "type": "string"
        },
        {
          "internalType": "uint256",
          "name": "_projectCapital",
          "type": "uint256"
        }
      ],
      "name": "createAndsetProjectBudget_ERC1155",
      "outputs": [],
      "stateMutability": "nonpayable",
      "type": "function"
    },
    {
      "inputs": [
        {
          "internalType": "string",
          "name": "_projectId",
          "type": "string"
        },
        {
          "internalType": "uint256",
          "name": "_projectCapital",
          "type": "uint256"
        },
        {
          "internalType": "uint256",
          "name": "tokenId",
          "type": "uint256"
        }
      ],
      "name": "revokeProjectBudget",
      "outputs": [],
      "stateMutability": "nonpayable",
      "type": "function"
    },
    {
      "inputs": [
        {
          "internalType": "string",
          "name": "_projectId",
          "type": "string"
        },
        {
          "internalType": "uint256",
          "name": "_projectCapital",
          "type": "uint256"
        }
      ],
      "name": "revokeProjectBudget",
      "outputs": [],
      "stateMutability": "nonpayable",
      "type": "function"
    },
    {
      "inputs": [
        {
          "internalType": "string",
          "name": "_projectId",
          "type": "string"
        }
      ],
      "name": "suspendProject",
      "outputs": [],
      "stateMutability": "nonpayable",
      "type": "function"
    },
    {
      "inputs": [
        {
          "internalType": "string",
          "name": "_projectId",
          "type": "string"
        }
      ],
      "name": "getProjecERC20Balance",
      "outputs": [
        {
          "internalType": "uint256",
          "name": "_balance",
          "type": "uint256"
        }
      ],
      "stateMutability": "view",
      "type": "function",
      "constant": true
    },
    {
      "inputs": [
        {
          "internalType": "string",
          "name": "_projectId",
          "type": "string"
        },
        {
          "internalType": "uint256",
          "name": "tokenId",
          "type": "uint256"
        }
      ],
      "name": "getProjectERC1155Balance",
      "outputs": [
        {
          "internalType": "uint256",
          "name": "_balance",
          "type": "uint256"
        }
      ],
      "stateMutability": "view",
      "type": "function",
      "constant": true
    },
    {
      "inputs": [
        {
          "internalType": "uint256",
          "name": "_amount",
          "type": "uint256"
        }
      ],
      "name": "withdrawToken",
      "outputs": [],
      "stateMutability": "nonpayable",
      "type": "function"
    },
    {
      "inputs": [
        {
          "internalType": "address",
          "name": "_address",
          "type": "address"
        },
        {
          "internalType": "uint256",
          "name": "_amount",
          "type": "uint256"
        }
      ],
      "name": "mintERC20",
      "outputs": [],
      "stateMutability": "nonpayable",
      "type": "function"
    },
    {
      "inputs": [
        {
          "internalType": "string",
          "name": "_name",
          "type": "string"
        },
        {
          "internalType": "string",
          "name": "_symbol",
          "type": "string"
        },
        {
          "internalType": "uint256",
          "name": "_amount",
          "type": "uint256"
        }
      ],
      "name": "mintERC1155",
      "outputs": [],
      "stateMutability": "nonpayable",
      "type": "function"
    },
    {
      "inputs": [
        {
          "internalType": "address",
          "name": "_account",
          "type": "address"
        }
      ],
      "name": "addOwner",
      "outputs": [],
      "stateMutability": "nonpayable",
      "type": "function"
    }
  ],
  "bytecode": "0x60806040523480156200001157600080fd5b506040516200227d3803806200227d833981016040819052620000349162000116565b600080546001600160a01b038781166001600160a01b03199283168117909355600180548883169084161790556002805491871691909216179055604051631f132a7360e21b815230600482015260248101849052637c4ca9cc90604401602060405180830381600087803b158015620000ad57600080fd5b505af1158015620000c2573d6000803e3d6000fd5b505050506040513d601f19601f82011682018060405250810190620000e891906200018a565b506001600160a01b03166000908152600360205260409020805460ff1916600117905550620001bd92505050565b600080600080600060a086880312156200012f57600080fd5b85516200013c81620001a4565b60208701519095506200014f81620001a4565b60408701519094506200016281620001a4565b6060870151608088015191945092506200017c81620001a4565b809150509295509295909350565b6000602082840312156200019d57600080fd5b5051919050565b6001600160a01b0381168114620001ba57600080fd5b50565b6120b080620001cd6000396000f3fe608060405234801561001057600080fd5b50600436106101425760003560e01c80637065cb48116100b8578063bc197c811161007c578063bc197c81146102d4578063c78f64781461030c578063d56022d71461031f578063d665b7a414610332578063f23a6e6114610345578063f7597a4f1461036457600080fd5b80637065cb4814610275578063785e9e86146102885780637c4ca9cc1461029b578063801fdb87146102ae5780638b4176c6146102c157600080fd5b80633fdba5751161010a5780633fdba575146101db5780634dd1f816146101ee5780634ff1a5691461020157806350baa6221461022c57806363c183f01461023f578063666e1b391461025257600080fd5b806301ffc9a7146101475780630ed892621461016f578063179680b11461018457806334854e2f1461019757806338975895146101b8575b600080fd5b61015a610155366004611bb7565b610384565b60405190151581526020015b60405180910390f35b61018261017d366004611be1565b6103bb565b005b610182610192366004611d13565b61045c565b6101aa6101a5366004611be1565b610788565b604051908152602001610166565b61015a6101c6366004611b9e565b60056020526000908152604090205460ff1681565b6101826101e9366004611d58565b6108a8565b6101aa6101fc366004611b9e565b610b3f565b600254610214906001600160a01b031681565b6040516001600160a01b039091168152602001610166565b61018261023a366004611b9e565b610b60565b61018261024d366004611d58565b610c7a565b61015a610260366004611a21565b60036020526000908152604090205460ff1681565b610182610283366004611a21565b6110a0565b600054610214906001600160a01b031681565b6101826102a9366004611b52565b6110f3565b6101aa6102bc366004611d13565b6111a8565b6101826102cf366004611ca6565b6112ce565b6102f36102e2366004611a43565b63bc197c8160e01b95945050505050565b6040516001600160e01b03199091168152602001610166565b61018261031a366004611c16565b611383565b600154610214906001600160a01b031681565b610182610340366004611d13565b6117ae565b6102f3610353366004611aed565b63f23a6e6160e01b95945050505050565b6101aa610372366004611b9e565b60066020526000908152604090205481565b60006001600160e01b03198216630271189760e51b14806103b557506301ffc9a760e01b6001600160e01b03198316145b92915050565b3360009081526003602052604090205460ff166103f35760405162461bcd60e51b81526004016103ea90611ec3565b60405180910390fd5b8060006103ff826118e4565b60008181526005602052604090205490915060ff161561041e57505050565b60048054600181810190925560008051602061203b833981519152018290556000828152600560205260409020805460ff191690911790555b505050565b3360009081526003602052604090205460ff1661048b5760405162461bcd60e51b81526004016103ea90611ec3565b816000610497826118e4565b60008181526005602052604090205490915060ff16156106005760006104bc856118e4565b9050836006600083815260200190815260200160002060008282546104e19190611f93565b909155505060005460025460405163a9059cbb60e01b81526001600160a01b0391821660048201526024810187905291169063a9059cbb90604401602060405180830381600087803b15801561053657600080fd5b505af115801561054a573d6000803e3d6000fd5b505050506040513d601f19601f8201168201806040525081019061056e9190611b7c565b50600254604051638825756760e01b815260048101839052602481018690526001600160a01b0390911690638825756790604401600060405180830381600087803b1580156105bc57600080fd5b505af11580156105d0573d6000803e3d6000fd5b505050508060008051602061205b833981519152856040516105f29190611f17565b60405180910390a250610782565b60048054600181810190925560008051602061203b833981519152018290556000828152600560205260408120805460ff1916909217909155610642856118e4565b9050836006600083815260200190815260200160002060008282546106679190611f93565b909155505060005460025460405163a9059cbb60e01b81526001600160a01b0391821660048201526024810187905291169063a9059cbb90604401602060405180830381600087803b1580156106bc57600080fd5b505af11580156106d0573d6000803e3d6000fd5b505050506040513d601f19601f820116820180604052508101906106f49190611b7c565b50600254604051638825756760e01b815260048101839052602481018690526001600160a01b0390911690638825756790604401600060405180830381600087803b15801561074257600080fd5b505af1158015610756573d6000803e3d6000fd5b505050508060008051602061205b833981519152856040516107789190611f17565b60405180910390a2505b50505050565b3360009081526003602052604081205460ff166107b75760405162461bcd60e51b81526004016103ea90611ec3565b60006107c2836118e4565b60008181526005602052604090205490915060ff166108235760405162461bcd60e51b815260206004820152601e60248201527f52414841545f41444d494e3a20496e76616c69642050726f6a6563744944000060448201526064016103ea565b6002546040516367bc276d60e11b8152600481018390526001600160a01b039091169063cf784eda9060240160206040518083038186803b15801561086757600080fd5b505afa15801561087b573d6000803e3d6000fd5b505050506040513d601f19601f8201168201806040525081019061089f9190611da6565b9150505b919050565b3360009081526003602052604090205460ff166108d75760405162461bcd60e51b81526004016103ea90611ec3565b8260006108e3826118e4565b60008181526005602052604090205490915060ff1615610a0257600154604051634f558e7960e01b8152600481018590526001600160a01b0390911690634f558e799060240160206040518083038186803b15801561094157600080fd5b505afa158015610955573d6000803e3d6000fd5b505050506040513d601f19601f820116820180604052508101906109799190611b7c565b6109955760405162461bcd60e51b81526004016103ea90611e75565b60006109a0866118e4565b60008181526007602090815260408083208884529091528120805492935087929091906109ce908490611f93565b92505081905550838160008051602061201b833981519152876040516109f49190611f3b565b60405180910390a350610b38565b600480546001808201835560008051602061203b83398151915290910183905560008381526005602052604090819020805460ff19168317905590549051634f558e7960e01b81529182018590526001600160a01b031690634f558e799060240160206040518083038186803b158015610a7b57600080fd5b505afa158015610a8f573d6000803e3d6000fd5b505050506040513d601f19601f82011682018060405250810190610ab39190611b7c565b610acf5760405162461bcd60e51b81526004016103ea90611e75565b6000610ada866118e4565b6000818152600760209081526040808320888452909152812080549293508792909190610b08908490611f93565b92505081905550838160008051602061201b83398151915287604051610b2e9190611f3b565b60405180910390a3505b5050505050565b60048181548110610b4f57600080fd5b600091825260209091200154905081565b3360009081526003602052604090205460ff16610b8f5760405162461bcd60e51b81526004016103ea90611ec3565b60005460405163a9059cbb60e01b8152336004820152602481018390526001600160a01b039091169063a9059cbb90604401602060405180830381600087803b158015610bdb57600080fd5b505af1158015610bef573d6000803e3d6000fd5b505050506040513d601f19601f82011682018060405250810190610c139190611b7c565b610c775760405162461bcd60e51b815260206004820152602f60248201527f52414841545f41444d494e3a204572726f72207768696c652063616c6c696e6760448201526e081d1bdad95b8818dbdb9d1c9858dd608a1b60648201526084016103ea565b50565b3360009081526003602052604090205460ff16610ca95760405162461bcd60e51b81526004016103ea90611ec3565b826000610cb5826118e4565b60008181526005602052604090205490915060ff1615610e9d57600154604051634f558e7960e01b8152600481018590526001600160a01b0390911690634f558e799060240160206040518083038186803b158015610d1357600080fd5b505afa158015610d27573d6000803e3d6000fd5b505050506040513d601f19601f82011682018060405250810190610d4b9190611b7c565b610d675760405162461bcd60e51b81526004016103ea90611e75565b6000610d72866118e4565b6000818152600760209081526040808320888452909152812080549293508792909190610da0908490611f93565b9091555050600154600254604051637921219560e11b81526001600160a01b039283169263f242432a92610de09230929091169089908b90600401611e07565b600060405180830381600087803b158015610dfa57600080fd5b505af1158015610e0e573d6000803e3d6000fd5b5050600254604051630f6025eb60e01b81526004810185905260248101899052604481018890526001600160a01b039091169250630f6025eb9150606401600060405180830381600087803b158015610e6657600080fd5b505af1158015610e7a573d6000803e3d6000fd5b50505050838160008051602061201b833981519152876040516109f49190611f17565b600480546001808201835560008051602061203b83398151915290910183905560008381526005602052604090819020805460ff19168317905590549051634f558e7960e01b81529182018590526001600160a01b031690634f558e799060240160206040518083038186803b158015610f1657600080fd5b505afa158015610f2a573d6000803e3d6000fd5b505050506040513d601f19601f82011682018060405250810190610f4e9190611b7c565b610f6a5760405162461bcd60e51b81526004016103ea90611e75565b6000610f75866118e4565b6000818152600760209081526040808320888452909152812080549293508792909190610fa3908490611f93565b9091555050600154600254604051637921219560e11b81526001600160a01b039283169263f242432a92610fe39230929091169089908b90600401611e07565b600060405180830381600087803b158015610ffd57600080fd5b505af1158015611011573d6000803e3d6000fd5b5050600254604051630f6025eb60e01b81526004810185905260248101899052604481018890526001600160a01b039091169250630f6025eb9150606401600060405180830381600087803b15801561106957600080fd5b505af115801561107d573d6000803e3d6000fd5b50505050838160008051602061201b83398151915287604051610b2e9190611f17565b3360009081526003602052604090205460ff166110cf5760405162461bcd60e51b81526004016103ea90611ec3565b6001600160a01b03166000908152600360205260409020805460ff19166001179055565b3360009081526003602052604090205460ff166111225760405162461bcd60e51b81526004016103ea90611ec3565b600054604051631f132a7360e21b81526001600160a01b0384811660048301526024820184905290911690637c4ca9cc90604401602060405180830381600087803b15801561117057600080fd5b505af1158015611184573d6000803e3d6000fd5b505050506040513d601f19601f820116820180604052508101906104579190611da6565b3360009081526003602052604081205460ff166111d75760405162461bcd60e51b81526004016103ea90611ec3565b60006111e2846118e4565b60008181526005602052604090205490915060ff166112435760405162461bcd60e51b815260206004820152601e60248201527f52414841545f41444d494e3a20496e76616c69642050726f6a6563744944000060448201526064016103ea565b600254604051630e72f45760e21b815260048101839052602481018590526001600160a01b03909116906339cbd15c9060440160206040518083038186803b15801561128e57600080fd5b505afa1580156112a2573d6000803e3d6000fd5b505050506040513d601f19601f820116820180604052508101906112c69190611da6565b949350505050565b3360009081526003602052604090205460ff166112fd5760405162461bcd60e51b81526004016103ea90611ec3565b6001546040516345a0bb6360e11b81526001600160a01b0390911690638b4176c69061133190869086908690600401611e3f565b602060405180830381600087803b15801561134b57600080fd5b505af115801561135f573d6000803e3d6000fd5b505050506040513d601f19601f820116820180604052508101906107829190611da6565b3360009081526003602052604090205460ff166113b25760405162461bcd60e51b81526004016103ea90611ec3565b8160006113be826118e4565b60008181526005602052604090205490915060ff16156115a6576001546040516345a0bb6360e11b81526000916001600160a01b031690638b4176c69061140d908a908a908990600401611e3f565b602060405180830381600087803b15801561142757600080fd5b505af115801561143b573d6000803e3d6000fd5b505050506040513d601f19601f8201168201806040525081019061145f9190611da6565b9050600061146c866118e4565b600081815260076020908152604080832086845290915281208054929350879290919061149a908490611f93565b9091555050600154600254604051637921219560e11b81526001600160a01b039283169263f242432a926114da9230929091169087908b90600401611e07565b600060405180830381600087803b1580156114f457600080fd5b505af1158015611508573d6000803e3d6000fd5b5050600254604051630f6025eb60e01b81526004810185905260248101899052604481018690526001600160a01b039091169250630f6025eb9150606401600060405180830381600087803b15801561156057600080fd5b505af1158015611574573d6000803e3d6000fd5b50505050818160008051602061201b833981519152876040516115979190611f17565b60405180910390a350506117a6565b600480546001818101835560008051602061203b833981519152909101839055600083815260056020526040808220805460ff191684179055915491516345a0bb6360e11b815290926001600160a01b0390921691638b4176c691611611918b918b918a9101611e3f565b602060405180830381600087803b15801561162b57600080fd5b505af115801561163f573d6000803e3d6000fd5b505050506040513d601f19601f820116820180604052508101906116639190611da6565b90506000611670866118e4565b600081815260076020908152604080832086845290915281208054929350879290919061169e908490611f93565b9091555050600154600254604051637921219560e11b81526001600160a01b039283169263f242432a926116de9230929091169087908b90600401611e07565b600060405180830381600087803b1580156116f857600080fd5b505af115801561170c573d6000803e3d6000fd5b5050600254604051630f6025eb60e01b81526004810185905260248101899052604481018690526001600160a01b039091169250630f6025eb9150606401600060405180830381600087803b15801561176457600080fd5b505af1158015611778573d6000803e3d6000fd5b50505050818160008051602061201b8339815191528760405161179b9190611f17565b60405180910390a350505b505050505050565b3360009081526003602052604090205460ff166117dd5760405162461bcd60e51b81526004016103ea90611ec3565b8160006117e9826118e4565b60008181526005602052604090205490915060ff161561185857600061180e856118e4565b9050836006600083815260200190815260200160002060008282546118339190611fab565b925050819055508060008051602061205b833981519152856040516105f29190611f3b565b60048054600181810190925560008051602061203b833981519152018290556000828152600560205260408120805460ff191690921790915561189a856118e4565b9050836006600083815260200190815260200160002060008282546118bf9190611fab565b925050819055508060008051602061205b833981519152856040516107789190611f3b565b6000816040516020016118f79190611deb565b604051602081830303815290604052805190602001209050919050565b80356001600160a01b03811681146108a357600080fd5b600082601f83011261193c57600080fd5b8135602067ffffffffffffffff82111561195857611958612004565b8160051b611967828201611f62565b83815282810190868401838801850189101561198257600080fd5b600093505b858410156119a5578035835260019390930192918401918401611987565b50979650505050505050565b600082601f8301126119c257600080fd5b813567ffffffffffffffff8111156119dc576119dc612004565b6119ef601f8201601f1916602001611f62565b818152846020838601011115611a0457600080fd5b816020850160208301376000918101602001919091529392505050565b600060208284031215611a3357600080fd5b611a3c82611914565b9392505050565b600080600080600060a08688031215611a5b57600080fd5b611a6486611914565b9450611a7260208701611914565b9350604086013567ffffffffffffffff80821115611a8f57600080fd5b611a9b89838a0161192b565b94506060880135915080821115611ab157600080fd5b611abd89838a0161192b565b93506080880135915080821115611ad357600080fd5b50611ae0888289016119b1565b9150509295509295909350565b600080600080600060a08688031215611b0557600080fd5b611b0e86611914565b9450611b1c60208701611914565b93506040860135925060608601359150608086013567ffffffffffffffff811115611b4657600080fd5b611ae0888289016119b1565b60008060408385031215611b6557600080fd5b611b6e83611914565b946020939093013593505050565b600060208284031215611b8e57600080fd5b81518015158114611a3c57600080fd5b600060208284031215611bb057600080fd5b5035919050565b600060208284031215611bc957600080fd5b81356001600160e01b031981168114611a3c57600080fd5b600060208284031215611bf357600080fd5b813567ffffffffffffffff811115611c0a57600080fd5b6112c6848285016119b1565b60008060008060808587031215611c2c57600080fd5b843567ffffffffffffffff80821115611c4457600080fd5b611c50888389016119b1565b95506020870135915080821115611c6657600080fd5b611c72888389016119b1565b94506040870135915080821115611c8857600080fd5b50611c95878288016119b1565b949793965093946060013593505050565b600080600060608486031215611cbb57600080fd5b833567ffffffffffffffff80821115611cd357600080fd5b611cdf878388016119b1565b94506020860135915080821115611cf557600080fd5b50611d02868287016119b1565b925050604084013590509250925092565b60008060408385031215611d2657600080fd5b823567ffffffffffffffff811115611d3d57600080fd5b611d49858286016119b1565b95602094909401359450505050565b600080600060608486031215611d6d57600080fd5b833567ffffffffffffffff811115611d8457600080fd5b611d90868287016119b1565b9660208601359650604090950135949350505050565b600060208284031215611db857600080fd5b5051919050565b60008151808452611dd7816020860160208601611fc2565b601f01601f19169290920160200192915050565b60008251611dfd818460208701611fc2565b9190910192915050565b6001600160a01b0394851681529290931660208301526040820152606081019190915260a06080820181905260009082015260c00190565b606081526000611e526060830186611dbf565b8281036020840152611e648186611dbf565b915050826040830152949350505050565b6020808252602e908201527f526168617441646d696e3a20546f6b656e207769746820676976656e2069642060408201526d646f65736e27742065786973747360901b606082015260800190565b60208082526034908201527f52414841545f41444d494e3a204f6e6c792041646d696e2063616e20657865636040820152733aba32903a3434b9903a3930b739b0b1ba34b7b760611b606082015260800190565b9081526040602082018190526003908201526218591960ea1b606082015260800190565b908152604060208201819052600690820152651919591d58dd60d21b606082015260800190565b604051601f8201601f1916810167ffffffffffffffff81118282101715611f8b57611f8b612004565b604052919050565b60008219821115611fa657611fa6611fee565b500190565b600082821015611fbd57611fbd611fee565b500390565b60005b83811015611fdd578181015183820152602001611fc5565b838111156107825750506000910152565b634e487b7160e01b600052601160045260246000fd5b634e487b7160e01b600052604160045260246000fdfe01f512e18cf4998febd0989861a31e6a2d71570ad0fe29486e62613ba53a65408a35acfbc15ff81a39ae7d344fd709f28e8600b4aa8c65c6b64bfe7fe36bd19bfb81835777f5c1e6fd7d6eb84fa729934ae66884bf599bb714743f575ec7b577a264697066735822122006938423eb35f2c5144cd2285cbb664bc42214f1b41e53473d4a76123c456c3164736f6c63430008070033",
  "immutableReferences": {},
  "source": "//SPDX-License-Identifier: UNLICENSED\r\n\r\npragma solidity 0.8.7;\r\n\r\nimport './RahatERC20.sol';\r\nimport './RahatERC1155.sol';\r\nimport './Rahat.sol';\r\n\r\n/// @title Rahat Admin contract - owns all the tokens initially minted\r\n/// @author Rumsan Associates\r\n/// @notice You can use this contract to manage Rahat tokens and projects\r\n/// @dev All function calls are only executed by contract owner\r\ncontract RahatAdmin is ERC1155Holder {\r\n\tevent ProjectERC20BudgetUpdated(bytes32 indexed projectId, uint256 projectCapital,string tag);\r\n\tevent ProjectERC1155BudgetUpdated(bytes32 indexed projectId, uint256 indexed tokenId, uint256 projectCapital,string tag);\r\n\tevent Minted(bool success);\r\n\r\n\t// uint256 public mintData ;\r\n\t// bool public mintSuccess =false;\r\n\r\n    RahatERC20 public erc20;\r\n    RahatERC1155 public erc1155;\r\n\tRahat public rahatContract;\r\n\tmapping(address => bool) public owner;\r\n\r\n\t/// @notice list of projects\r\n\tbytes32[] public projectId;\r\n\r\n\t/// @notice check if projectId exists or not;\r\n\tmapping(bytes32 => bool) public projectExists;\r\n\r\n\t/// @notice assign budgets to project\r\n\tmapping(bytes32 => uint256) public projectERC20Capital;\r\n\tmapping(bytes32 => mapping(uint256 => uint256)) projectERC1155Capital; // projectId => tokenId => balance\r\n\r\n\tmodifier OnlyOwner {\r\n\t\trequire(owner[msg.sender], 'RAHAT_ADMIN: Only Admin can execute this transaction');\r\n\t\t_;\r\n\t}\r\n\r\n\tmodifier CheckProject(string memory _projectId) {\r\n\t\tbytes32 _id = findHash(_projectId);\r\n\t\tif (projectExists[_id]) {\r\n\t\t\t_;\r\n\t\t} else {\r\n\t\t\tprojectId.push(_id);\r\n\t\t\tprojectExists[_id] = true;\r\n\t\t\t_;\r\n\t\t}\r\n\t}\r\n\t\r\n\t\r\n\t\r\n\t\r\n\r\n\t/// @notice All the supply is allocated to this contract\r\n\t/// @dev deploys AidToken and Rahat contract by sending supply to this contract\r\n\r\n\tconstructor(\r\n\t    RahatERC20 _erc20, \r\n\t    RahatERC1155 _erc1155,\r\n\t\tRahat _rahatContract,\r\n\t\tuint256 _intitialSupply,\r\n\t\taddress _admin\r\n\t) {\r\n\t\terc20 = _erc20;\r\n\t\terc1155 = _erc1155;\r\n\t\trahatContract = _rahatContract;\r\n\t\terc20.mintERC20(address(this), _intitialSupply);\r\n\t\t//(bool success, bytes memory result) = address(_tokenContract).call(abi.encodeWithSignature(\"mintERC20(address, uint256)\", address(this), _intitialSupply));\r\n\t\t//mintSuccess = success;\r\n\t\t//mintData = abi.decode(result,(uint256));\r\n\r\n\t\towner[_admin] = true;\r\n\t}\r\n\r\n    \r\n\t/// @notice allocate token to projects\r\n\t/// @dev Allocates token to the given projectId, Creates project and transfer tokens to Rahat contract.\r\n\t/// @param _projectId Unique Id of Project\r\n\t/// @param _projectCapital Budget Allocated to project\r\n\tfunction setProjectBudget_ERC20(string memory _projectId, uint256 _projectCapital)\r\n\t\tpublic\r\n\t\tOnlyOwner\r\n\t\tCheckProject(_projectId)\r\n\t{\r\n\t\tbytes32 _id = findHash(_projectId);\r\n\t\tprojectERC20Capital[_id] += _projectCapital;\r\n\t\terc20.transfer(address(rahatContract), _projectCapital);\r\n\t\trahatContract.updateProjectBudget(_id, _projectCapital);\r\n\r\n\t\temit ProjectERC20BudgetUpdated(_id, _projectCapital,'add');\r\n\t}\r\n\t\r\n\t/// @notice allocate ERC1155 tokens to projects\r\n\t/// @dev Allocates token to the given projectId, Creates project and transfer tokens to Rahat contract.\r\n\t/// @param _projectId Unique Id of Project\r\n\t/// @param _projectCapital amount of ERC1155 token with _tokenId allocated to project\r\n\t/// @param tokenId ERC1155 token ID\r\n\t\tfunction setProjectBudget_ERC1155(string memory _projectId, uint256 _projectCapital,uint256 tokenId)\r\n\t\tpublic\r\n\t\tOnlyOwner\r\n\t\tCheckProject(_projectId)\r\n\t{\r\n\t    require(erc1155.exists(tokenId),\"RahatAdmin: Token with given id doesn't exists\");\r\n\t    \r\n\t\tbytes32 _id = findHash(_projectId);\r\n\t\tprojectERC1155Capital[_id][tokenId] += _projectCapital;\r\n\t\terc1155.safeTransferFrom(address(this),address(rahatContract),tokenId, _projectCapital,'');\r\n\t\trahatContract.updateProjectBudget(_id, _projectCapital,tokenId);\r\n\r\n\t\temit ProjectERC1155BudgetUpdated(_id,tokenId, _projectCapital,'add');\r\n\t}\r\n\r\n\t/// @notice allocate ERC1155 tokens to projects\r\n\t/// @dev create token and allocate them to the given projectId, Creates project and transfer tokens to Rahat contract.\r\n\t///@param _name name of NFT\r\n    ///@param _symbol symbol of NFT\r\n\t/// @param _projectId Unique Id of Project\r\n\t/// @param _projectCapital amount of ERC1155 token with _tokenId allocated to project\r\n\t/// @param _projectCapital ERC1155 token ID\r\n\tfunction createAndsetProjectBudget_ERC1155(string memory _name, string memory _symbol, string memory _projectId, uint256 _projectCapital)\r\n\t\tpublic\r\n\t\tOnlyOwner\r\n\t\tCheckProject(_projectId)\r\n\t{\r\n\t    \r\n\t    uint256 tokenId = erc1155.mintERC1155(_name,_symbol,_projectCapital);\r\n\t    \r\n\t\tbytes32 _id = findHash(_projectId);\r\n\t\tprojectERC1155Capital[_id][tokenId] += _projectCapital;\r\n\t\terc1155.safeTransferFrom(address(this),address(rahatContract),tokenId, _projectCapital,'');\r\n\t\trahatContract.updateProjectBudget(_id, _projectCapital,tokenId);\r\n\r\n\t\temit ProjectERC1155BudgetUpdated(_id,tokenId, _projectCapital,'add');\r\n\t}\r\n\t\r\n\t\r\n\r\n\t\tfunction revokeProjectBudget(string memory _projectId, uint256 _projectCapital)\r\n\t\tpublic\r\n\t\tOnlyOwner\r\n\t\tCheckProject(_projectId)\r\n\t{\r\n\t\tbytes32 _id = findHash(_projectId);\r\n\t\tprojectERC20Capital[_id] -= _projectCapital;\r\n\t//\ttokenContract.transfer(address(rahatContract), _projectCapital);\r\n\t\t//rahatContract.updateProjectBudget(_id, _projectCapital);\r\n\r\n\t\temit ProjectERC20BudgetUpdated(_id, _projectCapital,'deduct');\r\n\t}\r\n\t\r\n\t\tfunction revokeProjectBudget(string memory _projectId, uint256 _projectCapital,uint256 tokenId)\r\n\t\tpublic\r\n\t\tOnlyOwner\r\n\t\tCheckProject(_projectId)\r\n\t{\r\n\t    require(erc1155.exists(tokenId),\"RahatAdmin: Token with given id doesn't exists\");\r\n\t    \r\n\t\tbytes32 _id = findHash(_projectId);\r\n\t\tprojectERC1155Capital[_id][tokenId] += _projectCapital;\r\n\t//\ttokenContract.safeTransferFrom(address(this),address(rahatContract),tokenId, _projectCapital,'');\r\n\t//\trahatContract.updateProjectBudget(_id, _projectCapital,tokenId);\r\n\r\n\t\temit ProjectERC1155BudgetUpdated(_id,tokenId, _projectCapital,'deduct');\r\n\t}\r\n\t\r\n\tfunction suspendProject(string memory _projectId) public OnlyOwner CheckProject(_projectId){\r\n\t    \r\n\t}\r\n\r\n\t/// @notice get the current balance of project\r\n\t/// @param _projectId Unique Id of project\r\n\tfunction getProjecERC20Balance(string memory _projectId) public view OnlyOwner returns (uint256 _balance) {\r\n\t\tbytes32 _id = findHash(_projectId);\r\n\t\trequire(projectExists[_id], 'RAHAT_ADMIN: Invalid ProjectID');\r\n\t\treturn (rahatContract.getProjectBalance(_id));\r\n\t}\r\n\r\n\t\r\n\t/// @notice get the current ERC1155 amount of given tokenId in the project\r\n\t/// @param _projectId Unique Id of project\r\n\t/// @param tokenId ERC1155 tokenID\r\n\tfunction getProjectERC1155Balance(string memory _projectId,uint256 tokenId) public view OnlyOwner returns (uint256 _balance) {\r\n\t\tbytes32 _id = findHash(_projectId);\r\n\t\trequire(projectExists[_id], 'RAHAT_ADMIN: Invalid ProjectID');\r\n\t\treturn (rahatContract.getProjectBalance(_id,tokenId));\r\n\t}\r\n\r\n\t// TODO:   //SANTOSH - Can't we take default error of transferring?\r\n\t/// @notice take out token from this contract\r\n\t/// @param _amount Amount to withdraw token from this contract\r\n\tfunction withdrawToken(uint256 _amount) public OnlyOwner {\r\n\t\trequire(erc20.transfer(msg.sender, _amount), 'RAHAT_ADMIN: Error while calling token contract');\r\n\t}\r\n\r\n\t/// @notice mint new tokens\r\n\t/// @param _address address to send the minted tokens\r\n\t/// @param _amount Amount of token to Mint\r\n\tfunction mintERC20(address _address, uint256 _amount) public OnlyOwner {\r\n\t\terc20.mintERC20(_address, _amount);\r\n\t}\r\n\t\r\n\t/// @dev mint new tokens\r\n    ///@param _name name of NFT\r\n    ///@param _symbol symbol of NFT\r\n    ///@param _amount amount of NFT\r\n\tfunction mintERC1155(string memory _name,\r\n\t\tstring memory _symbol,uint256 _amount) public OnlyOwner {\r\n\t\t    erc1155.mintERC1155(_name,_symbol,_amount);\r\n\t\t}\r\n\r\n\t/// @notice Add an account to the owner role. Restricted to owners.\r\n\t/// @param _account address of new owner\r\n\tfunction addOwner(address _account) public OnlyOwner {\r\n\t\towner[_account] = true;\r\n\t}\r\n\r\n\t/// @notice generates the hash of the given string\r\n\t/// @param _data String of which hash is to be generated\r\n\tfunction findHash(string memory _data) private pure returns (bytes32) {\r\n\t\treturn keccak256(abi.encodePacked(_data));\r\n\t}\r\n}\r\n",
  "sourcePath": "D:\\projects\\Rahat\\rahat-contracts\\contracts\\RahatAdmin.sol",
  "compiler": {
    "name": "solc",
    "version": "0.8.7+commit.e28d00a7.Emscripten.clang"
  },
  "schemaVersion": "3.4.3",
  "updatedAt": "2021-11-15T03:52:33.800Z",
  "networkType": "ethereum",
  "devdoc": {
    "author": "Rumsan Associates",
    "details": "All function calls are only executed by contract owner",
    "kind": "dev",
    "methods": {
      "addOwner(address)": {
        "params": {
          "_account": "address of new owner"
        }
      },
      "constructor": {
        "details": "deploys AidToken and Rahat contract by sending supply to this contract"
      },
      "createAndsetProjectBudget_ERC1155(string,string,string,uint256)": {
        "details": "create token and allocate them to the given projectId, Creates project and transfer tokens to Rahat contract.",
        "params": {
          "_name": "name of NFT",
          "_projectCapital": "ERC1155 token ID",
          "_projectId": "Unique Id of Project",
          "_symbol": "symbol of NFT"
        }
      },
      "getProjecERC20Balance(string)": {
        "params": {
          "_projectId": "Unique Id of project"
        }
      },
      "getProjectERC1155Balance(string,uint256)": {
        "params": {
          "_projectId": "Unique Id of project",
          "tokenId": "ERC1155 tokenID"
        }
      },
      "mintERC1155(string,string,uint256)": {
        "details": "mint new tokens",
        "params": {
          "_amount": "amount of NFT",
          "_name": "name of NFT",
          "_symbol": "symbol of NFT"
        }
      },
      "mintERC20(address,uint256)": {
        "params": {
          "_address": "address to send the minted tokens",
          "_amount": "Amount of token to Mint"
        }
      },
      "setProjectBudget_ERC1155(string,uint256,uint256)": {
        "details": "Allocates token to the given projectId, Creates project and transfer tokens to Rahat contract.",
        "params": {
          "_projectCapital": "amount of ERC1155 token with _tokenId allocated to project",
          "_projectId": "Unique Id of Project",
          "tokenId": "ERC1155 token ID"
        }
      },
      "setProjectBudget_ERC20(string,uint256)": {
        "details": "Allocates token to the given projectId, Creates project and transfer tokens to Rahat contract.",
        "params": {
          "_projectCapital": "Budget Allocated to project",
          "_projectId": "Unique Id of Project"
        }
      },
      "supportsInterface(bytes4)": {
        "details": "See {IERC165-supportsInterface}."
      },
      "withdrawToken(uint256)": {
        "params": {
          "_amount": "Amount to withdraw token from this contract"
        }
      }
    },
    "title": "Rahat Admin contract - owns all the tokens initially minted",
    "version": 1
  },
  "userdoc": {
    "kind": "user",
    "methods": {
      "addOwner(address)": {
        "notice": "Add an account to the owner role. Restricted to owners."
      },
      "constructor": {
        "notice": "All the supply is allocated to this contract"
      },
      "createAndsetProjectBudget_ERC1155(string,string,string,uint256)": {
        "notice": "allocate ERC1155 tokens to projects"
      },
      "getProjecERC20Balance(string)": {
        "notice": "get the current balance of project"
      },
      "getProjectERC1155Balance(string,uint256)": {
        "notice": "get the current ERC1155 amount of given tokenId in the project"
      },
      "mintERC20(address,uint256)": {
        "notice": "mint new tokens"
      },
      "projectERC20Capital(bytes32)": {
        "notice": "assign budgets to project"
      },
      "projectExists(bytes32)": {
        "notice": "check if projectId exists or not;"
      },
      "projectId(uint256)": {
        "notice": "list of projects"
      },
      "setProjectBudget_ERC1155(string,uint256,uint256)": {
        "notice": "allocate ERC1155 tokens to projects"
      },
      "setProjectBudget_ERC20(string,uint256)": {
        "notice": "allocate token to projects"
      },
      "withdrawToken(uint256)": {
        "notice": "take out token from this contract"
      }
    },
    "notice": "You can use this contract to manage Rahat tokens and projects",
    "version": 1
  }
}