{
  "contractName": "Rahat",
  "abi": [
    {
      "inputs": [
        {
          "internalType": "contract RahatERC20",
          "name": "_erc20",
          "type": "address"
        },
        {
          "internalType": "contract RahatERC1155",
          "name": "_erc1155",
          "type": "address"
        },
        {
          "internalType": "address",
          "name": "_admin",
          "type": "address"
        }
      ],
      "stateMutability": "nonpayable",
      "type": "constructor"
    },
    {
      "anonymous": false,
      "inputs": [
        {
          "indexed": true,
          "internalType": "address",
          "name": "vendor",
          "type": "address"
        },
        {
          "indexed": true,
          "internalType": "uint256",
          "name": "beneficiary",
          "type": "uint256"
        },
        {
          "indexed": false,
          "internalType": "uint256",
          "name": "amount",
          "type": "uint256"
        }
      ],
      "name": "ClaimAcquired",
      "type": "event"
    },
    {
      "anonymous": false,
      "inputs": [
        {
          "indexed": true,
          "internalType": "uint256",
          "name": "tokenId",
          "type": "uint256"
        },
        {
          "indexed": true,
          "internalType": "address",
          "name": "vendor",
          "type": "address"
        },
        {
          "indexed": true,
          "internalType": "uint256",
          "name": "beneficiary",
          "type": "uint256"
        },
        {
          "indexed": false,
          "internalType": "uint256",
          "name": "amount",
          "type": "uint256"
        }
      ],
      "name": "ClaimAcquired",
      "type": "event"
    },
    {
      "anonymous": false,
      "inputs": [
        {
          "indexed": true,
          "internalType": "address",
          "name": "vendor",
          "type": "address"
        },
        {
          "indexed": true,
          "internalType": "uint256",
          "name": "phone",
          "type": "uint256"
        },
        {
          "indexed": false,
          "internalType": "uint256",
          "name": "amount",
          "type": "uint256"
        }
      ],
      "name": "ClaimApproved",
      "type": "event"
    },
    {
      "anonymous": false,
      "inputs": [
        {
          "indexed": true,
          "internalType": "address",
          "name": "vendor",
          "type": "address"
        },
        {
          "indexed": true,
          "internalType": "uint256",
          "name": "phone",
          "type": "uint256"
        },
        {
          "indexed": false,
          "internalType": "uint256",
          "name": "amount",
          "type": "uint256"
        }
      ],
      "name": "Claimed",
      "type": "event"
    },
    {
      "anonymous": false,
      "inputs": [
        {
          "indexed": false,
          "internalType": "bytes",
          "name": "signature",
          "type": "bytes"
        },
        {
          "indexed": false,
          "internalType": "bytes32",
          "name": "digest",
          "type": "bytes32"
        },
        {
          "indexed": false,
          "internalType": "address",
          "name": "expectedSigner",
          "type": "address"
        },
        {
          "indexed": false,
          "internalType": "address",
          "name": "recoveredSigner",
          "type": "address"
        }
      ],
      "name": "InvalidSignature",
      "type": "event"
    },
    {
      "anonymous": false,
      "inputs": [
        {
          "indexed": true,
          "internalType": "bytes32",
          "name": "projectId",
          "type": "bytes32"
        },
        {
          "indexed": true,
          "internalType": "uint256",
          "name": "phone",
          "type": "uint256"
        },
        {
          "indexed": true,
          "internalType": "uint256",
          "name": "tokenId",
          "type": "uint256"
        },
        {
          "indexed": false,
          "internalType": "uint256",
          "name": "amount",
          "type": "uint256"
        }
      ],
      "name": "IssuedERC1155",
      "type": "event"
    },
    {
      "anonymous": false,
      "inputs": [
        {
          "indexed": true,
          "internalType": "bytes32",
          "name": "projectId",
          "type": "bytes32"
        },
        {
          "indexed": true,
          "internalType": "uint256",
          "name": "phone",
          "type": "uint256"
        },
        {
          "indexed": false,
          "internalType": "uint256",
          "name": "amount",
          "type": "uint256"
        }
      ],
      "name": "IssuedERC20",
      "type": "event"
    },
    {
      "anonymous": false,
      "inputs": [
        {
          "indexed": true,
          "internalType": "bytes32",
          "name": "role",
          "type": "bytes32"
        },
        {
          "indexed": true,
          "internalType": "bytes32",
          "name": "previousAdminRole",
          "type": "bytes32"
        },
        {
          "indexed": true,
          "internalType": "bytes32",
          "name": "newAdminRole",
          "type": "bytes32"
        }
      ],
      "name": "RoleAdminChanged",
      "type": "event"
    },
    {
      "anonymous": false,
      "inputs": [
        {
          "indexed": true,
          "internalType": "bytes32",
          "name": "role",
          "type": "bytes32"
        },
        {
          "indexed": true,
          "internalType": "address",
          "name": "account",
          "type": "address"
        },
        {
          "indexed": true,
          "internalType": "address",
          "name": "sender",
          "type": "address"
        }
      ],
      "name": "RoleGranted",
      "type": "event"
    },
    {
      "anonymous": false,
      "inputs": [
        {
          "indexed": true,
          "internalType": "bytes32",
          "name": "role",
          "type": "bytes32"
        },
        {
          "indexed": true,
          "internalType": "address",
          "name": "account",
          "type": "address"
        },
        {
          "indexed": true,
          "internalType": "address",
          "name": "sender",
          "type": "address"
        }
      ],
      "name": "RoleRevoked",
      "type": "event"
    },
    {
      "inputs": [],
      "name": "CREATE_CLAIM",
      "outputs": [
        {
          "internalType": "bytes32",
          "name": "",
          "type": "bytes32"
        }
      ],
      "stateMutability": "view",
      "type": "function"
    },
    {
      "inputs": [],
      "name": "DEFAULT_ADMIN_ROLE",
      "outputs": [
        {
          "internalType": "bytes32",
          "name": "",
          "type": "bytes32"
        }
      ],
      "stateMutability": "view",
      "type": "function"
    },
    {
      "inputs": [],
      "name": "GET_TOKENS_FROM_CLAIM",
      "outputs": [
        {
          "internalType": "bytes32",
          "name": "",
          "type": "bytes32"
        }
      ],
      "stateMutability": "view",
      "type": "function"
    },
    {
      "inputs": [],
      "name": "ISSUE_TOKEN",
      "outputs": [
        {
          "internalType": "bytes32",
          "name": "",
          "type": "bytes32"
        }
      ],
      "stateMutability": "view",
      "type": "function"
    },
    {
      "inputs": [],
      "name": "MANAGER_ROLE",
      "outputs": [
        {
          "internalType": "bytes32",
          "name": "",
          "type": "bytes32"
        }
      ],
      "stateMutability": "view",
      "type": "function"
    },
    {
      "inputs": [],
      "name": "MOBILIZER_ROLE",
      "outputs": [
        {
          "internalType": "bytes32",
          "name": "",
          "type": "bytes32"
        }
      ],
      "stateMutability": "view",
      "type": "function"
    },
    {
      "inputs": [],
      "name": "SERVER_ROLE",
      "outputs": [
        {
          "internalType": "bytes32",
          "name": "",
          "type": "bytes32"
        }
      ],
      "stateMutability": "view",
      "type": "function"
    },
    {
      "inputs": [],
      "name": "VENDOR_ROLE",
      "outputs": [
        {
          "internalType": "bytes32",
          "name": "",
          "type": "bytes32"
        }
      ],
      "stateMutability": "view",
      "type": "function"
    },
    {
      "inputs": [],
      "name": "erc1155",
      "outputs": [
        {
          "internalType": "contract RahatERC1155",
          "name": "",
          "type": "address"
        }
      ],
      "stateMutability": "view",
      "type": "function"
    },
    {
      "inputs": [
        {
          "internalType": "uint256",
          "name": "",
          "type": "uint256"
        },
        {
          "internalType": "uint256",
          "name": "",
          "type": "uint256"
        }
      ],
      "name": "erc1155Balance",
      "outputs": [
        {
          "internalType": "uint256",
          "name": "",
          "type": "uint256"
        }
      ],
      "stateMutability": "view",
      "type": "function"
    },
    {
      "inputs": [
        {
          "internalType": "uint256",
          "name": "",
          "type": "uint256"
        },
        {
          "internalType": "uint256",
          "name": "",
          "type": "uint256"
        }
      ],
      "name": "erc1155Issued",
      "outputs": [
        {
          "internalType": "uint256",
          "name": "",
          "type": "uint256"
        }
      ],
      "stateMutability": "view",
      "type": "function"
    },
    {
      "inputs": [],
      "name": "erc20",
      "outputs": [
        {
          "internalType": "contract RahatERC20",
          "name": "",
          "type": "address"
        }
      ],
      "stateMutability": "view",
      "type": "function"
    },
    {
      "inputs": [
        {
          "internalType": "uint256",
          "name": "",
          "type": "uint256"
        }
      ],
      "name": "erc20Balance",
      "outputs": [
        {
          "internalType": "uint256",
          "name": "",
          "type": "uint256"
        }
      ],
      "stateMutability": "view",
      "type": "function"
    },
    {
      "inputs": [
        {
          "internalType": "uint256",
          "name": "",
          "type": "uint256"
        }
      ],
      "name": "erc20Issued",
      "outputs": [
        {
          "internalType": "uint256",
          "name": "",
          "type": "uint256"
        }
      ],
      "stateMutability": "view",
      "type": "function"
    },
    {
      "inputs": [
        {
          "internalType": "bytes32",
          "name": "role",
          "type": "bytes32"
        }
      ],
      "name": "getRoleAdmin",
      "outputs": [
        {
          "internalType": "bytes32",
          "name": "",
          "type": "bytes32"
        }
      ],
      "stateMutability": "view",
      "type": "function"
    },
    {
      "inputs": [
        {
          "internalType": "bytes32",
          "name": "role",
          "type": "bytes32"
        },
        {
          "internalType": "address",
          "name": "account",
          "type": "address"
        }
      ],
      "name": "grantRole",
      "outputs": [],
      "stateMutability": "nonpayable",
      "type": "function"
    },
    {
      "inputs": [
        {
          "internalType": "bytes32",
          "name": "role",
          "type": "bytes32"
        },
        {
          "internalType": "address",
          "name": "account",
          "type": "address"
        }
      ],
      "name": "hasRole",
      "outputs": [
        {
          "internalType": "bool",
          "name": "",
          "type": "bool"
        }
      ],
      "stateMutability": "view",
      "type": "function"
    },
    {
      "inputs": [
        {
          "internalType": "address",
          "name": "",
          "type": "address"
        }
      ],
      "name": "nonces",
      "outputs": [
        {
          "internalType": "uint256",
          "name": "",
          "type": "uint256"
        }
      ],
      "stateMutability": "view",
      "type": "function"
    },
    {
      "inputs": [
        {
          "internalType": "address",
          "name": "",
          "type": "address"
        },
        {
          "internalType": "address",
          "name": "",
          "type": "address"
        },
        {
          "internalType": "uint256[]",
          "name": "",
          "type": "uint256[]"
        },
        {
          "internalType": "uint256[]",
          "name": "",
          "type": "uint256[]"
        },
        {
          "internalType": "bytes",
          "name": "",
          "type": "bytes"
        }
      ],
      "name": "onERC1155BatchReceived",
      "outputs": [
        {
          "internalType": "bytes4",
          "name": "",
          "type": "bytes4"
        }
      ],
      "stateMutability": "nonpayable",
      "type": "function"
    },
    {
      "inputs": [
        {
          "internalType": "address",
          "name": "",
          "type": "address"
        },
        {
          "internalType": "address",
          "name": "",
          "type": "address"
        },
        {
          "internalType": "uint256",
          "name": "",
          "type": "uint256"
        },
        {
          "internalType": "uint256",
          "name": "",
          "type": "uint256"
        },
        {
          "internalType": "bytes",
          "name": "",
          "type": "bytes"
        }
      ],
      "name": "onERC1155Received",
      "outputs": [
        {
          "internalType": "bytes4",
          "name": "",
          "type": "bytes4"
        }
      ],
      "stateMutability": "nonpayable",
      "type": "function"
    },
    {
      "inputs": [
        {
          "internalType": "address",
          "name": "",
          "type": "address"
        },
        {
          "internalType": "bytes32",
          "name": "",
          "type": "bytes32"
        },
        {
          "internalType": "uint256",
          "name": "",
          "type": "uint256"
        }
      ],
      "name": "recentERC1155Claims",
      "outputs": [
        {
          "internalType": "uint256",
          "name": "amount",
          "type": "uint256"
        },
        {
          "internalType": "bytes32",
          "name": "otpHash",
          "type": "bytes32"
        },
        {
          "internalType": "bool",
          "name": "isReleased",
          "type": "bool"
        },
        {
          "internalType": "uint256",
          "name": "date",
          "type": "uint256"
        }
      ],
      "stateMutability": "view",
      "type": "function"
    },
    {
      "inputs": [
        {
          "internalType": "address",
          "name": "",
          "type": "address"
        },
        {
          "internalType": "bytes32",
          "name": "",
          "type": "bytes32"
        }
      ],
      "name": "recentERC20Claims",
      "outputs": [
        {
          "internalType": "uint256",
          "name": "amount",
          "type": "uint256"
        },
        {
          "internalType": "bytes32",
          "name": "otpHash",
          "type": "bytes32"
        },
        {
          "internalType": "bool",
          "name": "isReleased",
          "type": "bool"
        },
        {
          "internalType": "uint256",
          "name": "date",
          "type": "uint256"
        }
      ],
      "stateMutability": "view",
      "type": "function"
    },
    {
      "inputs": [
        {
          "internalType": "bytes32",
          "name": "role",
          "type": "bytes32"
        },
        {
          "internalType": "address",
          "name": "account",
          "type": "address"
        }
      ],
      "name": "renounceRole",
      "outputs": [],
      "stateMutability": "nonpayable",
      "type": "function"
    },
    {
      "inputs": [
        {
          "internalType": "bytes32",
          "name": "role",
          "type": "bytes32"
        },
        {
          "internalType": "address",
          "name": "account",
          "type": "address"
        }
      ],
      "name": "revokeRole",
      "outputs": [],
      "stateMutability": "nonpayable",
      "type": "function"
    },
    {
      "inputs": [
        {
          "internalType": "bytes4",
          "name": "interfaceId",
          "type": "bytes4"
        }
      ],
      "name": "supportsInterface",
      "outputs": [
        {
          "internalType": "bool",
          "name": "",
          "type": "bool"
        }
      ],
      "stateMutability": "view",
      "type": "function"
    },
    {
      "inputs": [
        {
          "internalType": "address",
          "name": "_account",
          "type": "address"
        }
      ],
      "name": "addAdmin",
      "outputs": [],
      "stateMutability": "nonpayable",
      "type": "function"
    },
    {
      "inputs": [
        {
          "internalType": "address",
          "name": "_account",
          "type": "address"
        }
      ],
      "name": "addServer",
      "outputs": [],
      "stateMutability": "nonpayable",
      "type": "function"
    },
    {
      "inputs": [
        {
          "internalType": "address",
          "name": "_account",
          "type": "address"
        }
      ],
      "name": "addVendor",
      "outputs": [],
      "stateMutability": "nonpayable",
      "type": "function"
    },
    {
      "inputs": [
        {
          "internalType": "address",
          "name": "_account",
          "type": "address"
        },
        {
          "internalType": "bytes32",
          "name": "_projectId",
          "type": "bytes32"
        }
      ],
      "name": "addMobilizer",
      "outputs": [],
      "stateMutability": "nonpayable",
      "type": "function"
    },
    {
      "inputs": [
        {
          "internalType": "uint256",
          "name": "_phone",
          "type": "uint256"
        }
      ],
      "name": "getTotalERC1155Issued",
      "outputs": [
        {
          "internalType": "uint256[]",
          "name": "tokenIds",
          "type": "uint256[]"
        },
        {
          "internalType": "uint256[]",
          "name": "balances",
          "type": "uint256[]"
        }
      ],
      "stateMutability": "view",
      "type": "function"
    },
    {
      "inputs": [
        {
          "internalType": "uint256",
          "name": "_phone",
          "type": "uint256"
        }
      ],
      "name": "getTotalERC1155Balance",
      "outputs": [
        {
          "internalType": "uint256[]",
          "name": "tokenIds",
          "type": "uint256[]"
        },
        {
          "internalType": "uint256[]",
          "name": "balances",
          "type": "uint256[]"
        }
      ],
      "stateMutability": "view",
      "type": "function"
    },
    {
      "inputs": [
        {
          "internalType": "uint256",
          "name": "_phone",
          "type": "uint256"
        }
      ],
      "name": "getTokenIdsOfBeneficiary",
      "outputs": [
        {
          "internalType": "uint256[]",
          "name": "tokenIds",
          "type": "uint256[]"
        }
      ],
      "stateMutability": "view",
      "type": "function"
    },
    {
      "inputs": [],
      "name": "suspendMobilizer",
      "outputs": [],
      "stateMutability": "nonpayable",
      "type": "function"
    },
    {
      "inputs": [],
      "name": "suspendVendor",
      "outputs": [],
      "stateMutability": "nonpayable",
      "type": "function"
    },
    {
      "inputs": [
        {
          "internalType": "uint256",
          "name": "_phone",
          "type": "uint256"
        },
        {
          "internalType": "bytes32",
          "name": "_projectId",
          "type": "bytes32"
        }
      ],
      "name": "suspendBeneficiary",
      "outputs": [],
      "stateMutability": "nonpayable",
      "type": "function"
    },
    {
      "inputs": [
        {
          "internalType": "uint256",
          "name": "_phone",
          "type": "uint256"
        },
        {
          "internalType": "uint256",
          "name": "_amount",
          "type": "uint256"
        },
        {
          "internalType": "uint256",
          "name": "_tokenId",
          "type": "uint256"
        }
      ],
      "name": "adjustTokenAdd",
      "outputs": [],
      "stateMutability": "nonpayable",
      "type": "function"
    },
    {
      "inputs": [
        {
          "internalType": "uint256",
          "name": "_phone",
          "type": "uint256"
        },
        {
          "internalType": "uint256",
          "name": "_amount",
          "type": "uint256"
        }
      ],
      "name": "adjustTokenAdd",
      "outputs": [],
      "stateMutability": "nonpayable",
      "type": "function"
    },
    {
      "inputs": [
        {
          "internalType": "uint256",
          "name": "_phone",
          "type": "uint256"
        },
        {
          "internalType": "uint256",
          "name": "_amount",
          "type": "uint256"
        },
        {
          "internalType": "uint256",
          "name": "_tokenId",
          "type": "uint256"
        }
      ],
      "name": "adjustTokenDeduct",
      "outputs": [],
      "stateMutability": "nonpayable",
      "type": "function"
    },
    {
      "inputs": [
        {
          "internalType": "uint256",
          "name": "_phone",
          "type": "uint256"
        },
        {
          "internalType": "uint256",
          "name": "_amount",
          "type": "uint256"
        }
      ],
      "name": "adjustTokenDeduct",
      "outputs": [],
      "stateMutability": "nonpayable",
      "type": "function"
    },
    {
      "inputs": [
        {
          "internalType": "bytes32",
          "name": "_projectId",
          "type": "bytes32"
        },
        {
          "internalType": "uint256",
          "name": "_projectCapital",
          "type": "uint256"
        }
      ],
      "name": "addProject",
      "outputs": [],
      "stateMutability": "nonpayable",
      "type": "function"
    },
    {
      "inputs": [
        {
          "internalType": "bytes32",
          "name": "_projectId",
          "type": "bytes32"
        },
        {
          "internalType": "uint256",
          "name": "_projectCapital",
          "type": "uint256"
        },
        {
          "internalType": "uint256",
          "name": "tokenId",
          "type": "uint256"
        }
      ],
      "name": "updateProjectBudget",
      "outputs": [],
      "stateMutability": "nonpayable",
      "type": "function"
    },
    {
      "inputs": [
        {
          "internalType": "bytes32",
          "name": "_projectId",
          "type": "bytes32"
        },
        {
          "internalType": "uint256",
          "name": "_projectCapital",
          "type": "uint256"
        }
      ],
      "name": "updateProjectBudget",
      "outputs": [],
      "stateMutability": "nonpayable",
      "type": "function"
    },
    {
      "inputs": [
        {
          "internalType": "bytes32",
          "name": "_projectId",
          "type": "bytes32"
        },
        {
          "internalType": "uint256",
          "name": "tokenId",
          "type": "uint256"
        }
      ],
      "name": "getProjectBalance",
      "outputs": [
        {
          "internalType": "uint256",
          "name": "_balance",
          "type": "uint256"
        }
      ],
      "stateMutability": "view",
      "type": "function"
    },
    {
      "inputs": [
        {
          "internalType": "bytes32",
          "name": "_projectId",
          "type": "bytes32"
        }
      ],
      "name": "getProjectBalance",
      "outputs": [
        {
          "internalType": "uint256",
          "name": "_balance",
          "type": "uint256"
        }
      ],
      "stateMutability": "view",
      "type": "function"
    },
    {
      "inputs": [
        {
          "internalType": "string",
          "name": "_projectId",
          "type": "string"
        },
        {
          "internalType": "uint256",
          "name": "_phone",
          "type": "uint256"
        },
        {
          "internalType": "uint256",
          "name": "_amount",
          "type": "uint256"
        }
      ],
      "name": "issueERC20ToBeneficiary",
      "outputs": [],
      "stateMutability": "nonpayable",
      "type": "function"
    },
    {
      "inputs": [
        {
          "internalType": "string",
          "name": "_projectId",
          "type": "string"
        },
        {
          "internalType": "uint256",
          "name": "_phone",
          "type": "uint256"
        },
        {
          "internalType": "uint256[]",
          "name": "_amount",
          "type": "uint256[]"
        },
        {
          "internalType": "uint256[]",
          "name": "_tokenId",
          "type": "uint256[]"
        }
      ],
      "name": "issueERC1155ToBeneficiary",
      "outputs": [],
      "stateMutability": "nonpayable",
      "type": "function"
    },
    {
      "inputs": [
        {
          "internalType": "address",
          "name": "_signer",
          "type": "address"
        },
        {
          "internalType": "bytes",
          "name": "_signature",
          "type": "bytes"
        },
        {
          "internalType": "string",
          "name": "_projectId",
          "type": "string"
        },
        {
          "internalType": "uint256",
          "name": "_phone",
          "type": "uint256"
        },
        {
          "internalType": "uint256",
          "name": "_amount",
          "type": "uint256"
        }
      ],
      "name": "delegate_issueERC20ToBeneficiary",
      "outputs": [],
      "stateMutability": "nonpayable",
      "type": "function"
    },
    {
      "inputs": [
        {
          "internalType": "address",
          "name": "_signer",
          "type": "address"
        },
        {
          "internalType": "bytes",
          "name": "_signature",
          "type": "bytes"
        },
        {
          "internalType": "string",
          "name": "_projectId",
          "type": "string"
        },
        {
          "internalType": "uint256",
          "name": "_phone",
          "type": "uint256"
        },
        {
          "internalType": "uint256",
          "name": "_amount",
          "type": "uint256"
        },
        {
          "internalType": "uint256",
          "name": "_tokenId",
          "type": "uint256"
        }
      ],
      "name": "delegate_issueERC1155ToBeneficiary",
      "outputs": [],
      "stateMutability": "nonpayable",
      "type": "function"
    },
    {
      "inputs": [
        {
          "internalType": "string",
          "name": "_projectId",
          "type": "string"
        },
        {
          "internalType": "uint256[]",
          "name": "_phone",
          "type": "uint256[]"
        },
        {
          "internalType": "uint256[]",
          "name": "_amount",
          "type": "uint256[]"
        }
      ],
      "name": "issueBulkERC20",
      "outputs": [],
      "stateMutability": "nonpayable",
      "type": "function"
    },
    {
      "inputs": [
        {
          "internalType": "string",
          "name": "_projectId",
          "type": "string"
        },
        {
          "internalType": "uint256[]",
          "name": "_phone",
          "type": "uint256[]"
        },
        {
          "internalType": "uint256[]",
          "name": "_amount",
          "type": "uint256[]"
        },
        {
          "internalType": "uint256",
          "name": "_tokenId",
          "type": "uint256"
        }
      ],
      "name": "issueBulkERC1155",
      "outputs": [],
      "stateMutability": "nonpayable",
      "type": "function"
    },
    {
      "inputs": [
        {
          "internalType": "uint256",
          "name": "_phone",
          "type": "uint256"
        },
        {
          "internalType": "uint256",
          "name": "_tokens",
          "type": "uint256"
        }
      ],
      "name": "createERC20Claim",
      "outputs": [],
      "stateMutability": "nonpayable",
      "type": "function"
    },
    {
      "inputs": [
        {
          "internalType": "uint256",
          "name": "_phone",
          "type": "uint256"
        },
        {
          "internalType": "uint256",
          "name": "_amount",
          "type": "uint256"
        },
        {
          "internalType": "uint256",
          "name": "_tokenId",
          "type": "uint256"
        }
      ],
      "name": "createERC1155Claim",
      "outputs": [],
      "stateMutability": "nonpayable",
      "type": "function"
    },
    {
      "inputs": [
        {
          "internalType": "address",
          "name": "_signer",
          "type": "address"
        },
        {
          "internalType": "bytes",
          "name": "_signature",
          "type": "bytes"
        },
        {
          "internalType": "uint256",
          "name": "_phone",
          "type": "uint256"
        },
        {
          "internalType": "uint256",
          "name": "_amount",
          "type": "uint256"
        }
      ],
      "name": "delegate_createERC20Claim",
      "outputs": [],
      "stateMutability": "nonpayable",
      "type": "function"
    },
    {
      "inputs": [
        {
          "internalType": "address",
          "name": "_signer",
          "type": "address"
        },
        {
          "internalType": "bytes",
          "name": "_signature",
          "type": "bytes"
        },
        {
          "internalType": "uint256",
          "name": "_phone",
          "type": "uint256"
        },
        {
          "internalType": "uint256",
          "name": "_amount",
          "type": "uint256"
        },
        {
          "internalType": "uint256",
          "name": "_tokenId",
          "type": "uint256"
        }
      ],
      "name": "delegate_createERC1155Claim",
      "outputs": [],
      "stateMutability": "nonpayable",
      "type": "function"
    },
    {
      "inputs": [
        {
          "internalType": "address",
          "name": "_vendor",
          "type": "address"
        },
        {
          "internalType": "uint256",
          "name": "_phone",
          "type": "uint256"
        },
        {
          "internalType": "bytes32",
          "name": "_otpHash",
          "type": "bytes32"
        },
        {
          "internalType": "uint256",
          "name": "_timeToLive",
          "type": "uint256"
        }
      ],
      "name": "approveERC20Claim",
      "outputs": [],
      "stateMutability": "nonpayable",
      "type": "function"
    },
    {
      "inputs": [
        {
          "internalType": "address",
          "name": "_vendor",
          "type": "address"
        },
        {
          "internalType": "uint256",
          "name": "_phone",
          "type": "uint256"
        },
        {
          "internalType": "bytes32",
          "name": "_otpHash",
          "type": "bytes32"
        },
        {
          "internalType": "uint256",
          "name": "_timeToLive",
          "type": "uint256"
        },
        {
          "internalType": "uint256",
          "name": "_tokenId",
          "type": "uint256"
        }
      ],
      "name": "approveERC1155Claim",
      "outputs": [],
      "stateMutability": "nonpayable",
      "type": "function"
    },
    {
      "inputs": [
        {
          "internalType": "uint256",
          "name": "_phone",
          "type": "uint256"
        },
        {
          "internalType": "string",
          "name": "_otp",
          "type": "string"
        }
      ],
      "name": "getERC20FromClaim",
      "outputs": [],
      "stateMutability": "nonpayable",
      "type": "function"
    },
    {
      "inputs": [
        {
          "internalType": "uint256",
          "name": "_phone",
          "type": "uint256"
        },
        {
          "internalType": "string",
          "name": "_otp",
          "type": "string"
        },
        {
          "internalType": "uint256",
          "name": "_tokenId",
          "type": "uint256"
        }
      ],
      "name": "getERC1155FromClaim",
      "outputs": [],
      "stateMutability": "nonpayable",
      "type": "function"
    },
    {
      "inputs": [
        {
          "internalType": "address",
          "name": "_signer",
          "type": "address"
        },
        {
          "internalType": "bytes",
          "name": "_signature",
          "type": "bytes"
        },
        {
          "internalType": "uint256",
          "name": "_phone",
          "type": "uint256"
        },
        {
          "internalType": "string",
          "name": "_otp",
          "type": "string"
        }
      ],
      "name": "delegate_getERC20FromClaim",
      "outputs": [],
      "stateMutability": "nonpayable",
      "type": "function"
    },
    {
      "inputs": [
        {
          "internalType": "address",
          "name": "_signer",
          "type": "address"
        },
        {
          "internalType": "bytes",
          "name": "_signature",
          "type": "bytes"
        },
        {
          "internalType": "uint256",
          "name": "_phone",
          "type": "uint256"
        },
        {
          "internalType": "string",
          "name": "_otp",
          "type": "string"
        },
        {
          "internalType": "uint256",
          "name": "_tokenId",
          "type": "uint256"
        }
      ],
      "name": "delegate_getTokensFromClaim",
      "outputs": [],
      "stateMutability": "nonpayable",
      "type": "function"
    },
    {
      "inputs": [
        {
          "internalType": "uint256",
          "name": "_data",
          "type": "uint256"
        }
      ],
      "name": "findHash",
      "outputs": [
        {
          "internalType": "bytes32",
          "name": "",
          "type": "bytes32"
        }
      ],
      "stateMutability": "pure",
      "type": "function"
    },
    {
      "inputs": [
        {
          "internalType": "string",
          "name": "_data",
          "type": "string"
        }
      ],
      "name": "findHash",
      "outputs": [
        {
          "internalType": "bytes32",
          "name": "",
          "type": "bytes32"
        }
      ],
      "stateMutability": "pure",
      "type": "function"
    },
    {
      "inputs": [
        {
          "internalType": "uint256[]",
          "name": "_array",
          "type": "uint256[]"
        }
      ],
      "name": "getArraySum",
      "outputs": [
        {
          "internalType": "uint256",
          "name": "sum",
          "type": "uint256"
        }
      ],
      "stateMutability": "pure",
      "type": "function"
    }
  ],
  "bytecode": "0x60806040523480156200001157600080fd5b5060405162004e0138038062004e01833981016040819052620000349162000473565b62000041600032620000e5565b6200004e600082620000e5565b6200006a60008051602062004de18339815191526000620000f5565b620000977f0aaf57387812c7f832412470a57567b5648a930069be49aa9c98d04f88520d346000620000f5565b620000b260008051602062004de18339815191523362000140565b50600280546001600160a01b039384166001600160a01b031991821617909155600380549290931691161790556200065a565b620000f182826200016f565b5050565b600082815260208190526040808220600101805490849055905190918391839186917fbd79b86ffe0ab8e8776151514217cd7cacd52c909f66475c3af44e129f0b00ff9190a4505050565b6000828152602081905260409020600101546200015e81336200020f565b6200016a83836200016f565b505050565b6000828152602081815260408083206001600160a01b038516845290915290205460ff16620000f1576000828152602081815260408083206001600160a01b03851684529091529020805460ff19166001179055620001cb3390565b6001600160a01b0316816001600160a01b0316837f2f8788117e7eff1d82e926ec794901d17c78024a50270940304540a733656f0d60405160405180910390a45050565b6000828152602081815260408083206001600160a01b038516845290915290205460ff16620000f15762000259816001600160a01b03166014620002b360201b62002b751760201c565b6200026f83602062002b75620002b3821b17811c565b60405160200162000282929190620004c7565b60408051601f198184030181529082905262461bcd60e51b8252620002aa9160040162000540565b60405180910390fd5b60606000620002c483600262000590565b620002d190600262000575565b6001600160401b03811115620002eb57620002eb6200062b565b6040519080825280601f01601f19166020018201604052801562000316576020820181803683370190505b509050600360fc1b8160008151811062000334576200033462000615565b60200101906001600160f81b031916908160001a905350600f60fb1b8160018151811062000366576200036662000615565b60200101906001600160f81b031916908160001a90535060006200038c84600262000590565b6200039990600162000575565b90505b60018111156200041b576f181899199a1a9b1b9c1cb0b131b232b360811b85600f1660108110620003d157620003d162000615565b1a60f81b828281518110620003ea57620003ea62000615565b60200101906001600160f81b031916908160001a90535060049490941c936200041381620005e5565b90506200039c565b5083156200046c5760405162461bcd60e51b815260206004820181905260248201527f537472696e67733a20686578206c656e67746820696e73756666696369656e746044820152606401620002aa565b9392505050565b6000806000606084860312156200048957600080fd5b8351620004968162000641565b6020850151909350620004a98162000641565b6040850151909250620004bc8162000641565b809150509250925092565b7f416363657373436f6e74726f6c3a206163636f756e742000000000000000000081526000835162000501816017850160208801620005b2565b7001034b99036b4b9b9b4b733903937b6329607d1b601791840191820152835162000534816028840160208801620005b2565b01602801949350505050565b602081526000825180602084015262000561816040850160208701620005b2565b601f01601f19169190910160400192915050565b600082198211156200058b576200058b620005ff565b500190565b6000816000190483118215151615620005ad57620005ad620005ff565b500290565b60005b83811015620005cf578181015183820152602001620005b5565b83811115620005df576000848401525b50505050565b600081620005f757620005f7620005ff565b506000190190565b634e487b7160e01b600052601160045260246000fd5b634e487b7160e01b600052603260045260246000fd5b634e487b7160e01b600052604160045260246000fd5b6001600160a01b03811681146200065757600080fd5b50565b614777806200066a6000396000f3fe608060405234801561001057600080fd5b50600436106103455760003560e01c806370c75107116101bf578063bf6b867b116100fa578063d547741f1161009d578063d547741f146108fa578063d56022d71461090d578063e4ce362114610920578063ec87621c14610933578063f23a6e611461095a578063f708ccab14610372578063f94afcea14610979578063f9b5bf901461098c57600080fd5b8063bf6b867b1461080a578063bfa683631461081d578063c0d955d614610830578063c8d9bb2914610843578063cae2270914610856578063cf784eda14610881578063d0e65d14146108a1578063d1e67167146108b457600080fd5b80638eda3247116101625780638eda32471461074657806391d1485414610759578063926a694d1461076c57806394343cd2146107815780639ea6935014610796578063a067ddfe146107a9578063a217fddf146107ca578063bc197c81146107d257600080fd5b806370c7510714610687578063747bb5371461069a578063785e9e86146106ad5780637ecebe00146106d857806383d385a4146106f8578063882575671461070b5780638a80940d1461071e5780638bbab5c71461073157600080fd5b80633036950e1161028f578063494101ff11610232578063494101ff146105ed5780634c91b44e146106005780635bb67567146106155780635c966100146106285780635cbd99d41461063b5780635eb5eec91461064e5780636d8943e514610661578063704802751461067457600080fd5b80633036950e1461050b5780633098b74b1461051e57806332a0749c14610531578063351c3d0b1461055c57806336568abe1461057c57806339cbd15c1461058f57806345e0f753146105ba57806348f20476146105cd57600080fd5b8063250de2b2116102f7578063250de2b21461041457806326fabe911461042757806327fa7a201461043a578063298ed0c91461044d5780632aef0c30146104605780632d41d559146104735780632f2ff15d146104865780632fb3eabf1461049957600080fd5b806301ffc9a71461034a5780630241a5b314610372578063055ee070146103745780630f6025eb146103a257806318cf2834146103b55780632384e105146103ca578063248a9ca3146103f1575b600080fd5b61035d610358366004613ba6565b61099f565b60405190151581526020015b60405180910390f35b005b610394610382366004613b13565b60046020526000908152604090205481565b604051908152602001610369565b6103726103b0366004613b7a565b6109b0565b6103946000805160206146e283398151915281565b6103947fcfa8166f1bb1b8818c3767a9ffd776afbbe3409a468070bb860831e01b56549981565b6103946103ff366004613b13565b60009081526020819052604090206001015490565b610372610422366004613c8b565b6109e3565b6103726104353660046137ec565b610b78565b610372610448366004613dec565b610d02565b61037261045b366004613b58565b610f17565b61037261046e366004613b58565b610f35565b610372610481366004613a42565b610fe7565b610372610494366004613b2c565b611186565b6104e56104a7366004613734565b601060209081526000938452604080852082529284528284209052825290208054600182015460028301546003909301549192909160ff9091169084565b604080519485526020850193909352901515918301919091526060820152608001610369565b610372610519366004613b7a565b6111b1565b61039461052c366004613abd565b61122f565b61039461053f366004613b58565b600860209081526000928352604080842090915290825290205481565b61039461056a366004613b13565b60076020526000908152604090205481565b61037261058a366004613b2c565b61127b565b61039461059d366004613b58565b6000918252600c6020908152604080842092845291905290205490565b6103726105c83660046135e2565b6112f9565b6105e06105db366004613b13565b611314565b6040516103699190614063565b6103946105fb366004613b13565b61132e565b6103946000805160206146a283398151915281565b610372610623366004613b7a565b611366565b610372610636366004613d1a565b6113fc565b6103726106493660046135e2565b611644565b61037261065c366004613c04565b61165c565b61037261066f3660046139da565b61174b565b6103726106823660046135e2565b6118e4565b610394610695366004613bd0565b6118ef565b6103726106a8366004613b7a565b611902565b6002546106c0906001600160a01b031681565b6040516001600160a01b039091168152602001610369565b6103946106e63660046135e2565b60016020526000908152604090205481565b610372610706366004613a7b565b6119de565b610372610719366004613b58565b611b57565b61037261072c366004613767565b611b7e565b61039460008051602061470283398151915281565b6103726107543660046138f8565b611cdd565b61035d610767366004613b2c565b611f4d565b61039460008051602061468283398151915281565b6103946000805160206146c283398151915281565b6103726107a4366004613b58565b611f76565b6107bc6107b7366004613b13565b61207a565b604051610369929190614076565b610394600081565b6107f16107e03660046135fd565b63bc197c8160e01b95945050505050565b6040516001600160e01b03199091168152602001610369565b610372610818366004613b58565b6121cb565b61037261082b366004613e32565b61225e565b61037261083e366004613d9f565b61243c565b61037261085136600461397d565b61250e565b610394610864366004613b58565b600560209081526000928352604080842090915290825290205481565b61039461088f366004613b13565b6000908152600b602052604090205490565b6107bc6108af366004613b13565b61267f565b6104e56108c236600461370a565b600f60209081526000928352604080842090915290825290208054600182015460028301546003909301549192909160ff9091169084565b610372610908366004613b2c565b6127c4565b6003546106c0906001600160a01b031681565b61037261092e36600461370a565b6127ea565b6103947faf290d8680820aad922855f39b306097b20e28774d6c1ad35a20325630c3a02c81565b6107f16109683660046136a6565b63f23a6e6160e01b95945050505050565b61037261098736600461387b565b61283d565b61037261099a366004613b58565b612af8565b60006109aa82612d17565b92915050565b6000838152600c60209081526040808320848452909152812080548492906109d990849061453b565b9091555050505050565b6109ee600033611f4d565b610a135760405162461bcd60e51b8152600401610a0a9061425d565b60405180910390fd5b8151835114610a345760405162461bcd60e51b8152600401610a0a906144bc565b600080610a408461122f565b90506000610a4d876118ef565b6000818152600c60209081526040808320888452909152902054909150821115610a895760405162461bcd60e51b8152600401610a0a906140d7565b600092505b8551831015610b6f57604080516001808252818301909252600091602080830190803683375050604080516001808252818301909252929350600092915060208083019080368337019050509050868581518110610aee57610aee614655565b602002602001015182600081518110610b0957610b09614655565b6020026020010181815250508581600081518110610b2957610b29614655565b602002602001018181525050610b5a89898781518110610b4b57610b4b614655565b602002602001015184846113fc565b50508280610b67906145e4565b935050610a8e565b50505050505050565b6001600160a01b0386166000908152600160209081526040808320549051610bba9230926000805160206147028339815191529290918a918a918a9101613ebc565b6040516020818303038152906040528051906020012090506000610bde8288612d3c565b9050876001600160a01b0316816001600160a01b031614610c115760405162461bcd60e51b8152600401610a0a906143d9565b6001600160a01b0388166000908152600160205260408120805491610c35836145e4565b91905055506000610c45876118ef565b6000818152600c60209081526040808320888452909152902054909150851115610c815760405162461bcd60e51b8152600401610a0a906140d7565b6000818152600c6020908152604080832087845290915281208054879290610caa908490614586565b90915550610cbb90508686866111b1565b8386827f0f63528d8c4a54e81a3a5f82736b7f0b5bb9d1143c7e82cf832c0ace6d8cf32088604051610cef91815260200190565b60405180910390a4505050505050505050565b816000610d0e8261132e565b600083815260076020526040902054909150610d3c5760405162461bcd60e51b8152600401610a0a90614210565b610d5460008051602061468283398151915233611f4d565b610d705760405162461bcd60e51b8152600401610a0a906141c6565b6000610d7b8561132e565b336000908152600f60209081526040808320848452909152902060028101549192509060ff16610dbd5760405162461bcd60e51b8152600401610a0a90614294565b4281600301541015610de15760405162461bcd60e51b8152600401610a0a9061441e565b6000610dec866118ef565b336000908152600f602090815260408083208784529091529020600101549091508114610e2b5760405162461bcd60e51b8152600401610a0a90614361565b610e398783600001546121cb565b81546002808401805460ff19169055600080855560038501555460405163a9059cbb60e01b8152336004820152602481018390526001600160a01b039091169063a9059cbb90604401602060405180830381600087803b158015610e9c57600080fd5b505af1158015610eb0573d6000803e3d6000fd5b505050506040513d601f19601f82011682018060405250810190610ed49190613af1565b50604051818152889033907fbf193164f272ee45a28c1ffe48ee55c3da3a1fc02cedf1c8c8549118b2dc2ecf906020015b60405180910390a35050505050505050565b610f22600983612daf565b506000918252600b602052604090912055565b610f4d6000805160206146e283398151915233611f4d565b610f695760405162461bcd60e51b8152600401610a0a9061412d565b816000610f758261132e565b600083815260076020526040902054909150610fa35760405162461bcd60e51b8152600401610a0a90614210565b600084815260076020908152604080832054868452600b9092528220805491928392610fd090849061453b565b90915550610fe0905085826121cb565b5050505050565b826000610ff38261132e565b6000838152600760205260409020549091506110215760405162461bcd60e51b8152600401610a0a90614210565b6110396000805160206146e283398151915233611f4d565b6110555760405162461bcd60e51b8152600401610a0a9061412d565b60006110608661132e565b6001600160a01b0388166000908152600f6020908152604080832084845290915290206003810154919250906110a85760405162461bcd60e51b8152600401610a0a90614394565b620151808511156110cb5760405162461bcd60e51b8152600401610a0a90614177565b60038101546110dd906201518061453b565b4211156110fc5760405162461bcd60e51b8152600401610a0a9061431e565b600281015460ff16156111215760405162461bcd60e51b8152600401610a0a906142d7565b600180820187905560028201805460ff19169091179055611142854261453b565b6003820155805460405190815287906001600160a01b038a16907f05ca75b0d90f1dd046ad3b8c1ec4a461042c3d33518b9b67d9feafc7d8d3c6cf90602001610f05565b6000828152602081905260409020600101546111a28133612dbb565b6111ac8383612e1f565b505050565b6111bc600033611f4d565b6111d85760405162461bcd60e51b8152600401610a0a9061425d565b60008381526008602090815260408083208484529091528120805484929061120190849061453b565b90915550506000838152600560209081526040808320848452909152812080548492906109d990849061453b565b6000805b82518110156112755782818151811061124e5761124e614655565b602002602001015182611261919061453b565b91508061126d816145e4565b915050611233565b50919050565b6001600160a01b03811633146112eb5760405162461bcd60e51b815260206004820152602f60248201527f416363657373436f6e74726f6c3a2063616e206f6e6c792072656e6f756e636560448201526e103937b632b9903337b91039b2b63360891b6064820152608401610a0a565b6112f58282612ea3565b5050565b61131160008051602061468283398151915282611186565b50565b60008181526006602052604090206060906109aa90612f08565b600061133982612f15565b6040516020016113499190613fa0565b604051602081830303815290604052805190602001209050919050565b611371600033611f4d565b61138d5760405162461bcd60e51b8152600401610a0a9061425d565b8260006113998261132e565b6000838152600760205260409020549091506113c75760405162461bcd60e51b8152600401610a0a90614210565b6000858152600860209081526040808320868452909152812080548692906113f0908490614586565b90915550505050505050565b611407600033611f4d565b6114235760405162461bcd60e51b8152600401610a0a9061425d565b600061142e856118ef565b905081518351146114515760405162461bcd60e51b8152600401610a0a906144bc565b60005b825181101561163c5783818151811061146f5761146f614655565b6020026020010151600c6000848152602001908152602001600020600085848151811061149e5761149e614655565b602002602001015181526020019081526020016000205410156114d35760405162461bcd60e51b8152600401610a0a906140d7565b8381815181106114e5576114e5614655565b6020026020010151600c6000848152602001908152602001600020600085848151811061151457611514614655565b6020026020010151815260200190815260200160002060008282546115399190614586565b9250508190555061157d8585838151811061155657611556614655565b602002602001015185848151811061157057611570614655565b60200260200101516111b1565b6115bb83828151811061159257611592614655565b602002602001015160066000888152602001908152602001600020612daf90919063ffffffff16565b508281815181106115ce576115ce614655565b602002602001015185837f0f63528d8c4a54e81a3a5f82736b7f0b5bb9d1143c7e82cf832c0ace6d8cf32087858151811061160b5761160b614655565b602002602001015160405161162291815260200190565b60405180910390a480611634816145e4565b915050611454565b505050505050565b6113116000805160206146e283398151915282611186565b611667600033611f4d565b6116835760405162461bcd60e51b8152600401610a0a9061425d565b80518251146116a45760405162461bcd60e51b8152600401610a0a906144bc565b6000806116b08361122f565b905060006116bd866118ef565b6000818152600b60205260409020549091508211156116ee5760405162461bcd60e51b8152600401610a0a906140d7565b600092505b845183101561163c576117398686858151811061171257611712614655565b602002602001015186868151811061172c5761172c614655565b602002602001015161243c565b82611743816145e4565b9350506116f3565b6001600160a01b03851660009081526001602090815260408083205490516001600160601b03193060601b16928101929092526000805160206146c283398151915260348301526054820152607481018590526094810184905260b4810183905260d40160405160208183030381529060405280519060200120905060006117d3828761301a565b9050866001600160a01b0316816001600160a01b0316146118065760405162461bcd60e51b8152600401610a0a906143d9565b6001600160a01b038716600090815260016020526040812080549161182a836145e4565b9190505550600061183a8661132e565b60008781526008602090815260408083208884529091529020549091508511156118765760405162461bcd60e51b8152600401610a0a9061445f565b6001600160a01b0388166000908152601060209081526040808320848452825280832087845282529182902060028101805460ff19169055878155426003820155915187815288913291600080516020614722833981519152910160405180910390a3505050505050505050565b611311600082611186565b6000816040516020016113499190613fa0565b61191a60008051602061468283398151915233611f4d565b6119365760405162461bcd60e51b8152600401610a0a906141c6565b60006119418461132e565b600085815260086020908152604080832086845290915290205490915083111561197d5760405162461bcd60e51b8152600401610a0a9061445f565b336000908152601060209081526040808320848452825280832085845282529182902060028101805460ff19169055858155426003820155915185815286913291600080516020614722833981519152910160405180910390a35050505050565b6119f66000805160206146e283398151915233611f4d565b611a125760405162461bcd60e51b8152600401610a0a9061412d565b6000611a1d8561132e565b6001600160a01b038716600090815260106020908152604080832084845282528083208684529091529020600381015491925090611a6d5760405162461bcd60e51b8152600401610a0a90614394565b62015180841115611a905760405162461bcd60e51b8152600401610a0a90614177565b6003810154611aa2906201518061453b565b421115611ac15760405162461bcd60e51b8152600401610a0a9061431e565b600281015460ff1615611ae65760405162461bcd60e51b8152600401610a0a906142d7565b600180820186905560028201805460ff19169091179055611b07844261453b565b6003820155805460405190815286906001600160a01b038916907f05ca75b0d90f1dd046ad3b8c1ec4a461042c3d33518b9b67d9feafc7d8d3c6cf9060200160405180910390a350505050505050565b6000828152600b602052604081208054839290611b7590849061453b565b90915550505050565b6001600160a01b0385166000908152600160209081526040808320549051611bc092309260008051602061470283398151915292909189918991899101613ebc565b6040516020818303038152906040528051906020012090506000611be48287612d3c565b9050866001600160a01b0316816001600160a01b031614611c175760405162461bcd60e51b8152600401610a0a906143d9565b6001600160a01b0387166000908152600160205260408120805491611c3b836145e4565b91905055506000611c4b866118ef565b6000818152600b6020526040902054909150841115611c7c5760405162461bcd60e51b8152600401610a0a906140d7565b6000818152600b602052604081208054869290611c9a908490614586565b90915550611caa90508585612af8565b84817f707197b34e0edb88707154f8a8ea9f3c8d891eb60a28dac25cc79bf23c3aa5c186604051610f0591815260200190565b6001600160a01b0385166000908152600160209081526040808320549051611d1f9230926000805160206146c283398151915292909189918991899101613f51565b6040516020818303038152906040528051906020012090506000611d43828761301a565b9050866001600160a01b0316816001600160a01b031614611d765760405162461bcd60e51b8152600401610a0a906143d9565b6001600160a01b0387166000908152600160205260408120805491611d9a836145e4565b91905055506000611daa8661132e565b3360009081526010602090815260408083208484528252808320888452909152902060028101549192509060ff16611df45760405162461bcd60e51b8152600401610a0a90614294565b4281600301541015611e185760405162461bcd60e51b8152600401610a0a9061441e565b6000611e23876118ef565b33600090815260106020908152604080832087845282528083208a84529091529020600101549091508114611e6a5760405162461bcd60e51b8152600401610a0a90614361565b611e7988836000015488611366565b815460028301805460ff19169055600080845560038085019190915554604051637921219560e11b81526001600160a01b039091169063f242432a90611ec990309033908c90879060040161402b565b600060405180830381600087803b158015611ee357600080fd5b505af1158015611ef7573d6000803e3d6000fd5b5050505088336001600160a01b0316887fcb984d497ad4fbb1ddd6d3cf81c5c4463b046940a5bd559637156baee4ef648484604051611f3891815260200190565b60405180910390a45050505050505050505050565b6000918252602082815260408084206001600160a01b0393909316845291905290205460ff1690565b816000611f828261132e565b600083815260076020526040902054909150611fb05760405162461bcd60e51b8152600401610a0a90614210565b611fc860008051602061468283398151915233611f4d565b611fe45760405162461bcd60e51b8152600401610a0a906141c6565b6000611fef8561132e565b6000868152600760205260409020549091508411156120205760405162461bcd60e51b8152600401610a0a9061445f565b336000908152600f6020908152604080832084845282529182902060028101805460ff19169055868155426003820155915186815287913291600080516020614722833981519152910160405180910390a3505050505050565b60008181526006602052604081206060918291819061209890613041565b90506000816001600160401b038111156120b4576120b461466b565b6040519080825280602002602001820160405280156120dd578160200160208202803683370190505b5090506000826001600160401b038111156120fa576120fa61466b565b604051908082528060200260200182016040528015612123578160200160208202803683370190505b509050600093505b828410156121bf57600087815260066020526040812061214b908661304b565b6000898152600860209081526040808320848452909152902054845191925090829085908890811061217f5761217f614655565b6020026020010181815250508083878151811061219e5761219e614655565b602002602001018181525050505083806121b7906145e4565b94505061212b565b90969095509350505050565b6121d6600033611f4d565b6121f25760405162461bcd60e51b8152600401610a0a9061425d565b8160006121fe8261132e565b60008381526007602052604090205490915061222c5760405162461bcd60e51b8152600401610a0a90614210565b600084815260076020526040902054612246908490614586565b60009485526007602052604090942093909355505050565b61227660008051602061468283398151915233611f4d565b6122925760405162461bcd60e51b8152600401610a0a906141c6565b600061229d8461132e565b3360009081526010602090815260408083208484528252808320868452909152902060028101549192509060ff166122e75760405162461bcd60e51b8152600401610a0a90614294565b428160030154101561230b5760405162461bcd60e51b8152600401610a0a9061441e565b6000612316856118ef565b3360009081526010602090815260408083208784528252808320888452909152902060010154909150811461235d5760405162461bcd60e51b8152600401610a0a90614361565b61236c86836000015486611366565b815460028301805460ff19169055600080845560038085019190915554604051637921219560e11b81526001600160a01b039091169063f242432a906123bc90309033908a90879060040161402b565b600060405180830381600087803b1580156123d657600080fd5b505af11580156123ea573d6000803e3d6000fd5b5050505086336001600160a01b0316867fcb984d497ad4fbb1ddd6d3cf81c5c4463b046940a5bd559637156baee4ef64848460405161242b91815260200190565b60405180910390a450505050505050565b612447600033611f4d565b6124635760405162461bcd60e51b8152600401610a0a9061425d565b600061246e846118ef565b6000818152600b602052604090205490915082111561249f5760405162461bcd60e51b8152600401610a0a906140d7565b6000818152600b6020526040812080548492906124bd908490614586565b909155506124cd90508383612af8565b82817f707197b34e0edb88707154f8a8ea9f3c8d891eb60a28dac25cc79bf23c3aa5c18460405161250091815260200190565b60405180910390a350505050565b6001600160a01b03841660009081526001602090815260408083205490516001600160601b03193060601b16928101929092526000805160206146c283398151915260348301526054820152607481018490526094810183905260b401604051602081830303815290604052805190602001209050600061258f828661301a565b9050856001600160a01b0316816001600160a01b0316146125c25760405162461bcd60e51b8152600401610a0a906143d9565b6001600160a01b03861660009081526001602052604081208054916125e6836145e4565b919050555060006125f68561132e565b6000868152600760205260409020549091508411156126275760405162461bcd60e51b8152600401610a0a9061445f565b6001600160a01b0387166000908152600f6020908152604080832084845282529182902060028101805460ff191690558681554260038201559151868152879132916000805160206147228339815191529101610f05565b60008181526006602052604081206060918291819061269d90613041565b90506000816001600160401b038111156126b9576126b961466b565b6040519080825280602002602001820160405280156126e2578160200160208202803683370190505b5090506000826001600160401b038111156126ff576126ff61466b565b604051908082528060200260200182016040528015612728578160200160208202803683370190505b509050600093505b828410156121bf576000878152600660205260408120612750908661304b565b6000898152600560209081526040808320848452909152902054845191925090829085908890811061278457612784614655565b602002602001018181525050808387815181106127a3576127a3614655565b602002602001018181525050505083806127bc906145e4565b945050612730565b6000828152602081905260409020600101546127e08133612dbb565b6111ac8383612ea3565b6128026000805160206146a283398151915283611186565b6000818152600d6020526040902061281a9083613057565b506001600160a01b0382166000908152600e602052604090206111ac9082612daf565b8160006128498261132e565b6000838152600760205260409020549091506128775760405162461bcd60e51b8152600401610a0a90614210565b6001600160a01b03861660009081526001602090815260408083205490516128b79230926000805160206146c28339815191529290918a918a9101613f09565b60405160208183030381529060405280519060200120905060006128db828861301a565b9050876001600160a01b0316816001600160a01b03161461290e5760405162461bcd60e51b8152600401610a0a906143d9565b6001600160a01b0388166000908152600160205260408120805491612932836145e4565b919050555060006129428761132e565b336000908152600f60209081526040808320848452909152902060028101549192509060ff166129845760405162461bcd60e51b8152600401610a0a90614294565b42816003015410156129a85760405162461bcd60e51b8152600401610a0a9061441e565b60006129b3886118ef565b336000908152600f6020908152604080832087845290915290206001015490915081146129f25760405162461bcd60e51b8152600401610a0a90614361565b815460008a81526007602052604081208054909190612a12908490614586565b909155505081546002808401805460ff19169055600080855560038501555460405163a9059cbb60e01b8152336004820152602481018390526001600160a01b039091169063a9059cbb90604401602060405180830381600087803b158015612a7a57600080fd5b505af1158015612a8e573d6000803e3d6000fd5b505050506040513d601f19601f82011682018060405250810190612ab29190613af1565b506040518181528a9033907fbf193164f272ee45a28c1ffe48ee55c3da3a1fc02cedf1c8c8549118b2dc2ecf9060200160405180910390a3505050505050505050505050565b612b03600033611f4d565b612b1f5760405162461bcd60e51b8152600401610a0a9061425d565b600082815260076020526040902054612b3990829061453b565b600083815260076020908152604080832093909355600490522054612b5f90829061453b565b6000928352600460205260409092209190915550565b60606000612b84836002614567565b612b8f90600261453b565b6001600160401b03811115612ba657612ba661466b565b6040519080825280601f01601f191660200182016040528015612bd0576020820181803683370190505b509050600360fc1b81600081518110612beb57612beb614655565b60200101906001600160f81b031916908160001a905350600f60fb1b81600181518110612c1a57612c1a614655565b60200101906001600160f81b031916908160001a9053506000612c3e846002614567565b612c4990600161453b565b90505b6001811115612cc1576f181899199a1a9b1b9c1cb0b131b232b360811b85600f1660108110612c7d57612c7d614655565b1a60f81b828281518110612c9357612c93614655565b60200101906001600160f81b031916908160001a90535060049490941c93612cba816145cd565b9050612c4c565b508315612d105760405162461bcd60e51b815260206004820181905260248201527f537472696e67733a20686578206c656e67746820696e73756666696369656e746044820152606401610a0a565b9392505050565b60006001600160e01b03198216630271189760e51b14806109aa57506109aa8261306c565b600080612d4984846130a1565b9050612d636000805160206146a283398151915282611f4d565b612d105760405162461bcd60e51b815260206004820152601a60248201527f5369676e65722073686f756c64206265204d6f62696c697a65720000000000006044820152606401610a0a565b6000612d1083836130c5565b612dc58282611f4d565b6112f557612ddd816001600160a01b03166014612b75565b612de8836020612b75565b604051602001612df9929190613fbc565b60408051601f198184030181529082905262461bcd60e51b8252610a0a916004016140a4565b612e298282611f4d565b6112f5576000828152602081815260408083206001600160a01b03851684529091529020805460ff19166001179055612e5f3390565b6001600160a01b0316816001600160a01b0316837f2f8788117e7eff1d82e926ec794901d17c78024a50270940304540a733656f0d60405160405180910390a45050565b612ead8282611f4d565b156112f5576000828152602081815260408083206001600160a01b0385168085529252808320805460ff1916905551339285917ff6391f5c32d9c69d2a47ea670b442974b53935d1edc7fd64eb21e047a839171b9190a45050565b60606000612d1083613114565b606081612f395750506040805180820190915260018152600360fc1b602082015290565b8160005b8115612f635780612f4d816145e4565b9150612f5c9050600a83614553565b9150612f3d565b6000816001600160401b03811115612f7d57612f7d61466b565b6040519080825280601f01601f191660200182016040528015612fa7576020820181803683370190505b5090505b841561301257612fbc600183614586565b9150612fc9600a866145ff565b612fd490603061453b565b60f81b818381518110612fe957612fe9614655565b60200101906001600160f81b031916908160001a90535061300b600a86614553565b9450612fab565b949350505050565b60008061302784846130a1565b9050612d6360008051602061468283398151915282611f4d565b60006109aa825490565b6000612d108383613170565b6000612d10836001600160a01b0384166130c5565b60006001600160e01b03198216637965db0b60e01b14806109aa57506301ffc9a760e01b6001600160e01b03198316146109aa565b60008060006130b0858561319a565b915091506130bd8161320a565b509392505050565b600081815260018301602052604081205461310c575081546001818101845560008481526020808220909301849055845484825282860190935260409020919091556109aa565b5060006109aa565b60608160000180548060200260200160405190810160405280929190818152602001828054801561316457602002820191906000526020600020905b815481526020019060010190808311613150575b50505050509050919050565b600082600001828154811061318757613187614655565b9060005260206000200154905092915050565b6000808251604114156131d15760208301516040840151606085015160001a6131c5878285856133c0565b94509450505050613203565b8251604014156131fb57602083015160408401516131f08683836134a3565b935093505050613203565b506000905060025b9250929050565b600081600481111561321e5761321e61463f565b14156132275750565b600181600481111561323b5761323b61463f565b14156132845760405162461bcd60e51b815260206004820152601860248201527745434453413a20696e76616c6964207369676e617475726560401b6044820152606401610a0a565b60028160048111156132985761329861463f565b14156132e65760405162461bcd60e51b815260206004820152601f60248201527f45434453413a20696e76616c6964207369676e6174757265206c656e677468006044820152606401610a0a565b60038160048111156132fa576132fa61463f565b14156133535760405162461bcd60e51b815260206004820152602260248201527f45434453413a20696e76616c6964207369676e6174757265202773272076616c604482015261756560f01b6064820152608401610a0a565b60048160048111156133675761336761463f565b14156113115760405162461bcd60e51b815260206004820152602260248201527f45434453413a20696e76616c6964207369676e6174757265202776272076616c604482015261756560f01b6064820152608401610a0a565b6000806fa2a8918ca85bafe22016d0b997e4df60600160ff1b038311156133ed575060009050600361349a565b8460ff16601b1415801561340557508460ff16601c14155b15613416575060009050600461349a565b6040805160008082526020820180845289905260ff881692820192909252606081018690526080810185905260019060a0016020604051602081039080840390855afa15801561346a573d6000803e3d6000fd5b5050604051601f1901519150506001600160a01b0381166134935760006001925092505061349a565b9150600090505b94509492505050565b6000806001600160ff1b03831660ff84901c601b016134c4878288856133c0565b935093505050935093915050565b80356001600160a01b03811681146134e957600080fd5b919050565b600082601f8301126134ff57600080fd5b813560206001600160401b0382111561351a5761351a61466b565b8160051b61352982820161450b565b83815282810190868401838801850189101561354457600080fd5b600093505b85841015613567578035835260019390930192918401918401613549565b50979650505050505050565b600082601f83011261358457600080fd5b81356001600160401b0381111561359d5761359d61466b565b6135b0601f8201601f191660200161450b565b8181528460208386010111156135c557600080fd5b816020850160208301376000918101602001919091529392505050565b6000602082840312156135f457600080fd5b612d10826134d2565b600080600080600060a0868803121561361557600080fd5b61361e866134d2565b945061362c602087016134d2565b935060408601356001600160401b038082111561364857600080fd5b61365489838a016134ee565b9450606088013591508082111561366a57600080fd5b61367689838a016134ee565b9350608088013591508082111561368c57600080fd5b5061369988828901613573565b9150509295509295909350565b600080600080600060a086880312156136be57600080fd5b6136c7866134d2565b94506136d5602087016134d2565b9350604086013592506060860135915060808601356001600160401b038111156136fe57600080fd5b61369988828901613573565b6000806040838503121561371d57600080fd5b613726836134d2565b946020939093013593505050565b60008060006060848603121561374957600080fd5b613752846134d2565b95602085013595506040909401359392505050565b600080600080600060a0868803121561377f57600080fd5b613788866134d2565b945060208601356001600160401b03808211156137a457600080fd5b6137b089838a01613573565b955060408801359150808211156137c657600080fd5b506137d388828901613573565b9598949750949560608101359550608001359392505050565b60008060008060008060c0878903121561380557600080fd5b61380e876134d2565b955060208701356001600160401b038082111561382a57600080fd5b6138368a838b01613573565b9650604089013591508082111561384c57600080fd5b5061385989828a01613573565b945050606087013592506080870135915060a087013590509295509295509295565b6000806000806080858703121561389157600080fd5b61389a856134d2565b935060208501356001600160401b03808211156138b657600080fd5b6138c288838901613573565b94506040870135935060608701359150808211156138df57600080fd5b506138ec87828801613573565b91505092959194509250565b600080600080600060a0868803121561391057600080fd5b613919866134d2565b945060208601356001600160401b038082111561393557600080fd5b61394189838a01613573565b955060408801359450606088013591508082111561395e57600080fd5b5061396b88828901613573565b95989497509295608001359392505050565b6000806000806080858703121561399357600080fd5b61399c856134d2565b935060208501356001600160401b038111156139b757600080fd5b6139c387828801613573565b949794965050505060408301359260600135919050565b600080600080600060a086880312156139f257600080fd5b6139fb866134d2565b945060208601356001600160401b03811115613a1657600080fd5b613a2288828901613573565b959895975050505060408401359360608101359360809091013592509050565b60008060008060808587031215613a5857600080fd5b613a61856134d2565b966020860135965060408601359560600135945092505050565b600080600080600060a08688031215613a9357600080fd5b613a9c866134d2565b97602087013597506040870135966060810135965060800135945092505050565b600060208284031215613acf57600080fd5b81356001600160401b03811115613ae557600080fd5b613012848285016134ee565b600060208284031215613b0357600080fd5b81518015158114612d1057600080fd5b600060208284031215613b2557600080fd5b5035919050565b60008060408385031215613b3f57600080fd5b82359150613b4f602084016134d2565b90509250929050565b60008060408385031215613b6b57600080fd5b50508035926020909101359150565b600080600060608486031215613b8f57600080fd5b505081359360208301359350604090920135919050565b600060208284031215613bb857600080fd5b81356001600160e01b031981168114612d1057600080fd5b600060208284031215613be257600080fd5b81356001600160401b03811115613bf857600080fd5b61301284828501613573565b600080600060608486031215613c1957600080fd5b83356001600160401b0380821115613c3057600080fd5b613c3c87838801613573565b94506020860135915080821115613c5257600080fd5b613c5e878388016134ee565b93506040860135915080821115613c7457600080fd5b50613c81868287016134ee565b9150509250925092565b60008060008060808587031215613ca157600080fd5b84356001600160401b0380821115613cb857600080fd5b613cc488838901613573565b95506020870135915080821115613cda57600080fd5b613ce6888389016134ee565b94506040870135915080821115613cfc57600080fd5b50613d09878288016134ee565b949793965093946060013593505050565b60008060008060808587031215613d3057600080fd5b84356001600160401b0380821115613d4757600080fd5b613d5388838901613573565b9550602087013594506040870135915080821115613d7057600080fd5b613d7c888389016134ee565b93506060870135915080821115613d9257600080fd5b506138ec878288016134ee565b600080600060608486031215613db457600080fd5b83356001600160401b03811115613dca57600080fd5b613dd686828701613573565b9660208601359650604090950135949350505050565b60008060408385031215613dff57600080fd5b8235915060208301356001600160401b03811115613e1c57600080fd5b613e2885828601613573565b9150509250929050565b600080600060608486031215613e4757600080fd5b8335925060208401356001600160401b03811115613e6457600080fd5b613e7086828701613573565b925050604084013590509250925092565b600081518084526020808501945080840160005b83811015613eb157815187529582019590820190600101613e95565b509495945050505050565b6001600160601b03198760601b16815285601482015284603482015260008451613eed81605485016020890161459d565b9091016054810193909352506074820152609401949350505050565b6001600160601b03198660601b16815284601482015283603482015282605482015260008251613f4081607485016020870161459d565b919091016074019695505050505050565b6001600160601b03198760601b16815285601482015284603482015283605482015260008351613f8881607485016020880161459d565b60749201918201929092526094019695505050505050565b60008251613fb281846020870161459d565b9190910192915050565b76020b1b1b2b9b9a1b7b73a3937b61d1030b1b1b7bab73a1604d1b815260008351613fee81601785016020880161459d565b7001034b99036b4b9b9b4b733903937b6329607d1b601791840191820152835161401f81602884016020880161459d565b01602801949350505050565b6001600160a01b0394851681529290931660208301526040820152606081019190915260a06080820181905260009082015260c00190565b602081526000612d106020830184613e81565b6040815260006140896040830185613e81565b828103602084015261409b8185613e81565b95945050505050565b60208152600082518060208401526140c381604085016020870161459d565b601f01601f19169190910160400192915050565b60208082526036908201527f52414841543a20416d6f756e742069732067726561746572207468616e2072656040820152751b585a5b9a5b99c8141c9bda9958dd08109d5919d95d60521b606082015260800190565b6020808252602a908201527f52414841543a2053656e646572206d75737420626520616e20617574686f72696040820152693d32b21039b2b93b32b960b11b606082015260800190565b6020808252602f908201527f52414841543a54696d6520546f204c6976652073686f756c64206265206c657360408201526e73207468616e20323420686f75727360881b606082015260800190565b6020808252602a908201527f52414841543a2053656e646572204d757374206265206120726567697374657260408201526932b2103b32b73237b91760b11b606082015260800190565b6020808252602d908201527f52414841543a204e6f20616e7920746f6b656e2077617320697373756564207460408201526c37903a3434b990373ab6b132b960991b606082015260800190565b6020808252601f908201527f52414841543a2053656e646572206d75737420626520616e2061646d696e2e00604082015260600190565b60208082526023908201527f52414841543a20436c61696d20686173206e6f74206265656e2072656c65617360408201526232b21760e91b606082015260800190565b60208082526027908201527f52414841543a20436c61696d2068617320616c7265616479206265656e2072656040820152663632b0b9b2b21760c91b606082015260800190565b60208082526023908201527f52414841543a20436c61696d206973206f6c646572207468616e20323420686f60408201526275727360e81b606082015260800190565b6020808252601990820152782920a420aa1d1027aa28103234b2103737ba1036b0ba31b41760391b604082015260600190565b60208082526025908201527f52414841543a20436c61696d20686173206e6f74206265656e2063726561746560408201526419081e595d60da1b606082015260800190565b60208082526025908201527f5369676e617475726520646964206e6f74206d6174636865642077697468207360408201526434b3b732b960d91b606082015260800190565b60208082526021908201527f52414841543a20436c61696d2068617320616c726561647920657870697265646040820152601760f91b606082015260800190565b6020808252603c908201527f52414841543a20416d6f756e742072657175657374656420697320677265617460408201527f6572207468616e2062656e65666963696172792062616c616e63652e00000000606082015260800190565b6020808252602f908201527f52414841543a20496e76616c696420696e70757420617272617973206f66205060408201526e1a1bdb9948185b9908105b5bdd5b9d608a1b606082015260800190565b604051601f8201601f191681016001600160401b03811182821017156145335761453361466b565b604052919050565b6000821982111561454e5761454e614613565b500190565b60008261456257614562614629565b500490565b600081600019048311821515161561458157614581614613565b500290565b60008282101561459857614598614613565b500390565b60005b838110156145b85781810151838201526020016145a0565b838111156145c7576000848401525b50505050565b6000816145dc576145dc614613565b506000190190565b60006000198214156145f8576145f8614613565b5060010190565b60008261460e5761460e614629565b500690565b634e487b7160e01b600052601160045260246000fd5b634e487b7160e01b600052601260045260246000fd5b634e487b7160e01b600052602160045260246000fd5b634e487b7160e01b600052603260045260246000fd5b634e487b7160e01b600052604160045260246000fdfe0aaf57387812c7f832412470a57567b5648a930069be49aa9c98d04f88520d34be9e90431f28bd12a87a51b26b014cab620a8a4819bf73d87369ccbe6800a76c8ff5d84bbad5f252f2ee1916646e221e55645205d2f803ebe6a7d6ba8fa4185dcaa7f6290f33308266ee2988386694ac9bc3612b5df272e3502129925a64f997043620c1e1c33ecf60d9dadc62571b96554338b68ef3636e715e52a286bea92e987d620f307ff6b94d58743cb7a7509f24071586a77759b77c2d4e29f75a2f9aa2646970667358221220e65a2dac2ad0831e4af038999f2ab60644ca4e39f5b7f32c9f806e6e72933b6764736f6c63430008070033caa7f6290f33308266ee2988386694ac9bc3612b5df272e3502129925a64f997",
  "immutableReferences": {},
  "source": "//SPDX-License-Identifier: UNLICENSED\r\n\r\npragma solidity 0.8.7;\r\nimport './RahatERC20.sol';\r\nimport './RahatERC1155.sol';\r\nimport '@openzeppelin/contracts/token/ERC1155/utils/ERC1155Holder.sol';\r\nimport '@openzeppelin/contracts/utils/structs/EnumerableSet.sol';\r\nimport '@openzeppelin/contracts/utils/cryptography/ECDSA.sol';\r\n\r\ncontract Rahat is AccessControl,ERC1155Holder {\r\n    using Strings for uint256;\r\n    using EnumerableSet for EnumerableSet.Bytes32Set;\r\n    using EnumerableSet for EnumerableSet.AddressSet;\r\n    using EnumerableSet for EnumerableSet.UintSet;\r\n    using ECDSA for bytes32;\r\n\r\n\t//***** Events *********//\r\n\tevent Claimed(address indexed vendor, uint256 indexed phone, uint256 amount);\r\n\tevent ClaimApproved(address indexed vendor, uint256 indexed phone, uint256 amount);\r\n\tevent IssuedERC20(bytes32 indexed projectId, uint256 indexed phone, uint256 amount);\r\n\tevent IssuedERC1155(bytes32 indexed projectId, uint256 indexed phone, uint256 indexed tokenId, uint256 amount);\r\n\tevent ClaimAcquired(address indexed vendor, uint256 indexed beneficiary,uint256 amount);\r\n\tevent ClaimAcquired(uint256 indexed tokenId,address indexed vendor, uint256 indexed beneficiary,uint256 amount);\r\n\tevent InvalidSignature(bytes signature,bytes32 digest, address expectedSigner,address recoveredSigner);\r\n\r\n\t//event BalanceAdjusted(uint256 indexed phone, uint256 amount, string reason);\r\n\r\n\t//***** Constant Variables (Roles) *********//\r\n\tbytes32 public constant SERVER_ROLE = keccak256('SERVER');\r\n\tbytes32 public constant VENDOR_ROLE = keccak256('VENDOR');\r\n\tbytes32 public constant MANAGER_ROLE = keccak256('MANAGER');\r\n\tbytes32 public constant MOBILIZER_ROLE = keccak256('MOBILIZER');\r\n\tbytes32 public constant ISSUE_TOKEN = keccak256(\"issueToken\");\r\n\tbytes32 public constant CREATE_CLAIM = keccak256(\"createClaim\");\r\n\tbytes32 public constant GET_TOKENS_FROM_CLAIM = keccak256(\"getTokensFromClaim\");\r\n\r\n\r\n\r\n    mapping(address => uint) public nonces; //delegated users nonces\r\n\r\n\r\n\t//***** Variables (State) *********//\r\n\t//AidToke public tokenContract;\r\n    RahatERC20 public erc20;\r\n    RahatERC1155 public erc1155;\r\n    \r\n    ///@notice track total issued tokens of each benefiicary phone\r\n    mapping(uint256 => uint256) public erc20Issued; //phone=>balance\r\n    mapping(uint256 =>mapping(uint256 => uint256)) public erc1155Issued; //phone=>tokenid=>balance\r\n    mapping(uint256 => EnumerableSet.UintSet) beneficiaryTokenIds;\r\n\r\n    \r\n\t/// @notice track balances of each beneficiary phone\r\n\tmapping(uint256 => uint256) public erc20Balance; //phone=>balance\r\n\tmapping(uint256 =>mapping(uint256 => uint256)) public erc1155Balance; //phone=>tokenid=>balance\r\n\r\n\r\n\t/// @notice track projectBalances\r\n\t//bytes32[] public projectId;\r\n\tEnumerableSet.Bytes32Set private projectId;\r\n\tmapping(bytes32 => uint256) remainingProjectErc20Balances;\r\n\tmapping(bytes32 =>mapping(uint256 => uint256)) remainingProjectErc1155Balances;\r\n\tmapping(bytes32 => EnumerableSet.AddressSet) projectMobilizers;\r\n  mapping(address => EnumerableSet.Bytes32Set) mobilizerProjects;\r\n\r\n\r\n\r\n\tstruct claim {\r\n\t\tuint256 amount;\r\n\t\tbytes32 otpHash;\r\n\t\tbool isReleased;\r\n\t\tuint256 date;\r\n\t}\r\n\t/// @dev vendorAddress => phone => claim\r\n\tmapping(address => mapping(bytes32 => claim)) public recentERC20Claims;\r\n\tmapping(address => mapping(bytes32 => mapping(uint256 => claim))) public recentERC1155Claims;\r\n\r\n\t//***** Constructor *********//\r\n\tconstructor(RahatERC20 _erc20, RahatERC1155 _erc1155, address _admin) {\r\n\t\t_setupRole(DEFAULT_ADMIN_ROLE, tx.origin);\r\n\t\t_setupRole(DEFAULT_ADMIN_ROLE, _admin);\r\n\t\t_setRoleAdmin(SERVER_ROLE, DEFAULT_ADMIN_ROLE);\r\n\t\t_setRoleAdmin(VENDOR_ROLE, DEFAULT_ADMIN_ROLE);\r\n\t\tgrantRole(SERVER_ROLE, msg.sender);\r\n\t\terc20 = _erc20;\r\n\t\terc1155 = _erc1155;\r\n\t}\r\n    \r\n    function supportsInterface(bytes4 interfaceId) public view virtual override(AccessControl,ERC1155Receiver) returns (bool) {\r\n    return super.supportsInterface(interfaceId);\r\n}\r\n\r\n\r\n\t//***** Modifiers *********//\r\n\tmodifier OnlyServer() {\r\n\t\trequire(hasRole(SERVER_ROLE, msg.sender), 'RAHAT: Sender must be an authorized server');\r\n\t\t_;\r\n\t}\r\n\tmodifier OnlyAdmin {\r\n\t\trequire(hasRole(DEFAULT_ADMIN_ROLE, msg.sender), 'RAHAT: Sender must be an admin.');\r\n\t\t_;\r\n\t}\r\n\tmodifier IsBeneficiary(uint256 _phone) {\r\n\t    bytes32 _benId = findHash(_phone);\r\n\t\trequire(erc20Balance[_phone] != 0, 'RAHAT: No any token was issued to this number');\r\n\t\t_;\r\n\t}\r\n\tmodifier OnlyVendor {\r\n\t\trequire(hasRole(VENDOR_ROLE, msg.sender), 'RAHAT: Sender Must be a registered vendor.');\r\n\t\t_;\r\n\t}\r\n\tmodifier OnlyAdminOrMobilizer {\r\n\t    require((hasRole(DEFAULT_ADMIN_ROLE, msg.sender) || hasRole(MOBILIZER_ROLE, msg.sender)), 'RAHAT: Sender Must be a registered Admin Or Mobilizer.');\r\n      _;\r\n\t}\r\n\r\n\t//***** Methods *********//\r\n\t//Access Control Management\r\n\t/// @notice add admin of the this contract\r\n\t/// @param _account address of the new admin\r\n\tfunction addAdmin(address _account) public {\r\n\t\tgrantRole(DEFAULT_ADMIN_ROLE, _account);\r\n\t}\r\n\r\n\t/// @notice add server account for this contract\r\n\t/// @param _account address of the new server account\r\n\tfunction addServer(address _account) public {\r\n\t\tgrantRole(SERVER_ROLE, _account);\r\n\t}\r\n\r\n\t/// @notice add vendors\r\n\t/// @param _account address of the new vendor\r\n\tfunction addVendor(address _account) public {\r\n\t\tgrantRole(VENDOR_ROLE, _account);\r\n\t}\r\n\r\n    \t/// @notice add vendors\r\n\t/// @param _account address of the new vendor\r\n\tfunction addMobilizer(address _account,bytes32 _projectId) public {\r\n\t\tgrantRole(MOBILIZER_ROLE, _account);\r\n\t\tprojectMobilizers[_projectId].add(_account);\r\n\t\tmobilizerProjects[_account].add(_projectId);\r\n\t}\r\n\t\r\n\tfunction getTotalERC1155Issued(uint256 _phone) public view returns(uint256[] memory tokenIds,uint256[] memory balances) {\r\n\t     uint256 i;\r\n        uint256 _totalERC1155 = beneficiaryTokenIds[_phone].length();\r\n        uint256[] memory _tokenIds = new uint256[](_totalERC1155);\r\n        uint256[] memory _balances = new uint256[](_totalERC1155);\r\n        \r\n        for (i=0;i<_totalERC1155;i++){\r\n            uint256 _tokenId = beneficiaryTokenIds[_phone].at(i);\r\n            uint256 _balance = erc1155Issued[_phone][_tokenId];\r\n            _tokenIds[i] = _tokenId;\r\n            _balances[i] = _balance;\r\n        }\r\n        \r\n        return (_tokenIds,_balances);\r\n\t}\r\n\t\r\n\t\tfunction getTotalERC1155Balance(uint256 _phone) public view returns(uint256[] memory tokenIds,uint256[] memory balances) {\r\n\t     uint256 i;\r\n        uint256 _totalERC1155 = beneficiaryTokenIds[_phone].length();\r\n        uint256[] memory _tokenIds = new uint256[](_totalERC1155);\r\n        uint256[] memory _balances = new uint256[](_totalERC1155);\r\n        \r\n        for (i=0;i<_totalERC1155;i++){\r\n            uint256 _tokenId = beneficiaryTokenIds[_phone].at(i);\r\n            uint256 _balance = erc1155Balance[_phone][_tokenId];\r\n            _tokenIds[i] = _tokenId;\r\n            _balances[i] = _balance;\r\n        }\r\n        \r\n        return (_tokenIds,_balances);\r\n\t}\r\n\r\n\r\n    function getTokenIdsOfBeneficiary(uint256 _phone) public view returns(uint256[] memory tokenIds){\r\n        return beneficiaryTokenIds[_phone].values();\r\n    }\r\n        \r\n\tfunction suspendMobilizer() public {\r\n\r\n\t}\r\n\tfunction suspendVendor() public {\r\n\t\t\r\n\t}\r\n\t//Beneficiary Management\r\n\t/// @notice suspend the benficiary by deducting all the balance beneficiary owns\r\n\t/// @param _phone phone number of the Beneficiary\r\n\t/// @param _projectId projectId of the beneficiary\r\n\tfunction suspendBeneficiary(uint256 _phone , bytes32 _projectId) public OnlyServer IsBeneficiary(_phone) {\r\n\t  //  bytes32 _benId = findHash(_phone);\r\n\r\n\t\tuint256 _balance = erc20Balance[_phone];\r\n\t\tremainingProjectErc20Balances[_projectId] += _balance;\r\n\t\tadjustTokenDeduct(_phone, _balance);\r\n\t}\r\n\r\n\t/// @notice adds the token from beneficiary\r\n\tfunction adjustTokenAdd(uint256 _phone, uint256 _amount) public OnlyAdmin {\r\n\t   // bytes32 _benId = findHash(_phone);\r\n\t\terc20Balance[_phone] = erc20Balance[_phone] + _amount;\r\n\t\terc20Issued[_phone] = erc20Issued[_phone] + _amount;\r\n\t\t//emit BalanceAdjusted(_phone, _amount, _reason);\r\n\t}\r\n\r\n\t/// @notice deducts the token from beneficiary\r\n\tfunction adjustTokenDeduct(uint256 _phone, uint256 _amount) public OnlyAdmin IsBeneficiary(_phone) {\r\n\t    //bytes32 _benId = findHash(_phone);\r\n\t\terc20Balance[_phone] = erc20Balance[_phone] - _amount;\r\n\t\t//emit BalanceAdjusted(_phone, _amount, _reason);\r\n\t}\r\n\t\r\n\t\r\n\t\r\n\t/// @notice adds the token from beneficiary\r\n\tfunction adjustTokenAdd(uint256 _phone, uint256 _amount,uint256 _tokenId) public OnlyAdmin {\r\n\t   // bytes32 _benId = findHash(_phone);\r\n\t\terc1155Balance[_phone][_tokenId] += _amount;\r\n\t\terc1155Issued[_phone][_tokenId] += _amount;\r\n\t\t//emit BalanceAdjusted(_phone, _amount, _reason);\r\n\t}\r\n\r\n\t/// @notice deducts the token from beneficiary\r\n\tfunction adjustTokenDeduct(uint256 _phone, uint256 _amount,uint256 _tokenId) public OnlyAdmin IsBeneficiary(_phone) {\r\n\t  //  bytes32 _benId = findHash(_phone);\r\n\t\terc1155Balance[_phone][_tokenId] -= _amount;\r\n\t\t//emit BalanceAdjusted(_phone, _amount, _reason);\r\n\t}\r\n\r\n\t/// @notice creates a project.\r\n\t/// @notice called by rahatdmin contract\r\n\t/// @param _projectId Id of the project to assign budget\r\n\t/// @param _projectCapital amount of budget to be assigned to project\r\n\tfunction addProject(bytes32 _projectId, uint256 _projectCapital) external {\r\n\t\tprojectId.add(_projectId);\r\n\t\tremainingProjectErc20Balances[_projectId] = _projectCapital;\r\n\t}\r\n\r\n\t/// @notice update a project balance.\r\n\t/// @notice called by rahatdmin contract\r\n\t/// @param _projectId Id of the project to assign budget\r\n\t/// @param _projectCapital amount of budget to be added to project\r\n\tfunction updateProjectBudget(bytes32 _projectId, uint256 _projectCapital) external {\r\n\t\tremainingProjectErc20Balances[_projectId] += _projectCapital;\r\n\t}\r\n\t\r\n\t/// @notice update a project balance.\r\n\t/// @notice called by rahatdmin contract\r\n\t/// @param _projectId Id of the project to assign budget\r\n\t/// @param _projectCapital amount of budget to be added to project\r\n\t/// @param tokenId ERC1155 token id\r\n\tfunction updateProjectBudget(bytes32 _projectId, uint256 _projectCapital,uint256 tokenId) external {\r\n\t\tremainingProjectErc1155Balances[_projectId][tokenId] += _projectCapital;\r\n\t}\r\n\r\n\t/// @notice get the current balance of project\r\n\tfunction getProjectBalance(bytes32 _projectId) external view returns (uint256 _balance) {\r\n\t\treturn remainingProjectErc20Balances[_projectId];\r\n\t}\r\n\t\r\n\t\t/// @notice get the current balance of project\r\n\tfunction getProjectBalance(bytes32 _projectId, uint256 tokenId) external view returns (uint256 _balance) {\r\n\t\treturn remainingProjectErc1155Balances[_projectId][tokenId];\r\n\t}\r\n\t\r\n\tfunction verifyVendor(bytes32 _hash, bytes memory _signature) internal view returns(address){\r\n\t    address _signer = _hash.recover(_signature);\r\n\t    require(hasRole(VENDOR_ROLE,_signer),\"Signer should be Mobilizer\");\r\n\t    return _signer;\r\n\t}\r\n\t\r\n\tfunction verifyMobilizer(bytes32 _hash, bytes memory _signature) internal view returns (address){\r\n\t     address _signer = _hash.recover(_signature);\r\n\t    require(hasRole(MOBILIZER_ROLE,_signer),\"Signer should be Mobilizer\");\r\n\t    return _signer;\r\n\r\n\t}\r\n\r\n\t/// @notice Issue tokens to beneficiary\r\n\t/// @param _projectId Id of the project beneficiary is involved in\r\n\t/// @param _phone phone number of the beneficiary\r\n\t/// @param _amount Amount of token to be assigned to beneficiary\r\n\tfunction issueERC20ToBeneficiary(\r\n\t\tstring memory _projectId,\r\n\t\tuint256 _phone,\r\n\t\tuint256 _amount\r\n\t) public OnlyAdmin {\r\n\t\tbytes32 _id = findHash(_projectId);\r\n\t\trequire(remainingProjectErc20Balances[_id] >= _amount, 'RAHAT: Amount is greater than remaining Project Budget');\r\n\t\tremainingProjectErc20Balances[_id] -= _amount;\r\n\t\tadjustTokenAdd(_phone, _amount);\r\n\r\n\t\temit IssuedERC20(_id, _phone, _amount);\r\n\t}\r\n\t\r\n\t/// @notice Issue ERC20 tokens to beneficiary\r\n\t/// @param _projectId Id of the project beneficiary is involved in\r\n\t/// @param _phone phone number of the beneficiary\r\n\t/// @param _amount Amount of token to be assigned to beneficiary\r\n\t/// @param _tokenId ERC1155 TokenId\r\n\tfunction issueERC1155ToBeneficiary(\r\n\t\tstring memory _projectId,\r\n\t\tuint256 _phone,\r\n\t\tuint256[] memory _amount,\r\n\t\tuint256[] memory _tokenId\r\n\t) public OnlyAdmin {\r\n\t\tbytes32 _id = findHash(_projectId);\r\n\t\trequire(_amount.length == _tokenId.length, 'RAHAT: Invalid input arrays of Phone and Amount');\r\n\t\tuint256 i;\r\n\t\tfor (i = 0; i < _tokenId.length; i++) {\r\n\t\t  \trequire(remainingProjectErc1155Balances[_id][_tokenId[i]] >= _amount[i], 'RAHAT: Amount is greater than remaining Project Budget');\r\n\t\t    remainingProjectErc1155Balances[_id][_tokenId[i]] -= _amount[i];\r\n\t\t    adjustTokenAdd(_phone, _amount[i],_tokenId[i]);\r\n\t\t    beneficiaryTokenIds[_phone].add(_tokenId[i]);\r\n\t\t    emit IssuedERC1155(_id, _phone, _tokenId[i],_amount[i]);\r\n\t\t}\r\n\t\r\n\t\t\r\n\t}\r\n\t\r\n\t/// @notice Issue ERC20 to beneficiary\r\n\t/// @param _signer Address of the mobilizer/caller who is issuing tokens\r\n\t/// @param _signature Signature generated by signing {to,functionSig,nonce,projectId,phone,amount} through mobilizer/caller wallet\r\n\t/// @param _projectId Id of the project beneficiary is involved in\r\n\t/// @param _phone phone number of the beneficiary\r\n\t/// @param _amount Amount of token to be assigned to beneficiary\r\n\tfunction delegate_issueERC20ToBeneficiary(\r\n\t    address _signer,\r\n\t    bytes memory _signature,\r\n\t\tstring memory _projectId,\r\n\t\tuint256 _phone,\r\n\t\tuint256 _amount\r\n\t) public {\r\n\t    bytes32 _hash = keccak256(abi.encodePacked(address(this), ISSUE_TOKEN, nonces[_signer], _projectId, _phone,_amount)); //data-hash of toke issuance = {to,functionSig,nonce,projectId,phone,amount}\r\n        address recoveredSigner = verifyMobilizer(_hash,_signature);\r\n        require(recoveredSigner == _signer,'Signature did not matched with signer');\r\n        nonces[_signer]++;\r\n\r\n        \r\n\t\tbytes32 _id = findHash(_projectId);\r\n\t\trequire(remainingProjectErc20Balances[_id] >= _amount, 'RAHAT: Amount is greater than remaining Project Budget');\r\n\t\tremainingProjectErc20Balances[_id] -= _amount;\r\n\t\tadjustTokenAdd(_phone, _amount);\r\n\r\n\t\temit IssuedERC20(_id, _phone, _amount);\r\n\t}\r\n\t\r\n\t\t\r\n\t/// @notice Issue ERC1155 tokens to beneficiary\r\n\t/// @param _signer Address of the mobilizer/caller who is issuing tokens\r\n\t/// @param _signature Signature generated by signing {to,functionSig,nonce,projectId,phone,amount} through mobilizer/caller wallet\r\n\t/// @param _projectId Id of the project beneficiary is involved in\r\n\t/// @param _phone phone number of the beneficiary\r\n\t/// @param _amount Amount of token to be assigned to beneficiary\r\n\t/// @param _tokenId ERC1155 TokenId\r\n\tfunction delegate_issueERC1155ToBeneficiary(\r\n\t    address _signer,\r\n\t    bytes memory _signature,\r\n\t\tstring memory _projectId,\r\n\t\tuint256 _phone,\r\n\t\tuint256 _amount,\r\n\t\tuint256 _tokenId\r\n\t) public {\r\n\t    bytes32 _hash = keccak256(abi.encodePacked(address(this), ISSUE_TOKEN, nonces[_signer], _projectId, _phone,_amount)); //data-hash of toke issuance = {to,functionSig,nonce,projectId,phone,amount}\r\n        address recoveredSigner = verifyMobilizer(_hash,_signature);\r\n        require(recoveredSigner == _signer,'Signature did not matched with signer');\r\n        nonces[_signer]++;\r\n\r\n        \r\n\t\tbytes32 _id = findHash(_projectId);\r\n\t\trequire(remainingProjectErc1155Balances[_id][_tokenId] >= _amount, 'RAHAT: Amount is greater than remaining Project Budget');\r\n\t\tremainingProjectErc1155Balances[_id][_tokenId] -= _amount;\r\n\t\tadjustTokenAdd(_phone, _amount,_tokenId);\r\n\r\n\t\temit IssuedERC1155(_id, _phone,_tokenId, _amount);\r\n\t}\r\n\r\n\t/// @notice Issue tokens to beneficiary in bulk\r\n\t/// @param _projectId Id of the project beneficiary is involved in\r\n\t/// @param _phone array of phone number of the beneficiary\r\n\t/// @param _amount array of Amount of token to be assigned to beneficiary\r\n\tfunction issueBulkERC20(\r\n\t\tstring memory _projectId,\r\n\t\tuint256[] memory _phone,\r\n\t\tuint256[] memory _amount\r\n\t) public OnlyAdmin {\r\n\t\trequire(_phone.length == _amount.length, 'RAHAT: Invalid input arrays of Phone and Amount');\r\n\t\tuint256 i;\r\n\t\tuint256 sum = getArraySum(_amount);\r\n\t\tbytes32 _id = findHash(_projectId);\r\n\r\n\t\trequire(remainingProjectErc20Balances[_id] >= sum, 'RAHAT: Amount is greater than remaining Project Budget');\r\n\r\n\t\tfor (i = 0; i < _phone.length; i++) {\r\n\t\t\tissueERC20ToBeneficiary(_projectId, _phone[i], _amount[i]);\r\n\t\t}\r\n\t}\r\n\t\r\n\t\t/// @notice Issue tokens to beneficiary in bulk\r\n\t/// @param _projectId Id of the project beneficiary is involved in\r\n\t/// @param _phone array of phone number of the beneficiary\r\n\t/// @param _amount array of Amount of token to be assigned to beneficiary\r\n\tfunction issueBulkERC1155(\r\n\t\tstring memory _projectId,\r\n\t\tuint256[] memory _phone,\r\n\t\tuint256[] memory _amount,\r\n\t\tuint256 _tokenId\r\n\t\t\r\n\t) public OnlyAdmin {\r\n\t\trequire(_phone.length == _amount.length, 'RAHAT: Invalid input arrays of Phone and Amount');\r\n\t\tuint256 i;\r\n\t\tuint256 sum = getArraySum(_amount);\r\n\t\tbytes32 _id = findHash(_projectId);\r\n\r\n\t\trequire(remainingProjectErc1155Balances[_id][_tokenId] >= sum, 'RAHAT: Amount is greater than remaining Project Budget');\r\n\r\n\t\tfor (i = 0; i < _phone.length; i++) {\r\n\t\t    uint[] memory  amt = new uint[](1);\r\n\t\t    uint[] memory  tkd = new uint[](1);\r\n\t\t    amt[0] = _amount[i];\r\n\t\t    tkd[0] = _tokenId;\r\n\t\t\tissueERC1155ToBeneficiary(_projectId, _phone[i], amt,tkd);\r\n\t\t}\r\n\t}\r\n\r\n\t/// @notice request a token to beneficiary by vendor\r\n\t/// @param _phone Phone number of beneficiary to whom token is requested\r\n\t/// @param _tokens Number of tokens to request\r\n\tfunction createERC20Claim(uint256 _phone, uint256 _tokens) public IsBeneficiary(_phone) OnlyVendor {\r\n\t    bytes32 _benId = findHash(_phone);\r\n\t\trequire(erc20Balance[_phone] >= _tokens, 'RAHAT: Amount requested is greater than beneficiary balance.');\r\n\t\tclaim storage ac = recentERC20Claims[msg.sender][_benId];\r\n\t\tac.isReleased = false;\r\n\t\tac.amount = _tokens;\r\n\t\tac.date = block.timestamp;\r\n\t\temit Claimed(tx.origin, _phone, _tokens);\r\n\t}\r\n\t\r\n\t///@dev claim tokens from the beneficiary by vendor\r\n\t///@param _phone identity of the beneficiary\r\n\t///@param _amount amaount of ERC1155 tokens to request\r\n\t///@param _tokenId ERC1155 token id\r\n\tfunction createERC1155Claim(uint256 _phone, uint256 _amount, uint256 _tokenId) public OnlyVendor {\r\n\t    bytes32 _benId = findHash(_phone);\r\n\t\trequire(erc1155Balance[_phone][_tokenId] >= _amount, 'RAHAT: Amount requested is greater than beneficiary balance.');\r\n\t\tclaim storage ac = recentERC1155Claims[msg.sender][_benId][_tokenId];\r\n\t\tac.isReleased = false;\r\n\t\tac.amount = _amount;\r\n\t\tac.date = block.timestamp;\r\n\t\temit Claimed(tx.origin, _phone, _amount);\r\n\t}\r\n\t\r\n\t///@dev delegate a createClaim transaction for ERC20\r\n\t///@param _signer address of vendor/caller of createClaim\r\n\t/// @param _signature Signature generated by signing {to,functionSig,nonce,projectId,phone,amount} through vendor/caller wallet\r\n\t/// @param _phone identity of benficiary\r\n\t/// @param _amount amount of token to be claimed\r\n\tfunction delegate_createERC20Claim(address _signer,bytes memory _signature,uint256 _phone, uint256 _amount) public {\r\n\t    bytes32 _hash = keccak256(abi.encodePacked(address(this), CREATE_CLAIM, nonces[_signer], _phone,_amount)); //data-hash of toke issuance = {to,functionSig,nonce,projectId,phone,amount}\r\n        address recoveredSigner = verifyVendor(_hash,_signature);\r\n        require(recoveredSigner == _signer,'Signature did not matched with signer');\r\n        nonces[_signer]++;\r\n\r\n    bytes32 _benId = findHash(_phone);\r\n\t\trequire(erc20Balance[_phone] >= _amount, 'RAHAT: Amount requested is greater than beneficiary balance.');\r\n\t\tclaim storage ac = recentERC20Claims[_signer][_benId];\r\n\t\tac.isReleased = false;\r\n\t\tac.amount = _amount;\r\n\t\tac.date = block.timestamp;\r\n\t\temit Claimed(tx.origin, _phone, _amount);\r\n\t    \r\n\t}\r\n\t\r\n\r\n\t///@dev delegate a createClaim transaction for ERC20\r\n\t///@param _signer address of vendor/caller of createClaim\r\n\t/// @param _signature Signature generated by signing {to,functionSig,nonce,projectId,phone,amount} through vendor/caller wallet\r\n\t/// @param _phone identity of benficiary\r\n\t/// @param _amount amount of token to be claimed\r\n\t/// @param _tokenId ERC1155 tokenId\r\n\tfunction delegate_createERC1155Claim(address _signer,bytes memory _signature,uint256 _phone, uint256 _amount, uint256 _tokenId) public {\r\n\t     bytes32 _hash = keccak256(abi.encodePacked(address(this), CREATE_CLAIM, nonces[_signer], _phone,_amount,_tokenId)); //data-hash of toke issuance = {to,functionSig,nonce,projectId,phone,amount}\r\n        address recoveredSigner = verifyVendor(_hash,_signature);\r\n        require(recoveredSigner == _signer,'Signature did not matched with signer');\r\n        nonces[_signer]++;\r\n\t    \r\n\t     bytes32 _benId = findHash(_phone);\r\n\t\trequire(erc1155Balance[_phone][_tokenId] >= _amount, 'RAHAT: Amount requested is greater than beneficiary balance.');\r\n\t\tclaim storage ac = recentERC1155Claims[_signer][_benId][_tokenId];\r\n\t\tac.isReleased = false;\r\n\t\tac.amount = _amount;\r\n\t\tac.date = block.timestamp;\r\n\t\temit Claimed(tx.origin, _phone, _amount);\r\n\t}\r\n\t\r\n\r\n\r\n\r\n\t/// @notice Approve the requested claim from serverside and set the otp hash\r\n\t/// @param _vendor Address of the vendor who requested the token from beneficiary\r\n\t/// @param _phone Phone number of the beneficiary, to whom token request was sent\r\n\t/// @param _otpHash Hash of OTP sent to beneficiary by server\r\n\t/// @param _timeToLive Validity of OTP in seconds\r\n\tfunction approveERC20Claim(\r\n\t\taddress _vendor,\r\n\t\tuint256 _phone,\r\n\t\tbytes32 _otpHash,\r\n\t\tuint256 _timeToLive\r\n\t) public IsBeneficiary(_phone) OnlyServer {\r\n\t    bytes32 _benId = findHash(_phone);\r\n\t\tclaim storage ac = recentERC20Claims[_vendor][_benId];\r\n\t\trequire(ac.date != 0, 'RAHAT: Claim has not been created yet');\r\n\t\trequire(_timeToLive <= 86400, 'RAHAT:Time To Live should be less than 24 hours');\r\n\t\trequire(block.timestamp <= ac.date + 86400, 'RAHAT: Claim is older than 24 hours');\r\n\t\trequire(!ac.isReleased, 'RAHAT: Claim has already been released.');\r\n\t\tac.otpHash = _otpHash;\r\n\t\tac.isReleased = true;\r\n\t\tac.date = block.timestamp + _timeToLive;\r\n\t\temit ClaimApproved(_vendor, _phone, ac.amount);\r\n\t}\r\n\t\r\n\t/// @notice Approve the requested claim from serverside and set the otp hash\r\n\t/// @param _vendor Address of the vendor who requested the token from beneficiary\r\n\t/// @param _phone Phone number of the beneficiary, to whom token request was sent\r\n\t/// @param _otpHash Hash of OTP sent to beneficiary by server\r\n\t/// @param _timeToLive Validity of OTP in seconds\r\n\t/// @param _tokenId ERC1155 tokenId\r\n\r\n\tfunction approveERC1155Claim(\r\n\t\taddress _vendor,\r\n\t\tuint256 _phone,\r\n\t\tbytes32 _otpHash,\r\n\t\tuint256 _timeToLive,\r\n\t\tuint256 _tokenId\r\n\t) public  OnlyServer {\r\n\t    bytes32 _benId = findHash(_phone);\r\n\t\tclaim storage ac = recentERC1155Claims[_vendor][_benId][_tokenId];\r\n\t\trequire(ac.date != 0, 'RAHAT: Claim has not been created yet');\r\n\t\trequire(_timeToLive <= 86400, 'RAHAT:Time To Live should be less than 24 hours');\r\n\t\trequire(block.timestamp <= ac.date + 86400, 'RAHAT: Claim is older than 24 hours');\r\n\t\trequire(!ac.isReleased, 'RAHAT: Claim has already been released.');\r\n\t\tac.otpHash = _otpHash;\r\n\t\tac.isReleased = true;\r\n\t\tac.date = block.timestamp + _timeToLive;\r\n\t\temit ClaimApproved(_vendor, _phone, ac.amount);\r\n\t}\r\n\r\n\t/// @notice Retrieve tokens that was requested to beneficiary by entering OTP\r\n\t/// @param _phone Phone Number of the beneficiary, to whom token request was sent\r\n\t/// @param _otp OTP sent by the server\r\n\tfunction getERC20FromClaim(uint256 _phone, string memory _otp) public IsBeneficiary(_phone) OnlyVendor {\r\n\t    bytes32 _benId = findHash(_phone);\r\n\t\tclaim storage ac = recentERC20Claims[msg.sender][_benId];\r\n\t\trequire(ac.isReleased, 'RAHAT: Claim has not been released.');\r\n\t\trequire(ac.date >= block.timestamp, 'RAHAT: Claim has already expired.');\r\n\t\tbytes32 otpHash = findHash(_otp);\r\n\t\trequire(recentERC20Claims[msg.sender][_benId].otpHash == otpHash, 'RAHAT: OTP did not match.');\r\n\t\tadjustTokenDeduct(_phone,ac.amount);\r\n\t\tuint256 amt = ac.amount;\r\n\t\tac.isReleased = false;\r\n\t\tac.amount = 0;\r\n\t\tac.date = 0;\r\n\t    erc20.transfer(msg.sender, amt);\r\n\t    emit ClaimAcquired(msg.sender,_phone,amt);\r\n\r\n\t}\r\n\t\r\n\t/// @notice Retrieve tokens that was requested to beneficiary by entering OTP\r\n\t/// @param _phone Phone Number of the beneficiary, to whom token request was sent\r\n\t/// @param _otp OTP sent by the server\r\n\t/// @param _tokenId ERC1155 tokenId\r\n\tfunction getERC1155FromClaim(uint256 _phone, string memory _otp,uint256 _tokenId) public OnlyVendor {\r\n\t    bytes32 _benId = findHash(_phone);\r\n\t\tclaim storage ac = recentERC1155Claims[msg.sender][_benId][_tokenId];\r\n\t\trequire(ac.isReleased, 'RAHAT: Claim has not been released.');\r\n\t\trequire(ac.date >= block.timestamp, 'RAHAT: Claim has already expired.');\r\n\t\tbytes32 otpHash = findHash(_otp);\r\n\t\trequire(recentERC1155Claims[msg.sender][_benId][_tokenId].otpHash == otpHash, 'RAHAT: OTP did not match.');\r\n\t\tadjustTokenDeduct(_phone,ac.amount,_tokenId);\r\n\t\tuint256 amt = ac.amount;\r\n\t\tac.isReleased = false;\r\n\t\tac.amount = 0;\r\n\t\tac.date = 0;\r\n\t\terc1155.safeTransferFrom(address(this),msg.sender,_tokenId, amt,'');\r\n\t\temit ClaimAcquired(_tokenId,msg.sender,_phone,amt);\r\n\t}\r\n\t\r\n\t\r\n\t///@dev delegates getERC20FromClaim for vendors/callers\r\n    ///@param _signer address of vendor/caller of getERC20FromClaim\r\n\t/// @param _signature Signature generated by signing {to,functionSig,nonce,projectId,phone,amount} through vendor/caller wallet\r\n\t/// @param _phone Phone Number of the beneficiary, to whom token request was sent\r\n\t/// @param _otp OTP sent by the server\r\n\tfunction delegate_getERC20FromClaim(address _signer,bytes memory _signature,uint256 _phone, string memory _otp) public IsBeneficiary(_phone) {\r\n\t    \r\n\t    bytes32 _hash = keccak256(abi.encodePacked(address(this), CREATE_CLAIM, nonces[_signer], _phone,_otp)); //data-hash of toke issuance = {to,functionSig,nonce,projectId,phone,amount}\r\n        address recoveredSigner = verifyVendor(_hash,_signature);\r\n        require(recoveredSigner == _signer,'Signature did not matched with signer');\r\n        nonces[_signer]++;\r\n\t    \r\n\t    bytes32 _benId = findHash(_phone);\r\n\t\tclaim storage ac = recentERC20Claims[msg.sender][_benId];\r\n\t\trequire(ac.isReleased, 'RAHAT: Claim has not been released.');\r\n\t\trequire(ac.date >= block.timestamp, 'RAHAT: Claim has already expired.');\r\n\t\tbytes32 otpHash = findHash(_otp);\r\n\t\trequire(recentERC20Claims[msg.sender][_benId].otpHash == otpHash, 'RAHAT: OTP did not match.');\r\n\t\terc20Balance[_phone] -= ac.amount;\r\n\t\tuint256 amt = ac.amount;\r\n\t\tac.isReleased = false;\r\n\t\tac.amount = 0;\r\n\t\tac.date = 0;\r\n\t    erc20.transfer(msg.sender, amt);\r\n\t    emit ClaimAcquired(msg.sender,_phone,amt);\r\n\r\n\t}\r\n\t\r\n\t///@dev delegates getERC20FromClaim for vendors/callers\r\n    ///@param _signer address of vendor/caller of getERC1155FromClaim\r\n\t/// @param _signature Signature generated by signing {to,functionSig,nonce,projectId,phone,amount} through vendor/caller wallet\r\n\t/// @param _phone Phone Number of the beneficiary, to whom token request was sent\r\n\t/// @param _otp OTP sent by the server\r\n\t/// @param _tokenId ERC1155 tokenId\r\n\tfunction delegate_getTokensFromClaim(address _signer,bytes memory _signature,uint256 _phone, string memory _otp,uint256 _tokenId) public {\r\n\t    bytes32 _hash = keccak256(abi.encodePacked(address(this), CREATE_CLAIM, nonces[_signer], _phone,_otp,_tokenId)); //data-hash of toke issuance = {to,functionSig,nonce,projectId,phone,amount}\r\n        address recoveredSigner = verifyVendor(_hash,_signature);\r\n        require(recoveredSigner == _signer,'Signature did not matched with signer');\r\n        nonces[_signer]++;\r\n\t    \r\n\t    bytes32 _benId = findHash(_phone);\r\n\t\tclaim storage ac = recentERC1155Claims[msg.sender][_benId][_tokenId];\r\n\t\trequire(ac.isReleased, 'RAHAT: Claim has not been released.');\r\n\t\trequire(ac.date >= block.timestamp, 'RAHAT: Claim has already expired.');\r\n\t\tbytes32 otpHash = findHash(_otp);\r\n\t\trequire(recentERC1155Claims[msg.sender][_benId][_tokenId].otpHash == otpHash, 'RAHAT: OTP did not match.');\r\n\t\tadjustTokenDeduct(_phone,ac.amount,_tokenId);\r\n\t\tuint256 amt = ac.amount;\r\n\t\tac.isReleased = false;\r\n\t\tac.amount = 0;\r\n\t\tac.date = 0;\r\n\t\terc1155.safeTransferFrom(address(this),msg.sender,_tokenId, amt,'');\r\n\t\temit ClaimAcquired(_tokenId,msg.sender,_phone,amt);\r\n\t}\r\n\r\n\t/// @notice generates the hash of the given string\r\n\t/// @param _data String of which hash is to be generated\r\n\tfunction findHash(string memory _data) public pure returns (bytes32) {\r\n\t\treturn keccak256(abi.encodePacked(_data));\r\n\t}\r\n\t\r\n\t/// @notice generates the hash of the given string\r\n\t/// @param _data String of which hash is to be generated\r\n\tfunction findHash(uint256 _data) public pure returns (bytes32) {\r\n\t    \r\n\t\treturn keccak256(abi.encodePacked(_data.toString()));\r\n\t}\r\n\r\n\t/// @notice Generates the sum of all the integers in array\r\n\t/// @param _array Array of uint\r\n\tfunction getArraySum(uint256[] memory _array) public pure returns (uint256 sum) {\r\n\t\tsum = 0;\r\n\t\tfor (uint256 i = 0; i < _array.length; i++) {\r\n\t\t\tsum += _array[i];\r\n\t\t}\r\n\t\treturn sum;\r\n\t}\r\n}\r\n",
  "sourcePath": "D:\\projects\\Rahat\\rahat-contracts\\contracts\\Rahat.sol",
  "compiler": {
    "name": "solc",
    "version": "0.8.7+commit.e28d00a7.Emscripten.clang"
  },
  "schemaVersion": "3.4.3",
  "updatedAt": "2021-11-19T04:08:07.844Z",
  "devdoc": {
    "kind": "dev",
    "methods": {
      "addAdmin(address)": {
        "params": {
          "_account": "address of the new admin"
        }
      },
      "addMobilizer(address,bytes32)": {
        "params": {
          "_account": "address of the new vendor"
        }
      },
      "addProject(bytes32,uint256)": {
        "params": {
          "_projectCapital": "amount of budget to be assigned to project",
          "_projectId": "Id of the project to assign budget"
        }
      },
      "addServer(address)": {
        "params": {
          "_account": "address of the new server account"
        }
      },
      "addVendor(address)": {
        "params": {
          "_account": "address of the new vendor"
        }
      },
      "approveERC1155Claim(address,uint256,bytes32,uint256,uint256)": {
        "params": {
          "_otpHash": "Hash of OTP sent to beneficiary by server",
          "_phone": "Phone number of the beneficiary, to whom token request was sent",
          "_timeToLive": "Validity of OTP in seconds",
          "_tokenId": "ERC1155 tokenId",
          "_vendor": "Address of the vendor who requested the token from beneficiary"
        }
      },
      "approveERC20Claim(address,uint256,bytes32,uint256)": {
        "params": {
          "_otpHash": "Hash of OTP sent to beneficiary by server",
          "_phone": "Phone number of the beneficiary, to whom token request was sent",
          "_timeToLive": "Validity of OTP in seconds",
          "_vendor": "Address of the vendor who requested the token from beneficiary"
        }
      },
      "createERC1155Claim(uint256,uint256,uint256)": {
        "details": "claim tokens from the beneficiary by vendor",
        "params": {
          "_amount": "amaount of ERC1155 tokens to request",
          "_phone": "identity of the beneficiary",
          "_tokenId": "ERC1155 token id"
        }
      },
      "createERC20Claim(uint256,uint256)": {
        "params": {
          "_phone": "Phone number of beneficiary to whom token is requested",
          "_tokens": "Number of tokens to request"
        }
      },
      "delegate_createERC1155Claim(address,bytes,uint256,uint256,uint256)": {
        "details": "delegate a createClaim transaction for ERC20",
        "params": {
          "_amount": "amount of token to be claimed",
          "_phone": "identity of benficiary",
          "_signature": "Signature generated by signing {to,functionSig,nonce,projectId,phone,amount} through vendor/caller wallet",
          "_signer": "address of vendor/caller of createClaim",
          "_tokenId": "ERC1155 tokenId"
        }
      },
      "delegate_createERC20Claim(address,bytes,uint256,uint256)": {
        "details": "delegate a createClaim transaction for ERC20",
        "params": {
          "_amount": "amount of token to be claimed",
          "_phone": "identity of benficiary",
          "_signature": "Signature generated by signing {to,functionSig,nonce,projectId,phone,amount} through vendor/caller wallet",
          "_signer": "address of vendor/caller of createClaim"
        }
      },
      "delegate_getERC20FromClaim(address,bytes,uint256,string)": {
        "details": "delegates getERC20FromClaim for vendors/callers",
        "params": {
          "_otp": "OTP sent by the server",
          "_phone": "Phone Number of the beneficiary, to whom token request was sent",
          "_signature": "Signature generated by signing {to,functionSig,nonce,projectId,phone,amount} through vendor/caller wallet",
          "_signer": "address of vendor/caller of getERC20FromClaim"
        }
      },
      "delegate_getTokensFromClaim(address,bytes,uint256,string,uint256)": {
        "details": "delegates getERC20FromClaim for vendors/callers",
        "params": {
          "_otp": "OTP sent by the server",
          "_phone": "Phone Number of the beneficiary, to whom token request was sent",
          "_signature": "Signature generated by signing {to,functionSig,nonce,projectId,phone,amount} through vendor/caller wallet",
          "_signer": "address of vendor/caller of getERC1155FromClaim",
          "_tokenId": "ERC1155 tokenId"
        }
      },
      "delegate_issueERC1155ToBeneficiary(address,bytes,string,uint256,uint256,uint256)": {
        "params": {
          "_amount": "Amount of token to be assigned to beneficiary",
          "_phone": "phone number of the beneficiary",
          "_projectId": "Id of the project beneficiary is involved in",
          "_signature": "Signature generated by signing {to,functionSig,nonce,projectId,phone,amount} through mobilizer/caller wallet",
          "_signer": "Address of the mobilizer/caller who is issuing tokens",
          "_tokenId": "ERC1155 TokenId"
        }
      },
      "delegate_issueERC20ToBeneficiary(address,bytes,string,uint256,uint256)": {
        "params": {
          "_amount": "Amount of token to be assigned to beneficiary",
          "_phone": "phone number of the beneficiary",
          "_projectId": "Id of the project beneficiary is involved in",
          "_signature": "Signature generated by signing {to,functionSig,nonce,projectId,phone,amount} through mobilizer/caller wallet",
          "_signer": "Address of the mobilizer/caller who is issuing tokens"
        }
      },
      "findHash(string)": {
        "params": {
          "_data": "String of which hash is to be generated"
        }
      },
      "findHash(uint256)": {
        "params": {
          "_data": "String of which hash is to be generated"
        }
      },
      "getArraySum(uint256[])": {
        "params": {
          "_array": "Array of uint"
        }
      },
      "getERC1155FromClaim(uint256,string,uint256)": {
        "params": {
          "_otp": "OTP sent by the server",
          "_phone": "Phone Number of the beneficiary, to whom token request was sent",
          "_tokenId": "ERC1155 tokenId"
        }
      },
      "getERC20FromClaim(uint256,string)": {
        "params": {
          "_otp": "OTP sent by the server",
          "_phone": "Phone Number of the beneficiary, to whom token request was sent"
        }
      },
      "getRoleAdmin(bytes32)": {
        "details": "Returns the admin role that controls `role`. See {grantRole} and {revokeRole}. To change a role's admin, use {_setRoleAdmin}."
      },
      "grantRole(bytes32,address)": {
        "details": "Grants `role` to `account`. If `account` had not been already granted `role`, emits a {RoleGranted} event. Requirements: - the caller must have ``role``'s admin role."
      },
      "hasRole(bytes32,address)": {
        "details": "Returns `true` if `account` has been granted `role`."
      },
      "issueBulkERC1155(string,uint256[],uint256[],uint256)": {
        "params": {
          "_amount": "array of Amount of token to be assigned to beneficiary",
          "_phone": "array of phone number of the beneficiary",
          "_projectId": "Id of the project beneficiary is involved in"
        }
      },
      "issueBulkERC20(string,uint256[],uint256[])": {
        "params": {
          "_amount": "array of Amount of token to be assigned to beneficiary",
          "_phone": "array of phone number of the beneficiary",
          "_projectId": "Id of the project beneficiary is involved in"
        }
      },
      "issueERC1155ToBeneficiary(string,uint256,uint256[],uint256[])": {
        "params": {
          "_amount": "Amount of token to be assigned to beneficiary",
          "_phone": "phone number of the beneficiary",
          "_projectId": "Id of the project beneficiary is involved in",
          "_tokenId": "ERC1155 TokenId"
        }
      },
      "issueERC20ToBeneficiary(string,uint256,uint256)": {
        "params": {
          "_amount": "Amount of token to be assigned to beneficiary",
          "_phone": "phone number of the beneficiary",
          "_projectId": "Id of the project beneficiary is involved in"
        }
      },
      "renounceRole(bytes32,address)": {
        "details": "Revokes `role` from the calling account. Roles are often managed via {grantRole} and {revokeRole}: this function's purpose is to provide a mechanism for accounts to lose their privileges if they are compromised (such as when a trusted device is misplaced). If the calling account had been granted `role`, emits a {RoleRevoked} event. Requirements: - the caller must be `account`."
      },
      "revokeRole(bytes32,address)": {
        "details": "Revokes `role` from `account`. If `account` had been granted `role`, emits a {RoleRevoked} event. Requirements: - the caller must have ``role``'s admin role."
      },
      "suspendBeneficiary(uint256,bytes32)": {
        "params": {
          "_phone": "phone number of the Beneficiary",
          "_projectId": "projectId of the beneficiary"
        }
      },
      "updateProjectBudget(bytes32,uint256)": {
        "params": {
          "_projectCapital": "amount of budget to be added to project",
          "_projectId": "Id of the project to assign budget"
        }
      },
      "updateProjectBudget(bytes32,uint256,uint256)": {
        "params": {
          "_projectCapital": "amount of budget to be added to project",
          "_projectId": "Id of the project to assign budget",
          "tokenId": "ERC1155 token id"
        }
      }
    },
    "stateVariables": {
      "recentERC20Claims": {
        "details": "vendorAddress => phone => claim"
      }
    },
    "version": 1
  },
  "userdoc": {
    "kind": "user",
    "methods": {
      "addAdmin(address)": {
        "notice": "add admin of the this contract"
      },
      "addMobilizer(address,bytes32)": {
        "notice": "add vendors"
      },
      "addProject(bytes32,uint256)": {
        "notice": "creates a project.called by rahatdmin contract"
      },
      "addServer(address)": {
        "notice": "add server account for this contract"
      },
      "addVendor(address)": {
        "notice": "add vendors"
      },
      "adjustTokenAdd(uint256,uint256)": {
        "notice": "adds the token from beneficiary"
      },
      "adjustTokenAdd(uint256,uint256,uint256)": {
        "notice": "adds the token from beneficiary"
      },
      "adjustTokenDeduct(uint256,uint256)": {
        "notice": "deducts the token from beneficiary"
      },
      "adjustTokenDeduct(uint256,uint256,uint256)": {
        "notice": "deducts the token from beneficiary"
      },
      "approveERC1155Claim(address,uint256,bytes32,uint256,uint256)": {
        "notice": "Approve the requested claim from serverside and set the otp hash"
      },
      "approveERC20Claim(address,uint256,bytes32,uint256)": {
        "notice": "Approve the requested claim from serverside and set the otp hash"
      },
      "createERC20Claim(uint256,uint256)": {
        "notice": "request a token to beneficiary by vendor"
      },
      "delegate_issueERC1155ToBeneficiary(address,bytes,string,uint256,uint256,uint256)": {
        "notice": "Issue ERC1155 tokens to beneficiary"
      },
      "delegate_issueERC20ToBeneficiary(address,bytes,string,uint256,uint256)": {
        "notice": "Issue ERC20 to beneficiary"
      },
      "erc20Balance(uint256)": {
        "notice": "track balances of each beneficiary phone"
      },
      "erc20Issued(uint256)": {
        "notice": "track total issued tokens of each benefiicary phone"
      },
      "findHash(string)": {
        "notice": "generates the hash of the given string"
      },
      "findHash(uint256)": {
        "notice": "generates the hash of the given string"
      },
      "getArraySum(uint256[])": {
        "notice": "Generates the sum of all the integers in array"
      },
      "getERC1155FromClaim(uint256,string,uint256)": {
        "notice": "Retrieve tokens that was requested to beneficiary by entering OTP"
      },
      "getERC20FromClaim(uint256,string)": {
        "notice": "Retrieve tokens that was requested to beneficiary by entering OTP"
      },
      "getProjectBalance(bytes32)": {
        "notice": "get the current balance of project"
      },
      "getProjectBalance(bytes32,uint256)": {
        "notice": "get the current balance of project"
      },
      "issueBulkERC1155(string,uint256[],uint256[],uint256)": {
        "notice": "Issue tokens to beneficiary in bulk"
      },
      "issueBulkERC20(string,uint256[],uint256[])": {
        "notice": "Issue tokens to beneficiary in bulk"
      },
      "issueERC1155ToBeneficiary(string,uint256,uint256[],uint256[])": {
        "notice": "Issue ERC20 tokens to beneficiary"
      },
      "issueERC20ToBeneficiary(string,uint256,uint256)": {
        "notice": "Issue tokens to beneficiary"
      },
      "suspendBeneficiary(uint256,bytes32)": {
        "notice": "suspend the benficiary by deducting all the balance beneficiary owns"
      },
      "updateProjectBudget(bytes32,uint256)": {
        "notice": "update a project balance.called by rahatdmin contract"
      },
      "updateProjectBudget(bytes32,uint256,uint256)": {
        "notice": "update a project balance.called by rahatdmin contract"
      }
    },
    "version": 1
  }
}