{
  "contractName": "RahatAdmin",
  "abi": [
    {
      "inputs": [
        {
          "internalType": "contract RahatERC20",
          "name": "_erc20",
          "type": "address"
        },
        {
          "internalType": "contract RahatERC1155",
          "name": "_erc1155",
          "type": "address"
        },
        {
          "internalType": "contract Rahat",
          "name": "_rahatContract",
          "type": "address"
        },
        {
          "internalType": "uint256",
          "name": "_intitialSupply",
          "type": "uint256"
        },
        {
          "internalType": "address",
          "name": "_admin",
          "type": "address"
        }
      ],
      "stateMutability": "nonpayable",
      "type": "constructor"
    },
    {
      "anonymous": false,
      "inputs": [
        {
          "indexed": false,
          "internalType": "bool",
          "name": "success",
          "type": "bool"
        }
      ],
      "name": "Minted",
      "type": "event"
    },
    {
      "anonymous": false,
      "inputs": [
        {
          "indexed": true,
          "internalType": "bytes32",
          "name": "projectId",
          "type": "bytes32"
        },
        {
          "indexed": true,
          "internalType": "uint256",
          "name": "tokenId",
          "type": "uint256"
        },
        {
          "indexed": false,
          "internalType": "uint256",
          "name": "projectCapital",
          "type": "uint256"
        },
        {
          "indexed": false,
          "internalType": "string",
          "name": "tag",
          "type": "string"
        }
      ],
      "name": "ProjectERC1155BudgetUpdated",
      "type": "event"
    },
    {
      "anonymous": false,
      "inputs": [
        {
          "indexed": true,
          "internalType": "bytes32",
          "name": "projectId",
          "type": "bytes32"
        },
        {
          "indexed": false,
          "internalType": "uint256",
          "name": "projectCapital",
          "type": "uint256"
        },
        {
          "indexed": false,
          "internalType": "string",
          "name": "tag",
          "type": "string"
        }
      ],
      "name": "ProjectERC20BudgetUpdated",
      "type": "event"
    },
    {
      "inputs": [],
      "name": "erc1155",
      "outputs": [
        {
          "internalType": "contract RahatERC1155",
          "name": "",
          "type": "address"
        }
      ],
      "stateMutability": "view",
      "type": "function"
    },
    {
      "inputs": [],
      "name": "erc20",
      "outputs": [
        {
          "internalType": "contract RahatERC20",
          "name": "",
          "type": "address"
        }
      ],
      "stateMutability": "view",
      "type": "function"
    },
    {
      "inputs": [
        {
          "internalType": "address",
          "name": "",
          "type": "address"
        },
        {
          "internalType": "address",
          "name": "",
          "type": "address"
        },
        {
          "internalType": "uint256[]",
          "name": "",
          "type": "uint256[]"
        },
        {
          "internalType": "uint256[]",
          "name": "",
          "type": "uint256[]"
        },
        {
          "internalType": "bytes",
          "name": "",
          "type": "bytes"
        }
      ],
      "name": "onERC1155BatchReceived",
      "outputs": [
        {
          "internalType": "bytes4",
          "name": "",
          "type": "bytes4"
        }
      ],
      "stateMutability": "nonpayable",
      "type": "function"
    },
    {
      "inputs": [
        {
          "internalType": "address",
          "name": "",
          "type": "address"
        },
        {
          "internalType": "address",
          "name": "",
          "type": "address"
        },
        {
          "internalType": "uint256",
          "name": "",
          "type": "uint256"
        },
        {
          "internalType": "uint256",
          "name": "",
          "type": "uint256"
        },
        {
          "internalType": "bytes",
          "name": "",
          "type": "bytes"
        }
      ],
      "name": "onERC1155Received",
      "outputs": [
        {
          "internalType": "bytes4",
          "name": "",
          "type": "bytes4"
        }
      ],
      "stateMutability": "nonpayable",
      "type": "function"
    },
    {
      "inputs": [
        {
          "internalType": "address",
          "name": "",
          "type": "address"
        }
      ],
      "name": "owner",
      "outputs": [
        {
          "internalType": "bool",
          "name": "",
          "type": "bool"
        }
      ],
      "stateMutability": "view",
      "type": "function"
    },
    {
      "inputs": [
        {
          "internalType": "bytes32",
          "name": "",
          "type": "bytes32"
        },
        {
          "internalType": "uint256",
          "name": "",
          "type": "uint256"
        }
      ],
      "name": "projectERC1155Capital",
      "outputs": [
        {
          "internalType": "uint256",
          "name": "",
          "type": "uint256"
        }
      ],
      "stateMutability": "view",
      "type": "function"
    },
    {
      "inputs": [
        {
          "internalType": "bytes32",
          "name": "",
          "type": "bytes32"
        }
      ],
      "name": "projectERC20Capital",
      "outputs": [
        {
          "internalType": "uint256",
          "name": "",
          "type": "uint256"
        }
      ],
      "stateMutability": "view",
      "type": "function"
    },
    {
      "inputs": [
        {
          "internalType": "bytes32",
          "name": "",
          "type": "bytes32"
        }
      ],
      "name": "projectExists",
      "outputs": [
        {
          "internalType": "bool",
          "name": "",
          "type": "bool"
        }
      ],
      "stateMutability": "view",
      "type": "function"
    },
    {
      "inputs": [
        {
          "internalType": "uint256",
          "name": "",
          "type": "uint256"
        }
      ],
      "name": "projectId",
      "outputs": [
        {
          "internalType": "bytes32",
          "name": "",
          "type": "bytes32"
        }
      ],
      "stateMutability": "view",
      "type": "function"
    },
    {
      "inputs": [],
      "name": "rahatContract",
      "outputs": [
        {
          "internalType": "contract Rahat",
          "name": "",
          "type": "address"
        }
      ],
      "stateMutability": "view",
      "type": "function"
    },
    {
      "inputs": [
        {
          "internalType": "bytes4",
          "name": "interfaceId",
          "type": "bytes4"
        }
      ],
      "name": "supportsInterface",
      "outputs": [
        {
          "internalType": "bool",
          "name": "",
          "type": "bool"
        }
      ],
      "stateMutability": "view",
      "type": "function"
    },
    {
      "inputs": [
        {
          "internalType": "string",
          "name": "_projectId",
          "type": "string"
        },
        {
          "internalType": "uint256",
          "name": "_projectCapital",
          "type": "uint256"
        }
      ],
      "name": "setProjectBudget_ERC20",
      "outputs": [],
      "stateMutability": "nonpayable",
      "type": "function"
    },
    {
      "inputs": [
        {
          "internalType": "string",
          "name": "_projectId",
          "type": "string"
        },
        {
          "internalType": "uint256",
          "name": "_projectCapital",
          "type": "uint256"
        },
        {
          "internalType": "uint256",
          "name": "tokenId",
          "type": "uint256"
        }
      ],
      "name": "setProjectBudget_ERC1155",
      "outputs": [],
      "stateMutability": "nonpayable",
      "type": "function"
    },
    {
      "inputs": [
        {
          "internalType": "string",
          "name": "_name",
          "type": "string"
        },
        {
          "internalType": "string",
          "name": "_symbol",
          "type": "string"
        },
        {
          "internalType": "string",
          "name": "_projectId",
          "type": "string"
        },
        {
          "internalType": "uint256",
          "name": "_projectCapital",
          "type": "uint256"
        }
      ],
      "name": "createAndsetProjectBudget_ERC1155",
      "outputs": [],
      "stateMutability": "nonpayable",
      "type": "function"
    },
    {
      "inputs": [
        {
          "internalType": "string",
          "name": "_projectId",
          "type": "string"
        },
        {
          "internalType": "uint256",
          "name": "_projectCapital",
          "type": "uint256"
        },
        {
          "internalType": "uint256",
          "name": "tokenId",
          "type": "uint256"
        }
      ],
      "name": "revokeProjectBudget",
      "outputs": [],
      "stateMutability": "nonpayable",
      "type": "function"
    },
    {
      "inputs": [
        {
          "internalType": "string",
          "name": "_projectId",
          "type": "string"
        },
        {
          "internalType": "uint256",
          "name": "_projectCapital",
          "type": "uint256"
        }
      ],
      "name": "revokeProjectBudget",
      "outputs": [],
      "stateMutability": "nonpayable",
      "type": "function"
    },
    {
      "inputs": [
        {
          "internalType": "string",
          "name": "_projectId",
          "type": "string"
        }
      ],
      "name": "suspendProject",
      "outputs": [],
      "stateMutability": "nonpayable",
      "type": "function"
    },
    {
      "inputs": [
        {
          "internalType": "string",
          "name": "_projectId",
          "type": "string"
        }
      ],
      "name": "getProjecERC20Balance",
      "outputs": [
        {
          "internalType": "uint256",
          "name": "_balance",
          "type": "uint256"
        }
      ],
      "stateMutability": "view",
      "type": "function"
    },
    {
      "inputs": [
        {
          "internalType": "string",
          "name": "_projectId",
          "type": "string"
        },
        {
          "internalType": "uint256",
          "name": "tokenId",
          "type": "uint256"
        }
      ],
      "name": "getProjectERC1155Balance",
      "outputs": [
        {
          "internalType": "uint256",
          "name": "_balance",
          "type": "uint256"
        }
      ],
      "stateMutability": "view",
      "type": "function"
    },
    {
      "inputs": [
        {
          "internalType": "uint256",
          "name": "_amount",
          "type": "uint256"
        }
      ],
      "name": "withdrawToken",
      "outputs": [],
      "stateMutability": "nonpayable",
      "type": "function"
    },
    {
      "inputs": [
        {
          "internalType": "address",
          "name": "_address",
          "type": "address"
        },
        {
          "internalType": "uint256",
          "name": "_amount",
          "type": "uint256"
        }
      ],
      "name": "mintERC20",
      "outputs": [],
      "stateMutability": "nonpayable",
      "type": "function"
    },
    {
      "inputs": [
        {
          "internalType": "string",
          "name": "_name",
          "type": "string"
        },
        {
          "internalType": "string",
          "name": "_symbol",
          "type": "string"
        },
        {
          "internalType": "uint256",
          "name": "_amount",
          "type": "uint256"
        }
      ],
      "name": "mintERC1155",
      "outputs": [],
      "stateMutability": "nonpayable",
      "type": "function"
    },
    {
      "inputs": [
        {
          "internalType": "address",
          "name": "_account",
          "type": "address"
        }
      ],
      "name": "addOwner",
      "outputs": [],
      "stateMutability": "nonpayable",
      "type": "function"
    }
  ],
  "bytecode": "0x60806040523480156200001157600080fd5b506040516200232338038062002323833981016040819052620000349162000116565b600080546001600160a01b038781166001600160a01b03199283168117909355600180548883169084161790556002805491871691909216179055604051631f132a7360e21b815230600482015260248101849052637c4ca9cc90604401602060405180830381600087803b158015620000ad57600080fd5b505af1158015620000c2573d6000803e3d6000fd5b505050506040513d601f19601f82011682018060405250810190620000e891906200018a565b506001600160a01b03166000908152600360205260409020805460ff1916600117905550620001bd92505050565b600080600080600060a086880312156200012f57600080fd5b85516200013c81620001a4565b60208701519095506200014f81620001a4565b60408701519094506200016281620001a4565b6060870151608088015191945092506200017c81620001a4565b809150509295509295909350565b6000602082840312156200019d57600080fd5b5051919050565b6001600160a01b0381168114620001ba57600080fd5b50565b61215680620001cd6000396000f3fe608060405234801561001057600080fd5b506004361061014d5760003560e01c80637065cb48116100c3578063bc197c811161007c578063bc197c811461030a578063c78f647814610342578063d56022d714610355578063d665b7a414610368578063f23a6e611461037b578063f7597a4f1461039a57600080fd5b80637065cb4814610280578063785e9e86146102935780637c4ca9cc146102a6578063801fdb87146102b95780638b4176c6146102cc57806396131d86146102df57600080fd5b80633fdba575116101155780633fdba575146101e65780634dd1f816146101f95780634ff1a5691461020c57806350baa6221461023757806363c183f01461024a578063666e1b391461025d57600080fd5b806301ffc9a7146101525780630ed892621461017a578063179680b11461018f57806334854e2f146101a257806338975895146101c3575b600080fd5b610165610160366004611c13565b6103ba565b60405190151581526020015b60405180910390f35b61018d610188366004611c3d565b6103f1565b005b61018d61019d366004611d6c565b610492565b6101b56101b0366004611c3d565b6107be565b604051908152602001610171565b6101656101d1366004611bd8565b60056020526000908152604090205460ff1681565b61018d6101f4366004611db0565b61087e565b6101b5610207366004611bd8565b610b15565b60025461021f906001600160a01b031681565b6040516001600160a01b039091168152602001610171565b61018d610245366004611bd8565b610b36565b61018d610258366004611db0565b610c50565b61016561026b366004611a64565b60036020526000908152604090205460ff1681565b61018d61028e366004611a64565b611140565b60005461021f906001600160a01b031681565b61018d6102b4366004611b8c565b611193565b6101b56102c7366004611d6c565b611246565b61018d6102da366004611d00565b61130e565b6101b56102ed366004611bf1565b600760209081526000928352604080842090915290825290205481565b610329610318366004611a7f565b63bc197c8160e01b95945050505050565b6040516001600160e01b03199091168152602001610171565b61018d610350366004611c71565b6113c3565b60015461021f906001600160a01b031681565b61018d610376366004611d6c565b6117ee565b610329610389366004611b28565b63f23a6e6160e01b95945050505050565b6101b56103a8366004611bd8565b60066020526000908152604090205481565b60006001600160e01b03198216630271189760e51b14806103eb57506301ffc9a760e01b6001600160e01b03198316145b92915050565b3360009081526003602052604090205460ff166104295760405162461bcd60e51b815260040161042090611f33565b60405180910390fd5b80600061043582611924565b60008181526005602052604090205490915060ff161561045457505050565b6004805460018181019092556000805160206120e1833981519152018290556000828152600560205260409020805460ff191690911790555b505050565b3360009081526003602052604090205460ff166104c15760405162461bcd60e51b815260040161042090611f33565b8160006104cd82611924565b60008181526005602052604090205490915060ff16156106365760006104f285611924565b9050836006600083815260200190815260200160002060008282546105179190612039565b909155505060005460025460405163a9059cbb60e01b81526001600160a01b039283169263a9059cbb92610552929116908890600401611e96565b602060405180830381600087803b15801561056c57600080fd5b505af1158015610580573d6000803e3d6000fd5b505050506040513d601f19601f820116820180604052508101906105a49190611bb6565b50600254604051638825756760e01b815260048101839052602481018690526001600160a01b0390911690638825756790604401600060405180830381600087803b1580156105f257600080fd5b505af1158015610606573d6000803e3d6000fd5b5050505080600080516020612101833981519152856040516106289190611fbe565b60405180910390a2506107b8565b6004805460018181019092556000805160206120e1833981519152018290556000828152600560205260408120805460ff191690921790915561067885611924565b90508360066000838152602001908152602001600020600082825461069d9190612039565b909155505060005460025460405163a9059cbb60e01b81526001600160a01b039283169263a9059cbb926106d8929116908890600401611e96565b602060405180830381600087803b1580156106f257600080fd5b505af1158015610706573d6000803e3d6000fd5b505050506040513d601f19601f8201168201806040525081019061072a9190611bb6565b50600254604051638825756760e01b815260048101839052602481018690526001600160a01b0390911690638825756790604401600060405180830381600087803b15801561077857600080fd5b505af115801561078c573d6000803e3d6000fd5b5050505080600080516020612101833981519152856040516107ae9190611fbe565b60405180910390a2505b50505050565b6000806107ca83611924565b60008181526005602052604090205490915060ff166107fb5760405162461bcd60e51b815260040161042090611f87565b6002546040516367bc276d60e11b8152600481018390526001600160a01b039091169063cf784eda9060240160206040518083038186803b15801561083f57600080fd5b505afa158015610853573d6000803e3d6000fd5b505050506040513d601f19601f820116820180604052508101906108779190611dfd565b9392505050565b3360009081526003602052604090205460ff166108ad5760405162461bcd60e51b815260040161042090611f33565b8260006108b982611924565b60008181526005602052604090205490915060ff16156109d857600154604051634f558e7960e01b8152600481018590526001600160a01b0390911690634f558e799060240160206040518083038186803b15801561091757600080fd5b505afa15801561092b573d6000803e3d6000fd5b505050506040513d601f19601f8201168201806040525081019061094f9190611bb6565b61096b5760405162461bcd60e51b815260040161042090611ee5565b600061097686611924565b60008181526007602090815260408083208884529091528120805492935087929091906109a4908490612039565b9250508190555083816000805160206120c1833981519152876040516109ca9190611fe2565b60405180910390a350610b0e565b60048054600180820183556000805160206120e183398151915290910183905560008381526005602052604090819020805460ff19168317905590549051634f558e7960e01b81529182018590526001600160a01b031690634f558e799060240160206040518083038186803b158015610a5157600080fd5b505afa158015610a65573d6000803e3d6000fd5b505050506040513d601f19601f82011682018060405250810190610a899190611bb6565b610aa55760405162461bcd60e51b815260040161042090611ee5565b6000610ab086611924565b6000818152600760209081526040808320888452909152812080549293508792909190610ade908490612039565b9250508190555083816000805160206120c183398151915287604051610b049190611fe2565b60405180910390a3505b5050505050565b60048181548110610b2557600080fd5b600091825260209091200154905081565b3360009081526003602052604090205460ff16610b655760405162461bcd60e51b815260040161042090611f33565b60005460405163a9059cbb60e01b81526001600160a01b039091169063a9059cbb90610b979033908590600401611e96565b602060405180830381600087803b158015610bb157600080fd5b505af1158015610bc5573d6000803e3d6000fd5b505050506040513d601f19601f82011682018060405250810190610be99190611bb6565b610c4d5760405162461bcd60e51b815260206004820152602f60248201527f52414841545f41444d494e3a204572726f72207768696c652063616c6c696e6760448201526e081d1bdad95b8818dbdb9d1c9858dd608a1b6064820152608401610420565b50565b3360009081526003602052604090205460ff16610c7f5760405162461bcd60e51b815260040161042090611f33565b826000610c8b82611924565b60008181526005602052604090205490915060ff1615610ed857600154604051634f558e7960e01b8152600481018590526001600160a01b0390911690634f558e799060240160206040518083038186803b158015610ce957600080fd5b505afa158015610cfd573d6000803e3d6000fd5b505050506040513d601f19601f82011682018060405250810190610d219190611bb6565b610d3d5760405162461bcd60e51b815260040161042090611ee5565b60015460405163c048d5a160e01b815260048101859052602481018690526001600160a01b039091169063c048d5a190604401600060405180830381600087803b158015610d8a57600080fd5b505af1158015610d9e573d6000803e3d6000fd5b505050506000610dad86611924565b6000818152600760209081526040808320888452909152812080549293508792909190610ddb908490612039565b9091555050600154600254604051637921219560e11b81526001600160a01b039283169263f242432a92610e1b9230929091169089908b90600401611e5e565b600060405180830381600087803b158015610e3557600080fd5b505af1158015610e49573d6000803e3d6000fd5b5050600254604051630f6025eb60e01b81526004810185905260248101899052604481018890526001600160a01b039091169250630f6025eb9150606401600060405180830381600087803b158015610ea157600080fd5b505af1158015610eb5573d6000803e3d6000fd5b5050505083816000805160206120c1833981519152876040516109ca9190611fbe565b60048054600180820183556000805160206120e183398151915290910183905560008381526005602052604090819020805460ff19168317905590549051634f558e7960e01b81529182018590526001600160a01b031690634f558e799060240160206040518083038186803b158015610f5157600080fd5b505afa158015610f65573d6000803e3d6000fd5b505050506040513d601f19601f82011682018060405250810190610f899190611bb6565b610fa55760405162461bcd60e51b815260040161042090611ee5565b60015460405163c048d5a160e01b815260048101859052602481018690526001600160a01b039091169063c048d5a190604401600060405180830381600087803b158015610ff257600080fd5b505af1158015611006573d6000803e3d6000fd5b50505050600061101586611924565b6000818152600760209081526040808320888452909152812080549293508792909190611043908490612039565b9091555050600154600254604051637921219560e11b81526001600160a01b039283169263f242432a926110839230929091169089908b90600401611e5e565b600060405180830381600087803b15801561109d57600080fd5b505af11580156110b1573d6000803e3d6000fd5b5050600254604051630f6025eb60e01b81526004810185905260248101899052604481018890526001600160a01b039091169250630f6025eb9150606401600060405180830381600087803b15801561110957600080fd5b505af115801561111d573d6000803e3d6000fd5b5050505083816000805160206120c183398151915287604051610b049190611fbe565b3360009081526003602052604090205460ff1661116f5760405162461bcd60e51b815260040161042090611f33565b6001600160a01b03166000908152600360205260409020805460ff19166001179055565b3360009081526003602052604090205460ff166111c25760405162461bcd60e51b815260040161042090611f33565b600054604051631f132a7360e21b81526001600160a01b0390911690637c4ca9cc906111f49085908590600401611e96565b602060405180830381600087803b15801561120e57600080fd5b505af1158015611222573d6000803e3d6000fd5b505050506040513d601f19601f8201168201806040525081019061048d9190611dfd565b60008061125284611924565b60008181526005602052604090205490915060ff166112835760405162461bcd60e51b815260040161042090611f87565b600254604051630e72f45760e21b815260048101839052602481018590526001600160a01b03909116906339cbd15c9060440160206040518083038186803b1580156112ce57600080fd5b505afa1580156112e2573d6000803e3d6000fd5b505050506040513d601f19601f820116820180604052508101906113069190611dfd565b949350505050565b3360009081526003602052604090205460ff1661133d5760405162461bcd60e51b815260040161042090611f33565b6001546040516345a0bb6360e11b81526001600160a01b0390911690638b4176c69061137190869086908690600401611eaf565b602060405180830381600087803b15801561138b57600080fd5b505af115801561139f573d6000803e3d6000fd5b505050506040513d601f19601f820116820180604052508101906107b89190611dfd565b3360009081526003602052604090205460ff166113f25760405162461bcd60e51b815260040161042090611f33565b8160006113fe82611924565b60008181526005602052604090205490915060ff16156115e6576001546040516345a0bb6360e11b81526000916001600160a01b031690638b4176c69061144d908a908a908990600401611eaf565b602060405180830381600087803b15801561146757600080fd5b505af115801561147b573d6000803e3d6000fd5b505050506040513d601f19601f8201168201806040525081019061149f9190611dfd565b905060006114ac86611924565b60008181526007602090815260408083208684529091528120805492935087929091906114da908490612039565b9091555050600154600254604051637921219560e11b81526001600160a01b039283169263f242432a9261151a9230929091169087908b90600401611e5e565b600060405180830381600087803b15801561153457600080fd5b505af1158015611548573d6000803e3d6000fd5b5050600254604051630f6025eb60e01b81526004810185905260248101899052604481018690526001600160a01b039091169250630f6025eb9150606401600060405180830381600087803b1580156115a057600080fd5b505af11580156115b4573d6000803e3d6000fd5b5050505081816000805160206120c1833981519152876040516115d79190611fbe565b60405180910390a350506117e6565b60048054600181810183556000805160206120e1833981519152909101839055600083815260056020526040808220805460ff191684179055915491516345a0bb6360e11b815290926001600160a01b0390921691638b4176c691611651918b918b918a9101611eaf565b602060405180830381600087803b15801561166b57600080fd5b505af115801561167f573d6000803e3d6000fd5b505050506040513d601f19601f820116820180604052508101906116a39190611dfd565b905060006116b086611924565b60008181526007602090815260408083208684529091528120805492935087929091906116de908490612039565b9091555050600154600254604051637921219560e11b81526001600160a01b039283169263f242432a9261171e9230929091169087908b90600401611e5e565b600060405180830381600087803b15801561173857600080fd5b505af115801561174c573d6000803e3d6000fd5b5050600254604051630f6025eb60e01b81526004810185905260248101899052604481018690526001600160a01b039091169250630f6025eb9150606401600060405180830381600087803b1580156117a457600080fd5b505af11580156117b8573d6000803e3d6000fd5b5050505081816000805160206120c1833981519152876040516117db9190611fbe565b60405180910390a350505b505050505050565b3360009081526003602052604090205460ff1661181d5760405162461bcd60e51b815260040161042090611f33565b81600061182982611924565b60008181526005602052604090205490915060ff161561189857600061184e85611924565b9050836006600083815260200190815260200160002060008282546118739190612051565b9250508190555080600080516020612101833981519152856040516106289190611fe2565b6004805460018181019092556000805160206120e1833981519152018290556000828152600560205260408120805460ff19169092179091556118da85611924565b9050836006600083815260200190815260200160002060008282546118ff9190612051565b9250508190555080600080516020612101833981519152856040516107ae9190611fe2565b6000816040516020016119379190611e42565b604051602081830303815290604052805190602001209050919050565b80356001600160a01b038116811461196b57600080fd5b919050565b600082601f83011261198157600080fd5b813560206001600160401b0382111561199c5761199c6120aa565b8160051b6119ab828201612009565b8381528281019086840183880185018910156119c657600080fd5b600093505b858410156119e95780358352600193909301929184019184016119cb565b50979650505050505050565b600082601f830112611a0657600080fd5b81356001600160401b03811115611a1f57611a1f6120aa565b611a32601f8201601f1916602001612009565b818152846020838601011115611a4757600080fd5b816020850160208301376000918101602001919091529392505050565b600060208284031215611a7657600080fd5b61087782611954565b600080600080600060a08688031215611a9757600080fd5b611aa086611954565b9450611aae60208701611954565b935060408601356001600160401b0380821115611aca57600080fd5b611ad689838a01611970565b94506060880135915080821115611aec57600080fd5b611af889838a01611970565b93506080880135915080821115611b0e57600080fd5b50611b1b888289016119f5565b9150509295509295909350565b600080600080600060a08688031215611b4057600080fd5b611b4986611954565b9450611b5760208701611954565b9350604086013592506060860135915060808601356001600160401b03811115611b8057600080fd5b611b1b888289016119f5565b60008060408385031215611b9f57600080fd5b611ba883611954565b946020939093013593505050565b600060208284031215611bc857600080fd5b8151801515811461087757600080fd5b600060208284031215611bea57600080fd5b5035919050565b60008060408385031215611c0457600080fd5b50508035926020909101359150565b600060208284031215611c2557600080fd5b81356001600160e01b03198116811461087757600080fd5b600060208284031215611c4f57600080fd5b81356001600160401b03811115611c6557600080fd5b611306848285016119f5565b60008060008060808587031215611c8757600080fd5b84356001600160401b0380821115611c9e57600080fd5b611caa888389016119f5565b95506020870135915080821115611cc057600080fd5b611ccc888389016119f5565b94506040870135915080821115611ce257600080fd5b50611cef878288016119f5565b949793965093946060013593505050565b600080600060608486031215611d1557600080fd5b83356001600160401b0380821115611d2c57600080fd5b611d38878388016119f5565b94506020860135915080821115611d4e57600080fd5b50611d5b868287016119f5565b925050604084013590509250925092565b60008060408385031215611d7f57600080fd5b82356001600160401b03811115611d9557600080fd5b611da1858286016119f5565b95602094909401359450505050565b600080600060608486031215611dc557600080fd5b83356001600160401b03811115611ddb57600080fd5b611de7868287016119f5565b9660208601359650604090950135949350505050565b600060208284031215611e0f57600080fd5b5051919050565b60008151808452611e2e816020860160208601612068565b601f01601f19169290920160200192915050565b60008251611e54818460208701612068565b9190910192915050565b6001600160a01b0394851681529290931660208301526040820152606081019190915260a06080820181905260009082015260c00190565b6001600160a01b03929092168252602082015260400190565b606081526000611ec26060830186611e16565b8281036020840152611ed48186611e16565b915050826040830152949350505050565b6020808252602e908201527f526168617441646d696e3a20546f6b656e207769746820676976656e2069642060408201526d646f65736e27742065786973747360901b606082015260800190565b60208082526034908201527f52414841545f41444d494e3a204f6e6c792041646d696e2063616e20657865636040820152733aba32903a3434b9903a3930b739b0b1ba34b7b760611b606082015260800190565b6020808252601e908201527f52414841545f41444d494e3a20496e76616c69642050726f6a65637449440000604082015260600190565b9081526040602082018190526003908201526218591960ea1b606082015260800190565b908152604060208201819052600690820152651919591d58dd60d21b606082015260800190565b604051601f8201601f191681016001600160401b0381118282101715612031576120316120aa565b604052919050565b6000821982111561204c5761204c612094565b500190565b60008282101561206357612063612094565b500390565b60005b8381101561208357818101518382015260200161206b565b838111156107b85750506000910152565b634e487b7160e01b600052601160045260246000fd5b634e487b7160e01b600052604160045260246000fdfe01f512e18cf4998febd0989861a31e6a2d71570ad0fe29486e62613ba53a65408a35acfbc15ff81a39ae7d344fd709f28e8600b4aa8c65c6b64bfe7fe36bd19bfb81835777f5c1e6fd7d6eb84fa729934ae66884bf599bb714743f575ec7b577a2646970667358221220d0df02233edf40fdf70e05b9ca977cc9d4bf3abdc6ed19fa9b8acfeec485cef264736f6c63430008070033",
  "immutableReferences": {},
  "source": "//SPDX-License-Identifier: UNLICENSED\r\n\r\npragma solidity 0.8.7;\r\n\r\nimport './RahatERC20.sol';\r\nimport './RahatERC1155.sol';\r\nimport './Rahat.sol';\r\n\r\n/// @title Rahat Admin contract - owns all the tokens initially minted\r\n/// @author Rumsan Associates\r\n/// @notice You can use this contract to manage Rahat tokens and projects\r\n/// @dev All function calls are only executed by contract owner\r\ncontract RahatAdmin is ERC1155Holder {\r\n\tevent ProjectERC20BudgetUpdated(bytes32 indexed projectId, uint256 projectCapital,string tag);\r\n\tevent ProjectERC1155BudgetUpdated(bytes32 indexed projectId, uint256 indexed tokenId, uint256 projectCapital,string tag);\r\n\tevent Minted(bool success);\r\n\r\n\t// uint256 public mintData ;\r\n\t// bool public mintSuccess =false;\r\n\r\n    RahatERC20 public erc20;\r\n    RahatERC1155 public erc1155;\r\n\tRahat public rahatContract;\r\n\tmapping(address => bool) public owner;\r\n\r\n\t/// @notice list of projects\r\n\tbytes32[] public projectId;\r\n\r\n\t/// @notice check if projectId exists or not;\r\n\tmapping(bytes32 => bool) public projectExists;\r\n\r\n\t/// @notice assign budgets to project\r\n\tmapping(bytes32 => uint256) public projectERC20Capital;\r\n\tmapping(bytes32 => mapping(uint256 => uint256)) public projectERC1155Capital; // projectId => tokenId => balance\r\n\r\n\tmodifier OnlyOwner {\r\n\t\trequire(owner[msg.sender], 'RAHAT_ADMIN: Only Admin can execute this transaction');\r\n\t\t_;\r\n\t}\r\n\r\n\tmodifier CheckProject(string memory _projectId) {\r\n\t\tbytes32 _id = findHash(_projectId);\r\n\t\tif (projectExists[_id]) {\r\n\t\t\t_;\r\n\t\t} else {\r\n\t\t\tprojectId.push(_id);\r\n\t\t\tprojectExists[_id] = true;\r\n\t\t\t_;\r\n\t\t}\r\n\t}\r\n\t\r\n\t\r\n\t\r\n\t\r\n\r\n\t/// @notice All the supply is allocated to this contract\r\n\t/// @dev deploys AidToken and Rahat contract by sending supply to this contract\r\n\r\n\tconstructor(\r\n\t    RahatERC20 _erc20, \r\n\t    RahatERC1155 _erc1155,\r\n\t\tRahat _rahatContract,\r\n\t\tuint256 _intitialSupply,\r\n\t\taddress _admin\r\n\t) {\r\n\t\terc20 = _erc20;\r\n\t\terc1155 = _erc1155;\r\n\t\trahatContract = _rahatContract;\r\n\t\terc20.mintERC20(address(this), _intitialSupply);\r\n\t\t//(bool success, bytes memory result) = address(_tokenContract).call(abi.encodeWithSignature(\"mintERC20(address, uint256)\", address(this), _intitialSupply));\r\n\t\t//mintSuccess = success;\r\n\t\t//mintData = abi.decode(result,(uint256));\r\n\r\n\t\towner[_admin] = true;\r\n\t}\r\n\r\n    \r\n\t/// @notice allocate token to projects\r\n\t/// @dev Allocates token to the given projectId, Creates project and transfer tokens to Rahat contract.\r\n\t/// @param _projectId Unique Id of Project\r\n\t/// @param _projectCapital Budget Allocated to project\r\n\tfunction setProjectBudget_ERC20(string memory _projectId, uint256 _projectCapital)\r\n\t\tpublic\r\n\t\tOnlyOwner\r\n\t\tCheckProject(_projectId)\r\n\t{\r\n\t\tbytes32 _id = findHash(_projectId);\r\n\t\tprojectERC20Capital[_id] += _projectCapital;\r\n\t\terc20.transfer(address(rahatContract), _projectCapital);\r\n\t\trahatContract.updateProjectBudget(_id, _projectCapital);\r\n\r\n\t\temit ProjectERC20BudgetUpdated(_id, _projectCapital,'add');\r\n\t}\r\n\t\r\n\t/// @notice allocate ERC1155 tokens to projects\r\n\t/// @dev Allocates token to the given projectId, Creates project and transfer tokens to Rahat contract.\r\n\t/// @param _projectId Unique Id of Project\r\n\t/// @param _projectCapital amount of ERC1155 token with _tokenId allocated to project\r\n\t/// @param tokenId ERC1155 token ID\r\n\t\tfunction setProjectBudget_ERC1155(string memory _projectId, uint256 _projectCapital,uint256 tokenId)\r\n\t\tpublic\r\n\t\tOnlyOwner\r\n\t\tCheckProject(_projectId)\r\n\t{\r\n\t    require(erc1155.exists(tokenId),\"RahatAdmin: Token with given id doesn't exists\");\r\n\t    \r\n\t\terc1155.mintERC1155(tokenId,_projectCapital);\r\n\t\tbytes32 _id = findHash(_projectId);\r\n\t\tprojectERC1155Capital[_id][tokenId] += _projectCapital;\r\n\t\terc1155.safeTransferFrom(address(this),address(rahatContract),tokenId, _projectCapital,'');\r\n\t\trahatContract.updateProjectBudget(_id, _projectCapital,tokenId);\r\n\r\n\t\temit ProjectERC1155BudgetUpdated(_id,tokenId, _projectCapital,'add');\r\n\t}\r\n\r\n\t/// @notice allocate ERC1155 tokens to projects\r\n\t/// @dev create token and allocate them to the given projectId, Creates project and transfer tokens to Rahat contract.\r\n\t///@param _name name of NFT\r\n    ///@param _symbol symbol of NFT\r\n\t/// @param _projectId Unique Id of Project\r\n\t/// @param _projectCapital amount of ERC1155 token with _tokenId allocated to project\r\n\t/// @param _projectCapital ERC1155 token ID\r\n\tfunction createAndsetProjectBudget_ERC1155(string memory _name, string memory _symbol, string memory _projectId, uint256 _projectCapital)\r\n\t\tpublic\r\n\t\tOnlyOwner\r\n\t\tCheckProject(_projectId)\r\n\t{\r\n\t    \r\n\t    uint256 tokenId = erc1155.mintERC1155(_name,_symbol,_projectCapital);\r\n\t    \r\n\t\tbytes32 _id = findHash(_projectId);\r\n\t\tprojectERC1155Capital[_id][tokenId] += _projectCapital;\r\n\t\terc1155.safeTransferFrom(address(this),address(rahatContract),tokenId, _projectCapital,'');\r\n\t\trahatContract.updateProjectBudget(_id, _projectCapital,tokenId);\r\n\r\n\t\temit ProjectERC1155BudgetUpdated(_id,tokenId, _projectCapital,'add');\r\n\t}\r\n\t\r\n\t\r\n\r\n\t\tfunction revokeProjectBudget(string memory _projectId, uint256 _projectCapital)\r\n\t\tpublic\r\n\t\tOnlyOwner\r\n\t\tCheckProject(_projectId)\r\n\t{\r\n\t\tbytes32 _id = findHash(_projectId);\r\n\t\tprojectERC20Capital[_id] -= _projectCapital;\r\n\t//\ttokenContract.transfer(address(rahatContract), _projectCapital);\r\n\t\t//rahatContract.updateProjectBudget(_id, _projectCapital);\r\n\r\n\t\temit ProjectERC20BudgetUpdated(_id, _projectCapital,'deduct');\r\n\t}\r\n\t\r\n\t\tfunction revokeProjectBudget(string memory _projectId, uint256 _projectCapital,uint256 tokenId)\r\n\t\tpublic\r\n\t\tOnlyOwner\r\n\t\tCheckProject(_projectId)\r\n\t{\r\n\t    require(erc1155.exists(tokenId),\"RahatAdmin: Token with given id doesn't exists\");\r\n\t    \r\n\t\tbytes32 _id = findHash(_projectId);\r\n\t\tprojectERC1155Capital[_id][tokenId] += _projectCapital;\r\n\t//\ttokenContract.safeTransferFrom(address(this),address(rahatContract),tokenId, _projectCapital,'');\r\n\t//\trahatContract.updateProjectBudget(_id, _projectCapital,tokenId);\r\n\r\n\t\temit ProjectERC1155BudgetUpdated(_id,tokenId, _projectCapital,'deduct');\r\n\t}\r\n\t\r\n\tfunction suspendProject(string memory _projectId) public OnlyOwner CheckProject(_projectId){\r\n\t    \r\n\t}\r\n\r\n\t/// @notice get the current balance of project\r\n\t/// @param _projectId Unique Id of project\r\n\tfunction getProjecERC20Balance(string memory _projectId) public view returns (uint256 _balance) {\r\n\t\tbytes32 _id = findHash(_projectId);\r\n\t\trequire(projectExists[_id], 'RAHAT_ADMIN: Invalid ProjectID');\r\n\t\treturn (rahatContract.getProjectBalance(_id));\r\n\t}\r\n\r\n\t\r\n\t/// @notice get the current ERC1155 amount of given tokenId in the project\r\n\t/// @param _projectId Unique Id of project\r\n\t/// @param tokenId ERC1155 tokenID\r\n\tfunction getProjectERC1155Balance(string memory _projectId,uint256 tokenId) public view returns (uint256 _balance) {\r\n\t\tbytes32 _id = findHash(_projectId);\r\n\t\trequire(projectExists[_id], 'RAHAT_ADMIN: Invalid ProjectID');\r\n\t\treturn (rahatContract.getProjectBalance(_id,tokenId));\r\n\t}\r\n\r\n\t// TODO:   //SANTOSH - Can't we take default error of transferring?\r\n\t/// @notice take out token from this contract\r\n\t/// @param _amount Amount to withdraw token from this contract\r\n\tfunction withdrawToken(uint256 _amount) public OnlyOwner {\r\n\t\trequire(erc20.transfer(msg.sender, _amount), 'RAHAT_ADMIN: Error while calling token contract');\r\n\t}\r\n\r\n\t/// @notice mint new tokens\r\n\t/// @param _address address to send the minted tokens\r\n\t/// @param _amount Amount of token to Mint\r\n\tfunction mintERC20(address _address, uint256 _amount) public OnlyOwner {\r\n\t\terc20.mintERC20(_address, _amount);\r\n\t}\r\n\t\r\n\t/// @dev mint new tokens\r\n    ///@param _name name of NFT\r\n    ///@param _symbol symbol of NFT\r\n    ///@param _amount amount of NFT\r\n\tfunction mintERC1155(string memory _name,\r\n\t\tstring memory _symbol,uint256 _amount) public OnlyOwner {\r\n\t\t    erc1155.mintERC1155(_name,_symbol,_amount);\r\n\t\t}\r\n\r\n\t/// @notice Add an account to the owner role. Restricted to owners.\r\n\t/// @param _account address of new owner\r\n\tfunction addOwner(address _account) public OnlyOwner {\r\n\t\towner[_account] = true;\r\n\t}\r\n\r\n\t/// @notice generates the hash of the given string\r\n\t/// @param _data String of which hash is to be generated\r\n\tfunction findHash(string memory _data) private pure returns (bytes32) {\r\n\t\treturn keccak256(abi.encodePacked(_data));\r\n\t}\r\n}\r\n",
  "sourcePath": "D:\\projects\\Rahat\\rahat-contracts\\contracts\\RahatAdmin.sol",
  "compiler": {
    "name": "solc",
    "version": "0.8.7+commit.e28d00a7.Emscripten.clang"
  },
  "schemaVersion": "3.4.3",
  "updatedAt": "2021-11-18T10:07:55.076Z",
  "devdoc": {
    "author": "Rumsan Associates",
    "details": "All function calls are only executed by contract owner",
    "kind": "dev",
    "methods": {
      "addOwner(address)": {
        "params": {
          "_account": "address of new owner"
        }
      },
      "constructor": {
        "details": "deploys AidToken and Rahat contract by sending supply to this contract"
      },
      "createAndsetProjectBudget_ERC1155(string,string,string,uint256)": {
        "details": "create token and allocate them to the given projectId, Creates project and transfer tokens to Rahat contract.",
        "params": {
          "_name": "name of NFT",
          "_projectCapital": "ERC1155 token ID",
          "_projectId": "Unique Id of Project",
          "_symbol": "symbol of NFT"
        }
      },
      "getProjecERC20Balance(string)": {
        "params": {
          "_projectId": "Unique Id of project"
        }
      },
      "getProjectERC1155Balance(string,uint256)": {
        "params": {
          "_projectId": "Unique Id of project",
          "tokenId": "ERC1155 tokenID"
        }
      },
      "mintERC1155(string,string,uint256)": {
        "details": "mint new tokens",
        "params": {
          "_amount": "amount of NFT",
          "_name": "name of NFT",
          "_symbol": "symbol of NFT"
        }
      },
      "mintERC20(address,uint256)": {
        "params": {
          "_address": "address to send the minted tokens",
          "_amount": "Amount of token to Mint"
        }
      },
      "setProjectBudget_ERC1155(string,uint256,uint256)": {
        "details": "Allocates token to the given projectId, Creates project and transfer tokens to Rahat contract.",
        "params": {
          "_projectCapital": "amount of ERC1155 token with _tokenId allocated to project",
          "_projectId": "Unique Id of Project",
          "tokenId": "ERC1155 token ID"
        }
      },
      "setProjectBudget_ERC20(string,uint256)": {
        "details": "Allocates token to the given projectId, Creates project and transfer tokens to Rahat contract.",
        "params": {
          "_projectCapital": "Budget Allocated to project",
          "_projectId": "Unique Id of Project"
        }
      },
      "supportsInterface(bytes4)": {
        "details": "See {IERC165-supportsInterface}."
      },
      "withdrawToken(uint256)": {
        "params": {
          "_amount": "Amount to withdraw token from this contract"
        }
      }
    },
    "title": "Rahat Admin contract - owns all the tokens initially minted",
    "version": 1
  },
  "userdoc": {
    "kind": "user",
    "methods": {
      "addOwner(address)": {
        "notice": "Add an account to the owner role. Restricted to owners."
      },
      "constructor": {
        "notice": "All the supply is allocated to this contract"
      },
      "createAndsetProjectBudget_ERC1155(string,string,string,uint256)": {
        "notice": "allocate ERC1155 tokens to projects"
      },
      "getProjecERC20Balance(string)": {
        "notice": "get the current balance of project"
      },
      "getProjectERC1155Balance(string,uint256)": {
        "notice": "get the current ERC1155 amount of given tokenId in the project"
      },
      "mintERC20(address,uint256)": {
        "notice": "mint new tokens"
      },
      "projectERC20Capital(bytes32)": {
        "notice": "assign budgets to project"
      },
      "projectExists(bytes32)": {
        "notice": "check if projectId exists or not;"
      },
      "projectId(uint256)": {
        "notice": "list of projects"
      },
      "setProjectBudget_ERC1155(string,uint256,uint256)": {
        "notice": "allocate ERC1155 tokens to projects"
      },
      "setProjectBudget_ERC20(string,uint256)": {
        "notice": "allocate token to projects"
      },
      "withdrawToken(uint256)": {
        "notice": "take out token from this contract"
      }
    },
    "notice": "You can use this contract to manage Rahat tokens and projects",
    "version": 1
  }
}