{
  "contractName": "Rahat",
  "abi": [
    {
      "inputs": [
        {
          "internalType": "contract RahatERC20",
          "name": "_erc20",
          "type": "address"
        },
        {
          "internalType": "contract RahatERC1155",
          "name": "_erc1155",
          "type": "address"
        },
        {
          "internalType": "address",
          "name": "_admin",
          "type": "address"
        }
      ],
      "stateMutability": "nonpayable",
      "type": "constructor"
    },
    {
      "anonymous": false,
      "inputs": [
        {
          "indexed": true,
          "internalType": "address",
          "name": "vendor",
          "type": "address"
        },
        {
          "indexed": true,
          "internalType": "uint256",
          "name": "beneficiary",
          "type": "uint256"
        },
        {
          "indexed": false,
          "internalType": "uint256",
          "name": "amount",
          "type": "uint256"
        }
      ],
      "name": "ClaimAcquired",
      "type": "event"
    },
    {
      "anonymous": false,
      "inputs": [
        {
          "indexed": true,
          "internalType": "uint256",
          "name": "tokenId",
          "type": "uint256"
        },
        {
          "indexed": true,
          "internalType": "address",
          "name": "vendor",
          "type": "address"
        },
        {
          "indexed": true,
          "internalType": "uint256",
          "name": "beneficiary",
          "type": "uint256"
        },
        {
          "indexed": false,
          "internalType": "uint256",
          "name": "amount",
          "type": "uint256"
        }
      ],
      "name": "ClaimAcquired",
      "type": "event"
    },
    {
      "anonymous": false,
      "inputs": [
        {
          "indexed": true,
          "internalType": "address",
          "name": "vendor",
          "type": "address"
        },
        {
          "indexed": true,
          "internalType": "uint256",
          "name": "phone",
          "type": "uint256"
        },
        {
          "indexed": false,
          "internalType": "uint256",
          "name": "amount",
          "type": "uint256"
        }
      ],
      "name": "ClaimApproved",
      "type": "event"
    },
    {
      "anonymous": false,
      "inputs": [
        {
          "indexed": true,
          "internalType": "address",
          "name": "vendor",
          "type": "address"
        },
        {
          "indexed": true,
          "internalType": "uint256",
          "name": "phone",
          "type": "uint256"
        },
        {
          "indexed": false,
          "internalType": "uint256",
          "name": "amount",
          "type": "uint256"
        }
      ],
      "name": "Claimed",
      "type": "event"
    },
    {
      "anonymous": false,
      "inputs": [
        {
          "indexed": false,
          "internalType": "bytes",
          "name": "signature",
          "type": "bytes"
        },
        {
          "indexed": false,
          "internalType": "bytes32",
          "name": "digest",
          "type": "bytes32"
        },
        {
          "indexed": false,
          "internalType": "address",
          "name": "expectedSigner",
          "type": "address"
        },
        {
          "indexed": false,
          "internalType": "address",
          "name": "recoveredSigner",
          "type": "address"
        }
      ],
      "name": "InvalidSignature",
      "type": "event"
    },
    {
      "anonymous": false,
      "inputs": [
        {
          "indexed": true,
          "internalType": "bytes32",
          "name": "projectId",
          "type": "bytes32"
        },
        {
          "indexed": true,
          "internalType": "uint256",
          "name": "phone",
          "type": "uint256"
        },
        {
          "indexed": true,
          "internalType": "uint256",
          "name": "tokenId",
          "type": "uint256"
        },
        {
          "indexed": false,
          "internalType": "uint256",
          "name": "amount",
          "type": "uint256"
        }
      ],
      "name": "IssuedERC1155",
      "type": "event"
    },
    {
      "anonymous": false,
      "inputs": [
        {
          "indexed": true,
          "internalType": "bytes32",
          "name": "projectId",
          "type": "bytes32"
        },
        {
          "indexed": true,
          "internalType": "uint256",
          "name": "phone",
          "type": "uint256"
        },
        {
          "indexed": false,
          "internalType": "uint256",
          "name": "amount",
          "type": "uint256"
        }
      ],
      "name": "IssuedERC20",
      "type": "event"
    },
    {
      "anonymous": false,
      "inputs": [
        {
          "indexed": true,
          "internalType": "bytes32",
          "name": "role",
          "type": "bytes32"
        },
        {
          "indexed": true,
          "internalType": "bytes32",
          "name": "previousAdminRole",
          "type": "bytes32"
        },
        {
          "indexed": true,
          "internalType": "bytes32",
          "name": "newAdminRole",
          "type": "bytes32"
        }
      ],
      "name": "RoleAdminChanged",
      "type": "event"
    },
    {
      "anonymous": false,
      "inputs": [
        {
          "indexed": true,
          "internalType": "bytes32",
          "name": "role",
          "type": "bytes32"
        },
        {
          "indexed": true,
          "internalType": "address",
          "name": "account",
          "type": "address"
        },
        {
          "indexed": true,
          "internalType": "address",
          "name": "sender",
          "type": "address"
        }
      ],
      "name": "RoleGranted",
      "type": "event"
    },
    {
      "anonymous": false,
      "inputs": [
        {
          "indexed": true,
          "internalType": "bytes32",
          "name": "role",
          "type": "bytes32"
        },
        {
          "indexed": true,
          "internalType": "address",
          "name": "account",
          "type": "address"
        },
        {
          "indexed": true,
          "internalType": "address",
          "name": "sender",
          "type": "address"
        }
      ],
      "name": "RoleRevoked",
      "type": "event"
    },
    {
      "inputs": [],
      "name": "CREATE_CLAIM",
      "outputs": [
        {
          "internalType": "bytes32",
          "name": "",
          "type": "bytes32"
        }
      ],
      "stateMutability": "view",
      "type": "function"
    },
    {
      "inputs": [],
      "name": "DEFAULT_ADMIN_ROLE",
      "outputs": [
        {
          "internalType": "bytes32",
          "name": "",
          "type": "bytes32"
        }
      ],
      "stateMutability": "view",
      "type": "function"
    },
    {
      "inputs": [],
      "name": "GET_TOKENS_FROM_CLAIM",
      "outputs": [
        {
          "internalType": "bytes32",
          "name": "",
          "type": "bytes32"
        }
      ],
      "stateMutability": "view",
      "type": "function"
    },
    {
      "inputs": [],
      "name": "ISSUE_TOKEN",
      "outputs": [
        {
          "internalType": "bytes32",
          "name": "",
          "type": "bytes32"
        }
      ],
      "stateMutability": "view",
      "type": "function"
    },
    {
      "inputs": [],
      "name": "MANAGER_ROLE",
      "outputs": [
        {
          "internalType": "bytes32",
          "name": "",
          "type": "bytes32"
        }
      ],
      "stateMutability": "view",
      "type": "function"
    },
    {
      "inputs": [],
      "name": "MOBILIZER_ROLE",
      "outputs": [
        {
          "internalType": "bytes32",
          "name": "",
          "type": "bytes32"
        }
      ],
      "stateMutability": "view",
      "type": "function"
    },
    {
      "inputs": [],
      "name": "SERVER_ROLE",
      "outputs": [
        {
          "internalType": "bytes32",
          "name": "",
          "type": "bytes32"
        }
      ],
      "stateMutability": "view",
      "type": "function"
    },
    {
      "inputs": [],
      "name": "VENDOR_ROLE",
      "outputs": [
        {
          "internalType": "bytes32",
          "name": "",
          "type": "bytes32"
        }
      ],
      "stateMutability": "view",
      "type": "function"
    },
    {
      "inputs": [],
      "name": "erc1155",
      "outputs": [
        {
          "internalType": "contract RahatERC1155",
          "name": "",
          "type": "address"
        }
      ],
      "stateMutability": "view",
      "type": "function"
    },
    {
      "inputs": [
        {
          "internalType": "uint256",
          "name": "",
          "type": "uint256"
        },
        {
          "internalType": "uint256",
          "name": "",
          "type": "uint256"
        }
      ],
      "name": "erc1155Balance",
      "outputs": [
        {
          "internalType": "uint256",
          "name": "",
          "type": "uint256"
        }
      ],
      "stateMutability": "view",
      "type": "function"
    },
    {
      "inputs": [],
      "name": "erc20",
      "outputs": [
        {
          "internalType": "contract RahatERC20",
          "name": "",
          "type": "address"
        }
      ],
      "stateMutability": "view",
      "type": "function"
    },
    {
      "inputs": [
        {
          "internalType": "uint256",
          "name": "",
          "type": "uint256"
        }
      ],
      "name": "erc20Balance",
      "outputs": [
        {
          "internalType": "uint256",
          "name": "",
          "type": "uint256"
        }
      ],
      "stateMutability": "view",
      "type": "function"
    },
    {
      "inputs": [
        {
          "internalType": "bytes32",
          "name": "role",
          "type": "bytes32"
        }
      ],
      "name": "getRoleAdmin",
      "outputs": [
        {
          "internalType": "bytes32",
          "name": "",
          "type": "bytes32"
        }
      ],
      "stateMutability": "view",
      "type": "function"
    },
    {
      "inputs": [
        {
          "internalType": "bytes32",
          "name": "role",
          "type": "bytes32"
        },
        {
          "internalType": "address",
          "name": "account",
          "type": "address"
        }
      ],
      "name": "grantRole",
      "outputs": [],
      "stateMutability": "nonpayable",
      "type": "function"
    },
    {
      "inputs": [
        {
          "internalType": "bytes32",
          "name": "role",
          "type": "bytes32"
        },
        {
          "internalType": "address",
          "name": "account",
          "type": "address"
        }
      ],
      "name": "hasRole",
      "outputs": [
        {
          "internalType": "bool",
          "name": "",
          "type": "bool"
        }
      ],
      "stateMutability": "view",
      "type": "function"
    },
    {
      "inputs": [
        {
          "internalType": "address",
          "name": "",
          "type": "address"
        }
      ],
      "name": "nonces",
      "outputs": [
        {
          "internalType": "uint256",
          "name": "",
          "type": "uint256"
        }
      ],
      "stateMutability": "view",
      "type": "function"
    },
    {
      "inputs": [
        {
          "internalType": "address",
          "name": "",
          "type": "address"
        },
        {
          "internalType": "address",
          "name": "",
          "type": "address"
        },
        {
          "internalType": "uint256[]",
          "name": "",
          "type": "uint256[]"
        },
        {
          "internalType": "uint256[]",
          "name": "",
          "type": "uint256[]"
        },
        {
          "internalType": "bytes",
          "name": "",
          "type": "bytes"
        }
      ],
      "name": "onERC1155BatchReceived",
      "outputs": [
        {
          "internalType": "bytes4",
          "name": "",
          "type": "bytes4"
        }
      ],
      "stateMutability": "nonpayable",
      "type": "function"
    },
    {
      "inputs": [
        {
          "internalType": "address",
          "name": "",
          "type": "address"
        },
        {
          "internalType": "address",
          "name": "",
          "type": "address"
        },
        {
          "internalType": "uint256",
          "name": "",
          "type": "uint256"
        },
        {
          "internalType": "uint256",
          "name": "",
          "type": "uint256"
        },
        {
          "internalType": "bytes",
          "name": "",
          "type": "bytes"
        }
      ],
      "name": "onERC1155Received",
      "outputs": [
        {
          "internalType": "bytes4",
          "name": "",
          "type": "bytes4"
        }
      ],
      "stateMutability": "nonpayable",
      "type": "function"
    },
    {
      "inputs": [
        {
          "internalType": "address",
          "name": "",
          "type": "address"
        },
        {
          "internalType": "bytes32",
          "name": "",
          "type": "bytes32"
        },
        {
          "internalType": "uint256",
          "name": "",
          "type": "uint256"
        }
      ],
      "name": "recentERC1155Claims",
      "outputs": [
        {
          "internalType": "uint256",
          "name": "amount",
          "type": "uint256"
        },
        {
          "internalType": "bytes32",
          "name": "otpHash",
          "type": "bytes32"
        },
        {
          "internalType": "bool",
          "name": "isReleased",
          "type": "bool"
        },
        {
          "internalType": "uint256",
          "name": "date",
          "type": "uint256"
        }
      ],
      "stateMutability": "view",
      "type": "function"
    },
    {
      "inputs": [
        {
          "internalType": "address",
          "name": "",
          "type": "address"
        },
        {
          "internalType": "bytes32",
          "name": "",
          "type": "bytes32"
        }
      ],
      "name": "recentERC20Claims",
      "outputs": [
        {
          "internalType": "uint256",
          "name": "amount",
          "type": "uint256"
        },
        {
          "internalType": "bytes32",
          "name": "otpHash",
          "type": "bytes32"
        },
        {
          "internalType": "bool",
          "name": "isReleased",
          "type": "bool"
        },
        {
          "internalType": "uint256",
          "name": "date",
          "type": "uint256"
        }
      ],
      "stateMutability": "view",
      "type": "function"
    },
    {
      "inputs": [
        {
          "internalType": "bytes32",
          "name": "role",
          "type": "bytes32"
        },
        {
          "internalType": "address",
          "name": "account",
          "type": "address"
        }
      ],
      "name": "renounceRole",
      "outputs": [],
      "stateMutability": "nonpayable",
      "type": "function"
    },
    {
      "inputs": [
        {
          "internalType": "bytes32",
          "name": "role",
          "type": "bytes32"
        },
        {
          "internalType": "address",
          "name": "account",
          "type": "address"
        }
      ],
      "name": "revokeRole",
      "outputs": [],
      "stateMutability": "nonpayable",
      "type": "function"
    },
    {
      "inputs": [
        {
          "internalType": "bytes4",
          "name": "interfaceId",
          "type": "bytes4"
        }
      ],
      "name": "supportsInterface",
      "outputs": [
        {
          "internalType": "bool",
          "name": "",
          "type": "bool"
        }
      ],
      "stateMutability": "view",
      "type": "function"
    },
    {
      "inputs": [
        {
          "internalType": "address",
          "name": "_account",
          "type": "address"
        }
      ],
      "name": "addAdmin",
      "outputs": [],
      "stateMutability": "nonpayable",
      "type": "function"
    },
    {
      "inputs": [
        {
          "internalType": "address",
          "name": "_account",
          "type": "address"
        }
      ],
      "name": "addServer",
      "outputs": [],
      "stateMutability": "nonpayable",
      "type": "function"
    },
    {
      "inputs": [
        {
          "internalType": "address",
          "name": "_account",
          "type": "address"
        }
      ],
      "name": "addVendor",
      "outputs": [],
      "stateMutability": "nonpayable",
      "type": "function"
    },
    {
      "inputs": [
        {
          "internalType": "address",
          "name": "_account",
          "type": "address"
        },
        {
          "internalType": "bytes32",
          "name": "_projectId",
          "type": "bytes32"
        }
      ],
      "name": "addMobilizer",
      "outputs": [],
      "stateMutability": "nonpayable",
      "type": "function"
    },
    {
      "inputs": [],
      "name": "suspendMobilizer",
      "outputs": [],
      "stateMutability": "nonpayable",
      "type": "function"
    },
    {
      "inputs": [],
      "name": "suspendVendor",
      "outputs": [],
      "stateMutability": "nonpayable",
      "type": "function"
    },
    {
      "inputs": [
        {
          "internalType": "uint256",
          "name": "_phone",
          "type": "uint256"
        },
        {
          "internalType": "bytes32",
          "name": "_projectId",
          "type": "bytes32"
        }
      ],
      "name": "suspendBeneficiary",
      "outputs": [],
      "stateMutability": "nonpayable",
      "type": "function"
    },
    {
      "inputs": [
        {
          "internalType": "uint256",
          "name": "_phone",
          "type": "uint256"
        },
        {
          "internalType": "uint256",
          "name": "_amount",
          "type": "uint256"
        },
        {
          "internalType": "uint256",
          "name": "_tokenId",
          "type": "uint256"
        }
      ],
      "name": "adjustTokenAdd",
      "outputs": [],
      "stateMutability": "nonpayable",
      "type": "function"
    },
    {
      "inputs": [
        {
          "internalType": "uint256",
          "name": "_phone",
          "type": "uint256"
        },
        {
          "internalType": "uint256",
          "name": "_amount",
          "type": "uint256"
        }
      ],
      "name": "adjustTokenAdd",
      "outputs": [],
      "stateMutability": "nonpayable",
      "type": "function"
    },
    {
      "inputs": [
        {
          "internalType": "uint256",
          "name": "_phone",
          "type": "uint256"
        },
        {
          "internalType": "uint256",
          "name": "_amount",
          "type": "uint256"
        },
        {
          "internalType": "uint256",
          "name": "_tokenId",
          "type": "uint256"
        }
      ],
      "name": "adjustTokenDeduct",
      "outputs": [],
      "stateMutability": "nonpayable",
      "type": "function"
    },
    {
      "inputs": [
        {
          "internalType": "uint256",
          "name": "_phone",
          "type": "uint256"
        },
        {
          "internalType": "uint256",
          "name": "_amount",
          "type": "uint256"
        }
      ],
      "name": "adjustTokenDeduct",
      "outputs": [],
      "stateMutability": "nonpayable",
      "type": "function"
    },
    {
      "inputs": [
        {
          "internalType": "bytes32",
          "name": "_projectId",
          "type": "bytes32"
        },
        {
          "internalType": "uint256",
          "name": "_projectCapital",
          "type": "uint256"
        }
      ],
      "name": "addProject",
      "outputs": [],
      "stateMutability": "nonpayable",
      "type": "function"
    },
    {
      "inputs": [
        {
          "internalType": "bytes32",
          "name": "_projectId",
          "type": "bytes32"
        },
        {
          "internalType": "uint256",
          "name": "_projectCapital",
          "type": "uint256"
        },
        {
          "internalType": "uint256",
          "name": "tokenId",
          "type": "uint256"
        }
      ],
      "name": "updateProjectBudget",
      "outputs": [],
      "stateMutability": "nonpayable",
      "type": "function"
    },
    {
      "inputs": [
        {
          "internalType": "bytes32",
          "name": "_projectId",
          "type": "bytes32"
        },
        {
          "internalType": "uint256",
          "name": "_projectCapital",
          "type": "uint256"
        }
      ],
      "name": "updateProjectBudget",
      "outputs": [],
      "stateMutability": "nonpayable",
      "type": "function"
    },
    {
      "inputs": [
        {
          "internalType": "bytes32",
          "name": "_projectId",
          "type": "bytes32"
        },
        {
          "internalType": "uint256",
          "name": "tokenId",
          "type": "uint256"
        }
      ],
      "name": "getProjectBalance",
      "outputs": [
        {
          "internalType": "uint256",
          "name": "_balance",
          "type": "uint256"
        }
      ],
      "stateMutability": "view",
      "type": "function"
    },
    {
      "inputs": [
        {
          "internalType": "bytes32",
          "name": "_projectId",
          "type": "bytes32"
        }
      ],
      "name": "getProjectBalance",
      "outputs": [
        {
          "internalType": "uint256",
          "name": "_balance",
          "type": "uint256"
        }
      ],
      "stateMutability": "view",
      "type": "function"
    },
    {
      "inputs": [
        {
          "internalType": "string",
          "name": "_projectId",
          "type": "string"
        },
        {
          "internalType": "uint256",
          "name": "_phone",
          "type": "uint256"
        },
        {
          "internalType": "uint256",
          "name": "_amount",
          "type": "uint256"
        }
      ],
      "name": "issueERC20ToBeneficiary",
      "outputs": [],
      "stateMutability": "nonpayable",
      "type": "function"
    },
    {
      "inputs": [
        {
          "internalType": "string",
          "name": "_projectId",
          "type": "string"
        },
        {
          "internalType": "uint256",
          "name": "_phone",
          "type": "uint256"
        },
        {
          "internalType": "uint256[]",
          "name": "_amount",
          "type": "uint256[]"
        },
        {
          "internalType": "uint256[]",
          "name": "_tokenId",
          "type": "uint256[]"
        }
      ],
      "name": "issueERC1155ToBeneficiary",
      "outputs": [],
      "stateMutability": "nonpayable",
      "type": "function"
    },
    {
      "inputs": [
        {
          "internalType": "address",
          "name": "_signer",
          "type": "address"
        },
        {
          "internalType": "bytes",
          "name": "_signature",
          "type": "bytes"
        },
        {
          "internalType": "string",
          "name": "_projectId",
          "type": "string"
        },
        {
          "internalType": "uint256",
          "name": "_phone",
          "type": "uint256"
        },
        {
          "internalType": "uint256",
          "name": "_amount",
          "type": "uint256"
        }
      ],
      "name": "delegate_issueERC20ToBeneficiary",
      "outputs": [],
      "stateMutability": "nonpayable",
      "type": "function"
    },
    {
      "inputs": [
        {
          "internalType": "address",
          "name": "_signer",
          "type": "address"
        },
        {
          "internalType": "bytes",
          "name": "_signature",
          "type": "bytes"
        },
        {
          "internalType": "string",
          "name": "_projectId",
          "type": "string"
        },
        {
          "internalType": "uint256",
          "name": "_phone",
          "type": "uint256"
        },
        {
          "internalType": "uint256",
          "name": "_amount",
          "type": "uint256"
        },
        {
          "internalType": "uint256",
          "name": "_tokenId",
          "type": "uint256"
        }
      ],
      "name": "delegate_issueERC1155ToBeneficiary",
      "outputs": [],
      "stateMutability": "nonpayable",
      "type": "function"
    },
    {
      "inputs": [
        {
          "internalType": "string",
          "name": "_projectId",
          "type": "string"
        },
        {
          "internalType": "uint256[]",
          "name": "_phone",
          "type": "uint256[]"
        },
        {
          "internalType": "uint256[]",
          "name": "_amount",
          "type": "uint256[]"
        }
      ],
      "name": "issueBulkERC20",
      "outputs": [],
      "stateMutability": "nonpayable",
      "type": "function"
    },
    {
      "inputs": [
        {
          "internalType": "string",
          "name": "_projectId",
          "type": "string"
        },
        {
          "internalType": "uint256[]",
          "name": "_phone",
          "type": "uint256[]"
        },
        {
          "internalType": "uint256[]",
          "name": "_amount",
          "type": "uint256[]"
        },
        {
          "internalType": "uint256",
          "name": "_tokenId",
          "type": "uint256"
        }
      ],
      "name": "issueBulkERC1155",
      "outputs": [],
      "stateMutability": "nonpayable",
      "type": "function"
    },
    {
      "inputs": [
        {
          "internalType": "uint256",
          "name": "_phone",
          "type": "uint256"
        },
        {
          "internalType": "uint256",
          "name": "_tokens",
          "type": "uint256"
        }
      ],
      "name": "createERC20Claim",
      "outputs": [],
      "stateMutability": "nonpayable",
      "type": "function"
    },
    {
      "inputs": [
        {
          "internalType": "uint256",
          "name": "_phone",
          "type": "uint256"
        },
        {
          "internalType": "uint256",
          "name": "_amount",
          "type": "uint256"
        },
        {
          "internalType": "uint256",
          "name": "_tokenId",
          "type": "uint256"
        }
      ],
      "name": "createERC1155Claim",
      "outputs": [],
      "stateMutability": "nonpayable",
      "type": "function"
    },
    {
      "inputs": [
        {
          "internalType": "address",
          "name": "_signer",
          "type": "address"
        },
        {
          "internalType": "bytes",
          "name": "_signature",
          "type": "bytes"
        },
        {
          "internalType": "uint256",
          "name": "_phone",
          "type": "uint256"
        },
        {
          "internalType": "uint256",
          "name": "_amount",
          "type": "uint256"
        }
      ],
      "name": "delegate_createERC20Claim",
      "outputs": [],
      "stateMutability": "nonpayable",
      "type": "function"
    },
    {
      "inputs": [
        {
          "internalType": "address",
          "name": "_signer",
          "type": "address"
        },
        {
          "internalType": "bytes",
          "name": "_signature",
          "type": "bytes"
        },
        {
          "internalType": "uint256",
          "name": "_phone",
          "type": "uint256"
        },
        {
          "internalType": "uint256",
          "name": "_amount",
          "type": "uint256"
        },
        {
          "internalType": "uint256",
          "name": "_tokenId",
          "type": "uint256"
        }
      ],
      "name": "delegate_createERC1155Claim",
      "outputs": [],
      "stateMutability": "nonpayable",
      "type": "function"
    },
    {
      "inputs": [
        {
          "internalType": "address",
          "name": "_vendor",
          "type": "address"
        },
        {
          "internalType": "uint256",
          "name": "_phone",
          "type": "uint256"
        },
        {
          "internalType": "bytes32",
          "name": "_otpHash",
          "type": "bytes32"
        },
        {
          "internalType": "uint256",
          "name": "_timeToLive",
          "type": "uint256"
        }
      ],
      "name": "approveERC20Claim",
      "outputs": [],
      "stateMutability": "nonpayable",
      "type": "function"
    },
    {
      "inputs": [
        {
          "internalType": "address",
          "name": "_vendor",
          "type": "address"
        },
        {
          "internalType": "uint256",
          "name": "_phone",
          "type": "uint256"
        },
        {
          "internalType": "bytes32",
          "name": "_otpHash",
          "type": "bytes32"
        },
        {
          "internalType": "uint256",
          "name": "_timeToLive",
          "type": "uint256"
        },
        {
          "internalType": "uint256",
          "name": "_tokenId",
          "type": "uint256"
        }
      ],
      "name": "approveERC1155Claim",
      "outputs": [],
      "stateMutability": "nonpayable",
      "type": "function"
    },
    {
      "inputs": [
        {
          "internalType": "uint256",
          "name": "_phone",
          "type": "uint256"
        },
        {
          "internalType": "string",
          "name": "_otp",
          "type": "string"
        }
      ],
      "name": "getERC20FromClaim",
      "outputs": [],
      "stateMutability": "nonpayable",
      "type": "function"
    },
    {
      "inputs": [
        {
          "internalType": "uint256",
          "name": "_phone",
          "type": "uint256"
        },
        {
          "internalType": "string",
          "name": "_otp",
          "type": "string"
        },
        {
          "internalType": "uint256",
          "name": "_tokenId",
          "type": "uint256"
        }
      ],
      "name": "getERC1155FromClaim",
      "outputs": [],
      "stateMutability": "nonpayable",
      "type": "function"
    },
    {
      "inputs": [
        {
          "internalType": "address",
          "name": "_signer",
          "type": "address"
        },
        {
          "internalType": "bytes",
          "name": "_signature",
          "type": "bytes"
        },
        {
          "internalType": "uint256",
          "name": "_phone",
          "type": "uint256"
        },
        {
          "internalType": "string",
          "name": "_otp",
          "type": "string"
        }
      ],
      "name": "delegate_getERC20FromClaim",
      "outputs": [],
      "stateMutability": "nonpayable",
      "type": "function"
    },
    {
      "inputs": [
        {
          "internalType": "address",
          "name": "_signer",
          "type": "address"
        },
        {
          "internalType": "bytes",
          "name": "_signature",
          "type": "bytes"
        },
        {
          "internalType": "uint256",
          "name": "_phone",
          "type": "uint256"
        },
        {
          "internalType": "string",
          "name": "_otp",
          "type": "string"
        },
        {
          "internalType": "uint256",
          "name": "_tokenId",
          "type": "uint256"
        }
      ],
      "name": "delegate_getTokensFromClaim",
      "outputs": [],
      "stateMutability": "nonpayable",
      "type": "function"
    },
    {
      "inputs": [
        {
          "internalType": "uint256",
          "name": "_data",
          "type": "uint256"
        }
      ],
      "name": "findHash",
      "outputs": [
        {
          "internalType": "bytes32",
          "name": "",
          "type": "bytes32"
        }
      ],
      "stateMutability": "pure",
      "type": "function"
    },
    {
      "inputs": [
        {
          "internalType": "string",
          "name": "_data",
          "type": "string"
        }
      ],
      "name": "findHash",
      "outputs": [
        {
          "internalType": "bytes32",
          "name": "",
          "type": "bytes32"
        }
      ],
      "stateMutability": "pure",
      "type": "function"
    },
    {
      "inputs": [
        {
          "internalType": "uint256[]",
          "name": "_array",
          "type": "uint256[]"
        }
      ],
      "name": "getArraySum",
      "outputs": [
        {
          "internalType": "uint256",
          "name": "sum",
          "type": "uint256"
        }
      ],
      "stateMutability": "pure",
      "type": "function"
    }
  ],
  "bytecode": "0x60806040523480156200001157600080fd5b50604051620048da380380620048da833981016040819052620000349162000473565b62000041600032620000e5565b6200004e600082620000e5565b6200006a600080516020620048ba8339815191526000620000f5565b620000977f0aaf57387812c7f832412470a57567b5648a930069be49aa9c98d04f88520d346000620000f5565b620000b2600080516020620048ba8339815191523362000140565b50600280546001600160a01b039384166001600160a01b031991821617909155600380549290931691161790556200065a565b620000f182826200016f565b5050565b600082815260208190526040808220600101805490849055905190918391839186917fbd79b86ffe0ab8e8776151514217cd7cacd52c909f66475c3af44e129f0b00ff9190a4505050565b6000828152602081905260409020600101546200015e81336200020f565b6200016a83836200016f565b505050565b6000828152602081815260408083206001600160a01b038516845290915290205460ff16620000f1576000828152602081815260408083206001600160a01b03851684529091529020805460ff19166001179055620001cb3390565b6001600160a01b0316816001600160a01b0316837f2f8788117e7eff1d82e926ec794901d17c78024a50270940304540a733656f0d60405160405180910390a45050565b6000828152602081815260408083206001600160a01b038516845290915290205460ff16620000f15762000259816001600160a01b03166014620002b360201b620027731760201c565b6200026f83602062002773620002b3821b17811c565b60405160200162000282929190620004c7565b60408051601f198184030181529082905262461bcd60e51b8252620002aa9160040162000540565b60405180910390fd5b60606000620002c483600262000590565b620002d190600262000575565b6001600160401b03811115620002eb57620002eb6200062b565b6040519080825280601f01601f19166020018201604052801562000316576020820181803683370190505b509050600360fc1b8160008151811062000334576200033462000615565b60200101906001600160f81b031916908160001a905350600f60fb1b8160018151811062000366576200036662000615565b60200101906001600160f81b031916908160001a90535060006200038c84600262000590565b6200039990600162000575565b90505b60018111156200041b576f181899199a1a9b1b9c1cb0b131b232b360811b85600f1660108110620003d157620003d162000615565b1a60f81b828281518110620003ea57620003ea62000615565b60200101906001600160f81b031916908160001a90535060049490941c936200041381620005e5565b90506200039c565b5083156200046c5760405162461bcd60e51b815260206004820181905260248201527f537472696e67733a20686578206c656e67746820696e73756666696369656e746044820152606401620002aa565b9392505050565b6000806000606084860312156200048957600080fd5b8351620004968162000641565b6020850151909350620004a98162000641565b6040850151909250620004bc8162000641565b809150509250925092565b7f416363657373436f6e74726f6c3a206163636f756e742000000000000000000081526000835162000501816017850160208801620005b2565b7001034b99036b4b9b9b4b733903937b6329607d1b601791840191820152835162000534816028840160208801620005b2565b01602801949350505050565b602081526000825180602084015262000561816040850160208701620005b2565b601f01601f19169190910160400192915050565b600082198211156200058b576200058b620005ff565b500190565b6000816000190483118215151615620005ad57620005ad620005ff565b500290565b60005b83811015620005cf578181015183820152602001620005b5565b83811115620005df576000848401525b50505050565b600081620005f757620005f7620005ff565b506000190190565b634e487b7160e01b600052601160045260246000fd5b634e487b7160e01b600052603260045260246000fd5b634e487b7160e01b600052604160045260246000fd5b6001600160a01b03811681146200065757600080fd5b50565b614250806200066a6000396000f3fe608060405234801561001057600080fd5b506004361061030e5760003560e01c806370c751071161019e578063bc197c81116100ef578063d547741f1161009d578063d547741f14610824578063d56022d714610837578063e4ce36211461084a578063ec87621c1461085d578063f23a6e6114610884578063f708ccab1461033b578063f94afcea146108a3578063f9b5bf90146108b657600080fd5b8063bc197c811461073a578063bf6b867b14610772578063bfa6836314610785578063c0d955d614610798578063c8d9bb29146107ab578063cf784eda146107be578063d1e67167146107de57600080fd5b80638bbab5c71161014c5780638bbab5c7146106ba5780638eda3247146106cf57806391d14854146106e2578063926a694d146106f557806394343cd21461070a5780639ea693501461071f578063a217fddf1461073257600080fd5b806370c7510714610610578063747bb53714610623578063785e9e86146106365780637ecebe001461066157806383d385a41461068157806388257567146106945780638a80940d146106a757600080fd5b80633036950e11610263578063494101ff11610211578063494101ff146105765780634c91b44e146105895780635bb675671461059e5780635c966100146105b15780635cbd99d4146105c45780635eb5eec9146105d75780636d8943e5146105ea57806370480275146105fd57600080fd5b80633036950e146104b45780633098b74b146104c757806332a0749c146104da578063351c3d0b1461050557806336568abe1461052557806339cbd15c1461053857806345e0f7531461056357600080fd5b806326fabe91116102c057806326fabe91146103d057806327fa7a20146103e3578063298ed0c9146103f65780632aef0c30146104095780632d41d5591461041c5780632f2ff15d1461042f5780632fb3eabf1461044257600080fd5b806301ffc9a7146103135780630241a5b31461033b5780630f6025eb1461033d57806318cf2834146103505780632384e10514610373578063248a9ca31461039a578063250de2b2146103bd575b600080fd5b6103266103213660046136fb565b6108c9565b60405190151581526020015b60405180910390f35b005b61033b61034b3660046136cf565b6108da565b6103656000805160206141bb83398151915281565b604051908152602001610332565b6103657fcfa8166f1bb1b8818c3767a9ffd776afbbe3409a468070bb860831e01b56549981565b6103656103a8366004613668565b60009081526020819052604090206001015490565b61033b6103cb3660046137e0565b61090d565b61033b6103de366004613341565b610aa2565b61033b6103f1366004613941565b610c2c565b61033b6104043660046136ad565b610e58565b61033b6104173660046136ad565b610e76565b61033b61042a366004613597565b610f28565b61033b61043d366004613681565b6110c7565b61048e610450366004613289565b600d60209081526000938452604080852082529284528284209052825290208054600182015460028301546003909301549192909160ff9091169084565b604080519485526020850193909352901515918301919091526060820152608001610332565b61033b6104c23660046136cf565b6110f2565b6103656104d5366004613612565b611142565b6103656104e83660046136ad565b600560209081526000928352604080842090915290825290205481565b610365610513366004613668565b60046020526000908152604090205481565b61033b610533366004613681565b61118e565b6103656105463660046136ad565b600091825260096020908152604080842092845291905290205490565b61033b610571366004613137565b61120c565b610365610584366004613668565b611227565b61036560008051602061417b83398151915281565b61033b6105ac3660046136cf565b61125f565b61033b6105bf36600461386f565b6112f5565b61033b6105d2366004613137565b6114fe565b61033b6105e5366004613759565b611516565b61033b6105f836600461352f565b611605565b61033b61060b366004613137565b61179e565b61036561061e366004613725565b6117a9565b61033b6106313660046136cf565b6117bc565b600254610649906001600160a01b031681565b6040516001600160a01b039091168152602001610332565b61036561066f366004613137565b60016020526000908152604090205481565b61033b61068f3660046135d0565b611898565b61033b6106a23660046136ad565b611a11565b61033b6106b53660046132bc565b611a38565b6103656000805160206141db83398151915281565b61033b6106dd36600461344d565b611b97565b6103266106f0366004613681565b611e07565b61036560008051602061415b83398151915281565b61036560008051602061419b83398151915281565b61033b61072d3660046136ad565b611e30565b610365600081565b610759610748366004613152565b63bc197c8160e01b95945050505050565b6040516001600160e01b03199091168152602001610332565b61033b6107803660046136ad565b611f34565b61033b610793366004613987565b611fc7565b61033b6107a63660046138f4565b6121a5565b61033b6107b93660046134d2565b612277565b6103656107cc366004613668565b60009081526008602052604090205490565b61048e6107ec36600461325f565b600c60209081526000928352604080842090915290825290208054600182015460028301546003909301549192909160ff9091169084565b61033b610832366004613681565b6123e8565b600354610649906001600160a01b031681565b61033b61085836600461325f565b61240e565b6103657faf290d8680820aad922855f39b306097b20e28774d6c1ad35a20325630c3a02c81565b6107596108923660046131fb565b63f23a6e6160e01b95945050505050565b61033b6108b13660046133d0565b612461565b61033b6108c43660046136ad565b61271c565b60006108d482612915565b92915050565b600083815260096020908152604080832084845290915281208054849290610903908490614014565b9091555050505050565b610918600033611e07565b61093d5760405162461bcd60e51b815260040161093490613d36565b60405180910390fd5b815183511461095e5760405162461bcd60e51b815260040161093490613f95565b60008061096a84611142565b90506000610977876117a9565b60008181526009602090815260408083208884529091529020549091508211156109b35760405162461bcd60e51b815260040161093490613bb0565b600092505b8551831015610a9957604080516001808252818301909252600091602080830190803683375050604080516001808252818301909252929350600092915060208083019080368337019050509050868581518110610a1857610a1861412e565b602002602001015182600081518110610a3357610a3361412e565b6020026020010181815250508581600081518110610a5357610a5361412e565b602002602001018181525050610a8489898781518110610a7557610a7561412e565b602002602001015184846112f5565b50508280610a91906140bd565b9350506109b8565b50505050505050565b6001600160a01b0386166000908152600160209081526040808320549051610ae49230926000805160206141db8339815191529290918a918a918a91016139d6565b6040516020818303038152906040528051906020012090506000610b08828861293a565b9050876001600160a01b0316816001600160a01b031614610b3b5760405162461bcd60e51b815260040161093490613eb2565b6001600160a01b0388166000908152600160205260408120805491610b5f836140bd565b91905055506000610b6f876117a9565b6000818152600960209081526040808320888452909152902054909150851115610bab5760405162461bcd60e51b815260040161093490613bb0565b600081815260096020908152604080832087845290915281208054879290610bd490849061405f565b90915550610be590508686866110f2565b8386827f0f63528d8c4a54e81a3a5f82736b7f0b5bb9d1143c7e82cf832c0ace6d8cf32088604051610c1991815260200190565b60405180910390a4505050505050505050565b816000610c3882611227565b600083815260046020526040902054909150610c665760405162461bcd60e51b815260040161093490613ce9565b610c7e60008051602061415b83398151915233611e07565b610c9a5760405162461bcd60e51b815260040161093490613c9f565b6000610ca585611227565b336000908152600c60209081526040808320848452909152902060028101549192509060ff16610ce75760405162461bcd60e51b815260040161093490613d6d565b4281600301541015610d0b5760405162461bcd60e51b815260040161093490613ef7565b6000610d16866117a9565b336000908152600c602090815260408083208784529091529020600101549091508114610d555760405162461bcd60e51b815260040161093490613e3a565b815460008881526004602052604081208054909190610d7590849061405f565b909155505081546002808401805460ff19169055600080855560038501555460405163a9059cbb60e01b8152336004820152602481018390526001600160a01b039091169063a9059cbb90604401602060405180830381600087803b158015610ddd57600080fd5b505af1158015610df1573d6000803e3d6000fd5b505050506040513d601f19601f82011682018060405250810190610e159190613646565b50604051818152889033907fbf193164f272ee45a28c1ffe48ee55c3da3a1fc02cedf1c8c8549118b2dc2ecf906020015b60405180910390a35050505050505050565b610e636006836129ad565b5060009182526008602052604090912055565b610e8e6000805160206141bb83398151915233611e07565b610eaa5760405162461bcd60e51b815260040161093490613c06565b816000610eb682611227565b600083815260046020526040902054909150610ee45760405162461bcd60e51b815260040161093490613ce9565b60008481526004602090815260408083205486845260089092528220805491928392610f11908490614014565b90915550610f2190508582611f34565b5050505050565b826000610f3482611227565b600083815260046020526040902054909150610f625760405162461bcd60e51b815260040161093490613ce9565b610f7a6000805160206141bb83398151915233611e07565b610f965760405162461bcd60e51b815260040161093490613c06565b6000610fa186611227565b6001600160a01b0388166000908152600c602090815260408083208484529091529020600381015491925090610fe95760405162461bcd60e51b815260040161093490613e6d565b6201518085111561100c5760405162461bcd60e51b815260040161093490613c50565b600381015461101e9062015180614014565b42111561103d5760405162461bcd60e51b815260040161093490613df7565b600281015460ff16156110625760405162461bcd60e51b815260040161093490613db0565b600180820187905560028201805460ff191690911790556110838542614014565b6003820155805460405190815287906001600160a01b038a16907f05ca75b0d90f1dd046ad3b8c1ec4a461042c3d33518b9b67d9feafc7d8d3c6cf90602001610e46565b6000828152602081905260409020600101546110e381336129b9565b6110ed8383612a1d565b505050565b6110fd600033611e07565b6111195760405162461bcd60e51b815260040161093490613d36565b600083815260056020908152604080832084845290915281208054849290610903908490614014565b6000805b8251811015611188578281815181106111615761116161412e565b6020026020010151826111749190614014565b915080611180816140bd565b915050611146565b50919050565b6001600160a01b03811633146111fe5760405162461bcd60e51b815260206004820152602f60248201527f416363657373436f6e74726f6c3a2063616e206f6e6c792072656e6f756e636560448201526e103937b632b9903337b91039b2b63360891b6064820152608401610934565b6112088282612aa1565b5050565b61122460008051602061415b833981519152826110c7565b50565b600061123282612b06565b6040516020016112429190613aba565b604051602081830303815290604052805190602001209050919050565b61126a600033611e07565b6112865760405162461bcd60e51b815260040161093490613d36565b82600061129282611227565b6000838152600460205260409020549091506112c05760405162461bcd60e51b815260040161093490613ce9565b6000858152600560209081526040808320868452909152812080548692906112e990849061405f565b90915550505050505050565b611300600033611e07565b61131c5760405162461bcd60e51b815260040161093490613d36565b6000611327856117a9565b9050815183511461134a5760405162461bcd60e51b815260040161093490613f95565b60005b82518110156114f6578381815181106113685761136861412e565b60200260200101516009600084815260200190815260200160002060008584815181106113975761139761412e565b602002602001015181526020019081526020016000205410156113cc5760405162461bcd60e51b815260040161093490613bb0565b8381815181106113de576113de61412e565b602002602001015160096000848152602001908152602001600020600085848151811061140d5761140d61412e565b602002602001015181526020019081526020016000206000828254611432919061405f565b925050819055506114768585838151811061144f5761144f61412e565b60200260200101518584815181106114695761146961412e565b60200260200101516110f2565b8281815181106114885761148861412e565b602002602001015185837f0f63528d8c4a54e81a3a5f82736b7f0b5bb9d1143c7e82cf832c0ace6d8cf3208785815181106114c5576114c561412e565b60200260200101516040516114dc91815260200190565b60405180910390a4806114ee816140bd565b91505061134d565b505050505050565b6112246000805160206141bb833981519152826110c7565b611521600033611e07565b61153d5760405162461bcd60e51b815260040161093490613d36565b805182511461155e5760405162461bcd60e51b815260040161093490613f95565b60008061156a83611142565b90506000611577866117a9565b6000818152600860205260409020549091508211156115a85760405162461bcd60e51b815260040161093490613bb0565b600092505b84518310156114f6576115f3868685815181106115cc576115cc61412e565b60200260200101518686815181106115e6576115e661412e565b60200260200101516121a5565b826115fd816140bd565b9350506115ad565b6001600160a01b03851660009081526001602090815260408083205490516001600160601b03193060601b169281019290925260008051602061419b83398151915260348301526054820152607481018590526094810184905260b4810183905260d401604051602081830303815290604052805190602001209050600061168d8287612c0b565b9050866001600160a01b0316816001600160a01b0316146116c05760405162461bcd60e51b815260040161093490613eb2565b6001600160a01b03871660009081526001602052604081208054916116e4836140bd565b919050555060006116f486611227565b60008781526005602090815260408083208884529091529020549091508511156117305760405162461bcd60e51b815260040161093490613f38565b6001600160a01b0388166000908152600d60209081526040808320848452825280832087845282529182902060028101805460ff191690558781554260038201559151878152889132916000805160206141fb833981519152910160405180910390a3505050505050505050565b6112246000826110c7565b6000816040516020016112429190613aba565b6117d460008051602061415b83398151915233611e07565b6117f05760405162461bcd60e51b815260040161093490613c9f565b60006117fb84611227565b60008581526005602090815260408083208684529091529020549091508311156118375760405162461bcd60e51b815260040161093490613f38565b336000908152600d60209081526040808320848452825280832085845282529182902060028101805460ff191690558581554260038201559151858152869132916000805160206141fb833981519152910160405180910390a35050505050565b6118b06000805160206141bb83398151915233611e07565b6118cc5760405162461bcd60e51b815260040161093490613c06565b60006118d785611227565b6001600160a01b0387166000908152600d60209081526040808320848452825280832086845290915290206003810154919250906119275760405162461bcd60e51b815260040161093490613e6d565b6201518084111561194a5760405162461bcd60e51b815260040161093490613c50565b600381015461195c9062015180614014565b42111561197b5760405162461bcd60e51b815260040161093490613df7565b600281015460ff16156119a05760405162461bcd60e51b815260040161093490613db0565b600180820186905560028201805460ff191690911790556119c18442614014565b6003820155805460405190815286906001600160a01b038916907f05ca75b0d90f1dd046ad3b8c1ec4a461042c3d33518b9b67d9feafc7d8d3c6cf9060200160405180910390a350505050505050565b60008281526008602052604081208054839290611a2f908490614014565b90915550505050565b6001600160a01b0385166000908152600160209081526040808320549051611a7a9230926000805160206141db833981519152929091899189918991016139d6565b6040516020818303038152906040528051906020012090506000611a9e828761293a565b9050866001600160a01b0316816001600160a01b031614611ad15760405162461bcd60e51b815260040161093490613eb2565b6001600160a01b0387166000908152600160205260408120805491611af5836140bd565b91905055506000611b05866117a9565b600081815260086020526040902054909150841115611b365760405162461bcd60e51b815260040161093490613bb0565b60008181526008602052604081208054869290611b5490849061405f565b90915550611b649050858561271c565b84817f707197b34e0edb88707154f8a8ea9f3c8d891eb60a28dac25cc79bf23c3aa5c186604051610e4691815260200190565b6001600160a01b0385166000908152600160209081526040808320549051611bd992309260008051602061419b83398151915292909189918991899101613a6b565b6040516020818303038152906040528051906020012090506000611bfd8287612c0b565b9050866001600160a01b0316816001600160a01b031614611c305760405162461bcd60e51b815260040161093490613eb2565b6001600160a01b0387166000908152600160205260408120805491611c54836140bd565b91905055506000611c6486611227565b336000908152600d602090815260408083208484528252808320888452909152902060028101549192509060ff16611cae5760405162461bcd60e51b815260040161093490613d6d565b4281600301541015611cd25760405162461bcd60e51b815260040161093490613ef7565b6000611cdd876117a9565b336000908152600d6020908152604080832087845282528083208a84529091529020600101549091508114611d245760405162461bcd60e51b815260040161093490613e3a565b611d338883600001548861125f565b815460028301805460ff19169055600080845560038085019190915554604051637921219560e11b81526001600160a01b039091169063f242432a90611d8390309033908c908790600401613b45565b600060405180830381600087803b158015611d9d57600080fd5b505af1158015611db1573d6000803e3d6000fd5b5050505088336001600160a01b0316887fcb984d497ad4fbb1ddd6d3cf81c5c4463b046940a5bd559637156baee4ef648484604051611df291815260200190565b60405180910390a45050505050505050505050565b6000918252602082815260408084206001600160a01b0393909316845291905290205460ff1690565b816000611e3c82611227565b600083815260046020526040902054909150611e6a5760405162461bcd60e51b815260040161093490613ce9565b611e8260008051602061415b83398151915233611e07565b611e9e5760405162461bcd60e51b815260040161093490613c9f565b6000611ea985611227565b600086815260046020526040902054909150841115611eda5760405162461bcd60e51b815260040161093490613f38565b336000908152600c6020908152604080832084845282529182902060028101805460ff191690558681554260038201559151868152879132916000805160206141fb833981519152910160405180910390a3505050505050565b611f3f600033611e07565b611f5b5760405162461bcd60e51b815260040161093490613d36565b816000611f6782611227565b600083815260046020526040902054909150611f955760405162461bcd60e51b815260040161093490613ce9565b600084815260046020526040902054611faf90849061405f565b60009485526004602052604090942093909355505050565b611fdf60008051602061415b83398151915233611e07565b611ffb5760405162461bcd60e51b815260040161093490613c9f565b600061200684611227565b336000908152600d602090815260408083208484528252808320868452909152902060028101549192509060ff166120505760405162461bcd60e51b815260040161093490613d6d565b42816003015410156120745760405162461bcd60e51b815260040161093490613ef7565b600061207f856117a9565b336000908152600d60209081526040808320878452825280832088845290915290206001015490915081146120c65760405162461bcd60e51b815260040161093490613e3a565b6120d58683600001548661125f565b815460028301805460ff19169055600080845560038085019190915554604051637921219560e11b81526001600160a01b039091169063f242432a9061212590309033908a908790600401613b45565b600060405180830381600087803b15801561213f57600080fd5b505af1158015612153573d6000803e3d6000fd5b5050505086336001600160a01b0316867fcb984d497ad4fbb1ddd6d3cf81c5c4463b046940a5bd559637156baee4ef64848460405161219491815260200190565b60405180910390a450505050505050565b6121b0600033611e07565b6121cc5760405162461bcd60e51b815260040161093490613d36565b60006121d7846117a9565b6000818152600860205260409020549091508211156122085760405162461bcd60e51b815260040161093490613bb0565b6000818152600860205260408120805484929061222690849061405f565b909155506122369050838361271c565b82817f707197b34e0edb88707154f8a8ea9f3c8d891eb60a28dac25cc79bf23c3aa5c18460405161226991815260200190565b60405180910390a350505050565b6001600160a01b03841660009081526001602090815260408083205490516001600160601b03193060601b169281019290925260008051602061419b83398151915260348301526054820152607481018490526094810183905260b40160405160208183030381529060405280519060200120905060006122f88286612c0b565b9050856001600160a01b0316816001600160a01b03161461232b5760405162461bcd60e51b815260040161093490613eb2565b6001600160a01b038616600090815260016020526040812080549161234f836140bd565b9190505550600061235f85611227565b6000868152600460205260409020549091508411156123905760405162461bcd60e51b815260040161093490613f38565b6001600160a01b0387166000908152600c6020908152604080832084845282529182902060028101805460ff191690558681554260038201559151868152879132916000805160206141fb8339815191529101610e46565b60008281526020819052604090206001015461240481336129b9565b6110ed8383612aa1565b61242660008051602061417b833981519152836110c7565b6000818152600a6020526040902061243e9083612c32565b506001600160a01b0382166000908152600b602052604090206110ed90826129ad565b81600061246d82611227565b60008381526004602052604090205490915061249b5760405162461bcd60e51b815260040161093490613ce9565b6001600160a01b03861660009081526001602090815260408083205490516124db92309260008051602061419b8339815191529290918a918a9101613a23565b60405160208183030381529060405280519060200120905060006124ff8288612c0b565b9050876001600160a01b0316816001600160a01b0316146125325760405162461bcd60e51b815260040161093490613eb2565b6001600160a01b0388166000908152600160205260408120805491612556836140bd565b9190505550600061256687611227565b336000908152600c60209081526040808320848452909152902060028101549192509060ff166125a85760405162461bcd60e51b815260040161093490613d6d565b42816003015410156125cc5760405162461bcd60e51b815260040161093490613ef7565b60006125d7886117a9565b336000908152600c6020908152604080832087845290915290206001015490915081146126165760405162461bcd60e51b815260040161093490613e3a565b815460008a8152600460205260408120805490919061263690849061405f565b909155505081546002808401805460ff19169055600080855560038501555460405163a9059cbb60e01b8152336004820152602481018390526001600160a01b039091169063a9059cbb90604401602060405180830381600087803b15801561269e57600080fd5b505af11580156126b2573d6000803e3d6000fd5b505050506040513d601f19601f820116820180604052508101906126d69190613646565b506040518181528a9033907fbf193164f272ee45a28c1ffe48ee55c3da3a1fc02cedf1c8c8549118b2dc2ecf9060200160405180910390a3505050505050505050505050565b612727600033611e07565b6127435760405162461bcd60e51b815260040161093490613d36565b60008281526004602052604090205461275d908290614014565b6000928352600460205260409092209190915550565b60606000612782836002614040565b61278d906002614014565b6001600160401b038111156127a4576127a4614144565b6040519080825280601f01601f1916602001820160405280156127ce576020820181803683370190505b509050600360fc1b816000815181106127e9576127e961412e565b60200101906001600160f81b031916908160001a905350600f60fb1b816001815181106128185761281861412e565b60200101906001600160f81b031916908160001a905350600061283c846002614040565b612847906001614014565b90505b60018111156128bf576f181899199a1a9b1b9c1cb0b131b232b360811b85600f166010811061287b5761287b61412e565b1a60f81b8282815181106128915761289161412e565b60200101906001600160f81b031916908160001a90535060049490941c936128b8816140a6565b905061284a565b50831561290e5760405162461bcd60e51b815260206004820181905260248201527f537472696e67733a20686578206c656e67746820696e73756666696369656e746044820152606401610934565b9392505050565b60006001600160e01b03198216630271189760e51b14806108d457506108d482612c47565b6000806129478484612c7c565b905061296160008051602061417b83398151915282611e07565b61290e5760405162461bcd60e51b815260206004820152601a60248201527f5369676e65722073686f756c64206265204d6f62696c697a65720000000000006044820152606401610934565b600061290e8383612ca0565b6129c38282611e07565b611208576129db816001600160a01b03166014612773565b6129e6836020612773565b6040516020016129f7929190613ad6565b60408051601f198184030181529082905262461bcd60e51b825261093491600401613b7d565b612a278282611e07565b611208576000828152602081815260408083206001600160a01b03851684529091529020805460ff19166001179055612a5d3390565b6001600160a01b0316816001600160a01b0316837f2f8788117e7eff1d82e926ec794901d17c78024a50270940304540a733656f0d60405160405180910390a45050565b612aab8282611e07565b15611208576000828152602081815260408083206001600160a01b0385168085529252808320805460ff1916905551339285917ff6391f5c32d9c69d2a47ea670b442974b53935d1edc7fd64eb21e047a839171b9190a45050565b606081612b2a5750506040805180820190915260018152600360fc1b602082015290565b8160005b8115612b545780612b3e816140bd565b9150612b4d9050600a8361402c565b9150612b2e565b6000816001600160401b03811115612b6e57612b6e614144565b6040519080825280601f01601f191660200182016040528015612b98576020820181803683370190505b5090505b8415612c0357612bad60018361405f565b9150612bba600a866140d8565b612bc5906030614014565b60f81b818381518110612bda57612bda61412e565b60200101906001600160f81b031916908160001a905350612bfc600a8661402c565b9450612b9c565b949350505050565b600080612c188484612c7c565b905061296160008051602061415b83398151915282611e07565b600061290e836001600160a01b038416612ca0565b60006001600160e01b03198216637965db0b60e01b14806108d457506301ffc9a760e01b6001600160e01b03198316146108d4565b6000806000612c8b8585612cef565b91509150612c9881612d5f565b509392505050565b6000818152600183016020526040812054612ce7575081546001818101845560008481526020808220909301849055845484825282860190935260409020919091556108d4565b5060006108d4565b600080825160411415612d265760208301516040840151606085015160001a612d1a87828585612f15565b94509450505050612d58565b825160401415612d505760208301516040840151612d45868383612ff8565b935093505050612d58565b506000905060025b9250929050565b6000816004811115612d7357612d73614118565b1415612d7c5750565b6001816004811115612d9057612d90614118565b1415612dd95760405162461bcd60e51b815260206004820152601860248201527745434453413a20696e76616c6964207369676e617475726560401b6044820152606401610934565b6002816004811115612ded57612ded614118565b1415612e3b5760405162461bcd60e51b815260206004820152601f60248201527f45434453413a20696e76616c6964207369676e6174757265206c656e677468006044820152606401610934565b6003816004811115612e4f57612e4f614118565b1415612ea85760405162461bcd60e51b815260206004820152602260248201527f45434453413a20696e76616c6964207369676e6174757265202773272076616c604482015261756560f01b6064820152608401610934565b6004816004811115612ebc57612ebc614118565b14156112245760405162461bcd60e51b815260206004820152602260248201527f45434453413a20696e76616c6964207369676e6174757265202776272076616c604482015261756560f01b6064820152608401610934565b6000806fa2a8918ca85bafe22016d0b997e4df60600160ff1b03831115612f425750600090506003612fef565b8460ff16601b14158015612f5a57508460ff16601c14155b15612f6b5750600090506004612fef565b6040805160008082526020820180845289905260ff881692820192909252606081018690526080810185905260019060a0016020604051602081039080840390855afa158015612fbf573d6000803e3d6000fd5b5050604051601f1901519150506001600160a01b038116612fe857600060019250925050612fef565b9150600090505b94509492505050565b6000806001600160ff1b03831660ff84901c601b0161301987828885612f15565b935093505050935093915050565b80356001600160a01b038116811461303e57600080fd5b919050565b600082601f83011261305457600080fd5b813560206001600160401b0382111561306f5761306f614144565b8160051b61307e828201613fe4565b83815282810190868401838801850189101561309957600080fd5b600093505b858410156130bc57803583526001939093019291840191840161309e565b50979650505050505050565b600082601f8301126130d957600080fd5b81356001600160401b038111156130f2576130f2614144565b613105601f8201601f1916602001613fe4565b81815284602083860101111561311a57600080fd5b816020850160208301376000918101602001919091529392505050565b60006020828403121561314957600080fd5b61290e82613027565b600080600080600060a0868803121561316a57600080fd5b61317386613027565b945061318160208701613027565b935060408601356001600160401b038082111561319d57600080fd5b6131a989838a01613043565b945060608801359150808211156131bf57600080fd5b6131cb89838a01613043565b935060808801359150808211156131e157600080fd5b506131ee888289016130c8565b9150509295509295909350565b600080600080600060a0868803121561321357600080fd5b61321c86613027565b945061322a60208701613027565b9350604086013592506060860135915060808601356001600160401b0381111561325357600080fd5b6131ee888289016130c8565b6000806040838503121561327257600080fd5b61327b83613027565b946020939093013593505050565b60008060006060848603121561329e57600080fd5b6132a784613027565b95602085013595506040909401359392505050565b600080600080600060a086880312156132d457600080fd5b6132dd86613027565b945060208601356001600160401b03808211156132f957600080fd5b61330589838a016130c8565b9550604088013591508082111561331b57600080fd5b50613328888289016130c8565b9598949750949560608101359550608001359392505050565b60008060008060008060c0878903121561335a57600080fd5b61336387613027565b955060208701356001600160401b038082111561337f57600080fd5b61338b8a838b016130c8565b965060408901359150808211156133a157600080fd5b506133ae89828a016130c8565b945050606087013592506080870135915060a087013590509295509295509295565b600080600080608085870312156133e657600080fd5b6133ef85613027565b935060208501356001600160401b038082111561340b57600080fd5b613417888389016130c8565b945060408701359350606087013591508082111561343457600080fd5b50613441878288016130c8565b91505092959194509250565b600080600080600060a0868803121561346557600080fd5b61346e86613027565b945060208601356001600160401b038082111561348a57600080fd5b61349689838a016130c8565b95506040880135945060608801359150808211156134b357600080fd5b506134c0888289016130c8565b95989497509295608001359392505050565b600080600080608085870312156134e857600080fd5b6134f185613027565b935060208501356001600160401b0381111561350c57600080fd5b613518878288016130c8565b949794965050505060408301359260600135919050565b600080600080600060a0868803121561354757600080fd5b61355086613027565b945060208601356001600160401b0381111561356b57600080fd5b613577888289016130c8565b959895975050505060408401359360608101359360809091013592509050565b600080600080608085870312156135ad57600080fd5b6135b685613027565b966020860135965060408601359560600135945092505050565b600080600080600060a086880312156135e857600080fd5b6135f186613027565b97602087013597506040870135966060810135965060800135945092505050565b60006020828403121561362457600080fd5b81356001600160401b0381111561363a57600080fd5b612c0384828501613043565b60006020828403121561365857600080fd5b8151801515811461290e57600080fd5b60006020828403121561367a57600080fd5b5035919050565b6000806040838503121561369457600080fd5b823591506136a460208401613027565b90509250929050565b600080604083850312156136c057600080fd5b50508035926020909101359150565b6000806000606084860312156136e457600080fd5b505081359360208301359350604090920135919050565b60006020828403121561370d57600080fd5b81356001600160e01b03198116811461290e57600080fd5b60006020828403121561373757600080fd5b81356001600160401b0381111561374d57600080fd5b612c03848285016130c8565b60008060006060848603121561376e57600080fd5b83356001600160401b038082111561378557600080fd5b613791878388016130c8565b945060208601359150808211156137a757600080fd5b6137b387838801613043565b935060408601359150808211156137c957600080fd5b506137d686828701613043565b9150509250925092565b600080600080608085870312156137f657600080fd5b84356001600160401b038082111561380d57600080fd5b613819888389016130c8565b9550602087013591508082111561382f57600080fd5b61383b88838901613043565b9450604087013591508082111561385157600080fd5b5061385e87828801613043565b949793965093946060013593505050565b6000806000806080858703121561388557600080fd5b84356001600160401b038082111561389c57600080fd5b6138a8888389016130c8565b95506020870135945060408701359150808211156138c557600080fd5b6138d188838901613043565b935060608701359150808211156138e757600080fd5b5061344187828801613043565b60008060006060848603121561390957600080fd5b83356001600160401b0381111561391f57600080fd5b61392b868287016130c8565b9660208601359650604090950135949350505050565b6000806040838503121561395457600080fd5b8235915060208301356001600160401b0381111561397157600080fd5b61397d858286016130c8565b9150509250929050565b60008060006060848603121561399c57600080fd5b8335925060208401356001600160401b038111156139b957600080fd5b6139c5868287016130c8565b925050604084013590509250925092565b6001600160601b03198760601b16815285601482015284603482015260008451613a07816054850160208901614076565b9091016054810193909352506074820152609401949350505050565b6001600160601b03198660601b16815284601482015283603482015282605482015260008251613a5a816074850160208701614076565b919091016074019695505050505050565b6001600160601b03198760601b16815285601482015284603482015283605482015260008351613aa2816074850160208801614076565b60749201918201929092526094019695505050505050565b60008251613acc818460208701614076565b9190910192915050565b76020b1b1b2b9b9a1b7b73a3937b61d1030b1b1b7bab73a1604d1b815260008351613b08816017850160208801614076565b7001034b99036b4b9b9b4b733903937b6329607d1b6017918401918201528351613b39816028840160208801614076565b01602801949350505050565b6001600160a01b0394851681529290931660208301526040820152606081019190915260a06080820181905260009082015260c00190565b6020815260008251806020840152613b9c816040850160208701614076565b601f01601f19169190910160400192915050565b60208082526036908201527f52414841543a20416d6f756e742069732067726561746572207468616e2072656040820152751b585a5b9a5b99c8141c9bda9958dd08109d5919d95d60521b606082015260800190565b6020808252602a908201527f52414841543a2053656e646572206d75737420626520616e20617574686f72696040820152693d32b21039b2b93b32b960b11b606082015260800190565b6020808252602f908201527f52414841543a54696d6520546f204c6976652073686f756c64206265206c657360408201526e73207468616e20323420686f75727360881b606082015260800190565b6020808252602a908201527f52414841543a2053656e646572204d757374206265206120726567697374657260408201526932b2103b32b73237b91760b11b606082015260800190565b6020808252602d908201527f52414841543a204e6f20616e7920746f6b656e2077617320697373756564207460408201526c37903a3434b990373ab6b132b960991b606082015260800190565b6020808252601f908201527f52414841543a2053656e646572206d75737420626520616e2061646d696e2e00604082015260600190565b60208082526023908201527f52414841543a20436c61696d20686173206e6f74206265656e2072656c65617360408201526232b21760e91b606082015260800190565b60208082526027908201527f52414841543a20436c61696d2068617320616c7265616479206265656e2072656040820152663632b0b9b2b21760c91b606082015260800190565b60208082526023908201527f52414841543a20436c61696d206973206f6c646572207468616e20323420686f60408201526275727360e81b606082015260800190565b6020808252601990820152782920a420aa1d1027aa28103234b2103737ba1036b0ba31b41760391b604082015260600190565b60208082526025908201527f52414841543a20436c61696d20686173206e6f74206265656e2063726561746560408201526419081e595d60da1b606082015260800190565b60208082526025908201527f5369676e617475726520646964206e6f74206d6174636865642077697468207360408201526434b3b732b960d91b606082015260800190565b60208082526021908201527f52414841543a20436c61696d2068617320616c726561647920657870697265646040820152601760f91b606082015260800190565b6020808252603c908201527f52414841543a20416d6f756e742072657175657374656420697320677265617460408201527f6572207468616e2062656e65666963696172792062616c616e63652e00000000606082015260800190565b6020808252602f908201527f52414841543a20496e76616c696420696e70757420617272617973206f66205060408201526e1a1bdb9948185b9908105b5bdd5b9d608a1b606082015260800190565b604051601f8201601f191681016001600160401b038111828210171561400c5761400c614144565b604052919050565b60008219821115614027576140276140ec565b500190565b60008261403b5761403b614102565b500490565b600081600019048311821515161561405a5761405a6140ec565b500290565b600082821015614071576140716140ec565b500390565b60005b83811015614091578181015183820152602001614079565b838111156140a0576000848401525b50505050565b6000816140b5576140b56140ec565b506000190190565b60006000198214156140d1576140d16140ec565b5060010190565b6000826140e7576140e7614102565b500690565b634e487b7160e01b600052601160045260246000fd5b634e487b7160e01b600052601260045260246000fd5b634e487b7160e01b600052602160045260246000fd5b634e487b7160e01b600052603260045260246000fd5b634e487b7160e01b600052604160045260246000fdfe0aaf57387812c7f832412470a57567b5648a930069be49aa9c98d04f88520d34be9e90431f28bd12a87a51b26b014cab620a8a4819bf73d87369ccbe6800a76c8ff5d84bbad5f252f2ee1916646e221e55645205d2f803ebe6a7d6ba8fa4185dcaa7f6290f33308266ee2988386694ac9bc3612b5df272e3502129925a64f997043620c1e1c33ecf60d9dadc62571b96554338b68ef3636e715e52a286bea92e987d620f307ff6b94d58743cb7a7509f24071586a77759b77c2d4e29f75a2f9aa2646970667358221220e2d09efcee3a07516eea4bd5d16b28a93d0f3d197a591f85881c12b226afc64564736f6c63430008070033caa7f6290f33308266ee2988386694ac9bc3612b5df272e3502129925a64f997",
  "immutableReferences": {},
  "source": "//SPDX-License-Identifier: UNLICENSED\r\n\r\npragma solidity 0.8.7;\r\nimport './RahatERC20.sol';\r\nimport './RahatERC1155.sol';\r\nimport '@openzeppelin/contracts/token/ERC1155/utils/ERC1155Holder.sol';\r\nimport '@openzeppelin/contracts/utils/structs/EnumerableSet.sol';\r\nimport '@openzeppelin/contracts/utils/cryptography/ECDSA.sol';\r\n\r\ncontract Rahat is AccessControl,ERC1155Holder {\r\n    using Strings for uint256;\r\n    using EnumerableSet for EnumerableSet.Bytes32Set;\r\n    using EnumerableSet for EnumerableSet.AddressSet;\r\n    using ECDSA for bytes32;\r\n\r\n\t//***** Events *********//\r\n\tevent Claimed(address indexed vendor, uint256 indexed phone, uint256 amount);\r\n\tevent ClaimApproved(address indexed vendor, uint256 indexed phone, uint256 amount);\r\n\tevent IssuedERC20(bytes32 indexed projectId, uint256 indexed phone, uint256 amount);\r\n\tevent IssuedERC1155(bytes32 indexed projectId, uint256 indexed phone, uint256 indexed tokenId, uint256 amount);\r\n\tevent ClaimAcquired(address indexed vendor, uint256 indexed beneficiary,uint256 amount);\r\n\tevent ClaimAcquired(uint256 indexed tokenId,address indexed vendor, uint256 indexed beneficiary,uint256 amount);\r\n\tevent InvalidSignature(bytes signature,bytes32 digest, address expectedSigner,address recoveredSigner);\r\n\r\n\t//event BalanceAdjusted(uint256 indexed phone, uint256 amount, string reason);\r\n\r\n\t//***** Constant Variables (Roles) *********//\r\n\tbytes32 public constant SERVER_ROLE = keccak256('SERVER');\r\n\tbytes32 public constant VENDOR_ROLE = keccak256('VENDOR');\r\n\tbytes32 public constant MANAGER_ROLE = keccak256('MANAGER');\r\n\tbytes32 public constant MOBILIZER_ROLE = keccak256('MOBILIZER');\r\n\tbytes32 public constant ISSUE_TOKEN = keccak256(\"issueToken\");\r\n\tbytes32 public constant CREATE_CLAIM = keccak256(\"createClaim\");\r\n\tbytes32 public constant GET_TOKENS_FROM_CLAIM = keccak256(\"getTokensFromClaim\");\r\n\r\n\r\n\r\n    mapping(address => uint) public nonces; //delegated users nonces\r\n\r\n\r\n\t//***** Variables (State) *********//\r\n\t//AidToke public tokenContract;\r\n    RahatERC20 public erc20;\r\n    RahatERC1155 public erc1155;\r\n\t/// @notice track balances of each beneficiary phone\r\n\tmapping(uint256 => uint256) public erc20Balance;\r\n\tmapping(uint256 =>mapping(uint256 => uint256)) public erc1155Balance;\r\n\r\n\r\n\t/// @notice track projectBalances\r\n\t//bytes32[] public projectId;\r\n\tEnumerableSet.Bytes32Set private projectId;\r\n\tmapping(bytes32 => uint256) remainingProjectErc20Balances;\r\n\tmapping(bytes32 =>mapping(uint256 => uint256)) remainingProjectErc1155Balances;\r\n\tmapping(bytes32 => EnumerableSet.AddressSet) projectMobilizers;\r\n  mapping(address => EnumerableSet.Bytes32Set) mobilizerProjects;\r\n\r\n\r\n\r\n\tstruct claim {\r\n\t\tuint256 amount;\r\n\t\tbytes32 otpHash;\r\n\t\tbool isReleased;\r\n\t\tuint256 date;\r\n\t}\r\n\t/// @dev vendorAddress => phone => claim\r\n\tmapping(address => mapping(bytes32 => claim)) public recentERC20Claims;\r\n\tmapping(address => mapping(bytes32 => mapping(uint256 => claim))) public recentERC1155Claims;\r\n\r\n\t//***** Constructor *********//\r\n\tconstructor(RahatERC20 _erc20, RahatERC1155 _erc1155, address _admin) {\r\n\t\t_setupRole(DEFAULT_ADMIN_ROLE, tx.origin);\r\n\t\t_setupRole(DEFAULT_ADMIN_ROLE, _admin);\r\n\t\t_setRoleAdmin(SERVER_ROLE, DEFAULT_ADMIN_ROLE);\r\n\t\t_setRoleAdmin(VENDOR_ROLE, DEFAULT_ADMIN_ROLE);\r\n\t\tgrantRole(SERVER_ROLE, msg.sender);\r\n\t\terc20 = _erc20;\r\n\t\terc1155 = _erc1155;\r\n\t}\r\n    \r\n    function supportsInterface(bytes4 interfaceId) public view virtual override(AccessControl,ERC1155Receiver) returns (bool) {\r\n    return super.supportsInterface(interfaceId);\r\n}\r\n\r\n\r\n\t//***** Modifiers *********//\r\n\tmodifier OnlyServer() {\r\n\t\trequire(hasRole(SERVER_ROLE, msg.sender), 'RAHAT: Sender must be an authorized server');\r\n\t\t_;\r\n\t}\r\n\tmodifier OnlyAdmin {\r\n\t\trequire(hasRole(DEFAULT_ADMIN_ROLE, msg.sender), 'RAHAT: Sender must be an admin.');\r\n\t\t_;\r\n\t}\r\n\tmodifier IsBeneficiary(uint256 _phone) {\r\n\t    bytes32 _benId = findHash(_phone);\r\n\t\trequire(erc20Balance[_phone] != 0, 'RAHAT: No any token was issued to this number');\r\n\t\t_;\r\n\t}\r\n\tmodifier OnlyVendor {\r\n\t\trequire(hasRole(VENDOR_ROLE, msg.sender), 'RAHAT: Sender Must be a registered vendor.');\r\n\t\t_;\r\n\t}\r\n\tmodifier OnlyAdminOrMobilizer {\r\n\t    require((hasRole(DEFAULT_ADMIN_ROLE, msg.sender) || hasRole(MOBILIZER_ROLE, msg.sender)), 'RAHAT: Sender Must be a registered Admin Or Mobilizer.');\r\n      _;\r\n\t}\r\n\r\n\t//***** Methods *********//\r\n\t//Access Control Management\r\n\t/// @notice add admin of the this contract\r\n\t/// @param _account address of the new admin\r\n\tfunction addAdmin(address _account) public {\r\n\t\tgrantRole(DEFAULT_ADMIN_ROLE, _account);\r\n\t}\r\n\r\n\t/// @notice add server account for this contract\r\n\t/// @param _account address of the new server account\r\n\tfunction addServer(address _account) public {\r\n\t\tgrantRole(SERVER_ROLE, _account);\r\n\t}\r\n\r\n\t/// @notice add vendors\r\n\t/// @param _account address of the new vendor\r\n\tfunction addVendor(address _account) public {\r\n\t\tgrantRole(VENDOR_ROLE, _account);\r\n\t}\r\n\r\n    \t/// @notice add vendors\r\n\t/// @param _account address of the new vendor\r\n\tfunction addMobilizer(address _account,bytes32 _projectId) public {\r\n\t\tgrantRole(MOBILIZER_ROLE, _account);\r\n\t\tprojectMobilizers[_projectId].add(_account);\r\n\t\tmobilizerProjects[_account].add(_projectId);\r\n\t}\r\n\r\n\tfunction suspendMobilizer() public {\r\n\r\n\t}\r\n\tfunction suspendVendor() public {\r\n\t\t\r\n\t}\r\n\t//Beneficiary Management\r\n\t/// @notice suspend the benficiary by deducting all the balance beneficiary owns\r\n\t/// @param _phone phone number of the Beneficiary\r\n\t/// @param _projectId projectId of the beneficiary\r\n\tfunction suspendBeneficiary(uint256 _phone , bytes32 _projectId) public OnlyServer IsBeneficiary(_phone) {\r\n\t  //  bytes32 _benId = findHash(_phone);\r\n\r\n\t\tuint256 _balance = erc20Balance[_phone];\r\n\t\tremainingProjectErc20Balances[_projectId] += _balance;\r\n\t\tadjustTokenDeduct(_phone, _balance);\r\n\t}\r\n\r\n\t/// @notice adds the token from beneficiary\r\n\tfunction adjustTokenAdd(uint256 _phone, uint256 _amount) public OnlyAdmin {\r\n\t   // bytes32 _benId = findHash(_phone);\r\n\t\terc20Balance[_phone] = erc20Balance[_phone] + _amount;\r\n\t\t//emit BalanceAdjusted(_phone, _amount, _reason);\r\n\t}\r\n\r\n\t/// @notice deducts the token from beneficiary\r\n\tfunction adjustTokenDeduct(uint256 _phone, uint256 _amount) public OnlyAdmin IsBeneficiary(_phone) {\r\n\t    //bytes32 _benId = findHash(_phone);\r\n\t\terc20Balance[_phone] = erc20Balance[_phone] - _amount;\r\n\t\t//emit BalanceAdjusted(_phone, _amount, _reason);\r\n\t}\r\n\t\r\n\t\r\n\t\r\n\t/// @notice adds the token from beneficiary\r\n\tfunction adjustTokenAdd(uint256 _phone, uint256 _amount,uint256 _tokenId) public OnlyAdmin {\r\n\t   // bytes32 _benId = findHash(_phone);\r\n\t\terc1155Balance[_phone][_tokenId] += _amount;\r\n\t\t//emit BalanceAdjusted(_phone, _amount, _reason);\r\n\t}\r\n\r\n\t/// @notice deducts the token from beneficiary\r\n\tfunction adjustTokenDeduct(uint256 _phone, uint256 _amount,uint256 _tokenId) public OnlyAdmin IsBeneficiary(_phone) {\r\n\t  //  bytes32 _benId = findHash(_phone);\r\n\t\terc1155Balance[_phone][_tokenId] -= _amount;\r\n\t\t//emit BalanceAdjusted(_phone, _amount, _reason);\r\n\t}\r\n\r\n\t/// @notice creates a project.\r\n\t/// @notice called by rahatdmin contract\r\n\t/// @param _projectId Id of the project to assign budget\r\n\t/// @param _projectCapital amount of budget to be assigned to project\r\n\tfunction addProject(bytes32 _projectId, uint256 _projectCapital) external {\r\n\t\tprojectId.add(_projectId);\r\n\t\tremainingProjectErc20Balances[_projectId] = _projectCapital;\r\n\t}\r\n\r\n\t/// @notice update a project balance.\r\n\t/// @notice called by rahatdmin contract\r\n\t/// @param _projectId Id of the project to assign budget\r\n\t/// @param _projectCapital amount of budget to be added to project\r\n\tfunction updateProjectBudget(bytes32 _projectId, uint256 _projectCapital) external {\r\n\t\tremainingProjectErc20Balances[_projectId] += _projectCapital;\r\n\t}\r\n\t\r\n\t/// @notice update a project balance.\r\n\t/// @notice called by rahatdmin contract\r\n\t/// @param _projectId Id of the project to assign budget\r\n\t/// @param _projectCapital amount of budget to be added to project\r\n\t/// @param tokenId ERC1155 token id\r\n\tfunction updateProjectBudget(bytes32 _projectId, uint256 _projectCapital,uint256 tokenId) external {\r\n\t\tremainingProjectErc1155Balances[_projectId][tokenId] += _projectCapital;\r\n\t}\r\n\r\n\t/// @notice get the current balance of project\r\n\tfunction getProjectBalance(bytes32 _projectId) external view returns (uint256 _balance) {\r\n\t\treturn remainingProjectErc20Balances[_projectId];\r\n\t}\r\n\t\r\n\t\t/// @notice get the current balance of project\r\n\tfunction getProjectBalance(bytes32 _projectId, uint256 tokenId) external view returns (uint256 _balance) {\r\n\t\treturn remainingProjectErc1155Balances[_projectId][tokenId];\r\n\t}\r\n\t\r\n\tfunction verifyVendor(bytes32 _hash, bytes memory _signature) internal view returns(address){\r\n\t    address _signer = _hash.recover(_signature);\r\n\t    require(hasRole(VENDOR_ROLE,_signer),\"Signer should be Mobilizer\");\r\n\t    return _signer;\r\n\t}\r\n\t\r\n\tfunction verifyMobilizer(bytes32 _hash, bytes memory _signature) internal view returns (address){\r\n\t     address _signer = _hash.recover(_signature);\r\n\t    require(hasRole(MOBILIZER_ROLE,_signer),\"Signer should be Mobilizer\");\r\n\t    return _signer;\r\n\r\n\t}\r\n\r\n\t/// @notice Issue tokens to beneficiary\r\n\t/// @param _projectId Id of the project beneficiary is involved in\r\n\t/// @param _phone phone number of the beneficiary\r\n\t/// @param _amount Amount of token to be assigned to beneficiary\r\n\tfunction issueERC20ToBeneficiary(\r\n\t\tstring memory _projectId,\r\n\t\tuint256 _phone,\r\n\t\tuint256 _amount\r\n\t) public OnlyAdmin {\r\n\t\tbytes32 _id = findHash(_projectId);\r\n\t\trequire(remainingProjectErc20Balances[_id] >= _amount, 'RAHAT: Amount is greater than remaining Project Budget');\r\n\t\tremainingProjectErc20Balances[_id] -= _amount;\r\n\t\tadjustTokenAdd(_phone, _amount);\r\n\r\n\t\temit IssuedERC20(_id, _phone, _amount);\r\n\t}\r\n\t\r\n\t/// @notice Issue ERC20 tokens to beneficiary\r\n\t/// @param _projectId Id of the project beneficiary is involved in\r\n\t/// @param _phone phone number of the beneficiary\r\n\t/// @param _amount Amount of token to be assigned to beneficiary\r\n\t/// @param _tokenId ERC1155 TokenId\r\n\tfunction issueERC1155ToBeneficiary(\r\n\t\tstring memory _projectId,\r\n\t\tuint256 _phone,\r\n\t\tuint256[] memory _amount,\r\n\t\tuint256[] memory _tokenId\r\n\t) public OnlyAdmin {\r\n\t\tbytes32 _id = findHash(_projectId);\r\n\t\trequire(_amount.length == _tokenId.length, 'RAHAT: Invalid input arrays of Phone and Amount');\r\n\t\tuint256 i;\r\n\t\tfor (i = 0; i < _tokenId.length; i++) {\r\n\t\t  \trequire(remainingProjectErc1155Balances[_id][_tokenId[i]] >= _amount[i], 'RAHAT: Amount is greater than remaining Project Budget');\r\n\t\t    remainingProjectErc1155Balances[_id][_tokenId[i]] -= _amount[i];\r\n\t\t    adjustTokenAdd(_phone, _amount[i],_tokenId[i]);\r\n\t\t    emit IssuedERC1155(_id, _phone, _tokenId[i],_amount[i]);\r\n\t\t}\r\n\t\r\n\t\t\r\n\t}\r\n\t\r\n\t/// @notice Issue ERC20 to beneficiary\r\n\t/// @param _signer Address of the mobilizer/caller who is issuing tokens\r\n\t/// @param _signature Signature generated by signing {to,functionSig,nonce,projectId,phone,amount} through mobilizer/caller wallet\r\n\t/// @param _projectId Id of the project beneficiary is involved in\r\n\t/// @param _phone phone number of the beneficiary\r\n\t/// @param _amount Amount of token to be assigned to beneficiary\r\n\tfunction delegate_issueERC20ToBeneficiary(\r\n\t    address _signer,\r\n\t    bytes memory _signature,\r\n\t\tstring memory _projectId,\r\n\t\tuint256 _phone,\r\n\t\tuint256 _amount\r\n\t) public {\r\n\t    bytes32 _hash = keccak256(abi.encodePacked(address(this), ISSUE_TOKEN, nonces[_signer], _projectId, _phone,_amount)); //data-hash of toke issuance = {to,functionSig,nonce,projectId,phone,amount}\r\n        address recoveredSigner = verifyMobilizer(_hash,_signature);\r\n        require(recoveredSigner == _signer,'Signature did not matched with signer');\r\n        nonces[_signer]++;\r\n\r\n        \r\n\t\tbytes32 _id = findHash(_projectId);\r\n\t\trequire(remainingProjectErc20Balances[_id] >= _amount, 'RAHAT: Amount is greater than remaining Project Budget');\r\n\t\tremainingProjectErc20Balances[_id] -= _amount;\r\n\t\tadjustTokenAdd(_phone, _amount);\r\n\r\n\t\temit IssuedERC20(_id, _phone, _amount);\r\n\t}\r\n\t\r\n\t\t\r\n\t/// @notice Issue ERC1155 tokens to beneficiary\r\n\t/// @param _signer Address of the mobilizer/caller who is issuing tokens\r\n\t/// @param _signature Signature generated by signing {to,functionSig,nonce,projectId,phone,amount} through mobilizer/caller wallet\r\n\t/// @param _projectId Id of the project beneficiary is involved in\r\n\t/// @param _phone phone number of the beneficiary\r\n\t/// @param _amount Amount of token to be assigned to beneficiary\r\n\t/// @param _tokenId ERC1155 TokenId\r\n\tfunction delegate_issueERC1155ToBeneficiary(\r\n\t    address _signer,\r\n\t    bytes memory _signature,\r\n\t\tstring memory _projectId,\r\n\t\tuint256 _phone,\r\n\t\tuint256 _amount,\r\n\t\tuint256 _tokenId\r\n\t) public {\r\n\t    bytes32 _hash = keccak256(abi.encodePacked(address(this), ISSUE_TOKEN, nonces[_signer], _projectId, _phone,_amount)); //data-hash of toke issuance = {to,functionSig,nonce,projectId,phone,amount}\r\n        address recoveredSigner = verifyMobilizer(_hash,_signature);\r\n        require(recoveredSigner == _signer,'Signature did not matched with signer');\r\n        nonces[_signer]++;\r\n\r\n        \r\n\t\tbytes32 _id = findHash(_projectId);\r\n\t\trequire(remainingProjectErc1155Balances[_id][_tokenId] >= _amount, 'RAHAT: Amount is greater than remaining Project Budget');\r\n\t\tremainingProjectErc1155Balances[_id][_tokenId] -= _amount;\r\n\t\tadjustTokenAdd(_phone, _amount,_tokenId);\r\n\r\n\t\temit IssuedERC1155(_id, _phone,_tokenId, _amount);\r\n\t}\r\n\r\n\t/// @notice Issue tokens to beneficiary in bulk\r\n\t/// @param _projectId Id of the project beneficiary is involved in\r\n\t/// @param _phone array of phone number of the beneficiary\r\n\t/// @param _amount array of Amount of token to be assigned to beneficiary\r\n\tfunction issueBulkERC20(\r\n\t\tstring memory _projectId,\r\n\t\tuint256[] memory _phone,\r\n\t\tuint256[] memory _amount\r\n\t) public OnlyAdmin {\r\n\t\trequire(_phone.length == _amount.length, 'RAHAT: Invalid input arrays of Phone and Amount');\r\n\t\tuint256 i;\r\n\t\tuint256 sum = getArraySum(_amount);\r\n\t\tbytes32 _id = findHash(_projectId);\r\n\r\n\t\trequire(remainingProjectErc20Balances[_id] >= sum, 'RAHAT: Amount is greater than remaining Project Budget');\r\n\r\n\t\tfor (i = 0; i < _phone.length; i++) {\r\n\t\t\tissueERC20ToBeneficiary(_projectId, _phone[i], _amount[i]);\r\n\t\t}\r\n\t}\r\n\t\r\n\t\t/// @notice Issue tokens to beneficiary in bulk\r\n\t/// @param _projectId Id of the project beneficiary is involved in\r\n\t/// @param _phone array of phone number of the beneficiary\r\n\t/// @param _amount array of Amount of token to be assigned to beneficiary\r\n\tfunction issueBulkERC1155(\r\n\t\tstring memory _projectId,\r\n\t\tuint256[] memory _phone,\r\n\t\tuint256[] memory _amount,\r\n\t\tuint256 _tokenId\r\n\t\t\r\n\t) public OnlyAdmin {\r\n\t\trequire(_phone.length == _amount.length, 'RAHAT: Invalid input arrays of Phone and Amount');\r\n\t\tuint256 i;\r\n\t\tuint256 sum = getArraySum(_amount);\r\n\t\tbytes32 _id = findHash(_projectId);\r\n\r\n\t\trequire(remainingProjectErc1155Balances[_id][_tokenId] >= sum, 'RAHAT: Amount is greater than remaining Project Budget');\r\n\r\n\t\tfor (i = 0; i < _phone.length; i++) {\r\n\t\t    uint[] memory  amt = new uint[](1);\r\n\t\t    uint[] memory  tkd = new uint[](1);\r\n\t\t    amt[0] = _amount[i];\r\n\t\t    tkd[0] = _tokenId;\r\n\t\t\tissueERC1155ToBeneficiary(_projectId, _phone[i], amt,tkd);\r\n\t\t}\r\n\t}\r\n\r\n\t/// @notice request a token to beneficiary by vendor\r\n\t/// @param _phone Phone number of beneficiary to whom token is requested\r\n\t/// @param _tokens Number of tokens to request\r\n\tfunction createERC20Claim(uint256 _phone, uint256 _tokens) public IsBeneficiary(_phone) OnlyVendor {\r\n\t    bytes32 _benId = findHash(_phone);\r\n\t\trequire(erc20Balance[_phone] >= _tokens, 'RAHAT: Amount requested is greater than beneficiary balance.');\r\n\t\tclaim storage ac = recentERC20Claims[msg.sender][_benId];\r\n\t\tac.isReleased = false;\r\n\t\tac.amount = _tokens;\r\n\t\tac.date = block.timestamp;\r\n\t\temit Claimed(tx.origin, _phone, _tokens);\r\n\t}\r\n\t\r\n\t///@dev claim tokens from the beneficiary by vendor\r\n\t///@param _phone identity of the beneficiary\r\n\t///@param _amount amaount of ERC1155 tokens to request\r\n\t///@param _tokenId ERC1155 token id\r\n\tfunction createERC1155Claim(uint256 _phone, uint256 _amount, uint256 _tokenId) public OnlyVendor {\r\n\t    bytes32 _benId = findHash(_phone);\r\n\t\trequire(erc1155Balance[_phone][_tokenId] >= _amount, 'RAHAT: Amount requested is greater than beneficiary balance.');\r\n\t\tclaim storage ac = recentERC1155Claims[msg.sender][_benId][_tokenId];\r\n\t\tac.isReleased = false;\r\n\t\tac.amount = _amount;\r\n\t\tac.date = block.timestamp;\r\n\t\temit Claimed(tx.origin, _phone, _amount);\r\n\t}\r\n\t\r\n\t///@dev delegate a createClaim transaction for ERC20\r\n\t///@param _signer address of vendor/caller of createClaim\r\n\t/// @param _signature Signature generated by signing {to,functionSig,nonce,projectId,phone,amount} through vendor/caller wallet\r\n\t/// @param _phone identity of benficiary\r\n\t/// @param _amount amount of token to be claimed\r\n\tfunction delegate_createERC20Claim(address _signer,bytes memory _signature,uint256 _phone, uint256 _amount) public {\r\n\t    bytes32 _hash = keccak256(abi.encodePacked(address(this), CREATE_CLAIM, nonces[_signer], _phone,_amount)); //data-hash of toke issuance = {to,functionSig,nonce,projectId,phone,amount}\r\n        address recoveredSigner = verifyVendor(_hash,_signature);\r\n        require(recoveredSigner == _signer,'Signature did not matched with signer');\r\n        nonces[_signer]++;\r\n\r\n    bytes32 _benId = findHash(_phone);\r\n\t\trequire(erc20Balance[_phone] >= _amount, 'RAHAT: Amount requested is greater than beneficiary balance.');\r\n\t\tclaim storage ac = recentERC20Claims[_signer][_benId];\r\n\t\tac.isReleased = false;\r\n\t\tac.amount = _amount;\r\n\t\tac.date = block.timestamp;\r\n\t\temit Claimed(tx.origin, _phone, _amount);\r\n\t    \r\n\t}\r\n\t\r\n\r\n\t///@dev delegate a createClaim transaction for ERC20\r\n\t///@param _signer address of vendor/caller of createClaim\r\n\t/// @param _signature Signature generated by signing {to,functionSig,nonce,projectId,phone,amount} through vendor/caller wallet\r\n\t/// @param _phone identity of benficiary\r\n\t/// @param _amount amount of token to be claimed\r\n\t/// @param _tokenId ERC1155 tokenId\r\n\tfunction delegate_createERC1155Claim(address _signer,bytes memory _signature,uint256 _phone, uint256 _amount, uint256 _tokenId) public {\r\n\t     bytes32 _hash = keccak256(abi.encodePacked(address(this), CREATE_CLAIM, nonces[_signer], _phone,_amount,_tokenId)); //data-hash of toke issuance = {to,functionSig,nonce,projectId,phone,amount}\r\n        address recoveredSigner = verifyVendor(_hash,_signature);\r\n        require(recoveredSigner == _signer,'Signature did not matched with signer');\r\n        nonces[_signer]++;\r\n\t    \r\n\t     bytes32 _benId = findHash(_phone);\r\n\t\trequire(erc1155Balance[_phone][_tokenId] >= _amount, 'RAHAT: Amount requested is greater than beneficiary balance.');\r\n\t\tclaim storage ac = recentERC1155Claims[_signer][_benId][_tokenId];\r\n\t\tac.isReleased = false;\r\n\t\tac.amount = _amount;\r\n\t\tac.date = block.timestamp;\r\n\t\temit Claimed(tx.origin, _phone, _amount);\r\n\t}\r\n\t\r\n\r\n\r\n\r\n\t/// @notice Approve the requested claim from serverside and set the otp hash\r\n\t/// @param _vendor Address of the vendor who requested the token from beneficiary\r\n\t/// @param _phone Phone number of the beneficiary, to whom token request was sent\r\n\t/// @param _otpHash Hash of OTP sent to beneficiary by server\r\n\t/// @param _timeToLive Validity of OTP in seconds\r\n\tfunction approveERC20Claim(\r\n\t\taddress _vendor,\r\n\t\tuint256 _phone,\r\n\t\tbytes32 _otpHash,\r\n\t\tuint256 _timeToLive\r\n\t) public IsBeneficiary(_phone) OnlyServer {\r\n\t    bytes32 _benId = findHash(_phone);\r\n\t\tclaim storage ac = recentERC20Claims[_vendor][_benId];\r\n\t\trequire(ac.date != 0, 'RAHAT: Claim has not been created yet');\r\n\t\trequire(_timeToLive <= 86400, 'RAHAT:Time To Live should be less than 24 hours');\r\n\t\trequire(block.timestamp <= ac.date + 86400, 'RAHAT: Claim is older than 24 hours');\r\n\t\trequire(!ac.isReleased, 'RAHAT: Claim has already been released.');\r\n\t\tac.otpHash = _otpHash;\r\n\t\tac.isReleased = true;\r\n\t\tac.date = block.timestamp + _timeToLive;\r\n\t\temit ClaimApproved(_vendor, _phone, ac.amount);\r\n\t}\r\n\t\r\n\t/// @notice Approve the requested claim from serverside and set the otp hash\r\n\t/// @param _vendor Address of the vendor who requested the token from beneficiary\r\n\t/// @param _phone Phone number of the beneficiary, to whom token request was sent\r\n\t/// @param _otpHash Hash of OTP sent to beneficiary by server\r\n\t/// @param _timeToLive Validity of OTP in seconds\r\n\t/// @param _tokenId ERC1155 tokenId\r\n\r\n\tfunction approveERC1155Claim(\r\n\t\taddress _vendor,\r\n\t\tuint256 _phone,\r\n\t\tbytes32 _otpHash,\r\n\t\tuint256 _timeToLive,\r\n\t\tuint256 _tokenId\r\n\t) public  OnlyServer {\r\n\t    bytes32 _benId = findHash(_phone);\r\n\t\tclaim storage ac = recentERC1155Claims[_vendor][_benId][_tokenId];\r\n\t\trequire(ac.date != 0, 'RAHAT: Claim has not been created yet');\r\n\t\trequire(_timeToLive <= 86400, 'RAHAT:Time To Live should be less than 24 hours');\r\n\t\trequire(block.timestamp <= ac.date + 86400, 'RAHAT: Claim is older than 24 hours');\r\n\t\trequire(!ac.isReleased, 'RAHAT: Claim has already been released.');\r\n\t\tac.otpHash = _otpHash;\r\n\t\tac.isReleased = true;\r\n\t\tac.date = block.timestamp + _timeToLive;\r\n\t\temit ClaimApproved(_vendor, _phone, ac.amount);\r\n\t}\r\n\r\n\t/// @notice Retrieve tokens that was requested to beneficiary by entering OTP\r\n\t/// @param _phone Phone Number of the beneficiary, to whom token request was sent\r\n\t/// @param _otp OTP sent by the server\r\n\tfunction getERC20FromClaim(uint256 _phone, string memory _otp) public IsBeneficiary(_phone) OnlyVendor {\r\n\t    bytes32 _benId = findHash(_phone);\r\n\t\tclaim storage ac = recentERC20Claims[msg.sender][_benId];\r\n\t\trequire(ac.isReleased, 'RAHAT: Claim has not been released.');\r\n\t\trequire(ac.date >= block.timestamp, 'RAHAT: Claim has already expired.');\r\n\t\tbytes32 otpHash = findHash(_otp);\r\n\t\trequire(recentERC20Claims[msg.sender][_benId].otpHash == otpHash, 'RAHAT: OTP did not match.');\r\n\t\terc20Balance[_phone] -= ac.amount;\r\n\t\tuint256 amt = ac.amount;\r\n\t\tac.isReleased = false;\r\n\t\tac.amount = 0;\r\n\t\tac.date = 0;\r\n\t    erc20.transfer(msg.sender, amt);\r\n\t    emit ClaimAcquired(msg.sender,_phone,amt);\r\n\r\n\t}\r\n\t\r\n\t/// @notice Retrieve tokens that was requested to beneficiary by entering OTP\r\n\t/// @param _phone Phone Number of the beneficiary, to whom token request was sent\r\n\t/// @param _otp OTP sent by the server\r\n\t/// @param _tokenId ERC1155 tokenId\r\n\tfunction getERC1155FromClaim(uint256 _phone, string memory _otp,uint256 _tokenId) public OnlyVendor {\r\n\t    bytes32 _benId = findHash(_phone);\r\n\t\tclaim storage ac = recentERC1155Claims[msg.sender][_benId][_tokenId];\r\n\t\trequire(ac.isReleased, 'RAHAT: Claim has not been released.');\r\n\t\trequire(ac.date >= block.timestamp, 'RAHAT: Claim has already expired.');\r\n\t\tbytes32 otpHash = findHash(_otp);\r\n\t\trequire(recentERC1155Claims[msg.sender][_benId][_tokenId].otpHash == otpHash, 'RAHAT: OTP did not match.');\r\n\t\tadjustTokenDeduct(_phone,ac.amount,_tokenId);\r\n\t\tuint256 amt = ac.amount;\r\n\t\tac.isReleased = false;\r\n\t\tac.amount = 0;\r\n\t\tac.date = 0;\r\n\t\terc1155.safeTransferFrom(address(this),msg.sender,_tokenId, amt,'');\r\n\t\temit ClaimAcquired(_tokenId,msg.sender,_phone,amt);\r\n\t}\r\n\t\r\n\t\r\n\t///@dev delegates getERC20FromClaim for vendors/callers\r\n    ///@param _signer address of vendor/caller of getERC20FromClaim\r\n\t/// @param _signature Signature generated by signing {to,functionSig,nonce,projectId,phone,amount} through vendor/caller wallet\r\n\t/// @param _phone Phone Number of the beneficiary, to whom token request was sent\r\n\t/// @param _otp OTP sent by the server\r\n\tfunction delegate_getERC20FromClaim(address _signer,bytes memory _signature,uint256 _phone, string memory _otp) public IsBeneficiary(_phone) {\r\n\t    \r\n\t    bytes32 _hash = keccak256(abi.encodePacked(address(this), CREATE_CLAIM, nonces[_signer], _phone,_otp)); //data-hash of toke issuance = {to,functionSig,nonce,projectId,phone,amount}\r\n        address recoveredSigner = verifyVendor(_hash,_signature);\r\n        require(recoveredSigner == _signer,'Signature did not matched with signer');\r\n        nonces[_signer]++;\r\n\t    \r\n\t    bytes32 _benId = findHash(_phone);\r\n\t\tclaim storage ac = recentERC20Claims[msg.sender][_benId];\r\n\t\trequire(ac.isReleased, 'RAHAT: Claim has not been released.');\r\n\t\trequire(ac.date >= block.timestamp, 'RAHAT: Claim has already expired.');\r\n\t\tbytes32 otpHash = findHash(_otp);\r\n\t\trequire(recentERC20Claims[msg.sender][_benId].otpHash == otpHash, 'RAHAT: OTP did not match.');\r\n\t\terc20Balance[_phone] -= ac.amount;\r\n\t\tuint256 amt = ac.amount;\r\n\t\tac.isReleased = false;\r\n\t\tac.amount = 0;\r\n\t\tac.date = 0;\r\n\t    erc20.transfer(msg.sender, amt);\r\n\t    emit ClaimAcquired(msg.sender,_phone,amt);\r\n\r\n\t}\r\n\t\r\n\t///@dev delegates getERC20FromClaim for vendors/callers\r\n    ///@param _signer address of vendor/caller of getERC1155FromClaim\r\n\t/// @param _signature Signature generated by signing {to,functionSig,nonce,projectId,phone,amount} through vendor/caller wallet\r\n\t/// @param _phone Phone Number of the beneficiary, to whom token request was sent\r\n\t/// @param _otp OTP sent by the server\r\n\t/// @param _tokenId ERC1155 tokenId\r\n\tfunction delegate_getTokensFromClaim(address _signer,bytes memory _signature,uint256 _phone, string memory _otp,uint256 _tokenId) public {\r\n\t    bytes32 _hash = keccak256(abi.encodePacked(address(this), CREATE_CLAIM, nonces[_signer], _phone,_otp,_tokenId)); //data-hash of toke issuance = {to,functionSig,nonce,projectId,phone,amount}\r\n        address recoveredSigner = verifyVendor(_hash,_signature);\r\n        require(recoveredSigner == _signer,'Signature did not matched with signer');\r\n        nonces[_signer]++;\r\n\t    \r\n\t    bytes32 _benId = findHash(_phone);\r\n\t\tclaim storage ac = recentERC1155Claims[msg.sender][_benId][_tokenId];\r\n\t\trequire(ac.isReleased, 'RAHAT: Claim has not been released.');\r\n\t\trequire(ac.date >= block.timestamp, 'RAHAT: Claim has already expired.');\r\n\t\tbytes32 otpHash = findHash(_otp);\r\n\t\trequire(recentERC1155Claims[msg.sender][_benId][_tokenId].otpHash == otpHash, 'RAHAT: OTP did not match.');\r\n\t\tadjustTokenDeduct(_phone,ac.amount,_tokenId);\r\n\t\tuint256 amt = ac.amount;\r\n\t\tac.isReleased = false;\r\n\t\tac.amount = 0;\r\n\t\tac.date = 0;\r\n\t\terc1155.safeTransferFrom(address(this),msg.sender,_tokenId, amt,'');\r\n\t\temit ClaimAcquired(_tokenId,msg.sender,_phone,amt);\r\n\t}\r\n\r\n\t/// @notice generates the hash of the given string\r\n\t/// @param _data String of which hash is to be generated\r\n\tfunction findHash(string memory _data) public pure returns (bytes32) {\r\n\t\treturn keccak256(abi.encodePacked(_data));\r\n\t}\r\n\t\r\n\t/// @notice generates the hash of the given string\r\n\t/// @param _data String of which hash is to be generated\r\n\tfunction findHash(uint256 _data) public pure returns (bytes32) {\r\n\t    \r\n\t\treturn keccak256(abi.encodePacked(_data.toString()));\r\n\t}\r\n\r\n\t/// @notice Generates the sum of all the integers in array\r\n\t/// @param _array Array of uint\r\n\tfunction getArraySum(uint256[] memory _array) public pure returns (uint256 sum) {\r\n\t\tsum = 0;\r\n\t\tfor (uint256 i = 0; i < _array.length; i++) {\r\n\t\t\tsum += _array[i];\r\n\t\t}\r\n\t\treturn sum;\r\n\t}\r\n}\r\n",
  "sourcePath": "D:\\projects\\Rahat\\rahat-contracts\\contracts\\Rahat.sol",
  "compiler": {
    "name": "solc",
    "version": "0.8.7+commit.e28d00a7.Emscripten.clang"
  },
  "schemaVersion": "3.4.3",
  "updatedAt": "2021-11-18T10:07:55.041Z",
  "devdoc": {
    "kind": "dev",
    "methods": {
      "addAdmin(address)": {
        "params": {
          "_account": "address of the new admin"
        }
      },
      "addMobilizer(address,bytes32)": {
        "params": {
          "_account": "address of the new vendor"
        }
      },
      "addProject(bytes32,uint256)": {
        "params": {
          "_projectCapital": "amount of budget to be assigned to project",
          "_projectId": "Id of the project to assign budget"
        }
      },
      "addServer(address)": {
        "params": {
          "_account": "address of the new server account"
        }
      },
      "addVendor(address)": {
        "params": {
          "_account": "address of the new vendor"
        }
      },
      "approveERC1155Claim(address,uint256,bytes32,uint256,uint256)": {
        "params": {
          "_otpHash": "Hash of OTP sent to beneficiary by server",
          "_phone": "Phone number of the beneficiary, to whom token request was sent",
          "_timeToLive": "Validity of OTP in seconds",
          "_tokenId": "ERC1155 tokenId",
          "_vendor": "Address of the vendor who requested the token from beneficiary"
        }
      },
      "approveERC20Claim(address,uint256,bytes32,uint256)": {
        "params": {
          "_otpHash": "Hash of OTP sent to beneficiary by server",
          "_phone": "Phone number of the beneficiary, to whom token request was sent",
          "_timeToLive": "Validity of OTP in seconds",
          "_vendor": "Address of the vendor who requested the token from beneficiary"
        }
      },
      "createERC1155Claim(uint256,uint256,uint256)": {
        "details": "claim tokens from the beneficiary by vendor",
        "params": {
          "_amount": "amaount of ERC1155 tokens to request",
          "_phone": "identity of the beneficiary",
          "_tokenId": "ERC1155 token id"
        }
      },
      "createERC20Claim(uint256,uint256)": {
        "params": {
          "_phone": "Phone number of beneficiary to whom token is requested",
          "_tokens": "Number of tokens to request"
        }
      },
      "delegate_createERC1155Claim(address,bytes,uint256,uint256,uint256)": {
        "details": "delegate a createClaim transaction for ERC20",
        "params": {
          "_amount": "amount of token to be claimed",
          "_phone": "identity of benficiary",
          "_signature": "Signature generated by signing {to,functionSig,nonce,projectId,phone,amount} through vendor/caller wallet",
          "_signer": "address of vendor/caller of createClaim",
          "_tokenId": "ERC1155 tokenId"
        }
      },
      "delegate_createERC20Claim(address,bytes,uint256,uint256)": {
        "details": "delegate a createClaim transaction for ERC20",
        "params": {
          "_amount": "amount of token to be claimed",
          "_phone": "identity of benficiary",
          "_signature": "Signature generated by signing {to,functionSig,nonce,projectId,phone,amount} through vendor/caller wallet",
          "_signer": "address of vendor/caller of createClaim"
        }
      },
      "delegate_getERC20FromClaim(address,bytes,uint256,string)": {
        "details": "delegates getERC20FromClaim for vendors/callers",
        "params": {
          "_otp": "OTP sent by the server",
          "_phone": "Phone Number of the beneficiary, to whom token request was sent",
          "_signature": "Signature generated by signing {to,functionSig,nonce,projectId,phone,amount} through vendor/caller wallet",
          "_signer": "address of vendor/caller of getERC20FromClaim"
        }
      },
      "delegate_getTokensFromClaim(address,bytes,uint256,string,uint256)": {
        "details": "delegates getERC20FromClaim for vendors/callers",
        "params": {
          "_otp": "OTP sent by the server",
          "_phone": "Phone Number of the beneficiary, to whom token request was sent",
          "_signature": "Signature generated by signing {to,functionSig,nonce,projectId,phone,amount} through vendor/caller wallet",
          "_signer": "address of vendor/caller of getERC1155FromClaim",
          "_tokenId": "ERC1155 tokenId"
        }
      },
      "delegate_issueERC1155ToBeneficiary(address,bytes,string,uint256,uint256,uint256)": {
        "params": {
          "_amount": "Amount of token to be assigned to beneficiary",
          "_phone": "phone number of the beneficiary",
          "_projectId": "Id of the project beneficiary is involved in",
          "_signature": "Signature generated by signing {to,functionSig,nonce,projectId,phone,amount} through mobilizer/caller wallet",
          "_signer": "Address of the mobilizer/caller who is issuing tokens",
          "_tokenId": "ERC1155 TokenId"
        }
      },
      "delegate_issueERC20ToBeneficiary(address,bytes,string,uint256,uint256)": {
        "params": {
          "_amount": "Amount of token to be assigned to beneficiary",
          "_phone": "phone number of the beneficiary",
          "_projectId": "Id of the project beneficiary is involved in",
          "_signature": "Signature generated by signing {to,functionSig,nonce,projectId,phone,amount} through mobilizer/caller wallet",
          "_signer": "Address of the mobilizer/caller who is issuing tokens"
        }
      },
      "findHash(string)": {
        "params": {
          "_data": "String of which hash is to be generated"
        }
      },
      "findHash(uint256)": {
        "params": {
          "_data": "String of which hash is to be generated"
        }
      },
      "getArraySum(uint256[])": {
        "params": {
          "_array": "Array of uint"
        }
      },
      "getERC1155FromClaim(uint256,string,uint256)": {
        "params": {
          "_otp": "OTP sent by the server",
          "_phone": "Phone Number of the beneficiary, to whom token request was sent",
          "_tokenId": "ERC1155 tokenId"
        }
      },
      "getERC20FromClaim(uint256,string)": {
        "params": {
          "_otp": "OTP sent by the server",
          "_phone": "Phone Number of the beneficiary, to whom token request was sent"
        }
      },
      "getRoleAdmin(bytes32)": {
        "details": "Returns the admin role that controls `role`. See {grantRole} and {revokeRole}. To change a role's admin, use {_setRoleAdmin}."
      },
      "grantRole(bytes32,address)": {
        "details": "Grants `role` to `account`. If `account` had not been already granted `role`, emits a {RoleGranted} event. Requirements: - the caller must have ``role``'s admin role."
      },
      "hasRole(bytes32,address)": {
        "details": "Returns `true` if `account` has been granted `role`."
      },
      "issueBulkERC1155(string,uint256[],uint256[],uint256)": {
        "params": {
          "_amount": "array of Amount of token to be assigned to beneficiary",
          "_phone": "array of phone number of the beneficiary",
          "_projectId": "Id of the project beneficiary is involved in"
        }
      },
      "issueBulkERC20(string,uint256[],uint256[])": {
        "params": {
          "_amount": "array of Amount of token to be assigned to beneficiary",
          "_phone": "array of phone number of the beneficiary",
          "_projectId": "Id of the project beneficiary is involved in"
        }
      },
      "issueERC1155ToBeneficiary(string,uint256,uint256[],uint256[])": {
        "params": {
          "_amount": "Amount of token to be assigned to beneficiary",
          "_phone": "phone number of the beneficiary",
          "_projectId": "Id of the project beneficiary is involved in",
          "_tokenId": "ERC1155 TokenId"
        }
      },
      "issueERC20ToBeneficiary(string,uint256,uint256)": {
        "params": {
          "_amount": "Amount of token to be assigned to beneficiary",
          "_phone": "phone number of the beneficiary",
          "_projectId": "Id of the project beneficiary is involved in"
        }
      },
      "renounceRole(bytes32,address)": {
        "details": "Revokes `role` from the calling account. Roles are often managed via {grantRole} and {revokeRole}: this function's purpose is to provide a mechanism for accounts to lose their privileges if they are compromised (such as when a trusted device is misplaced). If the calling account had been granted `role`, emits a {RoleRevoked} event. Requirements: - the caller must be `account`."
      },
      "revokeRole(bytes32,address)": {
        "details": "Revokes `role` from `account`. If `account` had been granted `role`, emits a {RoleRevoked} event. Requirements: - the caller must have ``role``'s admin role."
      },
      "suspendBeneficiary(uint256,bytes32)": {
        "params": {
          "_phone": "phone number of the Beneficiary",
          "_projectId": "projectId of the beneficiary"
        }
      },
      "updateProjectBudget(bytes32,uint256)": {
        "params": {
          "_projectCapital": "amount of budget to be added to project",
          "_projectId": "Id of the project to assign budget"
        }
      },
      "updateProjectBudget(bytes32,uint256,uint256)": {
        "params": {
          "_projectCapital": "amount of budget to be added to project",
          "_projectId": "Id of the project to assign budget",
          "tokenId": "ERC1155 token id"
        }
      }
    },
    "stateVariables": {
      "recentERC20Claims": {
        "details": "vendorAddress => phone => claim"
      }
    },
    "version": 1
  },
  "userdoc": {
    "kind": "user",
    "methods": {
      "addAdmin(address)": {
        "notice": "add admin of the this contract"
      },
      "addMobilizer(address,bytes32)": {
        "notice": "add vendors"
      },
      "addProject(bytes32,uint256)": {
        "notice": "creates a project.called by rahatdmin contract"
      },
      "addServer(address)": {
        "notice": "add server account for this contract"
      },
      "addVendor(address)": {
        "notice": "add vendors"
      },
      "adjustTokenAdd(uint256,uint256)": {
        "notice": "adds the token from beneficiary"
      },
      "adjustTokenAdd(uint256,uint256,uint256)": {
        "notice": "adds the token from beneficiary"
      },
      "adjustTokenDeduct(uint256,uint256)": {
        "notice": "deducts the token from beneficiary"
      },
      "adjustTokenDeduct(uint256,uint256,uint256)": {
        "notice": "deducts the token from beneficiary"
      },
      "approveERC1155Claim(address,uint256,bytes32,uint256,uint256)": {
        "notice": "Approve the requested claim from serverside and set the otp hash"
      },
      "approveERC20Claim(address,uint256,bytes32,uint256)": {
        "notice": "Approve the requested claim from serverside and set the otp hash"
      },
      "createERC20Claim(uint256,uint256)": {
        "notice": "request a token to beneficiary by vendor"
      },
      "delegate_issueERC1155ToBeneficiary(address,bytes,string,uint256,uint256,uint256)": {
        "notice": "Issue ERC1155 tokens to beneficiary"
      },
      "delegate_issueERC20ToBeneficiary(address,bytes,string,uint256,uint256)": {
        "notice": "Issue ERC20 to beneficiary"
      },
      "erc20Balance(uint256)": {
        "notice": "track balances of each beneficiary phone"
      },
      "findHash(string)": {
        "notice": "generates the hash of the given string"
      },
      "findHash(uint256)": {
        "notice": "generates the hash of the given string"
      },
      "getArraySum(uint256[])": {
        "notice": "Generates the sum of all the integers in array"
      },
      "getERC1155FromClaim(uint256,string,uint256)": {
        "notice": "Retrieve tokens that was requested to beneficiary by entering OTP"
      },
      "getERC20FromClaim(uint256,string)": {
        "notice": "Retrieve tokens that was requested to beneficiary by entering OTP"
      },
      "getProjectBalance(bytes32)": {
        "notice": "get the current balance of project"
      },
      "getProjectBalance(bytes32,uint256)": {
        "notice": "get the current balance of project"
      },
      "issueBulkERC1155(string,uint256[],uint256[],uint256)": {
        "notice": "Issue tokens to beneficiary in bulk"
      },
      "issueBulkERC20(string,uint256[],uint256[])": {
        "notice": "Issue tokens to beneficiary in bulk"
      },
      "issueERC1155ToBeneficiary(string,uint256,uint256[],uint256[])": {
        "notice": "Issue ERC20 tokens to beneficiary"
      },
      "issueERC20ToBeneficiary(string,uint256,uint256)": {
        "notice": "Issue tokens to beneficiary"
      },
      "suspendBeneficiary(uint256,bytes32)": {
        "notice": "suspend the benficiary by deducting all the balance beneficiary owns"
      },
      "updateProjectBudget(bytes32,uint256)": {
        "notice": "update a project balance.called by rahatdmin contract"
      },
      "updateProjectBudget(bytes32,uint256,uint256)": {
        "notice": "update a project balance.called by rahatdmin contract"
      }
    },
    "version": 1
  }
}