{
  "contractName": "CashAidFactory",
  "abi": [
    {
      "inputs": [],
      "stateMutability": "nonpayable",
      "type": "constructor"
    },
    {
      "anonymous": false,
      "inputs": [
        {
          "indexed": false,
          "internalType": "address",
          "name": "_agency",
          "type": "address"
        }
      ],
      "name": "LogAgencyRegistered",
      "type": "event"
    },
    {
      "anonymous": false,
      "inputs": [
        {
          "indexed": false,
          "internalType": "contract CashAid",
          "name": "_aid",
          "type": "address"
        },
        {
          "indexed": false,
          "internalType": "string",
          "name": "_id",
          "type": "string"
        }
      ],
      "name": "LogAidCreated",
      "type": "event"
    },
    {
      "anonymous": false,
      "inputs": [
        {
          "indexed": true,
          "internalType": "address",
          "name": "_vendor",
          "type": "address"
        },
        {
          "indexed": false,
          "internalType": "address",
          "name": "_contract",
          "type": "address"
        },
        {
          "indexed": true,
          "internalType": "uint256",
          "name": "_phone",
          "type": "uint256"
        },
        {
          "indexed": true,
          "internalType": "uint256",
          "name": "_amount",
          "type": "uint256"
        }
      ],
      "name": "LogTokenClaimed",
      "type": "event"
    },
    {
      "anonymous": false,
      "inputs": [
        {
          "indexed": false,
          "internalType": "contract AidToken",
          "name": "_token",
          "type": "address"
        },
        {
          "indexed": false,
          "internalType": "address",
          "name": "_owner",
          "type": "address"
        },
        {
          "indexed": false,
          "internalType": "string",
          "name": "_name",
          "type": "string"
        },
        {
          "indexed": false,
          "internalType": "string",
          "name": "_symbol",
          "type": "string"
        },
        {
          "indexed": false,
          "internalType": "uint256",
          "name": "_supply",
          "type": "uint256"
        }
      ],
      "name": "LogTokenGenerated",
      "type": "event"
    },
    {
      "anonymous": false,
      "inputs": [
        {
          "indexed": true,
          "internalType": "uint256",
          "name": "_phone",
          "type": "uint256"
        },
        {
          "indexed": true,
          "internalType": "address",
          "name": "_agency",
          "type": "address"
        }
      ],
      "name": "LogTokenReleased",
      "type": "event"
    },
    {
      "inputs": [
        {
          "internalType": "address",
          "name": "",
          "type": "address"
        },
        {
          "internalType": "string",
          "name": "",
          "type": "string"
        }
      ],
      "name": "CashAids",
      "outputs": [
        {
          "internalType": "contract CashAid",
          "name": "",
          "type": "address"
        }
      ],
      "stateMutability": "view",
      "type": "function",
      "constant": true
    },
    {
      "inputs": [
        {
          "internalType": "uint256",
          "name": "_initialSupply",
          "type": "uint256"
        },
        {
          "internalType": "string",
          "name": "_name",
          "type": "string"
        },
        {
          "internalType": "string",
          "name": "_symbol",
          "type": "string"
        },
        {
          "internalType": "address",
          "name": "_address",
          "type": "address"
        }
      ],
      "name": "generateToken",
      "outputs": [],
      "stateMutability": "nonpayable",
      "type": "function"
    },
    {
      "inputs": [
        {
          "internalType": "address",
          "name": "",
          "type": "address"
        }
      ],
      "name": "owner",
      "outputs": [
        {
          "internalType": "bool",
          "name": "",
          "type": "bool"
        }
      ],
      "stateMutability": "view",
      "type": "function",
      "constant": true
    },
    {
      "inputs": [
        {
          "internalType": "address",
          "name": "",
          "type": "address"
        }
      ],
      "name": "tokens",
      "outputs": [
        {
          "internalType": "contract AidToken",
          "name": "",
          "type": "address"
        }
      ],
      "stateMutability": "view",
      "type": "function",
      "constant": true
    },
    {
      "inputs": [
        {
          "internalType": "address",
          "name": "_contractAddress",
          "type": "address"
        },
        {
          "internalType": "uint256",
          "name": "_phone",
          "type": "uint256"
        },
        {
          "internalType": "uint256",
          "name": "_numberOfTokens",
          "type": "uint256"
        }
      ],
      "name": "claimToken",
      "outputs": [],
      "stateMutability": "nonpayable",
      "type": "function"
    },
    {
      "inputs": [
        {
          "internalType": "address",
          "name": "_contractAddress",
          "type": "address"
        },
        {
          "internalType": "address",
          "name": "_address",
          "type": "address"
        },
        {
          "internalType": "uint256",
          "name": "_phone",
          "type": "uint256"
        },
        {
          "internalType": "bytes32",
          "name": "_otpHash",
          "type": "bytes32"
        }
      ],
      "name": "releaseToken",
      "outputs": [],
      "stateMutability": "nonpayable",
      "type": "function"
    },
    {
      "inputs": [
        {
          "internalType": "contract AidToken",
          "name": "_tokenContract",
          "type": "address"
        },
        {
          "internalType": "string",
          "name": "_id",
          "type": "string"
        }
      ],
      "name": "createAid",
      "outputs": [],
      "stateMutability": "nonpayable",
      "type": "function"
    }
  ],
  "bytecode": "0x608060405234801561001057600080fd5b5060016000803373ffffffffffffffffffffffffffffffffffffffff1673ffffffffffffffffffffffffffffffffffffffff16815260200190815260200160002060006101000a81548160ff0219169083151502179055506149d0806100776000396000f3fe60806040523480156200001157600080fd5b5060043610620000885760003560e01c8063897bdf3b1162000063578063897bdf3b14620003525780639c6c412e14620003cd578063a545a2551462000428578063e486033914620005495762000088565b8063666e1b39146200008d5780636816d7a514620000ec57806387f41c4d14620001cd575b600080fd5b620000d260048036036020811015620000a557600080fd5b81019080803573ffffffffffffffffffffffffffffffffffffffff169060200190929190505050620005d0565b604051808215151515815260200191505060405180910390f35b620001cb600480360360408110156200010457600080fd5b81019080803573ffffffffffffffffffffffffffffffffffffffff169060200190929190803590602001906401000000008111156200014257600080fd5b8201836020820111156200015557600080fd5b803590602001918460018302840111640100000000831117156200017857600080fd5b91908080601f016020809104026020016040519081016040528093929190818152602001838380828437600081840152601f19601f820116905080830192505050505050509192919290505050620005f0565b005b6200035060048036036080811015620001e557600080fd5b8101908080359060200190929190803590602001906401000000008111156200020d57600080fd5b8201836020820111156200022057600080fd5b803590602001918460018302840111640100000000831117156200024357600080fd5b91908080601f016020809104026020016040519081016040528093929190818152602001838380828437600081840152601f19601f82011690508083019250505050505050919291929080359060200190640100000000811115620002a757600080fd5b820183602082011115620002ba57600080fd5b80359060200191846001830284011164010000000083111715620002dd57600080fd5b91908080601f016020809104026020016040519081016040528093929190818152602001838380828437600081840152601f19601f820116905080830192505050505050509192919290803573ffffffffffffffffffffffffffffffffffffffff16906020019092919050505062000b7a565b005b620003cb600480360360808110156200036a57600080fd5b81019080803573ffffffffffffffffffffffffffffffffffffffff169060200190929190803573ffffffffffffffffffffffffffffffffffffffff169060200190929190803590602001909291908035906020019092919050505062001062565b005b6200042660048036036060811015620003e557600080fd5b81019080803573ffffffffffffffffffffffffffffffffffffffff1690602001909291908035906020019092919080359060200190929190505050620011ab565b005b62000507600480360360408110156200044057600080fd5b81019080803573ffffffffffffffffffffffffffffffffffffffff169060200190929190803590602001906401000000008111156200047e57600080fd5b8201836020820111156200049157600080fd5b80359060200191846001830284011164010000000083111715620004b457600080fd5b91908080601f016020809104026020016040519081016040528093929190818152602001838380828437600081840152601f19601f820116905080830192505050505050509192919290505050620012a1565b604051808273ffffffffffffffffffffffffffffffffffffffff1673ffffffffffffffffffffffffffffffffffffffff16815260200191505060405180910390f35b6200058e600480360360208110156200056157600080fd5b81019080803573ffffffffffffffffffffffffffffffffffffffff169060200190929190505050620012f9565b604051808273ffffffffffffffffffffffffffffffffffffffff1673ffffffffffffffffffffffffffffffffffffffff16815260200191505060405180910390f35b60006020528060005260406000206000915054906101000a900460ff1681565b600073ffffffffffffffffffffffffffffffffffffffff16600160003373ffffffffffffffffffffffffffffffffffffffff1673ffffffffffffffffffffffffffffffffffffffff16815260200190815260200160002060009054906101000a900473ffffffffffffffffffffffffffffffffffffffff1673ffffffffffffffffffffffffffffffffffffffff161415620006f3576040517f08c379a00000000000000000000000000000000000000000000000000000000081526004018080602001828103825260168152602001807f6163636f756e74206e6f7420726567697374657265640000000000000000000081525060200191505060405180910390fd5b600073ffffffffffffffffffffffffffffffffffffffff16600260003373ffffffffffffffffffffffffffffffffffffffff1673ffffffffffffffffffffffffffffffffffffffff168152602001908152602001600020826040518082805190602001908083835b602083106200078057805182526020820191506020810190506020830392506200075b565b6001836020036101000a038019825116818451168082178552505050505050905001915050908152602001604051809103902060009054906101000a900473ffffffffffffffffffffffffffffffffffffffff1673ffffffffffffffffffffffffffffffffffffffff16146200085e576040517f08c379a00000000000000000000000000000000000000000000000000000000081526004018080602001828103825260198152602001807f636f6e747261637420616c7265616479206465706c6f7965640000000000000081525060200191505060405180910390fd5b81336040516200086e906200132c565b808373ffffffffffffffffffffffffffffffffffffffff1673ffffffffffffffffffffffffffffffffffffffff1681526020018273ffffffffffffffffffffffffffffffffffffffff1673ffffffffffffffffffffffffffffffffffffffff16815260200192505050604051809103906000f080158015620008f4573d6000803e3d6000fd5b50600260003373ffffffffffffffffffffffffffffffffffffffff1673ffffffffffffffffffffffffffffffffffffffff168152602001908152602001600020826040518082805190602001908083835b602083106200096a578051825260208201915060208101905060208303925062000945565b6001836020036101000a038019825116818451168082178552505050505050905001915050908152602001604051809103902060006101000a81548173ffffffffffffffffffffffffffffffffffffffff021916908373ffffffffffffffffffffffffffffffffffffffff1602179055507f013e84d5d35040bc164663f434b7886cc14fa19a38a6cd28a3f23247b26052e2600260003373ffffffffffffffffffffffffffffffffffffffff1673ffffffffffffffffffffffffffffffffffffffff168152602001908152602001600020826040518082805190602001908083835b6020831062000a71578051825260208201915060208101905060208303925062000a4c565b6001836020036101000a038019825116818451168082178552505050505050905001915050908152602001604051809103902060009054906101000a900473ffffffffffffffffffffffffffffffffffffffff1682604051808373ffffffffffffffffffffffffffffffffffffffff1673ffffffffffffffffffffffffffffffffffffffff16815260200180602001828103825283818151815260200191508051906020019080838360005b8381101562000b3a57808201518184015260208101905062000b1d565b50505050905090810190601f16801562000b685780820380516001836020036101000a031916815260200191505b50935050505060405180910390a15050565b6000803373ffffffffffffffffffffffffffffffffffffffff1673ffffffffffffffffffffffffffffffffffffffff16815260200190815260200160002060009054906101000a900460ff1662000bd057600080fd5b600073ffffffffffffffffffffffffffffffffffffffff16600160008373ffffffffffffffffffffffffffffffffffffffff1673ffffffffffffffffffffffffffffffffffffffff16815260200190815260200160002060009054906101000a900473ffffffffffffffffffffffffffffffffffffffff1673ffffffffffffffffffffffffffffffffffffffff161462000cb6576040517f08c379a0000000000000000000000000000000000000000000000000000000008152600401808060200182810382526027815260200180620049746027913960400191505060405180910390fd5b8383838360405162000cc8906200133a565b8085815260200180602001806020018473ffffffffffffffffffffffffffffffffffffffff1673ffffffffffffffffffffffffffffffffffffffff168152602001838103835286818151815260200191508051906020019080838360005b8381101562000d4357808201518184015260208101905062000d26565b50505050905090810190601f16801562000d715780820380516001836020036101000a031916815260200191505b50838103825285818151815260200191508051906020019080838360005b8381101562000dac57808201518184015260208101905062000d8f565b50505050905090810190601f16801562000dda5780820380516001836020036101000a031916815260200191505b509650505050505050604051809103906000f08015801562000e00573d6000803e3d6000fd5b50600160008373ffffffffffffffffffffffffffffffffffffffff1673ffffffffffffffffffffffffffffffffffffffff16815260200190815260200160002060006101000a81548173ffffffffffffffffffffffffffffffffffffffff021916908373ffffffffffffffffffffffffffffffffffffffff1602179055507fc91f6486092a47ec695b2d71212cf2e3c15bc387aa2e7b569935239c898347f3600160008373ffffffffffffffffffffffffffffffffffffffff1673ffffffffffffffffffffffffffffffffffffffff16815260200190815260200160002060009054906101000a900473ffffffffffffffffffffffffffffffffffffffff1682858588604051808673ffffffffffffffffffffffffffffffffffffffff1673ffffffffffffffffffffffffffffffffffffffff1681526020018573ffffffffffffffffffffffffffffffffffffffff1673ffffffffffffffffffffffffffffffffffffffff1681526020018060200180602001848152602001838103835286818151815260200191508051906020019080838360005b8381101562000fb357808201518184015260208101905062000f96565b50505050905090810190601f16801562000fe15780820380516001836020036101000a031916815260200191505b50838103825285818151815260200191508051906020019080838360005b838110156200101c57808201518184015260208101905062000fff565b50505050905090810190601f1680156200104a5780820380516001836020036101000a031916815260200191505b5097505050505050505060405180910390a150505050565b6000803373ffffffffffffffffffffffffffffffffffffffff1673ffffffffffffffffffffffffffffffffffffffff16815260200190815260200160002060009054906101000a900460ff16620010b857600080fd5b8373ffffffffffffffffffffffffffffffffffffffff16632d3ad0cb8484846040518463ffffffff1660e01b8152600401808473ffffffffffffffffffffffffffffffffffffffff1673ffffffffffffffffffffffffffffffffffffffff1681526020018381526020018281526020019350505050600060405180830381600087803b1580156200114857600080fd5b505af11580156200115d573d6000803e3d6000fd5b505050508373ffffffffffffffffffffffffffffffffffffffff16827f4202f950678acca88ab2c6e043de40798b1895540da391df5a58b9bf17ba68a860405160405180910390a350505050565b8273ffffffffffffffffffffffffffffffffffffffff16638ea6bde383836040518363ffffffff1660e01b81526004018083815260200182815260200192505050600060405180830381600087803b1580156200120757600080fd5b505af11580156200121c573d6000803e3d6000fd5b5050505080823373ffffffffffffffffffffffffffffffffffffffff167f4ba1f8fd254cdf01c8aceda3fd5d7e0e9c59ba488cf65a83fe03712469a14a9c86604051808273ffffffffffffffffffffffffffffffffffffffff1673ffffffffffffffffffffffffffffffffffffffff16815260200191505060405180910390a4505050565b6002602052816000526040600020818051602081018201805184825260208301602085012081835280955050505050506000915091509054906101000a900473ffffffffffffffffffffffffffffffffffffffff1681565b60016020528060005260406000206000915054906101000a900473ffffffffffffffffffffffffffffffffffffffff1681565b612763806200134983390190565b610ec88062003aac8339019056fe60806040523480156200001157600080fd5b50604051620027633803806200276383398181016040528101906200003791906200019d565b60016000803373ffffffffffffffffffffffffffffffffffffffff1673ffffffffffffffffffffffffffffffffffffffff16815260200190815260200160002060006101000a81548160ff02191690831515021790555060016000808373ffffffffffffffffffffffffffffffffffffffff1673ffffffffffffffffffffffffffffffffffffffff16815260200190815260200160002060006101000a81548160ff02191690831515021790555033600460006101000a81548173ffffffffffffffffffffffffffffffffffffffff021916908373ffffffffffffffffffffffffffffffffffffffff16021790555081600160006101000a81548173ffffffffffffffffffffffffffffffffffffffff021916908373ffffffffffffffffffffffffffffffffffffffff16021790555050506200025a565b600081519050620001808162000226565b92915050565b600081519050620001978162000240565b92915050565b60008060408385031215620001b157600080fd5b6000620001c18582860162000186565b9250506020620001d4858286016200016f565b9150509250929050565b6000620001eb8262000206565b9050919050565b6000620001ff82620001de565b9050919050565b600073ffffffffffffffffffffffffffffffffffffffff82169050919050565b6200023181620001de565b81146200023d57600080fd5b50565b6200024b81620001f2565b81146200025757600080fd5b50565b6124f9806200026a6000396000f3fe608060405234801561001057600080fd5b50600436106101005760003560e01c80635e836fa0116100975780638ea6bde3116100665780638ea6bde3146102c1578063c45a0155146102dd578063ee407efe146102fb578063efeb5e581461031757610100565b80635e836fa01461022857806363a846f814610259578063704802751461028957806374a1ad06146102a557610100565b80633098b74b116100d35780633098b74b146101b45780633f5df8db146101e457806343d726d61461020057806355a373d61461020a57610100565b806306c2466d146101055780631fff1a2b1461013857806327e30c36146101685780632d3ad0cb14610198575b600080fd5b61011f600480360381019061011a91906117fa565b610347565b60405161012f949392919061221b565b60405180910390f35b610152600480360381019061014d9190611984565b610391565b60405161015f9190612200565b60405180910390f35b610182600480360381019061017d91906117d1565b6103a9565b60405161018f9190611fe1565b60405180910390f35b6101b260048036038101906101ad9190611836565b6103c9565b005b6101ce60048036038101906101c99190611885565b610604565b6040516101db9190612200565b60405180910390f35b6101fe60048036038101906101f99190611a2a565b610646565b005b610208610830565b005b610212610a17565b60405161021f9190612025565b60405180910390f35b610242600480360381019061023d91906119d6565b610a3d565b604051610250929190611ffc565b60405180910390f35b610273600480360381019061026e91906117d1565b610f75565b6040516102809190611fe1565b60405180910390f35b6102a3600480360381019061029e91906117d1565b610f95565b005b6102bf60048036038101906102ba91906117d1565b61107a565b005b6102db60048036038101906102d69190611a2a565b611162565b005b6102e56113a9565b6040516102f29190611f9d565b60405180910390f35b610315600480360381019061031091906118c6565b6113cf565b005b610331600480360381019061032c9190611984565b6115e4565b60405161033e9190611fe1565b60405180910390f35b6005602052816000526040600020602052806000526040600020600091509150508060000154908060010154908060020160009054906101000a900460ff16908060030154905084565b60066020528060005260406000206000915090505481565b60036020528060005260406000206000915054906101000a900460ff1681565b600460009054906101000a900473ffffffffffffffffffffffffffffffffffffffff1673ffffffffffffffffffffffffffffffffffffffff163373ffffffffffffffffffffffffffffffffffffffff1614610459576040517f08c379a000000000000000000000000000000000000000000000000000000000815260040161045090612140565b60405180910390fd5b42600560008573ffffffffffffffffffffffffffffffffffffffff1673ffffffffffffffffffffffffffffffffffffffff16815260200190815260200160002060008481526020019081526020016000206003015410156104ef576040517f08c379a00000000000000000000000000000000000000000000000000000000081526004016104e6906120a0565b60405180910390fd5b6000600560008573ffffffffffffffffffffffffffffffffffffffff1673ffffffffffffffffffffffffffffffffffffffff1681526020019081526020016000206000848152602001908152602001600020905081816001018190555060018160020160006101000a81548160ff0219169083600281111561056d57fe5b02179055507f64ba59ef764878509533544581cdee36ad895d2bf2c73f2b79990dd8d2b41c7f83600560008773ffffffffffffffffffffffffffffffffffffffff1673ffffffffffffffffffffffffffffffffffffffff1681526020019081526020016000206000868152602001908152602001600020600001546040516105f6929190612260565b60405180910390a150505050565b600080905060008090505b825181101561063d5782818151811061062457fe5b602002602001015182019150808060010191505061060f565b50809050919050565b6000803373ffffffffffffffffffffffffffffffffffffffff1673ffffffffffffffffffffffffffffffffffffffff16815260200190815260200160002060009054906101000a900460ff166106d1576040517f08c379a00000000000000000000000000000000000000000000000000000000081526004016106c890612160565b60405180910390fd5b6007548101600160009054906101000a900473ffffffffffffffffffffffffffffffffffffffff1673ffffffffffffffffffffffffffffffffffffffff166370a08231306040518263ffffffff1660e01b81526004016107319190611f9d565b60206040518083038186803b15801561074957600080fd5b505afa15801561075d573d6000803e3d6000fd5b505050506040513d601f19601f8201168201806040525081019061078191906119ad565b10156107c2576040517f08c379a00000000000000000000000000000000000000000000000000000000081526004016107b9906121c0565b60405180910390fd5b806006600084815260200190815260200160002060008282540192505081905550806007600082825401925050819055507fa3d104ab92409d453445e33158e34ee3c7741f5486fb8605ddcf2a8acb4f8a7f8282604051610824929190612260565b60405180910390a15050565b6000803373ffffffffffffffffffffffffffffffffffffffff1673ffffffffffffffffffffffffffffffffffffffff16815260200190815260200160002060009054906101000a900460ff166108bb576040517f08c379a00000000000000000000000000000000000000000000000000000000081526004016108b290612160565b60405180910390fd5b600160009054906101000a900473ffffffffffffffffffffffffffffffffffffffff1673ffffffffffffffffffffffffffffffffffffffff1663a9059cbb33600160009054906101000a900473ffffffffffffffffffffffffffffffffffffffff1673ffffffffffffffffffffffffffffffffffffffff166370a08231306040518263ffffffff1660e01b81526004016109559190611f9d565b60206040518083038186803b15801561096d57600080fd5b505afa158015610981573d6000803e3d6000fd5b505050506040513d601f19601f820116820180604052508101906109a591906119ad565b6040518363ffffffff1660e01b81526004016109c2929190611fb8565b602060405180830381600087803b1580156109dc57600080fd5b505af11580156109f0573d6000803e3d6000fd5b505050506040513d601f19601f82011682018060405250810190610a149190611932565b50565b600160009054906101000a900473ffffffffffffffffffffffffffffffffffffffff1681565b600080600360003273ffffffffffffffffffffffffffffffffffffffff1673ffffffffffffffffffffffffffffffffffffffff16815260200190815260200160002060009054906101000a900460ff16610acc576040517f08c379a0000000000000000000000000000000000000000000000000000000008152600401610ac3906120e0565b60405180910390fd5b6000600560003373ffffffffffffffffffffffffffffffffffffffff1673ffffffffffffffffffffffffffffffffffffffff168152602001908152602001600020600086815260200190815260200160002090506000610b2b85611604565b90504282600301541015610b74576040517f08c379a0000000000000000000000000000000000000000000000000000000008152600401610b6b90612040565b60405180910390fd5b60018260020160009054906101000a900460ff166002811115610b9357fe5b14610bd3576040517f08c379a0000000000000000000000000000000000000000000000000000000008152600401610bca90612120565b60405180910390fd5b60028260020160009054906101000a900460ff166002811115610bf257fe5b1415610c33576040517f08c379a0000000000000000000000000000000000000000000000000000000008152600401610c2a906121a0565b60405180910390fd5b80600560003373ffffffffffffffffffffffffffffffffffffffff1673ffffffffffffffffffffffffffffffffffffffff16815260200190815260200160002060008881526020019081526020016000206001015414610cc8576040517f08c379a0000000000000000000000000000000000000000000000000000000008152600401610cbf90612100565b60405180910390fd5b8160000154600160009054906101000a900473ffffffffffffffffffffffffffffffffffffffff1673ffffffffffffffffffffffffffffffffffffffff166370a08231306040518263ffffffff1660e01b8152600401610d289190611f9d565b60206040518083038186803b158015610d4057600080fd5b505afa158015610d54573d6000803e3d6000fd5b505050506040513d601f19601f82011682018060405250810190610d7891906119ad565b1015610db9576040517f08c379a0000000000000000000000000000000000000000000000000000000008152600401610db0906120c0565b60405180910390fd5b600160009054906101000a900473ffffffffffffffffffffffffffffffffffffffff1673ffffffffffffffffffffffffffffffffffffffff1663a9059cbb3384600001546040518363ffffffff1660e01b8152600401610e1a929190611fb8565b602060405180830381600087803b158015610e3457600080fd5b505af1158015610e48573d6000803e3d6000fd5b505050506040513d601f19601f82011682018060405250810190610e6c9190611932565b610eab576040517f08c379a0000000000000000000000000000000000000000000000000000000008152600401610ea2906121e0565b60405180910390fd5b8160000154600660008881526020019081526020016000206000828254039250508190555060028260020160006101000a81548160ff02191690836002811115610ef157fe5b0217905550428260030181905550816000015460076000828254039250508190555080600560003373ffffffffffffffffffffffffffffffffffffffff1673ffffffffffffffffffffffffffffffffffffffff1681526020019081526020016000206000888152602001908152602001600020600101549350935050509250929050565b60006020528060005260406000206000915054906101000a900460ff1681565b6000803373ffffffffffffffffffffffffffffffffffffffff1673ffffffffffffffffffffffffffffffffffffffff16815260200190815260200160002060009054906101000a900460ff16611020576040517f08c379a000000000000000000000000000000000000000000000000000000000815260040161101790612160565b60405180910390fd5b60016000808373ffffffffffffffffffffffffffffffffffffffff1673ffffffffffffffffffffffffffffffffffffffff16815260200190815260200160002060006101000a81548160ff02191690831515021790555050565b600360008273ffffffffffffffffffffffffffffffffffffffff1673ffffffffffffffffffffffffffffffffffffffff16815260200190815260200160002060009054906101000a900460ff1615611107576040517f08c379a00000000000000000000000000000000000000000000000000000000081526004016110fe90612080565b60405180910390fd5b6001600360008373ffffffffffffffffffffffffffffffffffffffff1673ffffffffffffffffffffffffffffffffffffffff16815260200190815260200160002060006101000a81548160ff02191690831515021790555050565b600360003273ffffffffffffffffffffffffffffffffffffffff1673ffffffffffffffffffffffffffffffffffffffff16815260200190815260200160002060009054906101000a900460ff166111ee576040517f08c379a00000000000000000000000000000000000000000000000000000000081526004016111e5906120e0565b60405180910390fd5b8060066000848152602001908152602001600020541015611244576040517f08c379a000000000000000000000000000000000000000000000000000000000815260040161123b90612060565b60405180910390fd5b42600560003273ffffffffffffffffffffffffffffffffffffffff1673ffffffffffffffffffffffffffffffffffffffff16815260200190815260200160002060008481526020019081526020016000206003015411156112da576040517f08c379a00000000000000000000000000000000000000000000000000000000081526004016112d190612180565b60405180910390fd5b6000600560003273ffffffffffffffffffffffffffffffffffffffff1673ffffffffffffffffffffffffffffffffffffffff1681526020019081526020016000206000848152602001908152602001600020905081816000018190555060008160020160006101000a81548160ff0219169083600281111561135857fe5b021790555061012c42018160030181905550827fdaf43f13f8e52679dc580fc78bf80028f7d4ed733283deb8554be3907944533d328460405161139c929190611fb8565b60405180910390a2505050565b600460009054906101000a900473ffffffffffffffffffffffffffffffffffffffff1681565b6000803373ffffffffffffffffffffffffffffffffffffffff1673ffffffffffffffffffffffffffffffffffffffff16815260200190815260200160002060009054906101000a900460ff1661145a576040517f08c379a000000000000000000000000000000000000000000000000000000000815260040161145190612160565b60405180910390fd5b60008061146683610604565b90506007548101600160009054906101000a900473ffffffffffffffffffffffffffffffffffffffff1673ffffffffffffffffffffffffffffffffffffffff166370a08231306040518263ffffffff1660e01b81526004016114c89190611f9d565b60206040518083038186803b1580156114e057600080fd5b505afa1580156114f4573d6000803e3d6000fd5b505050506040513d601f19601f8201168201806040525081019061151891906119ad565b1015611559576040517f08c379a0000000000000000000000000000000000000000000000000000000008152600401611550906121c0565b60405180910390fd5b600091505b83518210156115de5782828151811061157357fe5b60200260200101516006600086858151811061158b57fe5b60200260200101518152602001908152602001600020600082825401925050819055508282815181106115ba57fe5b6020026020010151600760008282540192505081905550818060010192505061155e565b50505050565b60026020528060005260406000206000915054906101000a900460ff1681565b60006002826040516020016116199190611f86565b6040516020818303038152906040526040516116359190611f6f565b602060405180830381855afa158015611652573d6000803e3d6000fd5b5050506040513d601f19601f82011682018060405250810190611675919061195b565b9050919050565b60008135905061168b81612467565b92915050565b600082601f8301126116a257600080fd5b81356116b56116b0826122b6565b612289565b915081818352602084019350602081019050838560208402820111156116da57600080fd5b60005b8381101561170a57816116f088826117a7565b8452602084019350602083019250506001810190506116dd565b5050505092915050565b6000815190506117238161247e565b92915050565b60008135905061173881612495565b92915050565b60008151905061174d81612495565b92915050565b600082601f83011261176457600080fd5b8135611777611772826122de565b612289565b9150808252602083016020830185838301111561179357600080fd5b61179e838284612418565b50505092915050565b6000813590506117b6816124ac565b92915050565b6000815190506117cb816124ac565b92915050565b6000602082840312156117e357600080fd5b60006117f18482850161167c565b91505092915050565b6000806040838503121561180d57600080fd5b600061181b8582860161167c565b925050602061182c858286016117a7565b9150509250929050565b60008060006060848603121561184b57600080fd5b60006118598682870161167c565b935050602061186a868287016117a7565b925050604061187b86828701611729565b9150509250925092565b60006020828403121561189757600080fd5b600082013567ffffffffffffffff8111156118b157600080fd5b6118bd84828501611691565b91505092915050565b600080604083850312156118d957600080fd5b600083013567ffffffffffffffff8111156118f357600080fd5b6118ff85828601611691565b925050602083013567ffffffffffffffff81111561191c57600080fd5b61192885828601611691565b9150509250929050565b60006020828403121561194457600080fd5b600061195284828501611714565b91505092915050565b60006020828403121561196d57600080fd5b600061197b8482850161173e565b91505092915050565b60006020828403121561199657600080fd5b60006119a4848285016117a7565b91505092915050565b6000602082840312156119bf57600080fd5b60006119cd848285016117bc565b91505092915050565b600080604083850312156119e957600080fd5b60006119f7858286016117a7565b925050602083013567ffffffffffffffff811115611a1457600080fd5b611a2085828601611753565b9150509250929050565b60008060408385031215611a3d57600080fd5b6000611a4b858286016117a7565b9250506020611a5c858286016117a7565b9150509250929050565b611a6f816123ac565b82525050565b611a7e81612347565b82525050565b611a8d81612359565b82525050565b611a9c81612365565b82525050565b6000611aad8261230a565b611ab78185612320565b9350611ac7818560208601612427565b80840191505092915050565b611adc816123be565b82525050565b611aeb816123e2565b82525050565b6000611afc82612315565b611b06818561233c565b9350611b16818560208601612427565b80840191505092915050565b6000611b2f600b8361232b565b91507f6f747020657870697265640000000000000000000000000000000000000000006000830152602082019050919050565b6000611b6f602b8361232b565b91507f6e756d626572206f6620746f6b656e732069732067726561746572207468616e60008301527f20636c61696d61626c652e0000000000000000000000000000000000000000006020830152604082019050919050565b6000611bd5601c8361232b565b91507f616c726561647920726567697374657265642061732076656e646f72000000006000830152602082019050919050565b6000611c15600d8361232b565b91507f636c61696d2065787069726564000000000000000000000000000000000000006000830152602082019050919050565b6000611c5560128361232b565b91507f6e6f7420656e6f7567682062616c616e636500000000000000000000000000006000830152602082019050919050565b6000611c9560298361232b565b91507f4f6e6c792076656e646f72732063616e2065786578757465207468697320747260008301527f616e73616374696f6e00000000000000000000000000000000000000000000006020830152604082019050919050565b6000611cfb60118361232b565b91507f6f747020646964206e6f74206d617463680000000000000000000000000000006000830152602082019050919050565b6000611d3b601b8361232b565b91507f636c61696d20776173206e6f742072656c6561736564207965742e00000000006000830152602082019050919050565b6000611d7b601b8361232b565b91507f596f75206e65656420746f207573652074686520666163746f727900000000006000830152602082019050919050565b6000611dbb60278361232b565b91507f4f6e6c792041646d696e2063616e20657865637574652074686973207472616e60008301527f73616374696f6e000000000000000000000000000000000000000000000000006020830152604082019050919050565b6000611e21600d8361232b565b91507f636c61696d2070656e64696e67000000000000000000000000000000000000006000830152602082019050919050565b6000611e61602a8361232b565b91507f6e6f2070656e64696e6720636c61696d7320666f722063757272656e7420706860008301527f6f6e65206e756d626572000000000000000000000000000000000000000000006020830152604082019050919050565b6000611ec760198361232b565b91507f6e6f7420656e6f75676820746f6b656e20746f206973737565000000000000006000830152602082019050919050565b6000611f0760248361232b565b91507f696e7465726e616c206572726f723a63616e6e6f74207472616e73666572207460008301527f6f6b656e000000000000000000000000000000000000000000000000000000006020830152604082019050919050565b611f69816123a2565b82525050565b6000611f7b8284611aa2565b915081905092915050565b6000611f928284611af1565b915081905092915050565b6000602082019050611fb26000830184611a75565b92915050565b6000604082019050611fcd6000830185611a66565b611fda6020830184611f60565b9392505050565b6000602082019050611ff66000830184611a84565b92915050565b60006040820190506120116000830185611a93565b61201e6020830184611a93565b9392505050565b600060208201905061203a6000830184611ad3565b92915050565b6000602082019050818103600083015261205981611b22565b9050919050565b6000602082019050818103600083015261207981611b62565b9050919050565b6000602082019050818103600083015261209981611bc8565b9050919050565b600060208201905081810360008301526120b981611c08565b9050919050565b600060208201905081810360008301526120d981611c48565b9050919050565b600060208201905081810360008301526120f981611c88565b9050919050565b6000602082019050818103600083015261211981611cee565b9050919050565b6000602082019050818103600083015261213981611d2e565b9050919050565b6000602082019050818103600083015261215981611d6e565b9050919050565b6000602082019050818103600083015261217981611dae565b9050919050565b6000602082019050818103600083015261219981611e14565b9050919050565b600060208201905081810360008301526121b981611e54565b9050919050565b600060208201905081810360008301526121d981611eba565b9050919050565b600060208201905081810360008301526121f981611efa565b9050919050565b60006020820190506122156000830184611f60565b92915050565b60006080820190506122306000830187611f60565b61223d6020830186611a93565b61224a6040830185611ae2565b6122576060830184611f60565b95945050505050565b60006040820190506122756000830185611f60565b6122826020830184611f60565b9392505050565b6000604051905081810181811067ffffffffffffffff821117156122ac57600080fd5b8060405250919050565b600067ffffffffffffffff8211156122cd57600080fd5b602082029050602081019050919050565b600067ffffffffffffffff8211156122f557600080fd5b601f19601f8301169050602081019050919050565b600081519050919050565b600081519050919050565b600081905092915050565b600082825260208201905092915050565b600081905092915050565b600061235282612382565b9050919050565b60008115159050919050565b6000819050919050565b600081905061237d8261245a565b919050565b600073ffffffffffffffffffffffffffffffffffffffff82169050919050565b6000819050919050565b60006123b7826123f4565b9050919050565b60006123c9826123d0565b9050919050565b60006123db82612382565b9050919050565b60006123ed8261236f565b9050919050565b60006123ff82612406565b9050919050565b600061241182612382565b9050919050565b82818337600083830152505050565b60005b8381101561244557808201518184015260208101905061242a565b83811115612454576000848401525b50505050565b6003811061246457fe5b50565b61247081612347565b811461247b57600080fd5b50565b61248781612359565b811461249257600080fd5b50565b61249e81612365565b81146124a957600080fd5b50565b6124b5816123a2565b81146124c057600080fd5b5056fea2646970667358221220a5f484949b78dfd8bc6f8dd330801d12b0f2a913f8d3f00db7fc72d4b7c2d3d764736f6c6343000604003360806040526040518060400160405280600e81526020017f41696420546f6b656e2076312e300000000000000000000000000000000000008152506002908051906020019062000051929190620002a1565b503480156200005f57600080fd5b5060405162000ec838038062000ec8833981810160405260808110156200008557600080fd5b810190808051906020019092919080516040519392919084640100000000821115620000b057600080fd5b83820191506020820185811115620000c757600080fd5b8251866001820283011164010000000082111715620000e557600080fd5b8083526020830192505050908051906020019080838360005b838110156200011b578082015181840152602081019050620000fe565b50505050905090810190601f168015620001495780820380516001836020036101000a031916815260200191505b50604052602001805160405193929190846401000000008211156200016d57600080fd5b838201915060208201858111156200018457600080fd5b8251866001820283011164010000000082111715620001a257600080fd5b8083526020830192505050908051906020019080838360005b83811015620001d8578082015181840152602081019050620001bb565b50505050905090810190601f168015620002065780820380516001836020036101000a031916815260200191505b506040526020018051906020019092919050505083600460008373ffffffffffffffffffffffffffffffffffffffff1673ffffffffffffffffffffffffffffffffffffffff168152602001908152602001600020819055508360038190555082600090805190602001906200027d929190620002a1565b50816001908051906020019062000296929190620002a1565b505050505062000350565b828054600181600116156101000203166002900490600052602060002090601f016020900481019282601f10620002e457805160ff191683800117855562000315565b8280016001018555821562000315579182015b8281111562000314578251825591602001919060010190620002f7565b5b50905062000324919062000328565b5090565b6200034d91905b80821115620003495760008160009055506001016200032f565b5090565b90565b610b6880620003606000396000f3fe608060405234801561001057600080fd5b50600436106100935760003560e01c80635a3b7e42116100665780635a3b7e421461022557806370a08231146102a857806395d89b4114610300578063a9059cbb14610383578063dd62ed3e146103e957610093565b806306fdde0314610098578063095ea7b31461011b57806318160ddd1461018157806323b872dd1461019f575b600080fd5b6100a0610461565b6040518080602001828103825283818151815260200191508051906020019080838360005b838110156100e05780820151818401526020810190506100c5565b50505050905090810190601f16801561010d5780820380516001836020036101000a031916815260200191505b509250505060405180910390f35b6101676004803603604081101561013157600080fd5b81019080803573ffffffffffffffffffffffffffffffffffffffff169060200190929190803590602001909291905050506104ff565b604051808215151515815260200191505060405180910390f35b6101896105f1565b6040518082815260200191505060405180910390f35b61020b600480360360608110156101b557600080fd5b81019080803573ffffffffffffffffffffffffffffffffffffffff169060200190929190803573ffffffffffffffffffffffffffffffffffffffff169060200190929190803590602001909291905050506105f7565b604051808215151515815260200191505060405180910390f35b61022d610862565b6040518080602001828103825283818151815260200191508051906020019080838360005b8381101561026d578082015181840152602081019050610252565b50505050905090810190601f16801561029a5780820380516001836020036101000a031916815260200191505b509250505060405180910390f35b6102ea600480360360208110156102be57600080fd5b81019080803573ffffffffffffffffffffffffffffffffffffffff169060200190929190505050610900565b6040518082815260200191505060405180910390f35b610308610918565b6040518080602001828103825283818151815260200191508051906020019080838360005b8381101561034857808201518184015260208101905061032d565b50505050905090810190601f1680156103755780820380516001836020036101000a031916815260200191505b509250505060405180910390f35b6103cf6004803603604081101561039957600080fd5b81019080803573ffffffffffffffffffffffffffffffffffffffff169060200190929190803590602001909291905050506109b6565b604051808215151515815260200191505060405180910390f35b61044b600480360360408110156103ff57600080fd5b81019080803573ffffffffffffffffffffffffffffffffffffffff169060200190929190803573ffffffffffffffffffffffffffffffffffffffff169060200190929190505050610b0d565b6040518082815260200191505060405180910390f35b60008054600181600116156101000203166002900480601f0160208091040260200160405190810160405280929190818152602001828054600181600116156101000203166002900480156104f75780601f106104cc576101008083540402835291602001916104f7565b820191906000526020600020905b8154815290600101906020018083116104da57829003601f168201915b505050505081565b600081600560003373ffffffffffffffffffffffffffffffffffffffff1673ffffffffffffffffffffffffffffffffffffffff16815260200190815260200160002060008573ffffffffffffffffffffffffffffffffffffffff1673ffffffffffffffffffffffffffffffffffffffff168152602001908152602001600020819055508273ffffffffffffffffffffffffffffffffffffffff163373ffffffffffffffffffffffffffffffffffffffff167f8c5be1e5ebec7d5bd14f71427d1e84f3dd0314c0f7b2291e5b200ac8c7c3b925846040518082815260200191505060405180910390a36001905092915050565b60035481565b6000600460008573ffffffffffffffffffffffffffffffffffffffff1673ffffffffffffffffffffffffffffffffffffffff1681526020019081526020016000205482111561064557600080fd5b600560008573ffffffffffffffffffffffffffffffffffffffff1673ffffffffffffffffffffffffffffffffffffffff16815260200190815260200160002060003373ffffffffffffffffffffffffffffffffffffffff1673ffffffffffffffffffffffffffffffffffffffff168152602001908152602001600020548211156106ce57600080fd5b81600460008673ffffffffffffffffffffffffffffffffffffffff1673ffffffffffffffffffffffffffffffffffffffff1681526020019081526020016000206000828254039250508190555081600460008573ffffffffffffffffffffffffffffffffffffffff1673ffffffffffffffffffffffffffffffffffffffff1681526020019081526020016000206000828254019250508190555081600560008673ffffffffffffffffffffffffffffffffffffffff1673ffffffffffffffffffffffffffffffffffffffff16815260200190815260200160002060003373ffffffffffffffffffffffffffffffffffffffff1673ffffffffffffffffffffffffffffffffffffffff168152602001908152602001600020600082825403925050819055508273ffffffffffffffffffffffffffffffffffffffff168473ffffffffffffffffffffffffffffffffffffffff167fddf252ad1be2c89b69c2b068fc378daa952ba7f163c4a11628f55a4df523b3ef846040518082815260200191505060405180910390a3600190509392505050565b60028054600181600116156101000203166002900480601f0160208091040260200160405190810160405280929190818152602001828054600181600116156101000203166002900480156108f85780601f106108cd576101008083540402835291602001916108f8565b820191906000526020600020905b8154815290600101906020018083116108db57829003601f168201915b505050505081565b60046020528060005260406000206000915090505481565b60018054600181600116156101000203166002900480601f0160208091040260200160405190810160405280929190818152602001828054600181600116156101000203166002900480156109ae5780601f10610983576101008083540402835291602001916109ae565b820191906000526020600020905b81548152906001019060200180831161099157829003601f168201915b505050505081565b600081600460003373ffffffffffffffffffffffffffffffffffffffff1673ffffffffffffffffffffffffffffffffffffffff168152602001908152602001600020541015610a0457600080fd5b81600460003373ffffffffffffffffffffffffffffffffffffffff1673ffffffffffffffffffffffffffffffffffffffff1681526020019081526020016000206000828254039250508190555081600460008573ffffffffffffffffffffffffffffffffffffffff1673ffffffffffffffffffffffffffffffffffffffff168152602001908152602001600020600082825401925050819055508273ffffffffffffffffffffffffffffffffffffffff163373ffffffffffffffffffffffffffffffffffffffff167fddf252ad1be2c89b69c2b068fc378daa952ba7f163c4a11628f55a4df523b3ef846040518082815260200191505060405180910390a36001905092915050565b600560205281600052604060002060205280600052604060002060009150915050548156fea2646970667358221220a27d8e14609face4a07826a34ba8181b5ea917b8553e3d4767409cca6071e42f64736f6c63430006040033746f6b656e20616c7265616479206465706c6f79656420666f7220746869732061646472657373a2646970667358221220f34c2136c1067025ef2994f15fccb0ff292768f6a7367773719daa9283a5034764736f6c63430006040033",
  "source": "pragma solidity 0.6.4;\n\nimport \"./CashAid.sol\";\n\nimport \"./TokenFactory.sol\";\n\ncontract CashAidFactory is TokenFactory {\n    event LogAgencyRegistered(address _agency);\n    event LogAidCreated(CashAid _aid, string _id);\n    event LogTokenReleased(uint256 indexed _phone, address indexed _agency);\n    event LogTokenClaimed(\n        address indexed _vendor,\n        address _contract,\n        uint256 indexed _phone,\n        uint256 indexed _amount\n    );\n\n    //RSToken public tokenContract;\n    // mapping(address => bool) public owner;\n\n    mapping(address => mapping(string => CashAid)) public CashAids;\n\n    constructor() public {\n        // owner[msg.sender] = true;\n    }\n\n    // modifier OnlyOwner() {\n    //     // require(owner[msg.sender]);\n    //     // _;\n    //  //   require(TokenFactory(_contractAddress) != AidToken(0));\n    //     _;\n    // }\n\n    modifier OnlyAdmin {\n        // require(admin[msg.sender]);\n        // _;\n        require(tokens[msg.sender] != AidToken(0), \"account not registered\");\n        _;\n    }\n\n    //msg.sender on CashAid contract is this contract?\n    function claimToken(\n        address _contractAddress,\n        uint256 _phone,\n        uint256 _numberOfTokens\n    ) public {\n        CashAid(_contractAddress).claimTokens(_phone, _numberOfTokens);\n\n        emit LogTokenClaimed(\n            msg.sender,\n            _contractAddress,\n            _phone,\n            _numberOfTokens\n        );\n    }\n\n    //try emitting token Address\n    function releaseToken(\n        address _contractAddress,\n        address _address,\n        uint256 _phone,\n        bytes32 _otpHash\n    ) public OnlyOwner {\n        CashAid(_contractAddress).release(_address, _phone, _otpHash);\n\n        emit LogTokenReleased(_phone, _contractAddress);\n    }\n\n    // function registerAgency(address _address) public OnlyOwner {\n    //     require(!admin[_address]);\n    //     admin[_address] = true;\n\n    //     emit LogAgencyRegistered(_address);\n    // }\n\n    function createAid(AidToken _tokenContract, string memory _id)\n        public\n        OnlyAdmin\n    {\n        require(\n            CashAids[msg.sender][_id] == CashAid(0),\n            \"contract already deployed\"\n        );\n        CashAids[msg.sender][_id] = new CashAid(_tokenContract, msg.sender);\n\n        emit LogAidCreated(CashAids[msg.sender][_id], _id);\n    }\n}\n",
  "sourcePath": "/home/manzik/esatya/cash-aid/contracts/CashAidFactory.sol",
  "compiler": {
    "name": "solc",
    "version": "0.6.4+commit.1dca32f3.Emscripten.clang"
  },
  "schemaVersion": "3.1.0",
  "updatedAt": "2020-07-10T08:17:42.472Z",
  "networkType": "ethereum",
  "devdoc": {
    "methods": {}
  },
  "userdoc": {
    "methods": {}
  }
}