{
  "contractName": "CashAid",
  "abi": [
    {
      "inputs": [
        {
          "internalType": "contract AidToken",
          "name": "_tokenContract",
          "type": "address"
        },
        {
          "internalType": "address",
          "name": "_caller",
          "type": "address"
        }
      ],
      "stateMutability": "nonpayable",
      "type": "constructor"
    },
    {
      "anonymous": false,
      "inputs": [
        {
          "indexed": false,
          "internalType": "address",
          "name": "",
          "type": "address"
        },
        {
          "indexed": true,
          "internalType": "uint256",
          "name": "_phone",
          "type": "uint256"
        },
        {
          "indexed": false,
          "internalType": "uint256",
          "name": "_amount",
          "type": "uint256"
        }
      ],
      "name": "LogClaimed",
      "type": "event"
    },
    {
      "anonymous": false,
      "inputs": [
        {
          "indexed": false,
          "internalType": "uint256",
          "name": "_phone",
          "type": "uint256"
        },
        {
          "indexed": false,
          "internalType": "uint256",
          "name": "_amount",
          "type": "uint256"
        }
      ],
      "name": "LogIssued",
      "type": "event"
    },
    {
      "anonymous": false,
      "inputs": [
        {
          "indexed": false,
          "internalType": "uint256",
          "name": "_phone",
          "type": "uint256"
        },
        {
          "indexed": false,
          "internalType": "uint256",
          "name": "_amount",
          "type": "uint256"
        }
      ],
      "name": "LogReleased",
      "type": "event"
    },
    {
      "inputs": [
        {
          "internalType": "address",
          "name": "",
          "type": "address"
        }
      ],
      "name": "admin",
      "outputs": [
        {
          "internalType": "bool",
          "name": "",
          "type": "bool"
        }
      ],
      "stateMutability": "view",
      "type": "function"
    },
    {
      "inputs": [
        {
          "internalType": "address",
          "name": "",
          "type": "address"
        },
        {
          "internalType": "uint256",
          "name": "",
          "type": "uint256"
        }
      ],
      "name": "allClaims",
      "outputs": [
        {
          "internalType": "uint256",
          "name": "amount",
          "type": "uint256"
        },
        {
          "internalType": "bytes32",
          "name": "otpHash",
          "type": "bytes32"
        },
        {
          "internalType": "enum CashAid.Status",
          "name": "status",
          "type": "uint8"
        },
        {
          "internalType": "uint256",
          "name": "expiryDate",
          "type": "uint256"
        }
      ],
      "stateMutability": "view",
      "type": "function"
    },
    {
      "inputs": [
        {
          "internalType": "uint256",
          "name": "",
          "type": "uint256"
        }
      ],
      "name": "beneficiaries",
      "outputs": [
        {
          "internalType": "bool",
          "name": "",
          "type": "bool"
        }
      ],
      "stateMutability": "view",
      "type": "function"
    },
    {
      "inputs": [
        {
          "internalType": "uint256",
          "name": "",
          "type": "uint256"
        }
      ],
      "name": "claimables",
      "outputs": [
        {
          "internalType": "uint256",
          "name": "",
          "type": "uint256"
        }
      ],
      "stateMutability": "view",
      "type": "function"
    },
    {
      "inputs": [],
      "name": "factory",
      "outputs": [
        {
          "internalType": "address",
          "name": "",
          "type": "address"
        }
      ],
      "stateMutability": "view",
      "type": "function"
    },
    {
      "inputs": [],
      "name": "tokenContract",
      "outputs": [
        {
          "internalType": "contract AidToken",
          "name": "",
          "type": "address"
        }
      ],
      "stateMutability": "view",
      "type": "function"
    },
    {
      "inputs": [
        {
          "internalType": "address",
          "name": "",
          "type": "address"
        }
      ],
      "name": "vendors",
      "outputs": [
        {
          "internalType": "bool",
          "name": "",
          "type": "bool"
        }
      ],
      "stateMutability": "view",
      "type": "function"
    },
    {
      "inputs": [
        {
          "internalType": "address",
          "name": "_address",
          "type": "address"
        }
      ],
      "name": "addAdmin",
      "outputs": [],
      "stateMutability": "nonpayable",
      "type": "function"
    },
    {
      "inputs": [
        {
          "internalType": "address",
          "name": "_address",
          "type": "address"
        }
      ],
      "name": "vendor",
      "outputs": [],
      "stateMutability": "nonpayable",
      "type": "function"
    },
    {
      "inputs": [
        {
          "internalType": "uint256",
          "name": "_phone",
          "type": "uint256"
        },
        {
          "internalType": "uint256",
          "name": "_amount",
          "type": "uint256"
        }
      ],
      "name": "issue",
      "outputs": [],
      "stateMutability": "nonpayable",
      "type": "function"
    },
    {
      "inputs": [
        {
          "internalType": "uint256[]",
          "name": "_phone",
          "type": "uint256[]"
        },
        {
          "internalType": "uint256[]",
          "name": "_amount",
          "type": "uint256[]"
        }
      ],
      "name": "issueBulk",
      "outputs": [],
      "stateMutability": "nonpayable",
      "type": "function"
    },
    {
      "inputs": [
        {
          "internalType": "uint256",
          "name": "_phone",
          "type": "uint256"
        },
        {
          "internalType": "uint256",
          "name": "_numberOfTokens",
          "type": "uint256"
        }
      ],
      "name": "claimTokens",
      "outputs": [],
      "stateMutability": "nonpayable",
      "type": "function"
    },
    {
      "inputs": [
        {
          "internalType": "address",
          "name": "_address",
          "type": "address"
        },
        {
          "internalType": "uint256",
          "name": "_phone",
          "type": "uint256"
        },
        {
          "internalType": "bytes32",
          "name": "_otpHash",
          "type": "bytes32"
        }
      ],
      "name": "release",
      "outputs": [],
      "stateMutability": "nonpayable",
      "type": "function"
    },
    {
      "inputs": [
        {
          "internalType": "uint256",
          "name": "_phone",
          "type": "uint256"
        },
        {
          "internalType": "string",
          "name": "_otp",
          "type": "string"
        }
      ],
      "name": "getTokens",
      "outputs": [
        {
          "internalType": "bytes32",
          "name": "interal_otp",
          "type": "bytes32"
        },
        {
          "internalType": "bytes32",
          "name": "extern_otp",
          "type": "bytes32"
        }
      ],
      "stateMutability": "nonpayable",
      "type": "function"
    },
    {
      "inputs": [
        {
          "internalType": "uint256[]",
          "name": "_array",
          "type": "uint256[]"
        }
      ],
      "name": "getArraySum",
      "outputs": [
        {
          "internalType": "uint256",
          "name": "sum",
          "type": "uint256"
        }
      ],
      "stateMutability": "pure",
      "type": "function"
    },
    {
      "inputs": [],
      "name": "close",
      "outputs": [],
      "stateMutability": "nonpayable",
      "type": "function"
    }
  ],
  "bytecode": "0x60806040523480156200001157600080fd5b50604051620027633803806200276383398181016040528101906200003791906200019d565b60016000803373ffffffffffffffffffffffffffffffffffffffff1673ffffffffffffffffffffffffffffffffffffffff16815260200190815260200160002060006101000a81548160ff02191690831515021790555060016000808373ffffffffffffffffffffffffffffffffffffffff1673ffffffffffffffffffffffffffffffffffffffff16815260200190815260200160002060006101000a81548160ff02191690831515021790555033600460006101000a81548173ffffffffffffffffffffffffffffffffffffffff021916908373ffffffffffffffffffffffffffffffffffffffff16021790555081600160006101000a81548173ffffffffffffffffffffffffffffffffffffffff021916908373ffffffffffffffffffffffffffffffffffffffff16021790555050506200025a565b600081519050620001808162000226565b92915050565b600081519050620001978162000240565b92915050565b60008060408385031215620001b157600080fd5b6000620001c18582860162000186565b9250506020620001d4858286016200016f565b9150509250929050565b6000620001eb8262000206565b9050919050565b6000620001ff82620001de565b9050919050565b600073ffffffffffffffffffffffffffffffffffffffff82169050919050565b6200023181620001de565b81146200023d57600080fd5b50565b6200024b81620001f2565b81146200025757600080fd5b50565b6124f9806200026a6000396000f3fe608060405234801561001057600080fd5b50600436106101005760003560e01c80635e836fa0116100975780638ea6bde3116100665780638ea6bde3146102c1578063c45a0155146102dd578063ee407efe146102fb578063efeb5e581461031757610100565b80635e836fa01461022857806363a846f814610259578063704802751461028957806374a1ad06146102a557610100565b80633098b74b116100d35780633098b74b146101b45780633f5df8db146101e457806343d726d61461020057806355a373d61461020a57610100565b806306c2466d146101055780631fff1a2b1461013857806327e30c36146101685780632d3ad0cb14610198575b600080fd5b61011f600480360381019061011a91906117fa565b610347565b60405161012f949392919061221b565b60405180910390f35b610152600480360381019061014d9190611984565b610391565b60405161015f9190612200565b60405180910390f35b610182600480360381019061017d91906117d1565b6103a9565b60405161018f9190611fe1565b60405180910390f35b6101b260048036038101906101ad9190611836565b6103c9565b005b6101ce60048036038101906101c99190611885565b610604565b6040516101db9190612200565b60405180910390f35b6101fe60048036038101906101f99190611a2a565b610646565b005b610208610830565b005b610212610a17565b60405161021f9190612025565b60405180910390f35b610242600480360381019061023d91906119d6565b610a3d565b604051610250929190611ffc565b60405180910390f35b610273600480360381019061026e91906117d1565b610f75565b6040516102809190611fe1565b60405180910390f35b6102a3600480360381019061029e91906117d1565b610f95565b005b6102bf60048036038101906102ba91906117d1565b61107a565b005b6102db60048036038101906102d69190611a2a565b611162565b005b6102e56113a9565b6040516102f29190611f9d565b60405180910390f35b610315600480360381019061031091906118c6565b6113cf565b005b610331600480360381019061032c9190611984565b6115e4565b60405161033e9190611fe1565b60405180910390f35b6005602052816000526040600020602052806000526040600020600091509150508060000154908060010154908060020160009054906101000a900460ff16908060030154905084565b60066020528060005260406000206000915090505481565b60036020528060005260406000206000915054906101000a900460ff1681565b600460009054906101000a900473ffffffffffffffffffffffffffffffffffffffff1673ffffffffffffffffffffffffffffffffffffffff163373ffffffffffffffffffffffffffffffffffffffff1614610459576040517f08c379a000000000000000000000000000000000000000000000000000000000815260040161045090612140565b60405180910390fd5b42600560008573ffffffffffffffffffffffffffffffffffffffff1673ffffffffffffffffffffffffffffffffffffffff16815260200190815260200160002060008481526020019081526020016000206003015410156104ef576040517f08c379a00000000000000000000000000000000000000000000000000000000081526004016104e6906120a0565b60405180910390fd5b6000600560008573ffffffffffffffffffffffffffffffffffffffff1673ffffffffffffffffffffffffffffffffffffffff1681526020019081526020016000206000848152602001908152602001600020905081816001018190555060018160020160006101000a81548160ff0219169083600281111561056d57fe5b02179055507f64ba59ef764878509533544581cdee36ad895d2bf2c73f2b79990dd8d2b41c7f83600560008773ffffffffffffffffffffffffffffffffffffffff1673ffffffffffffffffffffffffffffffffffffffff1681526020019081526020016000206000868152602001908152602001600020600001546040516105f6929190612260565b60405180910390a150505050565b600080905060008090505b825181101561063d5782818151811061062457fe5b602002602001015182019150808060010191505061060f565b50809050919050565b6000803373ffffffffffffffffffffffffffffffffffffffff1673ffffffffffffffffffffffffffffffffffffffff16815260200190815260200160002060009054906101000a900460ff166106d1576040517f08c379a00000000000000000000000000000000000000000000000000000000081526004016106c890612160565b60405180910390fd5b6007548101600160009054906101000a900473ffffffffffffffffffffffffffffffffffffffff1673ffffffffffffffffffffffffffffffffffffffff166370a08231306040518263ffffffff1660e01b81526004016107319190611f9d565b60206040518083038186803b15801561074957600080fd5b505afa15801561075d573d6000803e3d6000fd5b505050506040513d601f19601f8201168201806040525081019061078191906119ad565b10156107c2576040517f08c379a00000000000000000000000000000000000000000000000000000000081526004016107b9906121c0565b60405180910390fd5b806006600084815260200190815260200160002060008282540192505081905550806007600082825401925050819055507fa3d104ab92409d453445e33158e34ee3c7741f5486fb8605ddcf2a8acb4f8a7f8282604051610824929190612260565b60405180910390a15050565b6000803373ffffffffffffffffffffffffffffffffffffffff1673ffffffffffffffffffffffffffffffffffffffff16815260200190815260200160002060009054906101000a900460ff166108bb576040517f08c379a00000000000000000000000000000000000000000000000000000000081526004016108b290612160565b60405180910390fd5b600160009054906101000a900473ffffffffffffffffffffffffffffffffffffffff1673ffffffffffffffffffffffffffffffffffffffff1663a9059cbb33600160009054906101000a900473ffffffffffffffffffffffffffffffffffffffff1673ffffffffffffffffffffffffffffffffffffffff166370a08231306040518263ffffffff1660e01b81526004016109559190611f9d565b60206040518083038186803b15801561096d57600080fd5b505afa158015610981573d6000803e3d6000fd5b505050506040513d601f19601f820116820180604052508101906109a591906119ad565b6040518363ffffffff1660e01b81526004016109c2929190611fb8565b602060405180830381600087803b1580156109dc57600080fd5b505af11580156109f0573d6000803e3d6000fd5b505050506040513d601f19601f82011682018060405250810190610a149190611932565b50565b600160009054906101000a900473ffffffffffffffffffffffffffffffffffffffff1681565b600080600360003273ffffffffffffffffffffffffffffffffffffffff1673ffffffffffffffffffffffffffffffffffffffff16815260200190815260200160002060009054906101000a900460ff16610acc576040517f08c379a0000000000000000000000000000000000000000000000000000000008152600401610ac3906120e0565b60405180910390fd5b6000600560003373ffffffffffffffffffffffffffffffffffffffff1673ffffffffffffffffffffffffffffffffffffffff168152602001908152602001600020600086815260200190815260200160002090506000610b2b85611604565b90504282600301541015610b74576040517f08c379a0000000000000000000000000000000000000000000000000000000008152600401610b6b90612040565b60405180910390fd5b60018260020160009054906101000a900460ff166002811115610b9357fe5b14610bd3576040517f08c379a0000000000000000000000000000000000000000000000000000000008152600401610bca90612120565b60405180910390fd5b60028260020160009054906101000a900460ff166002811115610bf257fe5b1415610c33576040517f08c379a0000000000000000000000000000000000000000000000000000000008152600401610c2a906121a0565b60405180910390fd5b80600560003373ffffffffffffffffffffffffffffffffffffffff1673ffffffffffffffffffffffffffffffffffffffff16815260200190815260200160002060008881526020019081526020016000206001015414610cc8576040517f08c379a0000000000000000000000000000000000000000000000000000000008152600401610cbf90612100565b60405180910390fd5b8160000154600160009054906101000a900473ffffffffffffffffffffffffffffffffffffffff1673ffffffffffffffffffffffffffffffffffffffff166370a08231306040518263ffffffff1660e01b8152600401610d289190611f9d565b60206040518083038186803b158015610d4057600080fd5b505afa158015610d54573d6000803e3d6000fd5b505050506040513d601f19601f82011682018060405250810190610d7891906119ad565b1015610db9576040517f08c379a0000000000000000000000000000000000000000000000000000000008152600401610db0906120c0565b60405180910390fd5b600160009054906101000a900473ffffffffffffffffffffffffffffffffffffffff1673ffffffffffffffffffffffffffffffffffffffff1663a9059cbb3384600001546040518363ffffffff1660e01b8152600401610e1a929190611fb8565b602060405180830381600087803b158015610e3457600080fd5b505af1158015610e48573d6000803e3d6000fd5b505050506040513d601f19601f82011682018060405250810190610e6c9190611932565b610eab576040517f08c379a0000000000000000000000000000000000000000000000000000000008152600401610ea2906121e0565b60405180910390fd5b8160000154600660008881526020019081526020016000206000828254039250508190555060028260020160006101000a81548160ff02191690836002811115610ef157fe5b0217905550428260030181905550816000015460076000828254039250508190555080600560003373ffffffffffffffffffffffffffffffffffffffff1673ffffffffffffffffffffffffffffffffffffffff1681526020019081526020016000206000888152602001908152602001600020600101549350935050509250929050565b60006020528060005260406000206000915054906101000a900460ff1681565b6000803373ffffffffffffffffffffffffffffffffffffffff1673ffffffffffffffffffffffffffffffffffffffff16815260200190815260200160002060009054906101000a900460ff16611020576040517f08c379a000000000000000000000000000000000000000000000000000000000815260040161101790612160565b60405180910390fd5b60016000808373ffffffffffffffffffffffffffffffffffffffff1673ffffffffffffffffffffffffffffffffffffffff16815260200190815260200160002060006101000a81548160ff02191690831515021790555050565b600360008273ffffffffffffffffffffffffffffffffffffffff1673ffffffffffffffffffffffffffffffffffffffff16815260200190815260200160002060009054906101000a900460ff1615611107576040517f08c379a00000000000000000000000000000000000000000000000000000000081526004016110fe90612080565b60405180910390fd5b6001600360008373ffffffffffffffffffffffffffffffffffffffff1673ffffffffffffffffffffffffffffffffffffffff16815260200190815260200160002060006101000a81548160ff02191690831515021790555050565b600360003273ffffffffffffffffffffffffffffffffffffffff1673ffffffffffffffffffffffffffffffffffffffff16815260200190815260200160002060009054906101000a900460ff166111ee576040517f08c379a00000000000000000000000000000000000000000000000000000000081526004016111e5906120e0565b60405180910390fd5b8060066000848152602001908152602001600020541015611244576040517f08c379a000000000000000000000000000000000000000000000000000000000815260040161123b90612060565b60405180910390fd5b42600560003273ffffffffffffffffffffffffffffffffffffffff1673ffffffffffffffffffffffffffffffffffffffff16815260200190815260200160002060008481526020019081526020016000206003015411156112da576040517f08c379a00000000000000000000000000000000000000000000000000000000081526004016112d190612180565b60405180910390fd5b6000600560003273ffffffffffffffffffffffffffffffffffffffff1673ffffffffffffffffffffffffffffffffffffffff1681526020019081526020016000206000848152602001908152602001600020905081816000018190555060008160020160006101000a81548160ff0219169083600281111561135857fe5b021790555061012c42018160030181905550827fdaf43f13f8e52679dc580fc78bf80028f7d4ed733283deb8554be3907944533d328460405161139c929190611fb8565b60405180910390a2505050565b600460009054906101000a900473ffffffffffffffffffffffffffffffffffffffff1681565b6000803373ffffffffffffffffffffffffffffffffffffffff1673ffffffffffffffffffffffffffffffffffffffff16815260200190815260200160002060009054906101000a900460ff1661145a576040517f08c379a000000000000000000000000000000000000000000000000000000000815260040161145190612160565b60405180910390fd5b60008061146683610604565b90506007548101600160009054906101000a900473ffffffffffffffffffffffffffffffffffffffff1673ffffffffffffffffffffffffffffffffffffffff166370a08231306040518263ffffffff1660e01b81526004016114c89190611f9d565b60206040518083038186803b1580156114e057600080fd5b505afa1580156114f4573d6000803e3d6000fd5b505050506040513d601f19601f8201168201806040525081019061151891906119ad565b1015611559576040517f08c379a0000000000000000000000000000000000000000000000000000000008152600401611550906121c0565b60405180910390fd5b600091505b83518210156115de5782828151811061157357fe5b60200260200101516006600086858151811061158b57fe5b60200260200101518152602001908152602001600020600082825401925050819055508282815181106115ba57fe5b6020026020010151600760008282540192505081905550818060010192505061155e565b50505050565b60026020528060005260406000206000915054906101000a900460ff1681565b60006002826040516020016116199190611f86565b6040516020818303038152906040526040516116359190611f6f565b602060405180830381855afa158015611652573d6000803e3d6000fd5b5050506040513d601f19601f82011682018060405250810190611675919061195b565b9050919050565b60008135905061168b81612467565b92915050565b600082601f8301126116a257600080fd5b81356116b56116b0826122b6565b612289565b915081818352602084019350602081019050838560208402820111156116da57600080fd5b60005b8381101561170a57816116f088826117a7565b8452602084019350602083019250506001810190506116dd565b5050505092915050565b6000815190506117238161247e565b92915050565b60008135905061173881612495565b92915050565b60008151905061174d81612495565b92915050565b600082601f83011261176457600080fd5b8135611777611772826122de565b612289565b9150808252602083016020830185838301111561179357600080fd5b61179e838284612418565b50505092915050565b6000813590506117b6816124ac565b92915050565b6000815190506117cb816124ac565b92915050565b6000602082840312156117e357600080fd5b60006117f18482850161167c565b91505092915050565b6000806040838503121561180d57600080fd5b600061181b8582860161167c565b925050602061182c858286016117a7565b9150509250929050565b60008060006060848603121561184b57600080fd5b60006118598682870161167c565b935050602061186a868287016117a7565b925050604061187b86828701611729565b9150509250925092565b60006020828403121561189757600080fd5b600082013567ffffffffffffffff8111156118b157600080fd5b6118bd84828501611691565b91505092915050565b600080604083850312156118d957600080fd5b600083013567ffffffffffffffff8111156118f357600080fd5b6118ff85828601611691565b925050602083013567ffffffffffffffff81111561191c57600080fd5b61192885828601611691565b9150509250929050565b60006020828403121561194457600080fd5b600061195284828501611714565b91505092915050565b60006020828403121561196d57600080fd5b600061197b8482850161173e565b91505092915050565b60006020828403121561199657600080fd5b60006119a4848285016117a7565b91505092915050565b6000602082840312156119bf57600080fd5b60006119cd848285016117bc565b91505092915050565b600080604083850312156119e957600080fd5b60006119f7858286016117a7565b925050602083013567ffffffffffffffff811115611a1457600080fd5b611a2085828601611753565b9150509250929050565b60008060408385031215611a3d57600080fd5b6000611a4b858286016117a7565b9250506020611a5c858286016117a7565b9150509250929050565b611a6f816123ac565b82525050565b611a7e81612347565b82525050565b611a8d81612359565b82525050565b611a9c81612365565b82525050565b6000611aad8261230a565b611ab78185612320565b9350611ac7818560208601612427565b80840191505092915050565b611adc816123be565b82525050565b611aeb816123e2565b82525050565b6000611afc82612315565b611b06818561233c565b9350611b16818560208601612427565b80840191505092915050565b6000611b2f600b8361232b565b91507f6f747020657870697265640000000000000000000000000000000000000000006000830152602082019050919050565b6000611b6f602b8361232b565b91507f6e756d626572206f6620746f6b656e732069732067726561746572207468616e60008301527f20636c61696d61626c652e0000000000000000000000000000000000000000006020830152604082019050919050565b6000611bd5601c8361232b565b91507f616c726561647920726567697374657265642061732076656e646f72000000006000830152602082019050919050565b6000611c15600d8361232b565b91507f636c61696d2065787069726564000000000000000000000000000000000000006000830152602082019050919050565b6000611c5560128361232b565b91507f6e6f7420656e6f7567682062616c616e636500000000000000000000000000006000830152602082019050919050565b6000611c9560298361232b565b91507f4f6e6c792076656e646f72732063616e2065786578757465207468697320747260008301527f616e73616374696f6e00000000000000000000000000000000000000000000006020830152604082019050919050565b6000611cfb60118361232b565b91507f6f747020646964206e6f74206d617463680000000000000000000000000000006000830152602082019050919050565b6000611d3b601b8361232b565b91507f636c61696d20776173206e6f742072656c6561736564207965742e00000000006000830152602082019050919050565b6000611d7b601b8361232b565b91507f596f75206e65656420746f207573652074686520666163746f727900000000006000830152602082019050919050565b6000611dbb60278361232b565b91507f4f6e6c792041646d696e2063616e20657865637574652074686973207472616e60008301527f73616374696f6e000000000000000000000000000000000000000000000000006020830152604082019050919050565b6000611e21600d8361232b565b91507f636c61696d2070656e64696e67000000000000000000000000000000000000006000830152602082019050919050565b6000611e61602a8361232b565b91507f6e6f2070656e64696e6720636c61696d7320666f722063757272656e7420706860008301527f6f6e65206e756d626572000000000000000000000000000000000000000000006020830152604082019050919050565b6000611ec760198361232b565b91507f6e6f7420656e6f75676820746f6b656e20746f206973737565000000000000006000830152602082019050919050565b6000611f0760248361232b565b91507f696e7465726e616c206572726f723a63616e6e6f74207472616e73666572207460008301527f6f6b656e000000000000000000000000000000000000000000000000000000006020830152604082019050919050565b611f69816123a2565b82525050565b6000611f7b8284611aa2565b915081905092915050565b6000611f928284611af1565b915081905092915050565b6000602082019050611fb26000830184611a75565b92915050565b6000604082019050611fcd6000830185611a66565b611fda6020830184611f60565b9392505050565b6000602082019050611ff66000830184611a84565b92915050565b60006040820190506120116000830185611a93565b61201e6020830184611a93565b9392505050565b600060208201905061203a6000830184611ad3565b92915050565b6000602082019050818103600083015261205981611b22565b9050919050565b6000602082019050818103600083015261207981611b62565b9050919050565b6000602082019050818103600083015261209981611bc8565b9050919050565b600060208201905081810360008301526120b981611c08565b9050919050565b600060208201905081810360008301526120d981611c48565b9050919050565b600060208201905081810360008301526120f981611c88565b9050919050565b6000602082019050818103600083015261211981611cee565b9050919050565b6000602082019050818103600083015261213981611d2e565b9050919050565b6000602082019050818103600083015261215981611d6e565b9050919050565b6000602082019050818103600083015261217981611dae565b9050919050565b6000602082019050818103600083015261219981611e14565b9050919050565b600060208201905081810360008301526121b981611e54565b9050919050565b600060208201905081810360008301526121d981611eba565b9050919050565b600060208201905081810360008301526121f981611efa565b9050919050565b60006020820190506122156000830184611f60565b92915050565b60006080820190506122306000830187611f60565b61223d6020830186611a93565b61224a6040830185611ae2565b6122576060830184611f60565b95945050505050565b60006040820190506122756000830185611f60565b6122826020830184611f60565b9392505050565b6000604051905081810181811067ffffffffffffffff821117156122ac57600080fd5b8060405250919050565b600067ffffffffffffffff8211156122cd57600080fd5b602082029050602081019050919050565b600067ffffffffffffffff8211156122f557600080fd5b601f19601f8301169050602081019050919050565b600081519050919050565b600081519050919050565b600081905092915050565b600082825260208201905092915050565b600081905092915050565b600061235282612382565b9050919050565b60008115159050919050565b6000819050919050565b600081905061237d8261245a565b919050565b600073ffffffffffffffffffffffffffffffffffffffff82169050919050565b6000819050919050565b60006123b7826123f4565b9050919050565b60006123c9826123d0565b9050919050565b60006123db82612382565b9050919050565b60006123ed8261236f565b9050919050565b60006123ff82612406565b9050919050565b600061241182612382565b9050919050565b82818337600083830152505050565b60005b8381101561244557808201518184015260208101905061242a565b83811115612454576000848401525b50505050565b6003811061246457fe5b50565b61247081612347565b811461247b57600080fd5b50565b61248781612359565b811461249257600080fd5b50565b61249e81612365565b81146124a957600080fd5b50565b6124b5816123a2565b81146124c057600080fd5b5056fea2646970667358221220a5f484949b78dfd8bc6f8dd330801d12b0f2a913f8d3f00db7fc72d4b7c2d3d764736f6c63430006040033",
  "source": "pragma solidity 0.6.4;\npragma experimental ABIEncoderV2;\n\nimport \"./AidToken.sol\";\n\ncontract CashAid {\n    event LogClaimed(address, uint256 indexed _phone, uint256 _amount);\n    event LogReleased(uint256 _phone, uint256 _amount);\n    event LogIssued(uint256 _phone, uint256 _amount);\n\n    mapping(address => bool) public admin;\n    AidToken public tokenContract;\n\n    mapping(uint256 => bool) public beneficiaries;\n    mapping(address => bool) public vendors;\n\n    enum Status {open, released, closed}\n\n    struct claim {\n        uint256 amount;\n        bytes32 otpHash;\n        Status status;\n        uint256 expiryDate;\n    }\n    address public factory;\n\n    mapping(address => mapping(uint256 => claim)) public allClaims;\n\n    mapping(uint256 => uint256) public claimables;\n    uint256 totalIssuedTokens;\n\n    constructor(AidToken _tokenContract, address _caller) public {\n        admin[msg.sender] = true;\n        admin[_caller] = true;\n        factory = msg.sender;\n        tokenContract = _tokenContract;\n    }\n\n    modifier OnlyFactory() {\n        require(msg.sender == factory, \"You need to use the factory\");\n        _;\n    }\n    modifier OnlyAdmin {\n        require(admin[msg.sender], \"Only Admin can execute this transaction\");\n        _;\n    }\n\n    modifier OnlyVendor {\n        require(\n            vendors[tx.origin],\n            \"Only vendors can exexute this transaction\"\n        );\n        _;\n    }\n\n    function addAdmin(address _address) public OnlyAdmin {\n        admin[_address] = true;\n    }\n\n    // function beneficiary(uint256 _phone)  public OnlyAdmin {\n    //     require(!beneficiaries[_phone],\"already registered as beneficiary\");\n    //     beneficiaries[_phone] = true;\n    // }\n\n    function vendor(address _address) public {\n        require(!vendors[_address], \"already registered as vendor\");\n        vendors[_address] = true;\n    }\n\n    function issue(uint256 _phone, uint256 _amount) public OnlyAdmin {\n        require(\n            tokenContract.balanceOf(address(this)) >=\n                _amount + totalIssuedTokens,\n            \"not enough token to issue\"\n        );\n        //require(beneficiaries[_phone],\"phone not registered as beneficiary\");\n        claimables[_phone] += _amount;\n        totalIssuedTokens += _amount;\n\n        emit LogIssued(_phone, _amount);\n    }\n\n    function issueBulk(uint256[] memory _phone, uint256[] memory _amount)\n        public\n        OnlyAdmin\n    {\n        uint256 i;\n        uint256 sum = getArraySum(_amount);\n\n        require(\n            tokenContract.balanceOf(address(this)) >= sum + totalIssuedTokens,\n            \"not enough token to issue\"\n        );\n\n        for (i = 0; i < _phone.length; i++) {\n            claimables[_phone[i]] += _amount[i];\n            totalIssuedTokens += _amount[i];\n        }\n    }\n\n    //change otp to bytes 32 => store hash only\n    function claimTokens(uint256 _phone, uint256 _numberOfTokens)\n        public\n        OnlyVendor\n    {\n        require(\n            claimables[_phone] >= _numberOfTokens,\n            \"number of tokens is greater than claimable.\"\n        );\n        require(\n            allClaims[tx.origin][_phone].expiryDate <= block.timestamp,\n            \"claim pending\"\n        );\n\n        claim storage ac = allClaims[tx.origin][_phone];\n        ac.amount = _numberOfTokens;\n        ac.status = Status.open;\n        ac.expiryDate = block.timestamp + 300;\n\n        emit LogClaimed(tx.origin, _phone, _numberOfTokens);\n    }\n\n    //onlyfactory can release;\n    function release(\n        address _address,\n        uint256 _phone,\n        bytes32 _otpHash\n    ) public OnlyFactory {\n        require(\n            allClaims[_address][_phone].expiryDate >= block.timestamp,\n            \"claim expired\"\n        );\n        claim storage ac = allClaims[_address][_phone];\n        ac.otpHash = _otpHash;\n        ac.status = Status.released;\n        emit LogReleased(_phone, allClaims[_address][_phone].amount);\n    }\n\n    function getTokens(uint256 _phone, string memory _otp)\n        public\n        OnlyVendor\n        returns (bytes32 interal_otp, bytes32 extern_otp)\n    {\n        claim storage ac = allClaims[msg.sender][_phone];\n        bytes32 otpHash = findHash(_otp);\n        require(ac.expiryDate >= block.timestamp, \"otp expired\");\n        require(uint256(ac.status) == 1, \"claim was not released yet.\");\n        require(\n            uint256(ac.status) != 2,\n            \"no pending claims for current phone number\"\n        );\n        require(\n            allClaims[msg.sender][_phone].otpHash == otpHash,\n            \"otp did not match\"\n        );\n        require(\n            tokenContract.balanceOf(address(this)) >= ac.amount,\n            \"not enough balance\"\n        );\n        require(\n            tokenContract.transfer(msg.sender, ac.amount),\n            \"internal error:cannot transfer token\"\n        );\n\n        claimables[_phone] -= ac.amount;\n        ac.status = Status.closed;\n        ac.expiryDate = block.timestamp;\n        totalIssuedTokens -= ac.amount;\n\n        return (otpHash, allClaims[msg.sender][_phone].otpHash);\n    }\n\n    function findHash(string memory _pin) private pure returns (bytes32) {\n        return sha256(abi.encodePacked(_pin));\n    }\n\n    function getArraySum(uint256[] memory _array)\n        public\n        pure\n        returns (uint256 sum)\n    {\n        sum = 0;\n        for (uint256 i = 0; i < _array.length; i++) {\n            sum += _array[i];\n        }\n        return sum;\n    }\n\n    function close() public OnlyAdmin {\n        tokenContract.transfer(\n            msg.sender,\n            tokenContract.balanceOf(address(this))\n        );\n        // selfdestruct(msg.sender);\n    }\n}\n",
  "sourcePath": "/home/manzik/esatya/cash-aid/contracts/CashAid.sol",
  "compiler": {
    "name": "solc",
    "version": "0.6.4+commit.1dca32f3.Emscripten.clang"
  },
  "schemaVersion": "3.1.0",
  "updatedAt": "2020-07-10T08:17:42.452Z",
  "networkType": "ethereum",
  "devdoc": {
    "methods": {}
  },
  "userdoc": {
    "methods": {}
  }
}