{
  "contractName": "TxRelay",
  "abi": [
    {
      "anonymous": false,
      "inputs": [
        {
          "indexed": false,
          "internalType": "address",
          "name": "from",
          "type": "address"
        },
        {
          "indexed": false,
          "internalType": "string",
          "name": "message",
          "type": "string"
        }
      ],
      "name": "Log",
      "type": "event"
    },
    {
      "inputs": [
        {
          "internalType": "address",
          "name": "",
          "type": "address"
        }
      ],
      "name": "nonce",
      "outputs": [
        {
          "internalType": "uint256",
          "name": "",
          "type": "uint256"
        }
      ],
      "stateMutability": "view",
      "type": "function"
    },
    {
      "inputs": [
        {
          "internalType": "uint8",
          "name": "sigV",
          "type": "uint8"
        },
        {
          "internalType": "bytes32",
          "name": "sigR",
          "type": "bytes32"
        },
        {
          "internalType": "bytes32",
          "name": "sigS",
          "type": "bytes32"
        },
        {
          "internalType": "address",
          "name": "destination",
          "type": "address"
        },
        {
          "internalType": "bytes",
          "name": "data",
          "type": "bytes"
        },
        {
          "internalType": "address",
          "name": "sender",
          "type": "address"
        }
      ],
      "name": "relayMetaTx",
      "outputs": [],
      "stateMutability": "nonpayable",
      "type": "function"
    }
  ],
  "bytecode": "0x608060405234801561001057600080fd5b5061065d806100206000396000f3fe608060405234801561001057600080fd5b50600436106100365760003560e01c806370ae92d21461003b578063c3f44c0a14610093575b600080fd5b61007d6004803603602081101561005157600080fd5b81019080803573ffffffffffffffffffffffffffffffffffffffff1690602001909291905050506101af565b6040518082815260200191505060405180910390f35b6101ad600480360360c08110156100a957600080fd5b81019080803560ff1690602001909291908035906020019092919080359060200190929190803573ffffffffffffffffffffffffffffffffffffffff1690602001909291908035906020019064010000000081111561010757600080fd5b82018360208201111561011957600080fd5b8035906020019184600183028401116401000000008311171561013b57600080fd5b91908080601f016020809104026020016040519081016040528093929190818152602001838380828437600081840152601f19601f820116905080830192505050505050509192919290803573ffffffffffffffffffffffffffffffffffffffff1690602001909291905050506101c7565b005b60006020528060005260406000206000915090505481565b6000809050606060006002601960f81b600060f81b30876000808a73ffffffffffffffffffffffffffffffffffffffff1673ffffffffffffffffffffffffffffffffffffffff168152602001908152602001600020548b8b60405160200180887effffffffffffffffffffffffffffffffffffffffffffffffffffffffffffff19167effffffffffffffffffffffffffffffffffffffffffffffffffffffffffffff19168152600101877effffffffffffffffffffffffffffffffffffffffffffffffffffffffffffff19167effffffffffffffffffffffffffffffffffffffffffffffffffffffffffffff191681526001018673ffffffffffffffffffffffffffffffffffffffff1673ffffffffffffffffffffffffffffffffffffffff1660601b81526014018573ffffffffffffffffffffffffffffffffffffffff1673ffffffffffffffffffffffffffffffffffffffff1660601b81526014018481526020018373ffffffffffffffffffffffffffffffffffffffff1673ffffffffffffffffffffffffffffffffffffffff1660601b815260140182805190602001908083835b6020831061038e578051825260208201915060208101905060208303925061036b565b6001836020036101000a0380198251168184511680821785525050505050509050019750505050505050506040516020818303038152906040526040518082805190602001908083835b602083106103fb57805182526020820191506020810190506020830392506103d8565b6001836020036101000a038019825116818451168082178552505050505050905001915050602060405180830381855afa15801561043d573d6000803e3d6000fd5b5050506040513d602081101561045257600080fd5b8101908080519060200190929190505050905060006001828b8b8b60405160008152602001604052604051808581526020018460ff1660ff1681526020018381526020018281526020019450505050506020604051602081039080840390855afa1580156104c4573d6000803e3d6000fd5b5050506020604051035190508073ffffffffffffffffffffffffffffffffffffffff168573ffffffffffffffffffffffffffffffffffffffff161461050857600080fd5b6000808673ffffffffffffffffffffffffffffffffffffffff1673ffffffffffffffffffffffffffffffffffffffff168152602001908152602001600020600081548092919060010191905055508673ffffffffffffffffffffffffffffffffffffffff16866040518082805190602001908083835b602083106105a1578051825260208201915060208101905060208303925061057e565b6001836020036101000a0380198251168184511680821785525050505050509050019150506000604051808303816000865af19150503d8060008114610603576040519150601f19603f3d011682016040523d82523d6000602084013e610608565b606091505b5080945081955050508361061b57600080fd5b5050505050505050505056fea2646970667358221220c0b622ecfb14ecee91f817a509d1d618a76f29e15fb443a686f60b92b62090e964736f6c63430006040033",
  "source": "pragma solidity 0.6.4;\n\n//uPort https://github.com/uport-project/uport-identity/blob/develop/contracts/TxRelay.sol\ncontract TxRelay {\n\n    // Note:  local nonce.\n    mapping(address => uint) public nonce;\n\n    //  debug purpose\n    event Log(address from, string message);\n\n    /*\n     * @dev Relays meta transactions\n     * @param sigV, sigR, sigS ECDSA signature on some data to be forwarded\n     * @param destination Location the meta-tx should be forwarded to\n     * @param data The bytes necessary to call the function in the destination contract.\n     * @param sender address of sender who originally signed data\n     */\n    function relayMetaTx(\n        uint8 sigV,\n        bytes32 sigR,\n        bytes32 sigS,\n        address destination,\n        bytes memory data,\n        address sender\n    ) public {\n        bool success = false;\n        bytes memory returnData;\n\n        // use EIP 191\n        // 0x19 :: version :: relay :: sender :: nonce :: destination :: data\n        bytes32 h = sha256(abi.encodePacked(byte(0x19), byte(0), this, sender, nonce[sender], destination, data));\n        address addressFromSig = ecrecover(h, sigV, sigR, sigS);\n\n        // address recovered from signature must match with claimed sender\n        require(sender == addressFromSig);\n\n        //if we are going to do tx, update nonce\n        nonce[sender]++;\n\n        // invoke method on behalf of sender\n        //require(destination.call(data));\n        (success,  returnData) = destination.call(data);\n        require(success);\n    }\n\n}",
  "sourcePath": "/home/manzik/esatya/cash-aid/contracts/TxRelay.sol",
  "compiler": {
    "name": "solc",
    "version": "0.6.4+commit.1dca32f3.Emscripten.clang"
  },
  "schemaVersion": "3.1.0",
  "updatedAt": "2020-07-09T04:28:57.704Z",
  "devdoc": {
    "methods": {}
  },
  "userdoc": {
    "methods": {}
  }
}